:020000040802F0
:1000000030FC01206D0402080D9D05080F9D0508B8
:10001000139D0508179D05081B9D0508000000009D
:100020000000000000000000000000003D03020886
:100030001F9D050800000000F5030208590402088E
:10004000870402088704020887040208870402085C
:10005000870402088704020887040208870402084C
:10006000B973050887040208870402088704020898
:10007000870402088704020887040208870402082C
:10008000870402088704020887040208870402081C
:100090008704020887040208870402082D740508F3
:1000A00087040208870402088704020887040208FC
:1000B000870402089F710508870402088704020864
:1000C00087040208870402088704020887040208DC
:1000D00087040208870402088704020887040208CC
:1000E00087040208870402088704020887040208BC
:1000F00087040208870402088704020887040208AC
:1001000087040208219D0508870402088704020865
:10011000870402088704020887040208870402088B
:10012000870402088704020887040208870402087B
:10013000870402088704020887040208870402086B
:10014000870402088704020887040208870402085B
:10015000870402088704020887040208870402084B
:100160008704020887040208659D05085B9D050851
:10017000299D0508519D0508870402088704020887
:10018000870402088704020800F002F800F081F8F2
:100190000AA090E8000C82448344AAF10107DA45E2
:1001A00001D100F076F8AFF2090EBAE80F0013F0B3
:1001B000010F18BFFB1A43F001031847684F0500F1
:1001C000884F050010F8013B0A4413F0030408BFF0
:1001D00010F8014B1D1108BF10F8015B641E05D01B
:1001E00010F8016B641E01F8016BF9D1002D15D0D8
:1001F00010F8014B03F00C030C2BA1EB04040ABF15
:1002000010F8013BA4EB8314A4EB032405F10103D4
:1002100014F8016B5B1E01F8016BF9D5914238BFF0
:1002200010F8013BD1D3704700230024002500269D
:10023000103A28BF78C1FBD8520728BF30C148BF49
:100240000B607047662913F0A8A5642909F076A40D
:1002500073290AF073A3002070471FB553F093FD74
:100260009DE803004AF034FC4AF013FC040000202F
:10027000002153F07BFA401C60600020002153F005
:100280005FFAE0604AF070FF1FBD10B54AF0E4FF6E
:1002900010BD4BF053F81146FFF7DFFF0FB400F02D
:1002A0000BF80FBC36F0E3FB49F0C8FE03B4FFF7D0
:1002B000ECFF03BC4BF03CF804B051F067FD044880
:1002C000002151F0FDFD51F073FD49F0B7FE000033
:1002D000B44A070880F309887047EFF30980704734
:1002E000684680F3098804480078C00714BF0220DC
:1002F000032080F314887047744A0708DFF818C099
:10030000EFF305831B0618BF6047EFF31483DB0789
:1003100008BF604700DF704797230708DFF818C061
:10032000EFF305831B0618BF6047EFF31483DB0769
:1003300008BF604700DF70477D250708EFF309809D
:10034000816911F8021CE1BB90E80F1010B5E0477D
:10035000BDE81040EFF3098C8CE80700214B93E8CF
:100360000600914208BF704741B91EF0100F16D128
:100370001D49086820F00100086010E01EF0100F11
:1003800006BF2CED108A0120002081F825002CE901
:10039000F00FC1F828C00CB452F0FAFC0CBC1A6083
:1003A000D2F828C0BCE8F00F92F8250000280EBF54
:1003B0006FF0020E6FF0120EBCEC108A8CF30988FD
:1003C000704710B5094A1268914209D8084C54F890
:1003D000214090E80F10A047EFF3098C8CE80F0044
:1003E00010BD00002416002034EF00E020BF0608F6
:1003F00020BF060810B552F08FFBBDE81040154B2A
:1004000093E80600914208BF7047EFF3098C1EF095
:10041000100F06BF2CED108A0120002081F8250066
:100420002CE9F00FC1F828C00CB452F0B1FC0CBCA0
:100430001A60D2F828C0BCE8F00F92F82500002816
:100440000EBF6FF0020E6FF0120EBCEC108A8CF330
:10045000098870472416002010B552F061FDCCE7E2
:1004600010B551F07FFD52F05BFDC6E709488047AB
:1004700009480047FEE7FEE7FEE7FEE7FEE7FEE786
:10048000FEE7FEE7FEE7FEE704480549054A064B9E
:1004900070470000890502088901020830E5012043
:1004A00030FC012030ED012030ED01200CB50020A2
:1004B000019000907548006840F4803073490860EE
:1004C00000BF7248006800F4003000900198401CA2
:1004D0000190009818B90198B0F5A06FF1D16B4860
:1004E000006800F4003010B10120009001E000200D
:1004F00000900098012846D164484030006840F0E0
:1005000080506249403108606148006840F4804092
:100510005F4908605D48083000685C490831086040
:100520000846006840F4004008600846006840F44F
:10053000A05008605748091F0860081F006840F075
:100540008070091F086000BF5048006800F000700C
:100550000028F9D040F205604F4908604B48083048
:10056000006820F003004949083108600846006827
:1005700040F00200086000BF44480830006800F006
:100580000C000828F8D10CBD10B54448006840F4B0
:100590007000424908603D48006840F001003B4956
:1005A00008600020394908310860384800683C4933
:1005B0000840364908603B48091D0860081F00686C
:1005C00020F48020091F0860002030490C310860A9
:1005D000FFF76CFF344831498039086010BD70B5B1
:1005E00000200022022300240221284D08352D6816
:1005F00005F00C0020B1042806D0082834D107E00B
:100600002A4D2B4E356033E02A4D294E35602FE0C0
:100610001E4D2D1D2D68C5F380541C4D2D1D2D68BC
:1006200005F03F0154B1234DB5FBF1F5174E361DD2
:100630003668C6F3881605FB06F209E01B4DB5FBCC
:10064000F1F5124E361D3668C6F3881605FB06F224
:100650000E4D2D1D2D68C5F301456D1C6B00B2FBC1
:10066000F3F5134E356003E0104D114E356000BFB9
:1006700000BF064D08352D68C5F303150E4E705D9D
:100680000B4D2D68C5400A4E356070BD00380240E4
:100690000070004019544007003C024088ED00E023
:1006A000FFFFF6FE10300024000002080024F400D2
:1006B0000000002040787D01040000202DE9FE4F5D
:1006C0008046894615461E46DDE90DA70C9C33463B
:1006D0002A4649464046CDE901A700942AF074FE17
:1006E000052039F0A0FC3B46B722314628463BF0B6
:1006F00049FAA078C01CC3B22246812140463CF092
:10070000EEF8BDE8FE8F2DE9FE4F8046894615467E
:100710001E46DDE90DA70C9C33462A464946404655
:10072000CDE901A700942BF027FD2F202070012098
:1007300060703B46B722314628463BF023FAA0784A
:10074000C01CC3B22246812140463CF0C8F8BDE837
:10075000FE8F70B504AC70CC70BD2DE9FE4F8146A4
:100760008A4615461E46DDE90D780C9C3B46B722AD
:10077000314628463BF006FA0F2039F054FC334648
:100780002A46514648468DE890012BF08FFE2F20D7
:100790002070032060704346B722314628463BF064
:1007A000F1F9A078C01CC3B22246812148463CF032
:1007B00096F8BDE8FE8F70B504AC70CC70BD2DE925
:1007C000F04F87B081468B4615461E46DDE9117A0B
:1007D000109CFCA003C8CDE90501FCA103C9CDE92B
:1007E00003013B46B722314628463BF0CBF90F20A8
:1007F00039F019FC01208DF8040010208DF8050057
:10080000002301AA314628463BF07CFA01208DF8EE
:10081000040028208DF80500002301AA314628464F
:100820003BF070FA002305AA314628463BF06AFAED
:1008300002208DF80400C2208DF8050054208DF8A8
:100840000600002301AA314628463BF05BFA03204C
:100850008DF80400B1208DF8050001208DF8060008
:10086000C1208DF80700002301AA314628463BF03D
:1008700049FA02208DF804006F208DF80500092048
:100880008DF80600002301AA314628463BF03AFACB
:1008900005208DF80400B1208DF80500F0208DF8BA
:1008A000060047208DF8070013208DF8080000206F
:1008B0008DF80900002301AA314628463BF022FAB0
:1008C000002303AA314628463BF01CFA01208DF88C
:1008D000040011208DF80500002301AA31462846A6
:1008E0003BF010FA962039F09EFB01208DF80400B1
:1008F00029208DF80500002301AA314628463BF047
:1009000001FA782039F08FFB002305AA31462846EA
:100910003BF0F8F902208DF804006F208DF80500F7
:1009200002208DF80600002301AA314628463BF03C
:10093000E9F947F08003B722314628463BF022F917
:100940000123BC22314628463BF01CF90223C12278
:10095000314628463BF016F901208DF80400C220EC
:100960008DF80500002301AA314628463BF0CAF95C
:10097000062039F058FBFF22314628463BF08AFB1F
:10098000804684F804804FEA28206071052039F001
:100990004AFB2F202070042060705346B722314656
:1009A00028463BF0EFF8A078C01CC3B22246812154
:1009B00048463BF094FF07B0BDE8F08F2DE9FE4FAD
:1009C00081468A4615461E46DDE90D780C9C3B465D
:1009D000B722314628463BF0D5F80F2039F023FBEB
:1009E00033462A46514648468DE890012BF05FF881
:1009F0002F20207005206070002020714346B72210
:100A0000314628463BF0BEF8A078C01CC3B222464F
:100A1000812148463BF063FFBDE8FE8F70B504AC12
:100A200070CC70BD2DE9FC4707468A4615461E4628
:100A3000DDE90B890A9C4346B722314628463BF044
:100A4000A1F80F2039F0EFFA06208DF80000F02011
:100A50008DF8010055208DF80200AA208DF80300C2
:100A600052208DF8040008208DF8050004208DF830
:100A7000060000236A46314628463BF043F905202C
:100A800039F0D1FA06208DF80000D0208DF8010051
:100A900000208DF802007F208DF8030000208DF8E3
:100AA00004008DF8050084208DF8060000236A46B6
:100AB000314628463BF026F9052039F0B4FA2F20BC
:100AC0002070072060704B46B722314628463BF025
:100AD00059F8A078C01CC3B22246812138463BF0A9
:100AE000FEFEBDE8FC872DE9FC4707468A46154611
:100AF0001E46DDE90B890A9C4346B722314628464B
:100B00003BF040F80F2039F08EFA06208DF80000F7
:100B1000F0208DF8010055208DF80200AA208DF8F4
:100B2000030052208DF8040008208DF805000420F1
:100B30008DF8060000236A46314628463BF0E2F86D
:100B4000052039F070FA06208DF80000D0208DF8CD
:100B5000010000208DF802007F208DF803000020A6
:100B60008DF804008DF805008DF8060000236A4614
:100B7000314628463BF0C6F8052039F054FA2F20BC
:100B80002070082060704B46B722314628463AF064
:100B9000F9FFA078C01CC3B22246812138463BF041
:100BA0009EFEBDE8FC872DE9FE4F0646894692462B
:100BB0001F46DDE90C840E9D064840780B2877D24D
:100BC0000AE0000006F055AA5208040006D0007F93
:100BD00000008400790A0120DFE800F06A06111C99
:100BE00027323D48536A5E0033488DE83100334870
:100BF000027B3B4681213046FFF785FD59E02E48B8
:100C00008DE831002D48027B3B4681213046FFF7BD
:100C1000A0FD4EE028488DE831002848027B3B4685
:100C200081213046FFF799FD43E023488DE83100EC
:100C30002248027B3B4681213046FFF7C0FD38E069
:100C40001D488DE831001D48027B3B46812130461E
:100C5000FFF7B4FE2DE018488DE831001748027BFD
:100C60003B4681213046FFF729FD22E012488DE8FE
:100C700031001248027B3B4681213046FFF7D2FE0D
:100C800017E00D488DE831000C48027B3B4681217E
:100C90003046FFF728FF0CE007488DE83100074891
:100CA000027B3B4681213046FFF785FD01E0FFE7EF
:100CB00000BF00BFBDE8FE8F790A0120203D002063
:100CC0002DE9F04F91B081468B4616461D46DDE971
:100CD0001B7A1A9C4FF000083422F3A103A849F0B4
:100CE00057FAFEA103C9CDE901013B46B7222946C7
:100CF00030463AF047FF052039F095F902208DF88B
:100D00004000B0208DF8410000208DF84200002303
:100D100010AA294630463AF0F5FF022039F083F94F
:100D2000002303AA294630463AF0ECFF022039F0AE
:100D30007AF9002301AA294630463AF0E3FF02205F
:100D400039F071F9F2208DF8410009208DF8420048
:100D5000002310AA294630463AF0D4FF0F2039F07C
:100D600062F947F08003B722294630463AF00AFF7D
:100D70000323C122294630463AF004FF0123C02252
:100D8000294630463AF0FEFE01208DF84000F4205E
:100D90008DF84100002310AA294630463AF0B2FFF0
:100DA000052039F040F9FA23D422294630463AF09A
:100DB000E9FEFF22294630463AF0D2FE0020C9491A
:100DC00008601FE0FA22294630463AF0C9FE28465C
:100DD0003AF068FA80464FEA2821C2480068001DB0
:100DE0002154C0480068401D04F80080052039F0F7
:100DF0001AF9BC480068401CBA49086008460068F7
:100E0000401C0860B74800680328DBD33020E0713D
:100E1000052039F008F95346B722294630463AF002
:100E2000B1FEA078C01CC3B22246812148463BF0E7
:100E300056FD11B0BDE8F08F2DE9F04707468A4610
:100E400015461E46DDE90989089C4346B72231460E
:100E500028463AF097FE0F2039F0E5F83246294649
:100E6000384611F06BFE2F202070012060704B4639
:100E7000B722314628463AF085FEA078C01CC3B29E
:100E80002246812138463BF02AFDBDE8F08770B547
:100E900004AC70CC70BD70B504AC70CC70BD70B5D6
:100EA00004AC70CC70BD2DE9F84F82468B461646D7
:100EB0001D46DDE90B780A9C4FF000093B46B7223E
:100EC000294630463AF05EFE0F2039F0ACF848F47F
:100ED00082604FF6FD7100EA0103B72229463046D1
:100EE0003AF050FE052039F09EF802208DF80000FF
:100EF000B0208DF8010004208DF8020000236A461E
:100F0000294630463AF0FEFE022039F08CF847F0D0
:100F10008003B722294630463AF034FE0823C12226
:100F2000294630463AF02EFE0123C022294630469B
:100F30003AF028FE01208DF80000E7208DF801002E
:100F400000236A46294630463AF0DCFE052039F097
:100F50006AF8FA23D422294630463AF013FEFF22DB
:100F6000294630463AF0FCFD00205E4908601FE04B
:100F7000FA22294630463AF0F3FD28463AF092F933
:100F800081464FEA292157480068001D21545548E1
:100F90000068401D04F80090052039F044F85148DD
:100FA0000068401C4F49086008460068401C086003
:100FB0004C4800680828DBD3607A2071A07A607101
:100FC0003020E071052039F02EF82F202070042009
:100FD00060704346B722294630463AF0D3FDA078E8
:100FE000C01CC3B22246812150463BF078FCBDE8CC
:100FF000F88F2DE9F04707468A4615461E46DDE97B
:101000000989089C4346B722314628463AF0BAFD82
:101010000F2039F008F832462946384612F030FAE7
:101020002F20207005206070002020714B46B722D1
:10103000314628463AF0A6FDA078C01CC3B222462D
:10104000812138463BF04BFCBDE8F08770B504AC1D
:1010500070CC70BD2DE9FC4707468A4615461E46F2
:10106000DDE90B890A9C4346B722314628463AF00F
:1010700089FD0F2038F0D7FF02208DF80000B02046
:101080008DF8010080208DF8020000236A46314669
:1010900028463AF037FED4208DF8010093208DF8D1
:1010A000020000236A461FE034DF004058832D050C
:1010B00035150131116B500002000043840010000F
:1010C000DFD40E000013FF8C27170F0055180F00F8
:1010D0001A0F001C0F001E0F0000000006F39F00F7
:1010E0000000020064140020314628463AF00AFE4F
:1010F000052038F098FF2F202070072060704B46A5
:10110000B722314628463AF03DFDA078C01CC3B254
:101110002246812138463BF0E2FBBDE8FC872DE901
:10112000FC4707468A4615461E46DDE90B890A9CA0
:101130004346B722314628463AF024FD0F2038F0C6
:1011400072FF02208DF80000B0208DF80100802091
:101150008DF8020000236A46314628463AF0D2FD57
:10116000D4208DF8010090208DF8020000236A46FB
:10117000314628463AF0C6FD052038F054FF2F20AE
:101180002070082060704B46B722314628463AF05E
:10119000F9FCA078C01CC3B22246812138463BF03E
:1011A0009EFBBDE8FC872DE9FE4F06468946924628
:1011B0001F46DDE90C840E9D394840780B286AD221
:1011C000DFE800F06906111C27323D4853695E00D4
:1011D00033488DE831003348027B3B46812130465D
:1011E000FFF72AFE58E02E488DE831002D48027B9B
:1011F0003B4681213046FFF74AFE4DE028488DE806
:1012000031002848027B3B4681213046FFF743FEF0
:1012100042E023488DE831002248027B3B46812191
:101220003046FFF740FE37E01D488DE831001D488D
:10123000027B3B4681213046FFF7DBFE2CE018485D
:101240008DE831001748027B3B4681213046FFF78D
:1012500037FD21E012488DE831001248027B3B4601
:1012600081213046FFF7F6FE16E00D488DE831008B
:101270000C48027B3B4681213046FFF750FF0BE0D4
:1012800007488DE831000748027B3B468121304604
:10129000FFF705FE00E000BF00BFBDE8FE8F0000C5
:1012A000790A0120203D00202DE9F04F87B08146CA
:1012B0008B4616461D46DDE9117A109C4FF000085A
:1012C000FEA103C9CDE90401FEA207CACDE90212BD
:1012D00001903B46B722294630463AF053FC0520A0
:1012E00038F0A1FE02208DF81800B0208DF819000A
:1012F00000208DF81A00002306AA294630463AF04D
:1013000001FD022038F08FFE002304AA2946304652
:101310003AF0F8FC022038F086FE002301AA2946A4
:1013200030463AF0EFFC022038F07DFEF2208DF8D6
:10133000190009208DF81A00002306AA2946304614
:101340003AF0E0FC0F2038F06EFE47F08003B72241
:10135000294630463AF016FC0323C122294630467E
:101360003AF010FC0123C022294630463AF00AFC2C
:1013700001208DF81800F4208DF81900002306AA2A
:10138000294630463AF0BEFC052038F04CFEFA23E0
:10139000D422294630463AF0F5FBFF222946304652
:1013A0003AF0DEFB0020CA4908601FE0FA22294615
:1013B00030463AF0D5FB284639F074FF80464FEAB4
:1013C0002821C3480068001D2154C1480068401D01
:1013D00004F80080052038F026FEBD480068401C57
:1013E000BB49086008460068401C0860B8480068AF
:1013F0000328DBD33020E071052038F014FE53467B
:10140000B722294630463AF0BDFBA078C01CC3B2D3
:101410002246812148463BF062FA07B0BDE8F08FD2
:101420002DE9F04707468A4615461E46DDE909893B
:10143000089C4346B722314628463AF0A3FB0F20CA
:1014400038F0F1FD32462946384611F077FB2F205F
:101450002070012060704B46B722314628463AF092
:1014600091FBA078C01CC3B22246812138463BF0D4
:1014700036FABDE8F08770B504AC70CC70BD70B5BD
:1014800004AC70CC70BD70B504AC70CC70BD2DE9EF
:10149000F84F82468B4616461D46DDE90B780A9CBE
:1014A0004FF000093B46B722294630463AF06AFB26
:1014B0000F2038F0B8FD48F482604FF6FD7100EA65
:1014C0000103B722294630463AF05CFB052038F08C
:1014D000AAFD02208DF80000B0208DF80100042044
:1014E0008DF8020000236A46294630463AF00AFC8D
:1014F000022038F098FD47F08003B7222946304695
:101500003AF040FB0823C122294630463AF03AFB24
:101510000123C022294630463AF034FB01208DF8E1
:101520000000E7208DF8010000236A462946304676
:101530003AF0E8FB052038F076FDFA23D42229465C
:1015400030463AF01FFBFF22294630463AF008FBAE
:1015500000205F4908601FE0FA22294630463AF031
:10156000FFFA284639F09EFE81464FEA2921584865
:101570000068001D215456480068401D04F8009082
:10158000052038F050FD52480068401C5049086062
:1015900008460068401C08604D4800680828DBD3F6
:1015A000607A2071A07A60713020E071052038F0F7
:1015B0003AFD2F202070042060704346B722294650
:1015C00030463AF0DFFAA078C01CC3B2224681212F
:1015D00050463BF084F9BDE8F88F2DE9F047074607
:1015E0008A4615461E46DDE90989089C4346B7220E
:1015F000314628463AF0C6FA0F2038F014FD32463C
:101600002946384612F0BFF83020E071052060709E
:10161000002020714B46B722314628463AF0B2FAF4
:10162000A078C01CC3B22246812138463BF057F94E
:10163000BDE8F08770B504AC70CC70BD2DE9FC47F7
:1016400007468A4615461E46DDE90B890A9C434635
:10165000B722314628463AF095FA0F2038F0E3FCDD
:1016600002208DF80000B0208DF8010080208DF858
:10167000020000236A46314628463AF043FBD42054
:101680008DF8010093208DF8020000236A46314650
:1016900028463AF037FB052038F0C5FC2F20207093
:1016A000072060704B46B722314628463AF06AFA66
:1016B000A078C01CC3B2224681210BE005DF5F0089
:1016C0005A00000009F39F0000000200F40000002F
:1016D0006414002038463BF002F9BDE8FC872DE990
:1016E000FC4707468A4615461E46DDE90B890A9CDB
:1016F0004346B722314628463AF044FA0F2038F0E4
:1017000092FC02208DF80000B0208DF801008020AE
:101710008DF8020000236A46314628463AF0F2FA74
:10172000D4208DF8010090208DF8020000236A4635
:10173000314628463AF0E6FA052038F074FC2F20AE
:101740002070082060704B46B722314628463AF098
:1017500019FAA078C01CC3B22246812138463BF05A
:10176000BEF8BDE8FC872DE9FE4F06468946924645
:101770001F46DDE90C840E9D394840780B286AD25B
:10178000DFE800F06906111C27323D4853695E000E
:1017900033488DE831003348027B3B468121304697
:1017A000FFF73EFE58E02E488DE831002D48027BC1
:1017B0003B4681213046FFF75EFE4DE028488DE82C
:1017C00031002848027B3B4681213046FFF757FE17
:1017D00042E023488DE831002248027B3B468121CC
:1017E0003046FFF754FE37E01D488DE831001D48B4
:1017F000027B3B4681213046FFF7EFFE2CE0184884
:101800008DE831001748027B3B4681213046FFF7C7
:101810004BFD21E012488DE831001248027B3B4627
:1018200081213046FFF70AFF16E00D488DE83100B0
:101830000C48027B3B4681213046FFF750FF0BE00E
:1018400007488DE831000748027B3B46812130463E
:10185000FFF719FE00E000BF00BFBDE8FE8F0000EB
:10186000790A0120203D00202DE9F0478CB0074681
:101870008A4615461E46DDE91589149C2822FE4934
:1018800002A848F085FC4346B722314628463AF084
:1018900079F90F2038F0C7FB0020F849086021E0F3
:1018A00002208DF8040002A8F4490968405C8DF814
:1018B000050002A9F1480068401C085C8DF806008C
:1018C000002301AA314628463AF01CFA0F2038F0CE
:1018D000AAFBEA480068401CE8490860084600681E
:1018E000401C0860E54800682828D9D32F202070C4
:1018F000012060704B46B722314628463AF042F943
:10190000A078C01CC3B22246812138463AF0E7FFD6
:101910000CB0BDE8F08770B504AC70CC70BD2DE99B
:10192000F04786B080468A4615461E46DDE90F79A7
:101930000E9CD3A30FCBCDE90323CDE901013B4698
:10194000B722314628463AF01DF90F2038F06BFBDC
:101950000020CA49086021E002208DF8140001A887
:10196000C6490968405C8DF8150001A9C3480068A4
:10197000401C085C8DF81600002305AA3146284655
:101980003AF0C0F90F2038F04EFBBC480068401C0C
:10199000BA49086008460068401C0860B7480068FB
:1019A0000E28D9D34FF4FA7038F03DFB47F080038E
:1019B000B722314628463AF0E5F80123BC223146E9
:1019C00028463AF0DFF80223C122314628463AF091
:1019D000D9F800BF01208DF81400DB208DF8150028
:1019E000002305AA314628463AF08CF9062038F043
:1019F0001AFBFF22314628463AF04CFB2071642046
:101A000038F011FB207900F080008028E2D1052019
:101A100038F009FB2F202070032060708020207197
:101A20004B46B722314628463AF0ACF8A078C01CA5
:101A3000C3B22246812140463AF051FF06B0BDE8CC
:101A4000F08770B504AC70CC70BD2DE9F0478CB058
:101A500080468A4615461E46DDE91579149C8CA001
:101A600000680A9024228BA101A848F091FB3B4614
:101A7000B722314628463AF085F80F2038F0D3FADD
:101A800000207E49086021E002208DF82C0001A88A
:101A90007A490968405C8DF82D0001A977480068F3
:101AA000401C085C8DF82E0000230BAA3146284606
:101AB0003AF028F9052038F0B6FA70480068401C62
:101AC0006E49086008460068401C08606B48006862
:101AD0002428D9D34FF4FA7038F0A5FA47F08003E0
:101AE000B722314628463AF04DF80123BC22314650
:101AF00028463AF047F800206049086026E00123B4
:101B0000C122314628463AF03DF801208DF82C00DC
:101B10000AA85A490968405C8DF82D0000230BAAD9
:101B2000314628463AF0EEF8062038F07CFAFF22DB
:101B3000314628463AF0AEFAC1B250480068001D5E
:101B400021544E480068401C4C4908604B480068CE
:101B50000228D4D3052038F066FA2F202070042004
:101B600060704B46B722314628463AF00BF8A07811
:101B7000C01CC3B22246812140463AF0B0FE0CB0F0
:101B8000BDE8F0872DE9FE4F80468B4615461E4680
:101B9000DDE90D790C9C48A003C8CDE901014FF0A7
:101BA000DB0A3B46B7223146284639F0EBFF0F20CF
:101BB00038F039FA00203149086021E002208DF820
:101BC000000001A82D490968405C8DF8010001A9B9
:101BD0002A480068401C085C8DF8020000236A4611
:101BE000314628463AF08EF8052038F01CFA234892
:101BF0000068401C2149086008460068401C0860D5
:101C00001E4800680828D9D347F08003B722314620
:101C1000284639F0B7FF0123BC223146284639F067
:101C2000B1FF0223C1223146284639F0ABFF00BF85
:101C300001208DF800008DF801A000236A4631468E
:101C400028463AF05FF8062038F0EDF9FF223146D9
:101C500028463AF01FFA2071207900F08000802891
:101C6000E6D1052038F0DFF92F20207005206070C4
:101C7000802020714B4623E0A03D0708641400201B
:101C8000FE261B00F204150016001700F2100000DB
:101C9000E6E70000FE400E406088AC38AD44AE3848
:101CA000FEA00B11FED05853078D42815558FED22D
:101CB0006E20FE405B015E40FE261B00F204F30135
:101CC000B7223146284639F05DFFA078C01CC3B268
:101CD0002246812140463AF002FEBDE8FE8F70B5F3
:101CE00004AC70CC70BD2DE9F0478CB080468A46BC
:101CF00015461E46DDE91579149C2422DDA102A8B3
:101D000048F046FAE4A0006801903B46B72231460D
:101D1000284639F037FF0F2038F085F93B46B722C7
:101D20003146284639F02EFF0F2038F07CF900208C
:101D3000DA49086021E002208DF82C0002A8D7497A
:101D40000968405C8DF82D0002A9D4480068401C49
:101D5000085C8DF82E0000230BAA3146284639F086
:101D6000D1FF052038F05FF9CC480068401CCB4912
:101D7000086008460068401C0860C84800682228BF
:101D8000D9D347F08003B7223146284639F0FAFE0E
:101D90000123BC223146284639F0F4FE0020BF4919
:101DA000086026E00123C1223146284639F0EAFEC8
:101DB00001208DF82C0001A8B8490968405C8DF815
:101DC0002D0000230BAA3146284639F09BFF062040
:101DD00038F029F9FF22314628463AF05BF9C1B2C2
:101DE000AE480068001D2154AC480068401CAB4957
:101DF0000860AA4800680328D4D3052038F013F9F6
:101E00004B46B7223146284639F0BCFEA078C01CAC
:101E1000C3B22246812140463AF061FD0CB0BDE8D4
:101E2000F0872DE9FC4707468A4615461E46DDE940
:101E30000B890A9C9AA0006800904346B72231465D
:101E4000284639F09FFE0F2038F0EDF80020934926
:101E5000086021E002208DF80400904909681DF80F
:101E600001008DF805008D480068401C1DF8000039
:101E70008DF80600002301AA3146284639F042FFBA
:101E8000052038F0D0F885480068401C8349086078
:101E900008460068401C0860804800680428D9D3C0
:101EA000052038F0C0F82F202070072060704B46C6
:101EB000B7223146284639F065FEA078C01CC3B26F
:101EC0002246812138463AF00AFDBDE8FC872DE91B
:101ED000FC4707468A4615461E46DDE90B890A9CE3
:101EE00070A0006800904346B7223146284639F07A
:101EF00049FE0F2038F097F800206849086021E07B
:101F000002208DF80400654909681DF801008DF86C
:101F1000050062480068401C1DF800008DF80600AE
:101F2000002301AA3146284639F0ECFE052038F09E
:101F30007AF85A480068401C58490860084600680A
:101F4000401C0860554800680428D9D3052038F0A3
:101F50006AF82F202070082060704B46B722314667
:101F6000284639F00FFEA078C01CC3B2224681215A
:101F700038463AF0B4FCBDE8FC872DE9FE4F064632
:101F8000894692461F46DDE90C840E9D46484078FE
:101F90000B286AD2DFE800F06906111C27323D48A1
:101FA00053695E0040488DE831004048027B3B4663
:101FB00081213046FFF758FC58E03B488DE831005E
:101FC0003A48027B3B4681213046FFF7A4FC4DE0B6
:101FD00035488DE831003548027B3B46812130464B
:101FE000FFF79DFC42E030488DE831002F48027B2E
:101FF0003B4681213046FFF728FD37E02A488DE82F
:1020000031002A48027B3B4681213046FFF7BAFD6A
:102010002CE025488DE831002448027B3B46812195
:102020003046FFF760FE21E01F488DE831001F4871
:10203000027B3B4681213046FFF7F3FE16E01A484B
:102040008DE831001948027B3B4681213046FFF77D
:102050003EFF0BE014488DE831001448027B3B46FC
:1020600081213046FFF7EDFC00E000BF00BFBDE876
:10207000FE8F0000FE2604CF104B14221E31FE20DE
:102080005F010913FE9064209B00FE260784F30283
:10209000181F19731A3D0000EAEBEC0064140020CD
:1020A000FE227700FE227704790A0120203D0020DD
:1020B0002DE9F0478AB080468A4615461E46DDE97E
:1020C0001379129C1C22F9A102A848F061F8FEA025
:1020D000006801903B46B7223146284639F052FD50
:1020E0000F2037F0A0FF0020F849086021E002200F
:1020F0008DF8240002A8F5490968405C8DF8250098
:1021000002A9F2480068401C085C8DF826000023F4
:1021100009AA3146284639F0F5FD052037F083FF3E
:10212000EA480068401CE949086008460068401C0D
:102130000860E64800681A28D9D347F08003B72220
:102140003146284639F01EFD0123BC22314628467F
:1021500039F018FD0020DD49086026E00123C12286
:102160003146284639F00EFD01208DF8240001A8E3
:10217000D6490968405C8DF82500002309AA31463C
:10218000284639F0BFFD062037F04DFFFF223146CB
:10219000284639F07FFFC1B2CC480068001D2154A9
:1021A000CA480068401CC9490860C848006803283C
:1021B000D4D32F202070062060704B46B7223146C2
:1021C000284639F0DFFCA078C01CC3B2224681212A
:1021D00040463AF084FB0AB0BDE8F0872DE9F047AD
:1021E00088B007468A4615461E46DDE91189109CCF
:1021F0001C22B7A1684647F0CBFF4346B7223146C1
:10220000284639F0BFFC0F2037F00DFF0020AF4902
:10221000086021E002208DF81C00AC4909681DF817
:1022200001008DF81D00A9480068401C1DF8000041
:102230008DF81E00002307AA3146284639F062FDBA
:102240000F2037F0F0FEA1480068401C9F4908604D
:1022500008460068401C08609C4800681C28D9D3C8
:102260002F202070012060704B46B722314628464F
:1022700039F088FCA078C01CC3B2224681213846C0
:102280003AF02DFB08B0BDE8F08770B504AC70CC17
:1022900070BD2DE9F04786B080468A4615461E4639
:1022A000DDE90F790E9C91A30FCBCDE90323CDE996
:1022B00001013B46B7223146284639F063FC0F2026
:1022C00037F0B1FE00208149086021E002208DF83E
:1022D000140001A87D490968405C8DF8150001A92A
:1022E0007A480068401C085C8DF81600002305AA97
:1022F0003146284639F006FD0F2037F094FE73482A
:102300000068401C7149086008460068401C08606D
:102310006E4800680E28D9D34FF4FA7037F083FE68
:1023200047F08003B7223146284639F02BFC0123C1
:10233000BC223146284639F025FC0223C122314611
:10234000284639F01FFC00BF01208DF81400DB2067
:102350008DF81500002305AA3146284639F0D2FC35
:10236000062037F060FEFF223146284639F092FE03
:102370002071642037F057FE207900F0800080281B
:10238000E2D1052037F04FFE2F202070032060702F
:10239000802020714B46B7223146284639F0F2FBA7
:1023A000A078C01CC3B22246812140463AF097FA79
:1023B00006B0BDE8F08770B504AC70CC70BD2DE9F7
:1023C000F04786B080468A4615461E46DDE90F79FD
:1023D0000E9C4AA00068049049A207CACDE90212E7
:1023E00001903B46B7223146284639F0CBFB0F20FF
:1023F00037F019FE00203549086021E002208DF8F1
:10240000140001A831490968405C8DF8150001A944
:102410002E480068401C085C8DF81600002305AAB1
:102420003146284639F06EFC052037F0FCFD274880
:102430000068401C2549086008460068401C086088
:10244000224800680A28D9D34FF4FA7037F0EBFD20
:1024500047F08003B7223146284639F093FB012329
:10246000BC223146284639F08DFB00201749086010
:1024700058E00123C1223146284639F083FB012070
:102480008DF8140004A811490968405C8DF8150006
:10249000002305AA3146284639F034FC062037F0DF
:1024A000C2FDFF223146284630E00000FE2604CF60
:1024B000104B14221E31FE205F010913FE26F30289
:1024C000181319481AF80000EAEBEC006414002015
:1024D000FEA00B11FED05853078D42815558FED2F5
:1024E0006E20FE405B015E400E40FE00FE261B009B
:1024F000F204150016001700F2100000E6E70000D5
:10250000FE26181319481AF4F201000039F0C2FD32
:10251000C1B2EC480068001D2154EA480068401C24
:10252000E8490860E74800680228A2D3052037F090
:102530007AFD2F202070042060704B46B722314670
:10254000284639F01FFBA078C01CC3B22246812167
:1025500040463AF0C4F906B0BDE8F0872DE9FE4FD9
:1025600080468B4615461E46DDE90D790C9CD6A0AB
:1025700003C8CDE900014FF0DB0A3B46B7223146E4
:10258000284639F0FFFA0F2037F04DFD0020CD49E5
:10259000086021E002208DF80800CA4909681DF88A
:1025A00001008DF80900C7480068401C1DF80000B4
:1025B0008DF80A00002302AA3146284639F0A2FB12
:1025C000052037F030FDBF480068401CBD49086059
:1025D00008460068401C0860BA4800680828D9D33B
:1025E00047F08003B7223146284639F0CBFA012361
:1025F000BC223146284639F0C5FA0223C1223146B1
:10260000284639F0BFFA00BF01208DF808008DF888
:1026100009A0002302AA3146284639F073FB0620A0
:1026200037F001FDFF223146284639F033FD207195
:10263000207900F080008028E6D1052037F0F3FCF7
:102640002F20207005206070802020714B46B7221B
:102650003146284639F096FAA078C01CC3B222460B
:10266000812140463AF03BF9BDE8FE8F70B504ACDD
:1026700070CC70BD2DE9FE4F07468A4615461E46B2
:10268000DDE90D890C9C92A0006800904346B722BA
:102690003146284639F076FA0F2037F0C4FC002086
:1026A0008849086021E002208DF804008549096806
:1026B0001DF801008DF8050082480068401C1DF8D7
:1026C00000008DF80600002301AA3146284639F0A3
:1026D00019FB052037F0A7FC7A480068401C7949AF
:1026E000086008460068401C0860764800680428B6
:1026F000D9D3052037F097FC2F2020700720607079
:102700004B46B7223146284639F03CFAA078C01C27
:10271000C3B22246812138463AF0E1F8BDE8FE8F87
:102720002DE9FE4F07468A4615461E46DDE90D890E
:102730000C9C68A0006800904346B72231462846AA
:1027400039F020FA0F2037F06EFC00205D49086058
:1027500021E002208DF804005A4909681DF80100A3
:102760008DF8050057480068401C1DF800008DF8E2
:102770000600002301AA3146284639F0C3FA052095
:1027800037F051FC4F480068401C4E49086008462D
:102790000068401C08604B4800680428D9D3052015
:1027A00037F041FC2F202070082060704B46B72284
:1027B0003146284639F0E6F9A078C01CC3B222465B
:1027C000812138463AF08BF8BDE8FE8F2DE9FE4FA7
:1027D0000646894692461F46DDE90C840E9D3E481A
:1027E00040780B286AD2DFE800F06906111C273216
:1027F0003D4853695E0038488DE831003748027B18
:102800003B4681213046FFF7E9FC58E032488DE82D
:1028100031003248027B3B4681213046FFF735FDCF
:102820004DE02D488DE831002C48027B3B4681214C
:102830003046FFF72EFD42E027488DE8310027485B
:10284000027B3B4681213046FFF7B9FD37E0224845
:102850008DE831002148027B3B4681213046FFF75D
:102860007DFE2CE01C488DE831001C48027B3B4675
:1028700081213046FFF71CFC21E017488DE831002C
:102880001648027B3B4681213046FFF7F3FE16E0F7
:1028900011488DE831001148027B3B4681213046CA
:1028A000FFF73EFF0BE00C488DE831000B48027B40
:1028B0003B4681213046FFF77EFD00E000BF00BFB0
:1028C000BDE8FE8F64140020FE261B00F204F30115
:1028D000FE227700FE227704790A0120203D0020A5
:1028E0002DE9FE4F80468A4615461E46DDE90D79E4
:1028F0000C9CFEA000680190FDA0006800903B4683
:10290000B7223146284639F03DF90F2037F08BFBCE
:102910000020F849086021E002208DF8080001A895
:10292000F4490968405C8DF8090001A9F148006884
:10293000401C085C8DF80A00002302AA3146284694
:1029400039F0E0F9052037F06EFBEA480068401CDA
:10295000E849086008460068401C0860E5480068CF
:102960000428D9D347F08003B7223146284639F0EE
:1029700009F90123BC223146284639F003F9002029
:10298000DC49086026E00123C1223146284639F09F
:10299000F9F801208DF80800D64909681DF80100F2
:1029A0008DF80900002302AA3146284639F0AAF919
:1029B000062037F038FBFF223146284639F06AFB03
:1029C000C1B2CC480068001D2154CA480068401CB0
:1029D000C8490860C74800680328D4D3052037F0E9
:1029E00022FB4B46B7223146284639F0CBF8A07877
:1029F000C01CC3B222468121404639F070FFBDE8B9
:102A0000FE8F2DE9F04788B007468A4615461E46D8
:102A1000DDE91189109C1C22B7A1684647F0B8FB7C
:102A20004346B7223146284639F0ACF80F2037F03C
:102A3000FAFA0020AF49086021E002208DF81C005E
:102A4000AC4909681DF801008DF81D00A94800680F
:102A5000401C1DF800008DF81E00002307AA314617
:102A6000284639F04FF90F2037F0DDFAA148006809
:102A7000401CA049086008460068401C08609D484A
:102A800000681A28D9D32F202070012060704B468F
:102A9000B7223146284639F075F8A078C01CC3B279
:102AA00022468121384639F01AFF08B0BDE8F08788
:102AB0002DE9F04788B007468A4615461E46DDE9EF
:102AC0001189109C182293A101A847F061FB43468D
:102AD000B7223146284639F055F80F2037F0A3FACF
:102AE00000208449086021E002208DF81C0001A824
:102AF00080490968405C8DF81D0001A97D48006887
:102B0000401C085C8DF81E00002307AA31462846A9
:102B100039F0F8F8052037F086FA76480068401C4E
:102B20007449086008460068401C086071480068E5
:102B30001828D9D32F202070022060704B46B7226E
:102B40003146284639F01EF8A078C01CC3B2224690
:102B50008121384639F0C3FE08B0BDE8F0872DE981
:102B6000F04786B080468A4615461E46DDE90F7955
:102B70000E9C14226DA1684647F00AFB3B46B72223
:102B80003146284638F0FEFF0F2037F04CFA6C48EB
:102B90000088B0F5876F0DD16948C088B0F5076F20
:102BA00008D11A208DF80D00B3208DF80F00622097
:102BB0008DF8110000204F49086021E002208DF8B7
:102BC00014004C4909681DF801008DF815004948AA
:102BD0000068401C1DF800008DF81600002305AAAF
:102BE0003146284639F08EF8052037F01CFA414866
:102BF0000068401C3F49086008460068401C0860A7
:102C00003C4800681428D9D347F08003B7223146E6
:102C1000284638F0B7FF0123BC223146284638F059
:102C2000B1FF0223C1223146284638F0ABFF00BF76
:102C300001208DF81400E8208DF81500002305AA66
:102C40003146284639F05EF8062037F0ECF9FF22CD
:102C50003146284639F01EFA2071642037F0E3F936
:102C6000207900F080008028E2D1052037F0DBF9E0
:102C70002F20207003206070802020714B46B722E7
:102C80003146284638F07EFFA078C01CC3B22246E9
:102C90008121404639F023FE06B0BDE8F08770B5CB
:102CA00004AC70CC70BD2DE9F04788B080468A46F0
:102CB00015461E46DDE91179109C22A00068069099
:102CC000142221A101A847F063FA3B46B7223146FE
:102CD000284638F057FF0F2037F0A5F9184800882C
:102CE000B0F5876F46D11648C08837E0FE20F30262
:102CF000EAEBEC0064140020FE400E80FE20B100E0
:102D0000FED055300701FE400E50FED042812755BF
:102D1000FE000000FE400E80FE20B100FED05500F7
:102D20000701FE400E50FED042012755FE20F2045E
:102D3000B100AB00AC00AD00AE1AAFB3B062F210A0
:102D4000203D0020E6E70000FE20F204AB00AC00CE
:102D5000AD00AE1AAFB3B062F2010000B0F5076F7C
:102D600008D11A208DF80F00B3208DF811006220D1
:102D70008DF813000020FE49086021E002208DF844
:102D80001C0001A8FA490968405C8DF81D0001A9E2
:102D9000F7480068401C085C8DF81E00002307AA55
:102DA0003146284638F0AEFF052037F03CF9F048B0
:102DB0000068401CEE49086008460068401C086036
:102DC000EB4800681228D9D3C82037F02CF947F017
:102DD0008003B7223146284638F0D4FE0123BC22B6
:102DE0003146284638F0CEFE0020E149086026E052
:102DF0000123C1223146284638F0C4FE01208DF857
:102E00001C0006A8DA490968405C8DF81D00002303
:102E100007AA3146284638F075FF062037F003F937
:102E2000FF223146284639F035F9C1B2D048006852
:102E3000001D2154CE480068401CCD490860CC4894
:102E400000680228D4D3052037F0EDF82F20207039
:102E5000042060704B46B7223146284638F092FE77
:102E6000A078C01CC3B222468121404639F037FD0C
:102E700008B0BDE8F0872DE9FE4F80468B46154629
:102E80001E46DDE90D790C9CBAA003C8CDE900010E
:102E90004FF0E80A3B46B7223146284638F072FE2A
:102EA0000F2037F0C0F80020B149086021E002206F
:102EB0008DF80800AE4909681DF801008DF8090079
:102EC000AB480068401C1DF800008DF80A00002384
:102ED00002AA3146284638F015FF052037F0A3F83E
:102EE000A3480068401CA249086008460068401CCE
:102EF00008609F4800680828D9D347F08003B722AC
:102F00003146284638F03EFE0123BC223146284691
:102F100038F038FE0223C1223146284638F032FE0E
:102F200000BF01208DF808008DF809A0002302AA37
:102F30003146284638F0E6FE062037F074F8FF22C6
:102F40003146284639F0A6F82071207900F080003B
:102F50008028E6D1052037F066F82F202070052064
:102F60006070802020714B46B7223146284638F0E9
:102F700009FEA078C01CC3B222468121404639F028
:102F8000AEFCBDE8FE8F2DE9F04786B007468A46C5
:102F900015461E46DDE90F890E9C142277A168466E
:102FA00047F0F6F84346B7223146284638F0EAFDA6
:102FB0000F2037F038F800206D49086021E002202A
:102FC0008DF814006A4909681DF801008DF8150094
:102FD00067480068401C1DF800008DF816000023AB
:102FE00005AA3146284638F08DFE052037F01BF83B
:102FF0005F480068401C5E49086008460068401C45
:1030000008605B4800681228D9D3052037F00BF818
:103010002F202070092060704B46B7223146284689
:1030200038F0B0FDA078C01CC3B2224681213846DA
:1030300039F055FC06B0BDE8F0872DE9F04786B0C1
:1030400007468A4615461E46DDE90F890E9C50A2AA
:1030500007CACDE9021201904346B72231462846FD
:1030600038F090FD0F2036F0DEFF00204049086068
:1030700021E002208DF8100001A83D490968405C5C
:103080008DF8110001A93A480068401C085C8DF8D1
:103090001200002304AA3146284638F033FE0520EA
:1030A00036F0C1FF32480068401C314908600846CC
:1030B0000068401C08602E4800680A28D9D3052003
:1030C00036F0B1FF2F202070072060704B46B722EA
:1030D0003146284638F056FDA078C01CC3B22246BF
:1030E0008121384639F0FBFB06B0BDE8F0872DE9B9
:1030F000F04786B007468A4615461E46DDE90F8929
:103100000E9C26A207CACDE9021201904346B722BF
:103110003146284638F036FD0F2036F084FF002077
:103120001349086021E002208DF8100001A8104921
:103130000968405C8DF8110001A90D480068401C29
:10314000085C8DF81200002304AA3146284638F0A6
:10315000D9FD052036F067FF05480068401C04498A
:10316000086008460068401C0860014800681BE0D1
:1031700064140020FE20F204B100F301FE002800D8
:103180001000FE40F802F201F3A5F45AF53C0000ED
:10319000FE200910A6C0A7FFBC010000FE200910F8
:1031A000A6C0A7FFBC8100000A28BCD3052036F0CA
:1031B0003AFF2F202070082060704B46B72231461E
:1031C000284638F0DFFCA078C01CC3B2224681211B
:1031D000384639F084FB06B0BDE8F0872DE9FE4F94
:1031E0000646894692461F46DDE90C840E9D394805
:1031F00040780B286AD2DFE800F06906111C2732FC
:103200003D4853695E0033488DE831003248027B07
:103210003B4681213046FFF7F4FB58E02D488DE80E
:1032200031002D48027B3B4681213046FFF740FCB0
:103230004DE028488DE831002748027B3B4681213C
:103240003046FFF78CFC42E022488DE831002248EE
:10325000027B3B4681213046FFF725FD37E01D48C4
:103260008DE831001C48027B3B4681213046FFF748
:1032700002FE2CE017488DE831001748027B3B46E0
:1032800081213046FFF72CFB21E012488DE8310008
:103290001148027B3B4681213046FFF7CEFE16E007
:1032A0000C488DE831000C48027B3B4681213046BA
:1032B000FFF71DFF0BE007488DE831000648027B51
:1032C0003B4681213046FFF7EAFC00E000BF00BF2B
:1032D000BDE8FE8F790A0120203D00202DE9FE4F38
:1032E00080468A4615461E46DDE90D790C9CFEA0F7
:1032F00000680190FDA0006800903B46B72231466F
:10330000284638F03FFC0F2036F08DFE0020F849AB
:10331000086021E002208DF8080001A8F44909683E
:10332000405C8DF8090001A9F1480068401C085C68
:103330008DF80A00002302AA3146284638F0E2FC44
:10334000052036F070FEEA480068401CE849086035
:1033500008460068401C0860E54800680428D9D386
:1033600047F08003B7223146284638F00BFC012392
:10337000BC223146284638F005FC0020DC490860B4
:1033800026E00123C1223146284638F0FBFB01200C
:103390008DF80800D64909681DF801008DF809006C
:1033A000002302AA3146284638F0ACFC062036F04D
:1033B0003AFEFF223146284638F06CFEC1B2CC48B6
:1033C0000068001D2154CA480068401CC8490860B4
:1033D000C74800680328D4D3052036F024FE4B46A6
:1033E000B7223146284638F0CDFBA078C01CC3B2C6
:1033F00022468121404639F072FABDE8FE8F2DE960
:10340000F04788B007468A4615461E46DDE9118911
:10341000109C1C22B7A1684646F0BAFE4346B7226C
:103420003146284638F0AEFB0F2036F0FCFD002078
:10343000AF49086021E002208DF81C00AC49096802
:103440001DF801008DF81D00A9480068401C1DF8FA
:1034500000008DF81E00002307AA3146284638F0E8
:1034600051FC0F2036F0DFFDA1480068401CA04948
:10347000086008460068401C08609D4800681A28DB
:10348000D9D32F202070012060704B46B7223146DF
:10349000284638F077FBA078C01CC3B222468121B1
:1034A000384639F01CFA08B0BDE8F0872DE9F0473E
:1034B00088B007468A4615461E46DDE91189109CEC
:1034C000182293A101A846F063FE4346B722314675
:1034D000284638F057FB0F2036F0A5FD0020844920
:1034E000086021E002208DF81C0001A880490968CD
:1034F000405C8DF81D0001A97D480068401C085CF7
:103500008DF81E00002307AA3146284638F0FAFB42
:10351000052036F088FD76480068401C7449086034
:1035200008460068401C0860714800681828D9D314
:103530002F202070022060704B46B722314628466B
:1035400038F020FBA078C01CC3B222468121384647
:1035500039F0C5F908B0BDE8F0872DE9F04786B02D
:1035600080468A4615461E46DDE90F790E9C1422D8
:103570006DA1684646F00CFE3B46B7223146284610
:1035800038F000FB0F2036F04EFD6C480088B0F597
:10359000876F0ED16948C08840F6C801884208D1BB
:1035A0001B208DF80D00C9208DF80F00D2208DF85A
:1035B000110000204E49086021E002208DF814001F
:1035C0004B4909681DF801008DF81500484800684E
:1035D000401C1DF800008DF81600002305AA314696
:1035E000284638F08FFB052036F01DFD4048006866
:1035F000401C3F49086008460068401C08603C4881
:1036000000681428D9D347F08003B72231462846F2
:1036100038F0B8FA0123BC223146284638F0B2FA15
:103620000223C1223146284638F0ACFA00BF0120FF
:103630008DF81400E8208DF81500002305AA314606
:10364000284638F05FFB062036F0EDFCFF223146BD
:10365000284638F01FFD2071642036F0E4FC207904
:1036600000F080008028E2D1052036F0DCFC2F201D
:10367000207003206070802020714B46B7223146B5
:10368000284638F07FFAA078C01CC3B222468121B8
:10369000404639F024F906B0BDE8F08770B504ACB7
:1036A00070CC70BD2DE9F04788B080468A4615463B
:1036B0001E46DDE91179109C21A0006806901422B5
:1036C00020A101A846F064FD3B46B72231462846BA
:1036D00038F058FA0F2036F0A6FC18480088B0F5EC
:1036E000876F47D1154837E0FE20F302EAEBEC0084
:1036F00064140020FE400E80FE20B100FED0553044
:103700000701FE400E50FED042812755FE0000000A
:10371000FE400E80FE20B100FED055000701FE40A5
:103720000E50FED042012755FE20F204B100AB003E
:10373000AC00AD00AE1AAFB3B062F210203D002075
:10374000E6E70000FE20F204AB00AC00AD00AE1ACC
:10375000AFB3B062F2010000C08840F6C8018842F1
:1037600008D11B208DF80F00C9208DF81100D22040
:103770008DF813000020FE49086021E002208DF83A
:103780001C0001A8FA490968405C8DF81D0001A9D8
:10379000F7480068401C085C8DF81E00002307AA4B
:1037A0003146284638F0AEFA052036F03CFCF048A9
:1037B0000068401CEE49086008460068401C08602C
:1037C000EB4800681228D9D3C82036F02CFC47F00B
:1037D0008003B7223146284638F0D4F90123BC22B1
:1037E0003146284638F0CEF90020E149086026E04D
:1037F0000123C1223146284638F0C4F901208DF852
:103800001C0006A8DA490968405C8DF81D000023F9
:1038100007AA3146284638F075FA062036F003FC30
:10382000FF223146284638F035FCC1B2D048006846
:10383000001D2154CE480068401CCD490860CC488A
:1038400000680228D4D3052036F0EDFB2F2020702D
:10385000042060704B46B7223146284638F092F972
:10386000A078C01CC3B222468121404639F037F807
:1038700008B0BDE8F0872DE9FE4F80468B4615461F
:103880001E46DDE90D790C9CBAA003C8CDE9000104
:103890004FF0E80A3B46B7223146284638F072F925
:1038A0000F2036F0C0FB0020B149086021E0022063
:1038B0008DF80800AE4909681DF801008DF809006F
:1038C000AB480068401C1DF800008DF80A0000237A
:1038D00002AA3146284638F015FA052036F0A3FB37
:1038E000A3480068401CA249086008460068401CC4
:1038F00008609F4800680828D9D347F08003B722A2
:103900003146284638F03EF90123BC22314628468C
:1039100038F038F90223C1223146284638F032F90E
:1039200000BF01208DF808008DF809A0002302AA2D
:103930003146284638F0E6F9062036F074FBFF22BF
:103940003146284638F0A6FB2071207900F080002F
:103950008028E6D1052036F066FB2F202070052058
:103960006070802020714B46B7223146284638F0DF
:1039700009F9A078C01CC3B222468121404638F024
:10398000AEFFBDE8FE8F2DE9F04786B007468A46B8
:1039900015461E46DDE90F890E9C142277A1684664
:1039A00046F0F6FB4346B7223146284638F0EAF89F
:1039B0000F2036F038FB00206D49086021E002201E
:1039C0008DF814006A4909681DF801008DF815008A
:1039D00067480068401C1DF800008DF816000023A1
:1039E00005AA3146284638F08DF9052036F01BFB34
:1039F0005F480068401C5E49086008460068401C3B
:103A000008605B4800681228D9D3052036F00BFB0C
:103A10002F202070092060704B46B722314628467F
:103A200038F0B0F8A078C01CC3B2224681213846D5
:103A300038F055FF06B0BDE8F0872DE9F04786B0B5
:103A400007468A4615461E46DDE90F890E9C50A2A0
:103A500007CACDE9021201904346B72231462846F3
:103A600038F090F80F2036F0DEFA00204049086068
:103A700021E002208DF8100001A83D490968405C52
:103A80008DF8110001A93A480068401C085C8DF8C7
:103A90001200002304AA3146284638F033F90520E5
:103AA00036F0C1FA32480068401C314908600846C7
:103AB0000068401C08602E4800680A28D9D30520F9
:103AC00036F0B1FA2F202070072060704B46B722E5
:103AD0003146284638F056F8A078C01CC3B22246BA
:103AE0008121384638F0FBFE06B0BDE8F0872DE9AD
:103AF000F04786B007468A4615461E46DDE90F891F
:103B00000E9C26A207CACDE9021201904346B722B5
:103B10003146284638F036F80F2036F084FA002077
:103B20001349086021E002208DF8100001A8104917
:103B30000968405C8DF8110001A90D480068401C1F
:103B4000085C8DF81200002304AA3146284638F09C
:103B5000D9F8052036F067FA05480068401C04498A
:103B6000086008460068401C0860014800681BE0C7
:103B700064140020FE20F204B100F301FE002800CE
:103B80001000FE40F802F201F3A5F45AF53C0000E3
:103B9000FE200910A6C0A7FFBC010000FE200910EE
:103BA000A6C0A7FFBC8100000A28BCD3052036F0C0
:103BB0003AFA2F202070082060704B46B722314619
:103BC000284637F0DFFFA078C01CC3B2224681210F
:103BD000384638F084FE06B0BDE8F0872DE9FE4F88
:103BE0000646894692461F46DDE90C840E9D3948FB
:103BF00040780B286AD2DFE800F06906111C2732F2
:103C00003D4853695E0033488DE831003248027BFD
:103C10003B4681213046FFF7F2FB58E02D488DE806
:103C200031002D48027B3B4681213046FFF73EFCA8
:103C30004DE028488DE831002748027B3B46812132
:103C40003046FFF78AFC42E022488DE831002248E6
:103C5000027B3B4681213046FFF724FD37E01D48BB
:103C60008DE831001C48027B3B4681213046FFF73E
:103C700002FE2CE017488DE831001748027B3B46D6
:103C800081213046FFF72AFB21E012488DE8310000
:103C90001148027B3B4681213046FFF7CEFE16E0FD
:103CA0000C488DE831000C48027B3B4681213046B0
:103CB000FFF71DFF0BE007488DE831000648027B47
:103CC0003B4681213046FFF7E9FC00E000BF00BF22
:103CD000BDE8FE8F790A0120203D00202DE9F04744
:103CE00088B080468A4615461E46DDE91179109C4B
:103CF0001822FAA101A846F04BFAFEA00068009035
:103D00003B46B7223146284637F03CFF0F2036F0BD
:103D10008AF90020F849086021E002208DF81C0093
:103D200001A8F5490968405C8DF81D0001A9F24819
:103D30000068401C085C8DF81E00002307AA31466D
:103D4000284637F0DFFF0F2036F06DF9EA480068AB
:103D5000401CE949086008460068401C0860E648C5
:103D600000681828D9D347F08003B7223146284687
:103D700037F008FF0123BC223146284637F002FF06
:103D80000020DD49086026E00123C1223146284693
:103D900037F0F8FE01208DF81C00D74909681DF89E
:103DA00001008DF81D00002307AA3146284637F090
:103DB000A9FF062036F037F9FF223146284638F0B1
:103DC00069F9C1B2CC480068001D2154CA48006896
:103DD000401CC9490860C84800680328D4D305209E
:103DE00036F021F94B46B7223146284637F0CAFE55
:103DF000A078C01CC3B222468121404638F06FFD36
:103E000008B0BDE8F0872DE9F04788B007468A463C
:103E100015461E46DDE91189109C1822B7A101A89C
:103E200046F0B6F94346B7223146284637F0AAFE97
:103E30000F2036F0F8F80020AF49086021E002209A
:103E40008DF81C0001A8AC490968405C8DF81D0084
:103E500001A9A9480068401C085C8DF81E000023D9
:103E600007AA3146284637F04DFF0F2036F0DBF821
:103E7000A1480068401CA049086008460068401C32
:103E800008609D4800681628D9D32F202070012093
:103E900060704B46B7223146284637F073FEA07853
:103EA000C01CC3B222468121384638F018FD08B044
:103EB000BDE8F08770B504AC70CC70BD2DE9F04F53
:103EC00087B080468B4615461E46DDE91179109C69
:103ED0004FF0000A18228FA1684646F059F93B4678
:103EE000B7223146284637F04DFE0F2036F09BF8BA
:103EF0002F202070032060700820207100207E4950
:103F0000086021E002208DF818007B4909681DF83F
:103F100001008DF8190078480068401C1DF8000069
:103F20008DF81A00002306AA3146284637F0EAFE2B
:103F3000642036F078F870480068401C6E490860CC
:103F400008460068401C08606B4800681828D9D3F0
:103F50004FF4FA7036F067F802208DF81800FE2052
:103F60008DF81900E0208DF81A00002306AA3146CA
:103F7000284637F0C7FE052036F055F847F0800395
:103F8000B7223146284637F0FDFD0F2036F04BF8BA
:103F90000223C1223146284637F0F4FD00BF01203C
:103FA0008DF818006B208DF81900002306AA314601
:103FB000284637F0A7FE142036F035F8FF223146A8
:103FC000284638F067F82071322036F02CF80AF1D4
:103FD00001008246B0F5967F02D90020207103E0EF
:103FE00020790828DBD100BF4B46B722314628464E
:103FF00037F0C8FDA078C01CC3B2224681214046DC
:1040000038F06DFC07B0BDE8F08F2DE9F04F87B0B8
:1040100080468B4615461E46DDE91179109C4FF00F
:10402000000A4248006800F5C010404908601822A4
:104030003FA1684646F0ACF83C480068000C8DF89B
:104040000F003A480088000A8DF8110037480078C0
:104050008DF813003B46B7223146284637F092FDD3
:104060000F2035F0E0FF2F2020700A20607008201C
:10407000207100202049086021E002208DF81800FE
:104080001D4909681DF801008DF819001A480068DB
:10409000401C1DF800008DF81A00002306AA3146C6
:1040A000284637F02FFE642035F0BDFF1248006827
:1040B000401C1149086008460068401C08600E4812
:1040C00000681828D9D34FF4FA7035F0ACFF0220FD
:1040D0008DF81800FE208DF8190035E0FED201CFD2
:1040E000FE404D20FED20518FE20F308F300F30435
:1040F000F302FEE06D6E6F0064140020FE400E803F
:10410000FED21855FED003094D017801FE40108201
:10411000FE000000FE20F204FED21855120013002B
:104120001400151716FF17FFFE20F2107C14002054
:10413000FE20F204FED218551218130014001500C8
:1041400016001700FE20F210E0208DF81A00002360
:1041500006AA3146284637F0D5FD322035F063FFF8
:1041600047F08003B7223146284637F00BFD0F2079
:1041700035F059FF0123BC223146284637F002FDB5
:104180000223C1223146284637F0FCFC00BF012043
:104190008DF818006B208DF81900002306AA31460F
:1041A000284637F0AFFD142035F03DFFFF223146A1
:1041B000284637F06FFF2071322035F034FF0AF1C6
:1041C00001008246B0F5967F02D90020207105E0FB
:1041D000207900F008000828D9D100BF4B46B7224B
:1041E0003146284637F0CEFCA078C01CC3B2224628
:1041F0008121404638F073FB07B0BDE8F08F2DE910
:10420000F0478CB080468A4615461E46DDE9157992
:10421000149CF8A000680A902422F7A101A845F098
:10422000B7FFFE480068000C8DF81F00FB480088AF
:10423000000A8DF82100F94800780B38C0B28DF8DB
:1042400023003B46B7223146284637F09BFC0F201F
:1042500035F0E9FE0020F249086021E002208DF8E7
:104260002C0001A8EE490968405C8DF82D0001A9D9
:10427000EB480068401C085C8DF82E0000230BAA58
:104280003146284637F03EFD062035F0CCFEE448A6
:104290000068401CE249086008460068401C08604D
:1042A000DF4800682428D9D34FF4966035F0BBFE70
:1042B00002208DF82C00FE208DF82D00E0208DF8D6
:1042C0002E0000230BAA3146284637F01BFD0F2095
:1042D00035F0A9FE47F08003B7223146284637F073
:1042E00051FC0123BC223146284637F04BFC00200C
:1042F000CB49086026E00123C1223146284637F029
:1043000041FC01208DF82C000AA8C5490968405CD1
:104310008DF82D0000230BAA3146284637F0F2FC19
:10432000062035F080FEFF223146284637F0B2FEE7
:10433000C1B2BB480068001D2154B9480068401C48
:10434000B7490860B64800680228D4D3052035F084
:104350006AFE2F202070042060704B46B722314641
:10436000284637F00FFCA078C01CC3B2224681213A
:10437000404638F0B4FA0CB0BDE8F0872DE9FF5F95
:1043800080468B4615461E46DDE90F790E9CA5A298
:1043900007CA8DE807004FF06B0A3B46B72231464B
:1043A000284637F0EFFB0F2035F03DFE00209C49FA
:1043B000086021E002208DF80C00994909681DF879
:1043C00001008DF80D0096480068401C1DF80000A3
:1043D0008DF80E00002303AA3146284637F092FCE0
:1043E000062035F020FE8E480068401C8C4908608D
:1043F00008460068401C0860894800680A28D9D32C
:1044000041F2883035F00FFE02208DF80C00FE20BE
:104410008DF80D00E0208DF80E00002303AA314630
:10442000284637F06FFC0F2035F0FDFD47F0800384
:10443000B7223146284637F0A5FB0123BC2231467E
:10444000284637F09FFB0223C1223146284637F029
:1044500099FB00BF01208DF80C008DF80DA0002302
:1044600003AA3146284637F04DFC062035F0DBFD27
:10447000FF223146284637F00DFE2071207900F0EA
:1044800008000828E6D1052035F0CDFD2F2020704A
:1044900005206070082020714B46B722314628461F
:1044A00037F070FBA078C01CC3B222468121404681
:1044B00038F015FABDE8FF9F70B504AC70CC70BD44
:1044C0002DE9FF4707468A4615461E46DDE90D8958
:1044D0000C9C57A103C9CDE900014346B7223146E0
:1044E000284637F04FFB0F2035F09DFD00204C494A
:1044F000086021E002208DF80800494909681DF88C
:1045000001008DF8090046480068401C1DF80000B5
:104510008DF80A00002302AA3146284637F0F2FB44
:10452000322035F080FD3E480068401C3C49086060
:1045300008460068401C0860394800680828D9D33C
:10454000052035F070FD2F202070072060704B464D
:10455000B7223146284637F015FBA078C01CC3B2FD
:1045600022468121384638F0BAF9BDE8FF872DE9A7
:10457000FF4707468A4615461E46DDE90D890C9C15
:104580002DA103C9CDE900014346B7223146284693
:1045900037F0F8FA0F2035F046FD0020204908607A
:1045A00021E002208DF808001D4909681DF801006E
:1045B0008DF809001A480068401C1DF800008DF8AD
:1045C0000A00002302AA3146284637F09BFB32201E
:1045D00035F029FD12480068401C11490860084662
:1045E0000068401C08600E4800680828D9D30520E0
:1045F00026E00000696A0000FED20603FE20F308F0
:10460000F300F304F302FE20F204FED212001300C2
:104610001400150016001700FE20F2017C14002083
:1046200064140020FED21855FE20F204F3010000AD
:10463000FED20EC00F7FAA01FED20EC00F7FAA814C
:1046400035F0F1FC2F202070082060704B46B72217
:104650003146284637F096FAA078C01CC3B22246ED
:104660008121384638F03BF9BDE8FF872DE9FE4F40
:104670000646894692461F46DDE90C840E9D394860
:1046800040780B286AD2DFE800F06906111C273257
:104690003D4853695E0033488DE831003248027B63
:1046A0003B4681213046FFF7AEFB58E02D488DE8B0
:1046B00031002D48027B3B4681213046FFF7FAFB53
:1046C0004DE028488DE831002748027B3B46812198
:1046D0003046FFF7F3FB42E022488DE831002248E4
:1046E000027B3B4681213046FFF789FD37E01D48BC
:1046F0008DE831001C48027B3B4681213046FFF7A4
:104700003DFE2CE017488DE831001748027B3B4600
:1047100081213046FFF7E2FA21E012488DE83100AE
:104720001148027B3B4681213046FFF7C9FE16E067
:104730000C488DE831000C48027B3B468121304615
:10474000FFF715FF0BE007488DE831000648027BB4
:104750003B4681213046FFF758FC00E000BF00BF18
:10476000BDE8FE8F790A0120203D00202DE9FC5F85
:10477000824616461F46DDE90D8B0C9C4FF0000962
:104780004346B7223946304637F0FCF90F2035F062
:104790004AFC01208DF8000028208DF8010000233C
:1047A0006A463946304637F0ADFA03208DF80000EE
:1047B000F0208DF80100AA208DF8020010208DF85D
:1047C000030000236A463946304637F09BFA03203F
:1047D0008DF80000EA208DF8010030208DF80200ED
:1047E00000208DF8030000236A463946304637F032
:1047F00089FA02208DF80000EE208DF80100AB2030
:104800008DF8020000236A463946304637F07AFABE
:1048100002208DF80000ED208DF8010020208DF899
:10482000020000236A463946304637F06BFA6420AE
:1048300035F0F9FB02208DF80000ED208DF8010025
:1048400000208DF8020000236A463946304637F0D2
:1048500059FA02208DF80000EE208DF801000620A4
:104860008DF8020000236A463946304637F04AFA8E
:1048700002208DF80000ED208DF8010020208DF839
:10488000020000236A463946304637F03BFA64207E
:1048900035F0C9FB02208DF80000ED208DF80100F5
:1048A00000208DF8020000236A463946304637F072
:1048B00029FA02208DF80000EE208DF80100052075
:1048C0008DF8020000236A463946304637F01AFA5E
:1048D00002208DF80000ED208DF8010008208DF8F1
:1048E000020000236A463946304637F00BFA64204E
:1048F00035F099FB02208DF80000ED208DF80100C5
:1049000000208DF8020000236A463946304637F011
:10491000F9F9642035F087FB02208DF80000EE20C5
:104920008DF801009F208DF8020000236A46394669
:10493000304637F0E7F902208DF80000ED208DF8C1
:10494000010044208DF8020000236A4639463046B3
:1049500037F0D8F9642035F066FB02208DF80000AE
:10496000ED208DF8010000208DF8020000236A463A
:104970003946304637F0C6F948F08003B722394649
:10498000304637F0FFF80323C1223946304637F06E
:10499000F9F80123C0223946304637F0F3F80120F8
:1049A0008DF80000EC208DF8010000236A4639469E
:1049B000304637F0A7F9052035F035FB002510E02B
:1049C000FF223946304637F065FB8146281D04F842
:1049D00000904FEA2921681D2154022035F023FB65
:1049E0006D1C012DECDB2F20207006206070A0785C
:1049F000C01CC3B222468121504637F070FFBDE88B
:104A0000FC9F2DE9FE4F8046894615461E46DDE98E
:104A10000DA70C9C33462A4649464046CDE901A7DE
:104A2000009425F047FA2F202070012060703B464B
:104A3000B7223146284637F0A5F8A078C01CC3B28B
:104A400022468121404637F04AFFBDE8FE8F70B50F
:104A500004AC70CC70BD2DE9FE4F804689461546EA
:104A60001E46DDE90DA70C9C33462A4649464046C2
:104A7000CDE901A7009425F07CFA2F2020700320B7
:104A800060703B46B7223146284637F07BF8A07865
:104A9000C01CC3B222468121404637F020FFBDE84A
:104AA000FE8F70B504AC70CC70BD2DE9FC5F814603
:104AB0008B4616461D46DDE90D7A0C9C4FF000082A
:104AC0003B46B7222946304637F05CF8052035F0E2
:104AD000AAFA03208DF80000FF208DF801005A206B
:104AE0008DF8020080208DF8030000236A462946D5
:104AF000304637F007F947F08003B72229463046A1
:104B000037F040F80923C1222946304637F03AF8F9
:104B10000123C0222946304637F034F801208DF8B1
:104B20000000FA208DF8010000236A46294630462D
:104B300037F0E8F8052035F076FAFA23D422294632
:104B4000304637F01FF8FF222946304637F008F884
:104B50000020B94908601FE0FA222946304636F0A5
:104B6000FFFF284636F09EFB80464FEA2821B248D8
:104B70000068001D2154B0480068401D04F8008002
:104B8000022035F050FAAC480068401CAA49086081
:104B900008460068401C0860A74800680928DBD365
:104BA000052035F040FA2F20207004206070534615
:104BB000B7222946304636F0E5FFA078C01CC3B2C4
:104BC00022468121484637F08AFEBDE8FC9F2DE948
:104BD000FE4F81468A46174698460CAC70CC2B4651
:104BE000B7224146384636F0CDFF0F2035F01BFA8C
:104BF00043463A46514648468DE8700024F071FE1F
:104C0000052035F010FA43463A46514648468DE8AD
:104C1000700024F0A2FE052035F005FA43463A461E
:104C2000514648468DE8700025F088F8052035F09B
:104C3000FAF92F2020700520607000202071334683
:104C4000B7224146384636F09DFFA078C01CC3B25B
:104C500022468121484637F042FEBDE8FE8F70B5FE
:104C600004AC70CC70BD2DE9FC4707468A4615465A
:104C70001E46DDE90B890A9C4346B7223146284689
:104C800036F080FF0F2035F0CEF902208DF80000BD
:104C900059208DF8010009208DF8020000236A4692
:104CA0003146284637F02EF82F20207007206070FC
:104CB0004B46B7223146284636F064FFA078C01C28
:104CC000C3B222468121384637F009FEBDE8FC8791
:104CD0002DE9FC4707468A4615461E46DDE90B8945
:104CE0000A9C4346B7223146284636F04BFF0F2038
:104CF00035F099F902208DF8000059208DF8010057
:104D000000208DF8020000236A463146284636F01E
:104D1000F9FF052035F087F92F20207008206070FA
:104D20004B46B7223146284636F02CFFA078C01CEF
:104D3000C3B222468121384637F0D1FDBDE8FC8759
:104D40002DE9FE4F0646894692461F46DDE90C8452
:104D50000E9D3A4840780B286AD2DFE800F06906D9
:104D6000111C27323D4853695E0034488DE83100FC
:104D70003348027B3B4681213046FFF742FE58E034
:104D80002E488DE831002E48027B3B46812130467B
:104D9000FFF75DFE4DE029488DE831002848027B91
:104DA0003B4681213046FFF756FE42E023488DE81E
:104DB00031002348027B3B4681213046FFF775FED8
:104DC00037E01E488DE831001D48027B3B468121BB
:104DD0003046FFF7FCFE2CE018488DE831001848FB
:104DE000027B3B4681213046FFF7C0FC21E013489F
:104DF0008DE831001248027B3B4681213046FFF7A7
:104E000032FF16E00D488DE831000D48027B3B462D
:104E100081213046FFF75CFF0BE008488DE8310048
:104E20000748027B3B4681213046FFF73AFE00E00F
:104E300000BF00BFBDE8FE8F64140020790A012086
:104E4000203D00202DE9F04798B080468A4616465E
:104E50001F46DDE92159209C1C22F4A110A845F031
:104E600097F9F9A000680F901C22F8A108A845F056
:104E70008FF90E2104A845F0E7F9FB49D1E90002BA
:104E80008968CDE902210190E07809287ED12B467E
:104E9000B7223946304636F075FE0F2035F0C3F89C
:104EA0000020F249086021E002208DF85C0010A883
:104EB000EE490968405C8DF85D0010A9EB48006878
:104EC000401C085C8DF85E00002317AA3946304666
:104ED00036F018FF052035F0A6F8E4480068401CBD
:104EE000E249086008460068401C0860DF48006826
:104EF0001A28D9D345F08003B7223946304636F018
:104F000041FE0123BC223946304636F03BFE0020EC
:104F1000D649086026E00123C1223946304636F0E2
:104F200031FE01208DF85C000FA8D0490968405C73
:104F30008DF85D00002317AA3946304636F0E2FEB0
:104F4000062035F070F8FF223946304637F0A2F8D7
:104F5000C1B2C6480068001D2154C4480068401C06
:104F6000C2490860C14800680328D4D32F202070AC
:104F7000062060704B46B7223946304636F002FEB6
:104F8000A078C01CC3B22246812100E003E0404665
:104F900037F0A5FCB2E02B46B7223946304636F052
:104FA000F1FD0F2035F03FF8E07811282DD01228C0
:104FB0002AD10020AD49086021E002208DF85C0074
:104FC00008A8AA490968405C8DF85D0008A9A748AF
:104FD0000068401C085C8DF85E00002317AA394663
:104FE000304636F08FFE052035F01DF89F480068EA
:104FF000401C9E49086008460068401C08609B48A9
:1050000000681A28D9D32BE000BF00209749086018
:1050100021E002208DF85C0001A894490968405CF9
:105020008DF85D0001A991480068401C085C8DF86E
:105030005E00002317AA3946304636F063FE0F2083
:1050400034F0F1FF89480068401C88490860084630
:105050000068401C0860854800681A28D9D300BF42
:1050600000BF45F08003B7223946304636F08AFD4E
:105070000123BC223946304636F084FD00207B49AE
:10508000086026E00123C1223946304636F07AFD19
:1050900001208DF85C000FA874490968405C8DF808
:1050A0005D00002317AA3946304636F02BFE062055
:1050B00034F0B9FFFF223946304636F0EBFFC1B27B
:1050C0006A480068001D215468480068401C674910
:1050D0000860664800680328D4D3052034F0A3FF95
:1050E0004B46B7223946304636F04CFDA078C01CFE
:1050F000C3B222468121404637F0F1FB18B0BDE82B
:10510000F0872DE9F04788B007468A4615461E46C7
:10511000DDE91189109C1C2255A1684645F038F83C
:105120004346B7223146284636F02CFD0F2034F096
:105130007AFFE078092801D1012000E00020E17821
:10514000112901D1012100E000210843E178122951
:1051500001D1012100E00021084300283CD00020BB
:105160004249086021E002208DF81C003F4909688F
:105170001DF801008DF81D003C480068401C1DF81A
:1051800000008DF81E00002307AA3146284636F09D
:10519000B9FD0F2034F047FF34480068401C334904
:1051A000086008460068401C0860304800681C28F9
:1051B000D9D32F202070012060704B46B722314692
:1051C000284636F0DFFCA078C01CC3B222468121FD
:1051D000384637F084FB00E000BF08B0BDE8F08738
:1051E00070B504AC70CC70BD2DE9F04786B0804638
:1051F0008A4615461E46DDE90F790E9C23A30FCB88
:10520000CDE90323CDE9010140F6C41034F00BFFD2
:105210003B46B7223146284636F0B4FC0F2034F026
:1052200002FF0020114908605AE00000FE2604CF6A
:10523000104B14221E31FE205F010913FE26F302DB
:105240001813192F1AAA0000EAEBEC00FE2604CF6F
:10525000104B14221E31FE205F010913FE26F302BB
:10526000181319481AF80000C83D070864140020F4
:10527000FEA00B11FED05853078D42815558FED227
:105280006E20FE405B015E400E40FE00FE261B00CD
:10529000F204150016001700F210000002208DF82D
:1052A000140001A8FE490968405C8DF8150001A9A9
:1052B000FB480068401C085C8DF81600002305AA16
:1052C0003146284636F01EFD052034F0ACFEF44889
:1052D0000068401CF249086008460068401C0860ED
:1052E000EF4800680E28D9D34FF4FA6034F09BFEE3
:1052F00047F08003B7223146284636F043FC0123AD
:10530000BC223146284636F03DFC0223C1223146FC
:10531000284636F037FC00BF01208DF81400DB2052
:105320008DF81500002305AA3146284636F0EAFC20
:10533000062034F078FEFF223146284636F0AAFED9
:105340002071642034F06FFE207900F08000802806
:10535000E2D1052034F067FE2F202070032060701A
:10536000802020714B46B7223146284636F00AFC91
:10537000A078C01CC3B222468121404637F0AFFA64
:1053800006B0BDE8F0872DE9F04788B080468A4630
:1053900016461F46DDE91159109CC2A00068069010
:1053A000C1A207CACDE904120390C2A207CA8DE8C0
:1053B00007002B46B7223946304636F0E3FB0F2074
:1053C00034F031FEE07809287DD10020B44908602E
:1053D00021E002208DF81C0003A8B1490968405C57
:1053E0008DF81D0003A9AE480068401C085C8DF8CC
:1053F0001E00002307AA3946304636F083FC0520FC
:1054000034F011FEA6480068401CA5490860084613
:105410000068401C0860A24800680A28D9D34FF4ED
:10542000FA7034F000FE45F08003B722394630466A
:1054300036F0A8FB0123BC223946304636F0A2FBE9
:1054400000209749086026E00123C12239463046F2
:1054500036F098FB01208DF81C0006A890490968D9
:10546000405C8DF81D00002307AA3946304636F00F
:1054700049FC062034F0D7FDFF223946304636F08D
:1054800009FEC1B286480068001D215484480068A6
:10549000401C83490860824800680228D4D3052054
:1054A00034F0C1FD2F202070042060704B46B722DD
:1054B0003946304636F066FBA078C01CC3B222469F
:1054C0008121404600E002E037F009FA94E0E078FC
:1054D000112801D1012000E00020E178122901D13A
:1054E000012100E000210843E178132901D10121C5
:1054F00000E00021084300287ED0002068490860B1
:1055000021E002208DF81C00654909681DF80100A2
:105510008DF81D0062480068401C1DF800008DF8E1
:105520001E00002307AA3946304636F0EBFB052063
:1055300034F079FD5A480068401C59490860084613
:105540000068401C0860564800680A28D9D34FF408
:10555000FA7034F068FD45F08003B72239463046D2
:1055600036F010FB0123BC223946304636F00AFBE8
:1055700000204B49086026E00123C122394630460D
:1055800036F000FB01208DF81C0006A8444909688C
:10559000405C8DF81D00002307AA3946304636F0DE
:1055A000B1FB062034F03FFDFF223946304636F08D
:1055B00071FDC1B23A480068001D215438480068A6
:1055C000401C37490860364800680228D4D30520BB
:1055D00034F029FD2F202070042060704B46B72244
:1055E0003946304636F0CEFAA078C01CC3B2224607
:1055F0008121404637F073F908B0BDE8F0872DE906
:10560000FE4F80468B4615461E46DDE90D790C9C03
:105610002BA003C8CDE900014FF0DB0A3B46B722BF
:105620003146284636F0AEFA0F2034F0FCFC00205C
:105630001B49086021E002208DF80800184909681C
:105640001DF801008DF8090015480068401C1DF880
:1056500000008DF80A00002302AA3146284636F0E1
:1056600051FB052034F0DFFC0D480068401C0C495C
:10567000086008460068401C08600948006808285F
:10568000D9D347F08003B7223146284636F07AFA5C
:105690000123BC223146284636F074FA022313E077
:1056A00064140020E6E70000FE261813192F1AAA3A
:1056B000F2010000FE26181319481AF4F201000046
:1056C000FE261B00F204F301C1223146284636F0C3
:1056D00059FA00BF01208DF808008DF809A00023B9
:1056E00002AA3146284636F00DFB062034F09BFC1A
:1056F000FF223146284636F0CDFC2071207900F09B
:1057000080008028E6D1052034F08DFC2F20207009
:1057100005206070802020714B46B7223146284614
:1057200036F030FAA078C01CC3B222468121404630
:1057300037F0D5F8BDE8FE8F70B504AC70CC70BD05
:105740002DE9FE4F07468A4615461E46DDE90D89BE
:105750000C9CB2A0006800904346B7223146284610
:1057600036F010FA0F2034F05EFC0020AC490860DF
:1057700021E002208DF80400A94909681DF8010004
:105780008DF80500A6480068401C1DF800008DF843
:105790000600002301AA3146284636F0B3FA052058
:1057A00034F041FC9E480068401C9D490860084652
:1057B0000068401C08609A4800680428D9D3052076
:1057C00034F031FC2F202070072060704B46B72248
:1057D0003146284636F0D6F9A078C01CC3B222461E
:1057E0008121384637F07BF8BDE8FE8F2DE9FF4771
:1057F00007468A4615461E46DDE90D890C9C89A0A0
:105800000068019088A0006800904346B7223146A6
:10581000284636F0B7F90F2034F005FCE078092867
:1058200001D1012000E00020E178132901D10121FC
:1058300000E00021084300283FD00020784908609C
:1058400021E002208DF8080001A875490968405C34
:105850008DF8090001A972480068401C085C8DF8A9
:105860000A00002302AA3146284636F04BFA0520EA
:1058700034F0D9FB6A480068401C69490860084652
:105880000068401C0860664800680428D9D30520D9
:1058900034F0C9FB2F202070082060704B46B722DF
:1058A0003146284636F06EF9A078C01CC3B22246B5
:1058B0008121384637F013F83EE00020584908604F
:1058C00021E002208DF80800554909681DF8010003
:1058D0008DF8090052480068401C1DF800008DF842
:1058E0000A00002302AA3146284636F00BFA0520AA
:1058F00034F099FB4A480068401C49490860084652
:105900000068401C0860464800680428D9D3052078
:1059100034F089FB2F202070082060704B46B7229E
:105920003146284636F02EF9A078C01CC3B2224674
:105930008121384636F0D3FFBDE8FF872DE9FE4FC1
:105940000646894692461F46DDE90C840E9D37487F
:10595000407809285ED2DFE800F05D05101B263193
:105960003C47520031488DE831003148027B3B46CC
:1059700081213046FFF7C5FB4DE02C488DE8310012
:105980002B48027B3B4681213046FFF729FC42E051
:1059900026488DE831002648027B3B46812130466F
:1059A000FFF722FC37E021488DE831002048027BD8
:1059B0003B4681213046FFF7E6FC2CE01B488DE892
:1059C00031001B48027B3B4681213046FFF717FE22
:1059D00021E016488DE831001548027B3B468121C5
:1059E0003046FFF72FFA16E010488DE831001048D6
:1059F000027B3B4681213046FFF7A2FE0BE00B48BD
:105A00008DE831000A48027B3B4681213046FFF792
:105A1000EDFE00E000BF00BFBDE8FE8FFE22770074
:105A200064140020FE227702FE227704790A012006
:105A3000203D00202DE9F0478AB080468A46154671
:105A40001E46DDE91379129C1C22F9A102A844F03C
:105A50009FFBFEA0006801903B46B72231462846D6
:105A600036F090F80F2034F0DEFA0020F849086094
:105A700021E002208DF8240002A8F5490968405C65
:105A80008DF8250002A9F2480068401C085C8DF8DA
:105A90002600002309AA3146284636F033F90520AE
:105AA00034F0C1FAEA480068401CE9490860084639
:105AB0000068401C0860E64800681A28D9D347F0FF
:105AC0008003B7223146284636F05CF80123BC2219
:105AD0003146284636F056F80020DD49086026E0B9
:105AE0000123C1223146284636F04CF801208DF8BA
:105AF000240001A8D6490968405C8DF825000023E0
:105B000009AA3146284636F0FDF8062034F08BFA13
:105B1000FF223146284636F0BDFAC1B2CC480068B3
:105B2000001D2154CA480068401CC9490860C84883
:105B300000680328D4D32F202070062060704B46C5
:105B4000B7223146284636F01DF8A078C01CC3B2F3
:105B500022468121404636F0C2FE0AB0BDE8F087F9
:105B60002DE9F04788B007468A4615461E46DDE90E
:105B70001189109C1C22B7A1684644F009FB4346DA
:105B8000B7223146284635F0FDFF0F2034F04BFA9E
:105B90000020AF49086021E002208DF81C00AC49CC
:105BA00009681DF801008DF81D00A9480068401C17
:105BB0001DF800008DF81E00002307AA3146284674
:105BC00036F0A0F80F2034F02EFAA1480068401CEF
:105BD0009F49086008460068401C08609C480068AF
:105BE0001C28D9D32F202070012060704B46B7228B
:105BF0003146284635F0C6FFA078C01CC3B2224605
:105C00008121384636F06BFE08B0BDE8F08770B5EC
:105C100004AC70CC70BD2DE9F04786B080468A4652
:105C200015461E46DDE90F790E9C91A30FCBCDE9F9
:105C30000323CDE901013B46B7223146284635F022
:105C4000A1FF0F2034F0EFF900208149086021E026
:105C500002208DF8140001A87D490968405C8DF888
:105C6000150001A97A480068401C085C8DF81600F0
:105C7000002305AA3146284636F044F80F2034F0B8
:105C8000D2F973480068401C7149086008460068F2
:105C9000401C08606E4800680E28D9D34FF4FA7093
:105CA00034F0C1F947F08003B7223146284635F079
:105CB00069FF0123BC223146284635F063FF0223E9
:105CC000C1223146284635F05DFF00BF01208DF826
:105CD0001400DB208DF81500002305AA3146284664
:105CE00036F010F8062034F09EF9FF22314628469F
:105CF00036F0D0F92071642034F095F9207900F065
:105D000080008028E2D1052034F08DF92F2020700A
:105D100003206070802020714B46B7223146284610
:105D200035F030FFA078C01CC3B222468121404626
:105D300036F0D5FD06B0BDE8F08770B504AC70CC88
:105D400070BD2DE9F0478AB080468A4615461E464A
:105D5000DDE91379129C4AA000680890202249A12D
:105D6000684644F015FA3B46B7223146284635F0DE
:105D700009FF0F2034F057F900203549086021E071
:105D800002208DF82400324909681DF801008DF8C1
:105D900025002F480068401C1DF800008DF82600E3
:105DA000002309AA3146284635F0ACFF052034F01F
:105DB0003AF927480068401C2549086008460068F1
:105DC000401C0860224800681E28D9D34FF4FA709E
:105DD00034F029F947F08003B7223146284635F0E0
:105DE000D1FE0123BC223146284635F0CBFE0020EF
:105DF0001749086062E00123C1223146284635F088
:105E0000C1FE01208DF8240008A811490968405CF2
:105E10008DF82500002309AA3146284635F072FF87
:105E2000062034F000F9FF22314628463AE000000F
:105E3000FE2604CF104B14221E31FE205F010913F1
:105E4000FE26F302181319221AFC0000EAEBEC00FC
:105E500064140020FEA00B11FED05853078D428120
:105E60005558FED26E20FE405B015E400E40FE00A3
:105E7000FE261B00F204150016001700F2100000A9
:105E8000E6E70000FE205F00FE260792F308F3001D
:105E9000F3041400150016001700181319221AFC39
:105EA000F201000036F0F6F8C1B2EC480068001DBF
:105EB0002154EA480068401CE8490860E748006847
:105EC000022898D3052034F0AEF82F20207004204B
:105ED00060704B46B7223146284635F053FEA07815
:105EE000C01CC3B222468121404636F0F8FC0AB0FD
:105EF000BDE8F0872DE9FE4F80468B4615461E46CD
:105F0000DDE90D790C9CD6A003C8CDE900014FF066
:105F1000DB0A3B46B7223146284635F033FE0F20D8
:105F200034F081F80020CD49086021E002208DF88E
:105F30000800CA4909681DF801008DF80900C74822
:105F40000068401C1DF800008DF80A00002302AA1A
:105F50003146284635F0D6FE052034F064F8BF48B7
:105F60000068401CBD49086008460068401C086085
:105F7000BA4800680828D9D347F08003B7223146D1
:105F8000284635F0FFFD0123BC223146284635F076
:105F9000F9FD0223C1223146284635F0F3FD00BF4A
:105FA00001208DF808008DF809A0002302AA3146CF
:105FB000284635F0A7FE062034F035F8FF2231469A
:105FC000284636F067F82071207900F0800080289C
:105FD000E6D1052034F027F82F20207005206070CE
:105FE000802020714B46B7223146284635F0CAFD45
:105FF000A078C01CC3B222468121404636F06FFC17
:10600000BDE8FE8F70B504AC70CC70BD2DE9FE4FBD
:1060100007468A4615461E46DDE90D890C9C92A06E
:10602000006800904346B7223146284635F0AAFD65
:106030000F2033F0F8FF00208849086021E002209B
:106040008DF80400854909681DF801008DF80500E8
:1060500082480068401C1DF800008DF806000023EF
:1060600001AA3146284635F04DFE052033F0DBFF0E
:106070007A480068401C7949086008460068401C5E
:106080000860764800680428D9D3052033F0CBFF98
:106090002F202070072060704B46B72231462846DB
:1060A00035F070FDA078C01CC3B22246812138466D
:1060B00036F015FCBDE8FE8F2DE9FE4F07468A46F7
:1060C00015461E46DDE90D890C9C68A0006800900D
:1060D0004346B7223146284635F054FD0F2033F0B1
:1060E000A2FF00205D49086021E002208DF8040035
:1060F0005A4909681DF801008DF8050057480068E5
:10610000401C1DF800008DF80600002301AA31464E
:10611000284635F0F7FD052033F085FF4F4800682D
:10612000401C4E49086008460068401C08604B4807
:1061300000680428D9D3052033F075FF2F20207084
:10614000082060704B46B7223146284635F01AFDCC
:10615000A078C01CC3B222468121384636F0BFFB6E
:10616000BDE8FE8F2DE9FE4F0646894692461F4642
:10617000DDE90C840E9D3E4840780B286AD2DFE8AA
:1061800000F06906111C27323D4853695E0038480B
:106190008DE831003748027B3B4681213046FFF7CE
:1061A000DFFC58E032488DE831003248027B3B4644
:1061B00081213046FFF72BFD4DE02D488DE8310061
:1061C0002C48027B3B4681213046FFF724FD42E00C
:1061D00027488DE831002748027B3B468121304625
:1061E000FFF7AFFD37E022488DE831002148027B00
:1061F0003B4681213046FFF77DFE2CE01C488DE8B0
:1062000031001C48027B3B4681213046FFF712FCDF
:1062100021E017488DE831001648027B3B4681217A
:106220003046FFF7F3FE16E011488DE831001148C3
:10623000027B3B4681213046FFF73EFF0BE00C48D6
:106240008DE831000B48027B3B4681213046FFF749
:1062500074FD00E000BF00BFBDE8FE8F64140020A5
:10626000FE261B00F204F301FE227700FE227704D3
:10627000790A0120203D00202DE9F0478EB08046AC
:106280008A4615461E46DDE91779169C2822F6A196
:1062900003A843F07DFFFEA0006802903B46B722B2
:1062A0003146284635F06EFC0F2033F0BCFE00204E
:1062B000F849086021E002208DF8340003A8F54970
:1062C0000968405C8DF8350003A9F2480068401C5D
:1062D000085C8DF8360000230DAA3146284635F0BB
:1062E00011FD202033F09FFEEA480068401CE94978
:1062F000086008460068401C0860E64800682628D8
:10630000D9D347F08003B7223146284635F03AFC0E
:106310000F2033F088FE201D0121CDE900109DF8EB
:1063200008303246294640460BF0BDF8601D012179
:10633000CDE900109DF809303246294640460BF061
:10634000B2F8A01D0121CDE900109DF80A303246B7
:10635000294640460BF0A7F82F20207006206070D9
:106360004B46B7223146284635F00CFCA078C01CBD
:10637000C3B222468121404636F0B1FA0EB0BDE8E4
:10638000F0872DE9F0478EB007468A4615461E462F
:10639000DDE91789169C3422BFA1684643F0F8FE58
:1063A0004346B7223146284635F0ECFB0F2033F048
:1063B0003AFE0020B749086021E002208DF8340041
:1063C000B44909681DF801008DF83500B14800682E
:1063D000401C1DF800008DF8360000230DAA314640
:1063E000284635F08FFC0F2033F01DFEA9480068C9
:1063F000401CA849086008460068401C0860A54881
:1064000000683228D9D32F202070012060704B46BD
:10641000B7223146284635F0B5FBA078C01CC3B280
:1064200022468121384636F05AFA0EB0BDE8F08790
:1064300070B504AC70CC70BD2DE9FC4780468A462F
:1064400015461E46DDE90B790A9CA0A00068009065
:106450003B46B7223146284635F094FB0F2033F0F7
:10646000E2FD00208B49086021E002208DF8040045
:10647000884909681DF801008DF805008548006805
:10648000401C1DF800008DF80600002301AA3146CB
:10649000284635F037FC0F2033F0C5FD7D480068F5
:1064A000401C7C49086008460068401C0860794828
:1064B00000680428D9D341F2707033F0B4FD47F07E
:1064C0008003B7223146284635F05CFB0123BC220D
:1064D0003146284635F056FB0223C1223146284674
:1064E00035F050FB00BF01208DF80400DB208DF853
:1064F0000500002301AA3146284635F003FC06209A
:1065000033F091FDFF223146284635F0C3FD20715E
:10651000642033F088FD207900F080008028E2D1EB
:10652000052033F080FD2F20207003206070802034
:106530002071A078C01CC3B222468121404636F0AB
:10654000CEF9BDE8FC8770B504AC70CC70BD2DE908
:10655000F0478AB080468A4615461E46DDE9137923
:10656000129C5BA0006808901C225AA101A843F06D
:106570000FFE3B46B7223146284635F003FB0F207D
:1065800033F051FD00204349086021E002208DF8DE
:10659000240001A83F490968405C8DF8250001A945
:1065A0003C480068401C085C8DF82600002309AABE
:1065B0003146284635F0A6FB0A2033F034FD354835
:1065C0000068401C3349086008460068401C0860A9
:1065D000304800681C28D9D34FF4FA6033F023FD0B
:1065E00047F08003B7223146284635F0CBFA012325
:1065F000BC223146284635F0C5FA002025490860FE
:1066000026E00123C1223146284635F0BBFA01209D
:106610008DF8240008A81F490968405C8DF8250002
:10662000002309AA3146284635F06CFB062033F0DA
:10663000FAFCFF223146284635F02CFDC1B2154840
:106640000068001D215413480068401C114908606F
:10665000104800680228D4D3052033F0E4FC2F2032
:1066600020700420607043E0FE260202081204CF6E
:10667000104B14221E21FE205F010913FE26F45543
:10668000FE205F00FE26F308F300F304FE26000060
:10669000EAEBEC0064140020FED21920FED049037E
:1066A00007014281FE400EC0FED05511FE26F204C5
:1066B0001B003680FEB0F602FEB2E340FEB2E3609D
:1066C000FEB2E340FEB2E300FE000000FE26F21040
:1066D000E6E70000FE205F00FE26F308F300F30467
:1066E000F204150016001700180919991A00F20192
:1066F0004B46B7223146284635F044FAA078C01CF4
:10670000C3B222468121404636F0E9F80AB0BDE81E
:10671000F0872DE9F04F89B080468B4615461E461E
:10672000DDE91379129C1822CFA102A843F030FDB5
:106730004FF0DB0A3B46B7223146284635F022FAB5
:106740000F2033F070FC0020CD49086021E00220CA
:106750008DF8200002A8CA490968405C8DF8210024
:1067600002A9C7480068401C085C8DF8220000237D
:1067700008AA3146284635F0C5FA052033F053FC07
:10678000BF480068401CBE49086008460068401CBD
:106790000860BB4800681628D9D341F2707033F006
:1067A00042FC47F08003B7223146284635F0EAF92B
:1067B0000F2033F038FC00BF201D01215346324624
:1067C000CDE90010294640460AF06DFE062033F060
:1067D0002AFC207900F080008028EDD1052033F0DC
:1067E00022FC2F20207005206070802020714B46F5
:1067F000B7223146284635F0C5F9A078C01CC3B28F
:1068000022468121404636F06AF809B0BDE8F08F93
:1068100070B504AC70CC70BD2DE9FE4F07468A46BA
:1068200015461E46DDE90D890C9C96A00068009077
:106830004346B7223146284635F0A4F90F2033F0FD
:10684000F2FB00208E49086021E002208DF8040050
:106850008B4909681DF801008DF80500884800681B
:10686000401C1DF800008DF80600002301AA3146E7
:10687000284635F047FA052033F0D5FB80480068FC
:10688000401C7F49086008460068401C08607C483E
:1068900000680428D9D3052033F0C5FB2F202070D1
:1068A000072060704B46B7223146284635F06AF91A
:1068B000A078C01CC3B222468121384636F00FF8BA
:1068C000BDE8FE8F2DE9FE4F07468A4615461E4657
:1068D000DDE90D890C9C6CA0006800904346B7224E
:1068E0003146284635F04EF90F2033F09CFB00204E
:1068F0006349086021E002208DF8040060490968BE
:106900001DF801008DF805005D480068401C1DF869
:1069100000008DF80600002301AA3146284635F014
:10692000F1F9052033F07FFB55480068401C5449BD
:10693000086008460068401C086051480068042848
:10694000D9D3052033F06FFB2F2020700820607012
:106950004B46B7223146284635F014F9A078C01CC2
:10696000C3B222468121384635F0B9FFBDE8FE8F1B
:106970002DE9FE4F0646894692461F46DDE90C8406
:106980000E9D424840780B286AD2DFE800F0690685
:10699000111C27323D4853695E003C488DE83100A8
:1069A0003B48027B3B4681213046FFF7EAFC58E03A
:1069B00036488DE831003648027B3B46812130461F
:1069C000FFF736FD4DE031488DE831003048027B5D
:1069D0003B4681213046FFF72FFD42E02B488DE8F2
:1069E00031002B48027B3B4681213046FFF7AFFD4B
:1069F00037E026488DE831002548027B3B4681215F
:106A00003046FFF786FE2CE020488DE83100204814
:106A1000027B3B4681213046FFF72EFC21E01B48DC
:106A20008DE831001A48027B3B4681213046FFF752
:106A3000F3FE16E015488DE831001548027B3B4611
:106A400081213046FFF73EFF0BE010488DE8310012
:106A50000F48027B3B4681213046FFF774FD00E082
:106A600000BF00BFBDE8FE8FFE2615001600170010
:106A7000180919991A00FE261B00F204F301000000
:106A800064140020FE227700FE227702790A01209A
:106A9000203D00202DE9F0478AB080468A46154601
:106AA0001E46DDE91379129C1C22F9A102A843F0CD
:106AB0006FFBFEA0006801903B46B7223146284696
:106AC00035F060F80F2033F0AEFA0020F849086086
:106AD00021E002208DF8240002A8F5490968405CF5
:106AE0008DF8250002A9F2480068401C085C8DF86A
:106AF0002600002309AA3146284635F003F905206F
:106B000033F091FAEA480068401CE94908600846F9
:106B10000068401C0860E64800681C28D9D347F08C
:106B20008003B7223146284635F02CF80123BC22D9
:106B30003146284635F026F80020DD49086026E079
:106B40000123C1223146284635F01CF801208DF87A
:106B5000240001A8D6490968405C8DF8250000236F
:106B600009AA3146284635F0CDF8062033F05BFA05
:106B7000FF223146284635F08DFAC1B2CC48006874
:106B8000001D2154CA480068401CC9490860C84813
:106B900000680328D4D32F202070062060704B4655
:106BA000B7223146284634F0EDFFA078C01CC3B2AE
:106BB00022468121404635F092FE0AB0BDE8F087BA
:106BC0002DE9F04788B007468A4615461E46DDE99E
:106BD0001189109C1C22B7A1684643F0D9FA43469C
:106BE000B7223146284634F0CDFF0F2033F01BFA90
:106BF0000020AF49086021E002208DF81C00AC495C
:106C000009681DF801008DF81D00A9480068401CA6
:106C10001DF800008DF81E00002307AA3146284603
:106C200035F070F80F2033F0FEF9A1480068401CE1
:106C30009F49086008460068401C08609C4800683E
:106C40001C28D9D32F202070012060704B46B7221A
:106C50003146284634F096FFA078C01CC3B22246C5
:106C60008121384635F03BFE08B0BDE8F08770B5AD
:106C700004AC70CC70BD2DE9F04786B080468A46E2
:106C800015461E46DDE90F790E9C91A30FCBCDE989
:106C90000323CDE901013B46B7223146284634F0B3
:106CA00071FF0F2033F0BFF900208149086021E017
:106CB00002208DF8140001A87D490968405C8DF818
:106CC000150001A97A480068401C085C8DF8160080
:106CD000002305AA3146284635F014F80F2033F07A
:106CE000A2F973480068401C7149086008460068B2
:106CF000401C08606E4800680E28D9D34FF4FA7023
:106D000033F091F947F08003B7223146284634F03A
:106D100039FF0123BC223146284634F033FF0223D9
:106D2000C1223146284634F02DFF00BF01208DF8E6
:106D30001400DB208DF81500002305AA31462846F3
:106D400034F0E0FF062033F06EF9FF22314628468A
:106D500035F0A0F92071642033F065F9207900F056
:106D600080008028E2D1052033F05DF92F202070CB
:106D700003206070802020714B46B72231462846A0
:106D800034F000FFA078C01CC3B2224681214046E7
:106D900035F0A5FD06B0BDE8F08770B504AC70CC49
:106DA00070BD2DE9F04786B080468A4615461E46DE
:106DB000DDE90F790E9C4AA00068049049A207CA39
:106DC000CDE9021201903B46B7223146284634F005
:106DD000D9FE0F2033F027F900203549086021E063
:106DE00002208DF8140001A831490968405C8DF833
:106DF000150001A92E480068401C085C8DF816009B
:106E0000002305AA3146284634F07CFF052033F0E4
:106E10000AF927480068401C2549086008460068B0
:106E2000401C0860224800680A28D9D34FF4FA7041
:106E300033F0F9F847F08003B7223146284634F0A2
:106E4000A1FE0123BC223146284634F09BFE0020DF
:106E50001749086058E00123C1223146284634F022
:106E600091FE01208DF8140004A811490968405CC6
:106E70008DF81500002305AA3146284634F042FF5C
:106E8000062033F0D0F8FF223146284630E00000DB
:106E9000FE2604CF104B142229011E21FE205F0183
:106EA0000913FE26F302181C19EC1AF2EAEBEC00A7
:106EB00064140020FEA00B11FED05853078D4281B0
:106EC0005558FED26E20FE405B015E400E40FE0033
:106ED000FE261B00F204150016001700F210000039
:106EE000E6E70000FE26181C19EC1AF2F201000079
:106EF00035F0D0F8C1B2EC480068001D2154EA48D2
:106F00000068401CE8490860E74800680228A2D3EE
:106F1000052033F088F82F202070042060704B4645
:106F2000B7223146284634F02DFEA078C01CC3B2EB
:106F300022468121404635F0D2FC06B0BDE8F087FC
:106F40002DE9FE4F80468B4615461E46DDE90D793C
:106F50000C9CD6A003C8CDE900014FF0DB0A3B46EC
:106F6000B7223146284634F00DFE0F2033F05BF88F
:106F70000020CD49086021E002208DF80800CA49B0
:106F800009681DF801008DF80900C7480068401C19
:106F90001DF800008DF80A00002302AA3146284699
:106FA00034F0B0FE052033F03EF8BF480068401CC6
:106FB000BD49086008460068401C0860BA4800687F
:106FC0000828D9D347F08003B7223146284634F049
:106FD000D9FD0123BC223146284634F0D3FD0223DB
:106FE000C1223146284634F0CDFD00BF01208DF886
:106FF00008008DF809A0002302AA3146284634F083
:1070000081FE062033F00FF8FF223146284635F086
:1070100041F82071207900F080008028E6D1052019
:1070200033F001F82F20207005206070802020713F
:107030004B46B7223146284634F0A4FDA078C01C48
:10704000C3B222468121404635F049FCBDE8FE8F9F
:1070500070B504AC70CC70BD2DE9FE4F07468A4672
:1070600015461E46DDE90D890C9C92A00068009033
:107070004346B7223146284634F084FD0F2032F0D3
:10708000D2FF00208849086021E002208DF804002A
:10709000854909681DF801008DF8050082480068DF
:1070A000401C1DF800008DF80600002301AA31469F
:1070B000284634F027FE052032F0B5FF7A480068F4
:1070C000401C7949086008460068401C0860764802
:1070D00000680428D9D3052032F0A5FF2F202070A6
:1070E000072060704B46B7223146284634F04AFDEF
:1070F000A078C01CC3B222468121384635F0EFFB90
:10710000BDE8FE8F2DE9FE4F07468A4615461E460E
:10711000DDE90D890C9C68A0006800904346B72209
:107120003146284634F02EFD0F2032F07CFF00203F
:107130005D49086021E002208DF804005A49096881
:107140001DF801008DF8050057480068401C1DF827
:1071500000008DF80600002301AA3146284634F0CD
:10716000D1FD052032F05FFF4F480068401C4E49BA
:10717000086008460068401C08604B480068042806
:10718000D9D3052032F04FFF2F20207008206070E7
:107190004B46B7223146284634F0F4FCA078C01C98
:1071A000C3B222468121384635F099FBBDE8FE8FF7
:1071B0002DE9FE4F0646894692461F46DDE90C84BE
:1071C0000E9D3E4840780B286AD2DFE800F0690641
:1071D000111C27323D4853695E0038488DE8310064
:1071E0003748027B3B4681213046FFF7E9FC58E0F7
:1071F00032488DE831003248027B3B4681213046DF
:10720000FFF735FD4DE02D488DE831002C48027B1D
:107210003B4681213046FFF72EFD42E027488DE8AE
:1072200031002748027B3B4681213046FFF7B9FDFC
:1072300037E022488DE831002148027B3B4681211E
:107240003046FFF77DFE2CE01C488DE831001C48DD
:10725000027B3B4681213046FFF71CFC21E01748AA
:107260008DE831001648027B3B4681213046FFF70E
:10727000F3FE16E011488DE831001148027B3B46D1
:1072800081213046FFF73EFF0BE00C488DE83100CE
:107290000B48027B3B4681213046FFF77EFD00E034
:1072A00000BF00BFBDE8FE8F64140020FE261B0057
:1072B000F204F301FE227700FE227704790A01200E
:1072C000203D00202DE9F04788B007468A46154644
:1072D0001E46DDE91189109C1C22FEA1684642F081
:1072E00057FF4346B7223146284634F04BFC0F2067
:1072F00032F099FE0020FE49086021E002208DF85E
:107300001C00FB4909681DF801008DF81D00F848B4
:107310000068401C1DF800008DF81E00002307AA1D
:107320003146284634F0EEFC0F2032F07CFEF04867
:107330000068401CEE49086008460068401C086070
:10734000EB4800681C28D9D32F20207001206070E2
:107350004B46B7223146284634F014FCA078C01CB6
:10736000C3B222468121384635F0B9FA08B0BDE8EB
:10737000F0872DE9F04786B080468A4615461E46BE
:10738000DDE90F790E9CDBA30FCBCDE90323CDE91B
:10739000010140F6C41032F046FE3B46B7223146AA
:1073A000284634F0EFFB642032F03DFE0020D04947
:1073B000086021E002208DF8140001A8CC4909687A
:1073C000405C8DF8150001A9C9480068401C085CA4
:1073D0008DF81600002305AA3146284634F092FCA9
:1073E000052032F020FEC2480068401CC0490860F9
:1073F00008460068401C0860BD4800680E28D9D3C4
:107400004FF4FA6032F00FFE47F08003B7223146A6
:10741000284634F0B7FB0123BC223146284634F01D
:10742000B1FB0223C1223146284634F0ABFB00BF3A
:1074300001208DF81400DB208DF81500002305AA2B
:107440003146284634F05EFC062032F0ECFDFF2287
:107450003146284634F01EFE2071642032F0E3FDF0
:10746000207900F080008028E2D1052032F0DBFD99
:107470002F20207003206070802020714B46B7229F
:107480003146284634F07EFBA078C01CC3B22246A9
:107490008121404635F023FA06B0BDE8F0872DE99A
:1074A000F04786B080468A4615461E46DDE90F79CC
:1074B0000E9C94A00068049093A207CACDE9021222
:1074C00001903B46B7223146284634F05BFB0F2043
:1074D00032F0A9FD00208649086021E002208DF8E5
:1074E000140001A882490968405C8DF8150001A9C3
:1074F0007F480068401C085C8DF81600002305AA30
:107500003146284634F0FEFB052032F08CFD7848E9
:107510000068401C7649086008460068401C086006
:10752000734800680A28D9D34FF4FA7032F07BFD13
:1075300047F08003B7223146284634F023FB01236D
:10754000BC223146284634F01DFB00206849086003
:1075500026E00123C1223146284634F013FB0120E6
:107560008DF8140004A862490968405C8DF8150084
:10757000002305AA3146284634F0C4FB062032F029
:1075800052FDFF223146284634F084FDC1B25848EE
:107590000068001D215456480068401C544908608A
:1075A000534800680228D4D3052032F03CFD2F2038
:1075B0002070042060704B46B7223146284634F0D4
:1075C000E1FAA078C01CC3B222468121404635F0C2
:1075D00086F906B0BDE8F0872DE9FE4F80468B4660
:1075E00015461E46DDE90D790C9C4AA003C8CDE97D
:1075F00000014FF0DB0A3B46B7223146284634F003
:10760000C1FA0F2032F00FFD00203949086021E057
:1076100002208DF80800364909681DF801008DF830
:10762000090033480068401C1DF800008DF80A006E
:10763000002302AA3146284634F064FB052032F0CC
:10764000F2FC2B480068401C294908600846006885
:10765000401C0860264800680828D9D347F08003FA
:10766000B7223146284634F08DFA0123BC22314638
:10767000284634F087FA0223C1223146284634F0E6
:1076800081FA00BF01208DF808008DF809A00023C1
:1076900002AA3146284634F035FB062032F0C3FCFE
:1076A000FF223146284634F0F5FC2071207900F0A5
:1076B00080008028E6D1052032F0B5FC2F20207014
:1076C00005206070802020714B46B7223146284645
:1076D00024E00000FEA00B11FED05853078D42811C
:1076E0005558FED26E20FE405B015E400E40FE000B
:1076F00064140020FE261B00F2041500160017007B
:10770000F2100000E6E70000FE26181C19F91A9A8C
:10771000F2010000FE261B00F204F30134F032FAFD
:10772000A078C01CC3B222468121404635F0D7F86C
:10773000BDE8FE8F70B504AC70CC70BD2DE9F0478C
:1077400098B080468A4615461E46DDE92179209C80
:107750000E2113A842F078FDFC49D1E90020896888
:10776000CDE910201291FAA000680F900E210BA80D
:1077700042F06AFDF54A0C3207CA08AB07C30E2176
:1077800004A842F061FDF14A183207CA01AB07C3F1
:107790003B46B7223146284634F0F4F90F2032F048
:1077A00042FCE079022804D006282DD007287DD19C
:1077B00055E00020E749086021E002208DF85C00D8
:1077C00010A8E4490968405C8DF85D0010A9E14803
:1077D0000068401C085C8DF85E00002317AA314643
:1077E000284634F08FFA0F2032F01DFCD94800688B
:1077F000401CD849086008460068401C0860D5480D
:1078000000681A28D9D358E00020D249086021E046
:1078100002208DF85C0008A8CE490968405C8DF80C
:107820005D0008A9CB480068401C085C8DF85E002C
:10783000002317AA3146284634F064FA0F2032F0AC
:10784000F2FBC4480068401CC24908600846006852
:10785000401C0860BF4800681A28D9D32DE00020DA
:10786000BC49086021E002208DF85C0001A8B949FC
:107870000968405C8DF85D0001A9B6480068401CAD
:10788000085C8DF85E00002317AA3146284634F0C4
:1078900039FA0F2032F0C7FBAE480068401CAD49F2
:1078A000086008460068401C086000E004E0A94841
:1078B00000681A28D7D300E000BF00BF47F080035C
:1078C000B7223146284634F05DF90123BC22314607
:1078D000284634F057F900209E49086026E001232D
:1078E000C1223146284634F04DF901208DF85C0064
:1078F0000FA898490968405C8DF85D00002317AA1D
:107900003146284634F0FEF9062032F08CFBFF2287
:107910003146284634F0BEFBC1B28E480068001DD7
:1079200021548C480068401C8A49086089480068D6
:107930000328D4D3052032F076FB4B46B7223146DC
:10794000284634F01FF9A078C01CC3B2224681211A
:10795000404634F0C4FF18B0BDE8F0872DE9FC477D
:1079600007468A4615461E46DDE90B890A9C7AA021
:10797000006800904346B7223146284634F002F9A9
:107980000F2032F050FB00207249086021E00220F5
:107990008DF804006F4909681DF801008DF8050095
:1079A0006C480068401C1DF800008DF8060000239C
:1079B00001AA3146284634F0A5F9052032F033FB00
:1079C00064480068401C6349086008460068401C21
:1079D0000860604800680428D9D3052032F023FBF2
:1079E0002F202070072060704B46B7223146284672
:1079F00034F0C8F8A078C01CC3B2224681213846B2
:107A000034F06DFFBDE8FC872DE9FC4707468A4648
:107A100015461E46DDE90B890A9C50A000680090BF
:107A20004346B7223146284634F0ACF80F2032F0F6
:107A3000FAFA00204749086021E002208DF804008E
:107A4000444909681DF801008DF8050041480068A7
:107A5000401C1DF800008DF80600002301AA3146E5
:107A6000284634F04FF9052032F0DDFA3948006835
:107A7000401C3849086008460068401C08603548CA
:107A800000680428D9D3052032F0CDFA2F202070C9
:107A9000082060704B46B7223146284634F072F811
:107AA000A078C01CC3B222468121384634F017FFAB
:107AB000BDE8FC872DE9FE4F0646894692461F46E3
:107AC000DDE90C840E9D26484078092862D2DFE863
:107AD00000F0610561101B26314B560020488DE8EF
:107AE00031002048027B3B4681213046FFF7EAFB0C
:107AF00051E01B488DE831001A48027B3B4681214A
:107B00003046FFF736FC46E015488DE83100154851
:107B1000027B3B4681213046FFF7C1FC3BE0104829
:107B20008DE831000F48027B3B4681213046FFF74C
:107B300053FD30E00A488DE831000A48027B3B469D
:107B400081213046FFF7FAFD25E00000D43D07080B
:107B5000EAEBEC0064140020FE227700FE2277029C
:107B6000790A0120203D00200C488DE831000C48A6
:107B7000027B3B4681213046FFF7F0FE0BE00748D1
:107B80008DE831000648027B3B4681213046FFF7F5
:107B90003BFF00E000BF00BFBDE8FE8F790A012077
:107BA000203D00202DE9F04788B007468A4615465B
:107BB0001E46DDE91189109C1822FEA101A842F0A1
:107BC000E7FA4346B7223146284633F0DBFF0F2061
:107BD00032F029FAE0793C2829D10020FB490860DD
:107BE00021E002208DF81C0001A8F8490968405CDA
:107BF0008DF81D0001A9F5480068401C085C8DF84F
:107C00001E00002307AA3146284634F07BF83220B4
:107C100032F009FAED480068401CEC49086008465B
:107C20000068401C0860E94800681628D9D32F2056
:107C30002070012060704B46B7223146284633F051
:107C4000A1FFA078C01CC3B222468121384634F07F
:107C500046FE08B0BDE8F08770B504AC70CC70BDCE
:107C60002DE9F04F87B080468B4615461E46DDE96C
:107C70001179109C4FF0000A1822D5A1684642F0F5
:107C800087FA3B46B7223146284633F07BFF0F2068
:107C900032F0C9F9E0793C287DD12F2020700320F3
:107CA0006070082020710020C849086021E002208F
:107CB0008DF81800C54909681DF801008DF81900F4
:107CC000C2480068401C1DF800008DF81A0000230F
:107CD00006AA3146284634F015F8642032F0A3F99C
:107CE000BA480068401CB949086008460068401C52
:107CF0000860B64800681828D9D341F2707032F095
:107D000092F902208DF81800FE208DF81900E0206D
:107D10008DF81A00002306AA3146284633F0F2FFF8
:107D2000052032F080F947F08003B722314628461B
:107D300033F028FF0F2032F076F90223C1223146BA
:107D4000284633F01FFF00BF01208DF818006B207C
:107D50008DF81900002306AA3146284633F0D2FFD9
:107D6000142032F060F9FF223146284634F092F9AF
:107D70002071322032F057F90AF101008246B0F545
:107D80007A7F03D90020207106E004E0207900F01A
:107D900008000828D8D100BF4B46B72231462846F4
:107DA00033F0F0FEA078C01CC3B2224681214046C9
:107DB00034F095FD07B0BDE8F08F2DE9F04F87B0A6
:107DC00080468B4615461E46DDE91179109C4FF022
:107DD000000A182284A1684642F0DAF93B46B7222D
:107DE0003146284633F0CEFE0F2032F01CF9E07900
:107DF0003C2877D12F2020700A2060700820207145
:107E000000207249086021E002208DF818006F49B7
:107E100009681DF801008DF819006C480068401CC5
:107E20001DF800008DF81A00002306AA31462846E6
:107E300033F068FF642032F0F6F864480068401CB4
:107E40006249086008460068401C08605F48006896
:107E50001828D9D341F2707032F0E5F802208DF87D
:107E60001800FE208DF81900E0208DF81A0000237C
:107E700006AA3146284633F045FF052032F0D3F8F4
:107E800047F08003B7223146284633F07BFE0F20AF
:107E900032F0C9F80123C1223146284633F072FE80
:107EA00000BF01208DF818006B208DF81900002309
:107EB00006AA3146284633F025FF142032F0B3F8E5
:107EC000FF223146284634F0E5F82071322032F0A6
:107ED000AAF80AF101008246B0F57A7F03D90020A2
:107EE000207106E013E0207900F008000828D8D1BE
:107EF00000BF4B46B7223146284633F043FEA078F8
:107F0000C01CC3B222468121404634F0E8FC07B0D1
:107F1000BDE8F08F2DE9F04F87B080468B461546BF
:107F20001E46DDE91179109C4FF0000A182234A199
:107F3000684642F02DF93B46B7223146284633F0D9
:107F400021FE0F2032F06FF8E0793C287ED12F20FF
:107F500020700F2060700820207100201B490860ED
:107F600021E002208DF81800184909681DF8010069
:107F70008DF8190015480068401C1DF800008DF8A8
:107F80001A00002306AA3146284633F0BBFE6420BF
:107F900032F049F80D480068401C0C49086008465A
:107FA0000068401C0860094800681828D9D341F2CD
:107FB000707031E0FE400E80FED21855FED00309ED
:107FC0004D017801FE401082FE0000006414002084
:107FD000FE20F204FED218551200130014001517EB
:107FE00016FF17FFFE20F210FE20F204FED21855F5
:107FF000121813001400152F16FE17FFFE20F210A2
:10800000FE20F204FED21855123013001400153071
:1080100016C81786FE20F21032F005F802208DF8FF
:108020001800FE208DF81900E0208DF81A000023BA
:1080300006AA3146284633F065FE052031F0F3FFED
:1080400047F08003B7223146284600E040E033F095
:1080500099FD0F2031F0E7FF0123C1223146284668
:1080600033F090FD00BF01208DF818006B208DF8D3
:108070001900002306AA3146284633F043FE142097
:1080800031F0D1FFFF223146284634F003F8207149
:10809000322031F0C8FF0AF101008246B0F57A7F44
:1080A00002D90020207105E0207900F0080008289E
:1080B000D9D100BF4B46B7223146284633F062FD86
:1080C000A078C01CC3B222468121404634F007FC90
:1080D00007B0BDE8F08F2DE9F0478CB080468A46A6
:1080E00015461E46DDE91579149CFEA000680A902D
:1080F0002422FD4901A842F04BF8FCA00068009042
:108100003B46B7223146284633F03CFD0F2031F084
:108110008AFFE0793C287CD10020F549086021E005
:1081200002208DF82C0001A8F1490968405C8DF807
:108130002D0001A9EE480068401C085C8DF82E0057
:1081400000230BAA3146284633F0DCFD062031F02F
:108150006AFFE7480068401CE54908600846006877
:10816000401C0860E24800682228D9D30A2031F078
:108170005AFF0020DE49086021E002208DF82C0023
:10818000DB4909681DF801008DF82D00D84800680A
:10819000401C1DF800008DF82E0000230BAA31466C
:1081A000284633F0AFFD052031F03DFFD048006890
:1081B000401CCF49086008460068401C0860CC4855
:1081C00000680428D9D3C82031F02DFF02208DF893
:1081D0002C00FE208DF82D0020208DF82E0000238D
:1081E0000BAA3146284633F08DFD0F2031F01BFFDE
:1081F00047F08003B7223146284633F0C3FC012301
:10820000BC223146284633F0BDFC0020B849086046
:1082100027E03FE00123C1223146284633F0B2FC7B
:1082200001208DF82C000AA8B1490968405C8DF83E
:108230002D0000230BAA3146284633F063FD0620AB
:1082400031F0F1FEFF223146284633F023FFC1B260
:10825000A7480068001D2154A5480068401CA44997
:108260000860A34800680228D4D3052031F0DBFE63
:108270002F202070042060704B46B72231462846DC
:1082800033F080FCA078C01CC3B222468121404656
:1082900034F025FB0CB0BDE8F0872DE9FF5F804688
:1082A0008B4615461E46DDE90F790E9CE0793C2889
:1082B0007DD190A207CA8DE807004FF06B0A3B46BC
:1082C000B7223146284633F05DFC0F2031F0ABFE7B
:1082D00000208749086021E002208DF80C008449C5
:1082E00009681DF801008DF80D0081480068401CE8
:1082F0001DF800008DF80E00002303AA3146284621
:1083000033F000FD052031F08EFE79480068401CF6
:108310007749086008460068401C08607448006897
:108320000A28D9D30A2031F07EFE02208DF80C00F5
:10833000FE208DF80D00E0208DF80E00002303AA2A
:108340003146284633F0DEFC44F6206031F06BFE07
:1083500047F08003B7223146284633F013FC01234F
:10836000BC223146284633F00DFC0223C12231469F
:10837000284633F007FC00BF01208DF80C008DF873
:108380000DA0002303AA3146284633F0BBFC06208B
:1083900031F049FEFF223146284633F07BFE207142
:1083A000207900F008000828E6D1052000E016E05A
:1083B00031F039FE2F2020700520607008202071D8
:1083C0004B46B7223146284633F0DCFBA078C01C70
:1083D000C3B222468121404634F081FA00BFBDE895
:1083E000FF9F70B504AC70CC70BD2DE9F0478AB02A
:1083F00080468A4615461E46DDE91379129C2022E6
:108400003FA101A841F0C4FE45A000680090E079BA
:108410003C2865D13B46B7223146284633F0B2FBB3
:108420000F2031F000FE00203149086021E00220D9
:108430008DF8240001A82E490968405C8DF82500BC
:1084400001A92B480068401C085C8DF82600002319
:1084500009AA3146284633F055FC0F2031F0E3FDE0
:1084600023480068401C2249086008460068401CF8
:1084700008601F4800681E28D9D347F08003B72240
:108480003146284633F07EFB0123BC223146284684
:1084900033F078FB00201649086049E00123C1222F
:1084A0003146284633F06EFB01208DF82400104938
:1084B00009681DF801008DF82500002309AA31463E
:1084C000284633F01FFC062031F0ADFDFF22314677
:1084D000284633F0DFFDC1B205480068001D21E0E9
:1084E0003BE00000F8F90000F83D0708FE20F4AA80
:1084F00064140020FED21855FE20F204F30100009F
:10850000FED201CFFED20485FE702D51040B056012
:108510002B16FE20F308F300F304F302FEE0000044
:108520006D6E6F0021546C480068401C6A490860F9
:10853000694800680328B1D3052031F074FD4B462B
:10854000B7223146284633F01DFBA078C01CC3B2C9
:1085500022468121404634F0C2F90AB0BDE8F087D6
:108560002DE9FE4F07468A4615461E46DDE90D8970
:108570000C9CE0793C284CD158A003C8CDE90001FF
:108580004346B7223146284633F0FCFA0F2031F03B
:108590004AFD00205049086021E002208DF80800C3
:1085A0004D4909681DF801008DF809004A48006826
:1085B000401C1DF800008DF80A00002302AA314675
:1085C000284633F09FFB052031F02DFD424800681E
:1085D000401C4149086008460068401C08603E484D
:1085E00000680828D9D3052031F01DFD2F20207008
:1085F000072060704B46B7223146284633F0C2FA56
:10860000A078C01CC3B222468121384634F067F9F5
:1086100000BFBDE8FE8F2DE9FE4F07468A4615468E
:108620001E46DDE90D890C9CE0793C284CD12DA03B
:1086300003C8CDE900014346B7223146284633F04E
:10864000A1FA0F2031F0EFFC00202349086021E05F
:1086500002208DF80800204909681DF801008DF8F6
:1086600009001D480068401C1DF800008DF80A0034
:10867000002302AA3146284633F044FB052031F09E
:10868000D2FC15480068401C134908600846006881
:10869000401C0860104800680828D9D3052031F034
:1086A000C2FC2F202070082060704B46B722314654
:1086B000284633F067FAA078C01CC3B22246812155
:1086C000384634F00CF900BFBDE8FE8F70B504AC3D
:1086D00070CC00BF00BF70BD64140020FED20EC07D
:1086E0000F7FAA01FED20EC00F7FAA812DE9F04FA5
:1086F00091B081468B4616461D46DDE91B7A1A9CD1
:108700004FF000083422F3A103A841F041FDFEA17F
:1087100003C9CDE901013B46B7222946304633F073
:1087200031FA052031F07FFC02208DF84000B020A6
:108730008DF8410000208DF84200002310AA294640
:10874000304633F0DFFA022031F06DFC002303AA3B
:108750002946304633F0D6FA022031F064FC00237B
:1087600001AA2946304633F0CDFA022031F05BFCF5
:10877000F2208DF8410009208DF84200002310AA54
:108780002946304633F0BEFA0F2031F04CFC47F05A
:108790008003B7222946304633F0F4F90323C1227F
:1087A0002946304633F0EEF90123C02229463046EF
:1087B00033F0E8F901208DF84000F4208DF84100F5
:1087C000002310AA2946304633F09CFA052031F0E8
:1087D0002AFCFA23D4222946304633F0D3F9FF226B
:1087E0002946304633F0BCF90020C94908601FE033
:1087F000FA222946304633F0B3F9284632F052FDCA
:1088000080464FEA2821C2480068001D2154C04814
:108810000068401D04F80080052031F004FCBC48CD
:108820000068401CBA49086008460068401C08609F
:10883000B74800680328DBD33020E071052031F011
:10884000F2FB5346B7222946304633F09BF9A07815
:10885000C01CC3B222468121484634F040F811B012
:10886000BDE8F08F2DE9F04707468A4615461E46BB
:10887000DDE90989089C4346B7223146284633F092
:1088800081F90F2031F0CFFB3246294638460AF0F5
:1088900055F92F202070012060704B46B7223146D9
:1088A000284633F06FF9A078C01CC3B2224681215C
:1088B000384634F014F8BDE8F08770B504AC70CCDD
:1088C00070BD70B504AC70CC70BD70B504AC70CC2C
:1088D00070BD2DE9F84F82468B4616461D46DDE9F0
:1088E0000B780A9C4FF000093B46B72229463046D8
:1088F00033F048F90F2031F096FB48F482604FF6D0
:10890000FD7100EA0103B7222946304633F03AF9F7
:10891000052031F088FB02208DF80000B0208DF892
:10892000010004208DF8020000236A4629463046E3
:1089300033F0E8F9022031F076FB47F08003B722EC
:108940002946304633F01EF90823C1222946304615
:1089500033F018F90123C0222946304633F012F9CA
:1089600001208DF80000E7208DF8010000236A4601
:108970002946304633F0C6F9052031F054FBFA237E
:10898000D4222946304633F0FDF8FF2229463046EE
:1089900033F0E6F800205E4908601FE0FA2229461D
:1089A000304633F0DDF8284632F07CFC81464FEA51
:1089B000292157480068001D215455480068401D72
:1089C00004F80090052031F02EFB51480068401C4F
:1089D0004F49086008460068401C08604C48006821
:1089E0000828DBD3607A2071A07A60713020E071B2
:1089F000052031F018FB2F202070042060704346C2
:108A0000B7222946304633F0BDF8A078C01CC3B267
:108A100022468121504633F062FFBDE8F88F2DE9F0
:108A2000F04707468A4615461E46DDE90989089C37
:108A30004346B7223146284633F0A4F80F2031F0E0
:108A4000F2FA3246294638460AF01AFD2F202070E5
:108A500005206070002020714B46B7223146284621
:108A600033F090F8A078C01CC3B22246812138466A
:108A700033F035FFBDE8F08770B504AC70CC70BD45
:108A80002DE9FC4707468A4615461E46DDE90B8957
:108A90000A9C4346B7223146284633F073F80F202C
:108AA00031F0C1FA02208DF80000B0208DF80100ED
:108AB00080208DF8020000236A463146284633F0B4
:108AC00021F9D4208DF8010093208DF802000023B5
:108AD0006A461FE034DF004058832D05351501310B
:108AE000116B50000200004384001000DFD40E0020
:108AF0000013FF8C27170F0055180F001A0F001CCA
:108B00000F001E0F0000000006F39F00000002008F
:108B1000641400203146284633F0F4F8052031F083
:108B200082FA2F202070072060704B46B722314612
:108B3000284633F027F8A078C01CC3B22246812112
:108B4000384633F0CCFEBDE8FC872DE9FC470746EC
:108B50008A4615461E46DDE90B890A9C4346B72224
:108B60003146284633F00EF80F2031F05CFA02202F
:108B70008DF80000B0208DF8010080208DF80200F3
:108B800000236A463146284633F0BCF8D4208DF8DD
:108B9000010090208DF8020000236A4631462846E5
:108BA00033F0B0F8052031F03EFA2F202070082075
:108BB00060704B46B7223146284632F0E3FFA0787A
:108BC000C01CC3B222468121384633F088FEBDE87E
:108BD000FC872DE9FE4F0646894692461F46DDE991
:108BE0000C840E9D394840780B286AD2DFE800F0EB
:108BF0006906111C27323D4853695E0033488DE8F1
:108C000031003348027B3B4681213046FFF72AFE84
:108C100058E02E488DE831002D48027B3B468121EB
:108C20003046FFF74AFE4DE028488DE831002848DD
:108C3000027B3B4681213046FFF743FE42E023485A
:108C40008DE831002248027B3B4681213046FFF708
:108C500040FE37E01D488DE831001D48027B3B4651
:108C600081213046FFF7DBFE2CE018488DE831000B
:108C70001748027B3B4681213046FFF737FD21E054
:108C800012488DE831001248027B3B468121304674
:108C9000FFF7F6FE16E00D488DE831000C48027B28
:108CA0003B4681213046FFF750FF0BE007488DE837
:108CB00031000748027B3B4681213046FFF705FE25
:108CC00000E000BF00BFBDE8FE8F0000790A012070
:108CD000203D00202DE9F04F91B081468B4616468D
:108CE0001D46DDE91B7A1A9C4FF000083422F3A1DF
:108CF00003A841F04DFAFEA103C9CDE901013B46AD
:108D0000B7222946304632F03DFF052031F08BF97D
:108D100002208DF84000B0208DF8410000208DF831
:108D20004200002310AA2946304632F0EBFF022011
:108D300031F079F9002303AA2946304632F0E2FFE8
:108D4000022031F070F9002301AA2946304632F0A2
:108D5000D9FF022031F067F9F2208DF84100092097
:108D60008DF84200002310AA2946304632F0CAFF8F
:108D70000F2031F058F947F08003B72229463046DA
:108D800032F000FF0323C1222946304632F0FAFEBA
:108D90000123C0222946304632F0F4FE01208DF82E
:108DA0004000F4208DF84100002310AA29463046E7
:108DB00032F0A8FF052031F036F9FA23D4222946F3
:108DC000304632F0DFFEFF222946304632F0C8FE40
:108DD0000020C94908601FE0FA222946304632F0D7
:108DE000BFFE284632F05EFA80464FEA2821C2488C
:108DF0000068001D2154C0480068401D04F8008030
:108E0000052031F010F9BC480068401CBA490860E0
:108E100008460068401C0860B74800680328DBD398
:108E20002F20207006206070052031F0FCF853469A
:108E3000B7222946304632F0A5FEA078C01CC3B246
:108E400022468121484633F04AFD11B0BDE8F08F3B
:108E50002DE9F04788B007468A4615461E46DDE9EB
:108E60001189109CA5A207CACDE904120390A6A2FD
:108E700007CA8DE807004346B7223146284632F03C
:108E800081FE0F2031F0CFF820790004617900EBEA
:108E90000120A17908449F49086002208DF818003C
:108EA000B0208DF8190004208DF81A00002306AABE
:108EB0003146284632F026FF04208DF81800DF20C6
:108EC0008DF819005F208DF81A0000208DF81B0026
:108ED0005A208DF81C00002306AA3146284632F09D
:108EE00011FF052031F09FF8002303AA31462846E0
:108EF00032F008FF052031F096F802208DF81800B6
:108F0000F2208DF8190011208DF81A00002306AA0E
:108F10003146284632F0F6FE052031F084F8002371
:108F20006A463146284632F0EDFE052031F07BF8E6
:108F300002208DF81800F2208DF8190009208DF814
:108F40001A00002306AA3146284632F0DBFE2F2005
:108F50002070012060704B46B7223146284632F01F
:108F600011FEA078C01CC3B222468121384633F0DE
:108F7000B6FC08B0BDE8F08770B504AC70CC70BD2D
:108F800070B504AC70CC70BD70B504AC70CC70BD65
:108F90002DE9F84F82468B4616461D46DDE90B78D3
:108FA0000A9C4FF000093B46B7222946304632F072
:108FB000E9FD0F2031F037F848F482604FF6FD717B
:108FC00000EA0103B7222946304632F0DBFD0520D6
:108FD00031F029F802208DF80000B0208DF8010052
:108FE00000208DF8020000236A462946304632F000
:108FF00089FE022031F017F847F08003B722294696
:10900000304632F0BFFD0823C1222946304632F0F7
:10901000B9FD0123C0222946304632F0B3FD0120BC
:109020008DF80000E7208DF8010000236A462946EC
:10903000304632F067FE052030F0F5FFFA23D422E7
:109040002946304632F09EFDFF222946304632F056
:1090500087FD0020284908601FE0FA222946304693
:1090600032F07EFD284632F01DF981464FEA292173
:1090700021480068001D21541F480068401D04F865
:109080000090052030F0CFFF1B480068401C1A49B3
:10909000086008460068401C0860174800680828F7
:1090A000DBD360792071A0796071052030F0BBFFBF
:1090B0002F2020700420607043462DE034DF0040F4
:1090C00058832D0535150131116B50000200004306
:1090D00084001000DFD40E000013FF8C27170F0050
:1090E00055180F001A0F001C0F001E0F0000000083
:1090F00006F39F00000002006414002009F306003C
:10910000000000000000000009F30500000000005E
:10911000F400000024000020B7222946304632F037
:1091200031FDA078C01CC3B222468121504633F0E5
:10913000D6FBBDE8F88F2DE9FF4F85B091469A46E2
:10914000DDE912450026F6A103C9CDE901014FF082
:10915000F40B0027B0464FF450752B46B72251460A
:10916000484632F00FFD0F2030F05DFF277960791F
:1091700000EB0727A07900EB072700BF6FE107EBA3
:10918000060802208DF80C00B0208DF80D00042098
:109190008DF80E00002303AA5146484632F0B2FD76
:1091A00002208DF80C00F1208DF80D0001208DF8C3
:1091B0000E00002303AA5146484632F0A3FD0320C7
:1091C0008DF80C00DF208DF80D0040208DF80E008A
:1091D00058208DF80F00002303AA5146484632F06C
:1091E00091FD002301AA5146484632F08BFD022032
:1091F0008DF80C00F2208DF80D0011208DF80E0076
:10920000002303AA5146484632F07CFD012030F08D
:109210000AFF31208DF8060000208DF80A00002397
:1092200001AA5146484632F06DFD02208DF80C002F
:10923000F4208DF80D0000208DF80E00002303AA05
:109240005146484632F05EFD02208DF80C00F220B7
:109250008DF80D0019208DF80E00002303AA514649
:10926000484632F04FFD012030F0DDFE05208DF83C
:10927000060000208DF80A00002301AA5146484646
:1092800032F040FD02208DF80C00F2208DF80D0028
:1092900009208DF80E00002303AA5146484632F0FB
:1092A00031FD022030F0BFFE45F08003B722514669
:1092B000484632F067FC0123BC225146484632F052
:1092C00061FC00BF0223C1225146484632F05AFCDD
:1092D00001208DF80C008DF80DB0002303AA514633
:1092E000484632F00FFD062030F09DFEFF20207131
:1092F000FF225146484632F0CDFE2071FF225146F2
:10930000484632F0C7FE207100200028DAD12B46F3
:10931000B7225146484632F035FC012030F083FE3A
:1093200006208DF80600002301AA5146484632F077
:10933000E9FC02208DF80C00F2208DF80D001120C0
:109340008DF80E00002303AA5146484632F0DAFC9D
:10935000012030F068FE20208DF8060008F0FF00A4
:109360008DF807004FEA18208DF808004FEA1840E2
:109370008DF80900002301AA5146484632F0C2FC8C
:1093800002208DF80C00F2208DF80D0013208DF8CE
:109390000E00002303AA5146484632F0B3FC3220A7
:1093A00030F041FE05208DF8060000208DF8070002
:1093B0008DF808008DF80900002301AA514648469F
:1093C00032F0A0FC02208DF80C00F2208DF80D0088
:1093D00009208DF80E00002303AA5146484632F0BA
:1093E00091FC022030F01FFE45F08003B722514669
:1093F000484632F0C7FB0123BC225146484632F0B2
:10940000C1FB00BF0223C1225146484632F0BAFBDD
:1094100001208DF80C008DF80DB0002303AA5146F1
:10942000484632F06FFCFF202071062030F0FBFD33
:10943000FF225146484632F02DFE2071FF22514650
:10944000484632F027FE207100200028DAD12B4652
:10945000B7225146484632F095FB06F58056B6F5E0
:109460006E2FFFF48CAE2F20207005206070B72285
:1094700051464846149B32F085FBA078C01CC3B20D
:1094800022468121059833F02AFA09B0BDE8F08F11
:1094900070B504AC70CC70BD2DE9FC4707468A4618
:1094A00015461E46DDE90B890A9C4346B722314624
:1094B000284632F067FB0F2030F0B5FD02208DF812
:1094C0000000B0208DF8010080208DF802000023FC
:1094D0006A463146284632F015FCD4208DF801004A
:1094E00093208DF8020000236A463146284632F068
:1094F00009FC052030F097FD2F20207007206070B8
:109500004B46B7223146284632F03CFBA078C01CBF
:10951000C3B222468121384633F0E1F9BDE8FC8729
:1095200006F35000000000002DE9FC4707468A467C
:1095300015461E46DDE90B890A9C4346B722314693
:10954000284632F01FFB0F2030F06DFD02208DF811
:109550000000B0208DF8010080208DF8020000236B
:109560006A463146284632F0CDFBD4208DF8010002
:1095700090208DF8020000236A463146284632F0DA
:10958000C1FB052030F04FFD2F20207008206070B7
:109590004B46B7223146284632F0F4FAA078C01C78
:1095A000C3B222468121384633F099F9BDE8FC87E1
:1095B0002DE9FE4F0646894692461F46DDE90C849A
:1095C0000E9D394840780B286AD2DFE800F0690622
:1095D000111C27323D4853695E0033488DE8310045
:1095E0003248027B3B4681213046FFF731FC58E090
:1095F0002D488DE831002D48027B3B4681213046C5
:10960000FFF7BAFC4DE028488DE831002748027B7F
:109610003B4681213046FFF7B3FC42E022488DE80B
:1096200031002248027B3B4681213046FFF7B0FCE7
:1096300037E01D488DE831001C48027B3B46812104
:109640003046FFF778FD2CE017488DE831001748C9
:10965000027B3B4681213046FFF73CFB21E012486C
:109660008DE831001148027B3B4681213046FFF7EF
:1096700013FF16E00C488DE831000C48027B3B4696
:1096800081213046FFF750FF0BE007488DE831009D
:109690000648027B3B4681213046FFF775FC00E01F
:1096A00000BF00BFBDE8FE8F790A0120203D0020E9
:1096B00070B504AC70CC00BF00BF70BD2DE9F047A1
:1096C00092B081468A4616461F46DDE91B581A9C11
:1096D0001422FE490DA840F05BFD1422FB49143111
:1096E00008A840F055FD1422F849283103A840F09D
:1096F0004FFD48F482604FF6FD7100EA0103B72286
:109700003946304632F03EFA0F2030F08CFC04200F
:109710008DF80400FF208DF8050078208DF80600F4
:1097200035208DF8070006208DF80800002301AAD7
:109730003946304632F0E6FA032030F074FC00205F
:10974000E349086021E002208DF804000DA8E049FB
:109750000968405C8DF805000DA9DD480068401CD3
:10976000085C8DF80600002301AA3946304632F025
:10977000C9FA032030F057FCD5480068401CD44992
:10978000086008460068401C0860D148006812283C
:10979000D9D345F08003B7223946304632F0F2F98A
:1097A0000223BC223946304632F0ECF90123C122B3
:1097B0003946304632F0E6F901208DF80400BE202B
:1097C0008DF80500002301AA3946304632F09AFA96
:1097D0000F2030F028FCFF223946304632F05AFC88
:1097E00020712B46B7223946304632F0CBF90F2094
:1097F00030F019FC0020B649086021E002208DF805
:10980000040008A8B2490968405C8DF8050008A961
:10981000AF480068401C085C8DF80600002301AAD0
:109820003946304632F06EFA052030F0FCFBA8488D
:109830000068401CA649086008460068401C086093
:10984000A34800681228D9D345F08003B7223946CF
:10985000304632F097F90123BC223946304632F0C7
:1098600091F90123C1223946304632F08BF90120AB
:109870008DF80400BE208DF80500002301AA3946AA
:10988000304632F03FFA0F2030F0CDFBFF22394650
:10989000304632F0FFFB60712B46B7223946304626
:1098A00032F070F90F2030F0BEFB002088490860CC
:1098B00021E002208DF8040003A885490968405C76
:1098C0008DF8050003A982480068401C085C8DF8EB
:1098D0000600002301AA3946304632F013FA05206B
:1098E00030F0A1FB7A480068401C794908600846BE
:1098F0000068401C0860764800681228D9D345F0FB
:109900008003B7223946304632F03CF90123BC22AD
:109910003946304632F036F90123C1223946304605
:1099200032F030F901208DF80400BE208DF80500DA
:10993000002301AA3946304632F0E4F90F2030F016
:1099400072FBFF223946304632F0A4FBA0712F2073
:109950002070012060704346B7223946304632F00D
:1099600011F9A078C01CC3B222468121484632F0CA
:10997000B6FF12B0BDE8F0872DE9F04788B0804609
:109980008A4615461E46DDE91197109C142251A106
:1099900001A840F0FDFB47F482604FF6FD7100EA3C
:1099A0000103B7223146284632F0ECF80F2030F0A0
:1099B0003AFB04208DF81800FF208DF8190078205C
:1099C0008DF81A0035208DF81B000A208DF81C0038
:1099D000002306AA3146284632F094F9032030F0DD
:1099E00022FB02208DF8180090208DF819009A2093
:1099F0008DF81A00002306AA3146284632F082F973
:109A0000032030F010FB04208DF81800FF208DF8A3
:109A1000190078208DF81A0035208DF81B000320DE
:109A20008DF81C00002306AA3146284632F06AF958
:109A3000032030F0F8FA02208DF81800D2208DF8BB
:109A400019000C208DF81A00002306AA314628467A
:109A500032F058F9032030F0E6FA04208DF81800AF
:109A6000FF208DF8190078208DF81A0035208DF828
:109A70001B0019208DF81C00002306AA3146284639
:109A800032F040F9032030F0CEFA02208DF81800B1
:109A900011208DF819000A208DF81A00002306AA5B
:109AA0003146284632F02EF9032030F0BCFA2F2040
:109AB0002070022060703B46B7223146284632F0C3
:109AC00061F8A078C01CC3B222460DE01C3E070816
:109AD000641400201A41B110AA1FABFDACE4AA0F18
:109AE000ABFFACC4A64800008121404632F0F7FE2F
:109AF00008B0BDE8F0872DE9FC4780468A46154648
:109B00001E46DDE90B970A9C47F482604FF6FD7113
:109B100000EA0103B7223146284632F033F80F201D
:109B200030F081FA04208DF80000FF208DF801004C
:109B300078208DF8020035208DF8030000208DF884
:109B4000040000236A463146284632F0DBF8032041
:109B500030F069FA01208DF800002C208DF801000A
:109B600000236A463146284632F0CCF8032030F014
:109B70005AFA2F202070032060703B46B7223146EE
:109B8000284631F0FFFFA078C01CC3B222468121D5
:109B9000404632F0A4FEBDE8FC872DE9FC47804634
:109BA0008A4615461E46DDE90B970A9C47F48260FB
:109BB0004FF6FD7100EA0103B7223146284631F025
:109BC000E1FF0F2030F02FFA04208DF80000FF2075
:109BD0008DF8010078208DF8020035208DF8030003
:109BE00019208DF8040000236A463146284632F0D9
:109BF00089F8032030F017FA02208DF800001120B8
:109C00008DF8010002208DF8020000236A463146DB
:109C1000284632F077F8032030F005FA2F20207024
:109C2000042060703B46B7223146284631F0AAFF37
:109C3000A078C01CC3B222468121404632F04FFEBC
:109C4000BDE8FC872DE9FC4780468A4615461E463E
:109C5000DDE90B970A9C47F482604FF6FD7100EA3C
:109C60000103B7223146284631F08CFF0F2030F037
:109C7000DAF904208DF80000FF208DF8010078202B
:109C80008DF8020035208DF8030006208DF80400C1
:109C900000236A463146284632F034F8032030F07B
:109CA000C2F902208DF80000A2208DF801000020EA
:109CB0008DF8020000236A463146284632F022F829
:109CC000032030F0B0F902208DF800009E208DF8BE
:109CD000010006208DF8020000236A46314628461E
:109CE00032F010F8032030F09EF902208DF80000C9
:109CF000A2208DF80100C0208DF8020000236A46E2
:109D00003146284631F0FEFF0A2030F08CF902205F
:109D10008DF80000A2208DF8010000208DF80200CF
:109D200000236A463146284631F0ECFF032030F02C
:109D30007AF902208DF800009E208DF80100602045
:109D40008DF8020000236A463146284631F0DAFFDA
:109D5000032030F068F902208DF80000A2208DF871
:109D60000100C0208DF8020000236A4631462846D3
:109D700031F0C8FF032030F056F942F2107030F095
:109D800052F902208DF80000A2208DF80100002079
:109D90008DF8020000236A463146284631F0B2FFB2
:109DA000032030F040F902208DF800009E208DF84D
:109DB00001000B208DF8020000236A463146284638
:109DC00031F0A0FF032030F02EF902208DF80000C2
:109DD0009E208DF8010000208DF8020000236A46C5
:109DE0003146284631F08EFF032030F01CF9022066
:109DF0008DF800009E208DF8010000208DF80200F3
:109E000000236A463146284631F07CFF032030F0BB
:109E10000AF902208DF800009E208DF80100002034
:109E20008DF8020000236A463146284631F06AFF69
:109E3000032030F0F8F802208DF80000A1208DF802
:109E4000010000208DF8020000236A4631462846B2
:109E500031F058FF032030F0E6F802208DF80000C2
:109E6000A2208DF80100C0208DF8020000236A4670
:109E70003146284631F046FF642030F0D4F8022005
:109E80008DF80000BE208DF8010001208DF8020041
:109E900000236A463146284631F034FF032030F073
:109EA000C2F849F08003B7223146284631F06AFEF5
:109EB0000123BC223146284631F064FE0223C12230
:109EC0003146284631F05EFE00BF01208DF80000CB
:109ED000BE208DF8010000236A463146284631F045
:109EE00011FF062030F09FF8FF223146284632F05D
:109EF000D1F82071642030F096F82079FF28E4D161
:109F00002F202070052060703B46B722314628463E
:109F100031F038FEA078C01CC3B2224681214046F1
:109F200032F0DDFCBDE8FC872DE9FC4780468A461F
:109F300015461E46DDE90B970A9C47F482604FF6F2
:109F4000FD7100EA0103B7223146284631F01AFEBE
:109F50000F2030F068F804208DF80000FF208DF805
:109F6000010078208DF8020035208DF803000620CE
:109F70008DF8040000236A463146284631F0C2FEBF
:109F8000032030F050F802208DF80000A2208DF858
:109F9000010090208DF8020000236A4631462846D1
:109FA00031F0B0FE032030F03EF802208DF80000C2
:109FB000A4208DF8010055208DF8020000236A4688
:109FC0003146284631F09EFE052030F02CF842F252
:109FD000107030F028F849F08003B7223146284647
:109FE00031F0D0FD0123BC223146284631F0CAFDB4
:109FF0000123C1223146284631F0C4FD00BF0120B3
:10A000008DF80000BD208DF8010000236A4631461E
:10A01000284631F077FE062030F005F8FF22314661
:10A02000284632F037F8207164202FF0FCFF2079A9
:10A0300000F088008828E2D12F2020700620607070
:10A040003B46B7223146284631F09CFDA078C01C23
:10A05000C3B222468121404632F041FCBDE8FC8774
:10A060002DE9FC4780468A4615461E46DDE90B97DA
:10A070000A9C47F482604FF6FD7100EA0103B722A3
:10A080003146284631F07EFD0F202FF0CCFF042012
:10A090008DF80000FF208DF8010078208DF8020077
:10A0A00035208DF8030000208DF8040000236A4657
:10A0B0003146284631F026FE03202FF0B4FF012060
:10A0C0008DF8000010208DF8010000236A4631460B
:10A0D000284631F017FE03202FF0A5FF7D202FF03A
:10A0E000A2FF04208DF80000FF208DF801007820E9
:10A0F0008DF8020035208DF8030006208DF804004D
:10A1000000236A463146284631F0FCFD03202FF03B
:10A110008AFF02208DF8000045208DF801004C20B8
:10A120008DF8020000236A463146284631F0EAFDE8
:10A1300003202FF078FF04208DF80000FF208DF819
:10A14000010078208DF8020035208DF803000A20E8
:10A150008DF8040000236A463146284631F0D2FDCE
:10A1600003202FF060FF02208DF8000090208DF872
:10A1700001009B208DF8020000236A4631462846E4
:10A1800031F0C0FD03202FF04EFF04208DF80000B9
:10A19000FF208DF8010078208DF8020035208DF821
:10A1A000030000208DF8040000236A46314628464B
:10A1B00031F0A8FD03202FF036FF01208DF80000BC
:10A1C00011208DF8010000236A463146284631F0FF
:10A1D00099FD78202FF027FF2F2020700720607036
:10A1E0003B46B7223146284631F0CCFCA078C01C53
:10A1F000C3B222468121404632F071FBBDE8FC87A4
:10A200002DE9FC4780468A4615461E46DDE90B9738
:10A210000A9C47F482604FF6FD7100EA0103B72201
:10A220003146284631F0AEFC0F202FF0FCFE042012
:10A230008DF80000FF208DF8010078208DF80200D5
:10A2400035208DF8030006208DF8040000236A46AF
:10A250003146284631F056FD03202FF0E4FE49F048
:10A260008003B7223146284631F08CFC0123BC2202
:10A270003146284631F086FC0123C122314628466A
:10A2800031F080FC01208DF80000B7208DF801002E
:10A2900000236A463146284631F034FD03202FF072
:10A2A000C2FEFF223146284631F0F4FE2071012023
:10A2B0008DF80000B8208DF8010000236A46314671
:10A2C000284631F01FFD03202FF0ADFEFF2231465E
:10A2D000284631F0DFFE607101208DF80000BB20C0
:10A2E0008DF8010000236A463146284631F00AFD08
:10A2F00003202FF098FEFF223146284631F0CAFE97
:10A30000A07101208DF80000BC208DF80100002311
:10A310006A463146284631F0F5FC03202FF083FED3
:10A32000FF223146284631F0B5FEE0712F20207023
:10A33000082060703B46B7223146284631F022FCA7
:10A34000A078C01CC3B222468121404632F0C7FA31
:10A35000BDE8FC872DE9FC4780468A4615461E4627
:10A36000DDE90B970A9C47F482604FF6FD7100EA25
:10A370000103B7223146284631F004FC0F202FF0AC
:10A3800052FE04208DF80000FF208DF80100782097
:10A390008DF8020035208DF803000A208DF80400A6
:10A3A00000236A463146284631F0ACFC03202FF0EA
:10A3B0003AFE02208DF8000090208DF801009B20CD
:10A3C0008DF8020000236A463146284631F09AFC97
:10A3D00003202FF028FE2F202070092060703B46BC
:10A3E000B7223146284631F0CDFBA078C01CC3B25D
:10A3F00022468121404632F072FABDE8FC872DE901
:10A40000FC4780468A4615461E46DDE90B970A9CA6
:10A4100047F482604FF6FD7100EA0103B72231462E
:10A42000284631F0AFFB0F202FF0FDFD04208DF802
:10A430000000FF208DF8010078208DF80200352003
:10A440008DF803000A208DF8040000236A46314687
:10A45000284631F057FC03202FF0E5FD02208DF84F
:10A46000000090208DF801009A208DF80200002352
:10A470006A463146284631F045FC03202FF0D3FDD3
:10A480002F2020700A2060703B46B72231462846B4
:10A4900031F078FBA078C01CC3B22246812140462F
:10A4A00032F01DFABDE8FC872DE9FE4F06468946CD
:10A4B00092461F46DDE90C840E9D3F4840780B28EC
:10A4C00076D2DFE800F07506111C27323D48535E56
:10A4D000690039488DE831003848027B3B468121CC
:10A4E0003046FFF7EBF864E033488DE8310033483D
:10A4F000027B3B4681213046FFF73EFA59E02E4869
:10A500008DE831002D48027B3B4681213046FFF724
:10A51000F2FA4EE028488DE831002848027B3B469D
:10A5200081213046FFF739FB43E023488DE83100B5
:10A530002248027B3B4681213046FFF783FB38E00F
:10A540001D488DE831001D48027B3B468121304685
:10A55000FFF7EAFC2DE018488DE831001748027B30
:10A560003B4681213046FFF77BFD22E012488DE813
:10A5700031001248027B3B4681213046FFF740FE06
:10A5800017E00D488DE831000C48027B3B468121E5
:10A590003046FFF7DFFE0CE007488DE83100074842
:10A5A000027B3B4681213046FFF729FF01E0FFE7B0
:10A5B00000BF00BFBDE8FE8F790A0120203D0020CA
:10A5C0002DE9F04F87B080468B4617461D46DDE9E2
:10A5D00011A9109CFEA1D1E900028968CDE90321EF
:10A5E00002900020009001904FF45073B72229464A
:10A5F000384631F0C7FA03208DF814007F208DF81B
:10A600001500F0208DF8160020208DF8170000238B
:10A6100005AA2946384631F075FB03208DF8140051
:10A62000F0208DF81500A5208DF816000F208DF86C
:10A630001700F0208DF81800002305AA2946384697
:10A6400031F060FB002302AA2946384631F05AFB5C
:10A6500001208DF80D00002302AA2946384631F06A
:10A6600051FB4FF47A702FF0DEFC00208DF80D00C6
:10A670009F208DF81000002302AA2946384631F0A9
:10A6800041FB01208DF80D00002302AA294638461F
:10A6900031F038FB4FF4F863B7222946384631F0E1
:10A6A00071FA0823C1222946384631F06BFA01239A
:10A6B000C0222946384631F065FA01208DF8140091
:10A6C000F1208DF81500002305AA2946384631F0FF
:10A6D00019FB0F202FF0A7FCFA23D4222946384675
:10A6E00031F050FAFF222946384631F039FA00207D
:10A6F000BA4908601FE0FA222946384631F030FA9C
:10A70000284630F0CFFD06463112B44800680DF8F7
:10A710000010F1B2B1480068401C0DF8001005208F
:10A720002FF081FCAD480068401CAC490860084629
:10A730000068401C0860A94800680828DBD39DF821
:10A74000050020719DF8060060719DF80700A0715A
:10A750004B46B7222946384631F014FAA078C01C7F
:10A76000C3B222468121404632F0B9F807B0BDE8B5
:10A77000F08F2DE9F04788B081468A4614461D4681
:10A78000DDE91078129E142295A101A83FF000FD8A
:10A790004FF45073B7222946204631F0F3F90520D3
:10A7A0002FF041FC03208DF818007F208DF8190050
:10A7B000F0208DF81A0020208DF81B00002306AA37
:10A7C0002946204631F09EFA05202FF02CFC04206B
:10A7D0008DF81800F0208DF81900A5208DF81A00CA
:10A7E0000F208DF81B00F0208DF81C00002306AA16
:10A7F0002946204631F086FA05202FF014FC03206C
:10A800008DF81800E5208DF81900F0208DF81A0059
:10A8100000208DF81B00002306AA2946204631F0AF
:10A8200071FA05202FF0FFFB002301AA29462046DC
:10A8300031F068FA05202FF0F6FB03208DF81800A0
:10A84000E0208DF81900F0208DF81A0001208DF815
:10A850001B00002306AA2946204631F053FA0F2098
:10A860002FF0E1FB3346B7222946204631F08AF922
:10A8700008B0BDE8F08770B504AC70CC70BD2DE9B0
:10A88000F04F8BB080468B4617461D46DDE915A973
:10A89000149C0026202257A101A83FF079FC4FF418
:10A8A0005073B7222946384631F06CF903208DF8F1
:10A8B00024007F208DF82500F0208DF82600202030
:10A8C0008DF82700002309AA2946384631F01AFAE4
:10A8D00004208DF82400F0208DF82500A5208DF8A7
:10A8E00026000F208DF82700F0208DF82800002387
:10A8F00009AA2946384631F005FA03208DF82400CC
:10A90000BD208DF82500F0208DF8260064208DF8FC
:10A910002700002309AA2946384631F0F3F900231D
:10A9200001AA2946384631F0EDF902208DF82400BD
:10A93000EF208DF8250001208DF82600002309AABC
:10A940002946384631F0DEF905202FF06CFB4FF434
:10A95000F863B7222946384631F014F90123C122A1
:10A960002946384631F00EF90123C02229463846DF
:10A9700031F008F900BF01208DF82400F1208DF896
:10A980002500002309AA2946384631F0BBF90F20DB
:10A990002FF049FBFA23D4222946384631F0F2F849
:10A9A000FF222946384631F0DBF8FA22294638469C
:10A9B00031F0D6F8284630F075FC001220710520E1
:10A9C0002FF031FB701C86B2207900F0010021E0ED
:10A9D00008EF000000000000AB000000641400203D
:10A9E00011B0F000007896722030100601FFFF3899
:10A9F000F70000001FEF000001000007000000004A
:10AA0000100038721F38721F28031F033303000021
:10AA10000000000010B1B6F5FA6FACDBB6F5FA6FC6
:10AA200001DBFF2020714B46B7222946384631F022
:10AA3000A9F8A078C01CC3B222468121404631F05B
:10AA40004EFF0BB0BDE8F08F70B504AC70CC70BD9C
:10AA50002DE9F04F8DB0824691461F46DDF860B07B
:10AA6000169CFEA000680B90FDA103C9CDE9090169
:10AA7000FDA2D2E900109268CDE907020691FDA17E
:10AA800003C9CDE90401FDA30FCB8DE80F004FF4FE
:10AA90005073B7223946484631F074F80F202FF032
:10AAA000C2FA00230BAA3946484631F02BF900239D
:10AAB00009AA3946484631F025F9002306AA394645
:10AAC000484631F01FF9002304AA3946484631F0C0
:10AAD00019F90F202FF0A7FA00267CE01EB90020FC
:10AAE0008DF80B0010E0012E03D101208DF80B0032
:10AAF0000AE0022E03D102208DF80B0004E0032EA1
:10AB000002D103208DF80B0000236A4639464846DF
:10AB100031F0F8F8002304AA3946484631F0F2F83B
:10AB20004FF4F863B7223946484631F02BF8082332
:10AB3000C1223946484631F025F80123C022394662
:10AB4000484631F01FF801208DF83000F1208DF8D3
:10AB5000310000230CAA3946484631F0D3F80F20C3
:10AB60002FF061FAFA23D4223946484631F00AF828
:10AB7000FF223946484630F0F3FF4FF0000826E048
:10AB8000FA223946484630F0EBFF384630F08AFB6F
:10AB90000546B8F1030F15D19DF80B0008B92571D2
:10ABA00010E09DF80B00012801D165710AE09DF8C5
:10ABB0000B00022801D1A57104E09DF80B000328C9
:10ABC00000D1E57105202FF02EFA08F10108B8F147
:10ABD000040FD5DB761C042E80DB5B46B72239469A
:10ABE000484630F0CFFFA078C01CC3B22246812176
:10ABF000504631F074FE0DB0BDE8F08F2DE9F047FE
:10AC000094B007468A4614461D46DDE91D981C9EF1
:10AC100092A00068139092A103C9CDE911019BA1F4
:10AC200003C9CDE90F01AFF25820D0E900128068C6
:10AC3000CDE90C120E908FA103C9CDE90A0195A2AE
:10AC400007CACDE90812079095A2D2E900109268D0
:10AC5000CDE90502049195A207CACDE9021201903F
:10AC600095A0006800904FF45073B7222946204603
:10AC700030F088FF0F202FF0D6F9002313AA2946C1
:10AC8000204631F03FF80F202FF0CDF9002311AA14
:10AC90002946204631F036F80F202FF0C4F9002362
:10ACA0006A462946204631F02DF80F202FF0BBF9D7
:10ACB00000230FAA2946204631F024F80F202FF058
:10ACC000B2F900230CAA2946204631F01BF80F20C8
:10ACD0002FF0A9F900230AAA2946204631F012F8DC
:10ACE0000F202FF0A0F900230FAA2946204631F0AB
:10ACF00009F80F202FF097F9002304AA29462046CF
:10AD000031F000F80F202FF08EF900230AAA29460F
:10AD1000204630F0F7FF0F202FF085F9002307AA17
:10AD20002946204630F0EEFF0F202FF07CF900235B
:10AD30000AAA2946204630F0E5FF0F202FF073F9CC
:10AD4000002304AA2946204630F0DCFF0F202FF014
:10AD50006AF900230AAA2946204630F0D3FF0F20C3
:10AD60002FF061F9002301AA2946204630F0CAFFDE
:10AD70000F202FF058F900230AAA2946204630F068
:10AD8000C1FF40F6B8302FF04EF94346B7222946AE
:10AD9000204630F0F7FEB078C01CC3B232468121A5
:10ADA000384631F09CFD14B0BDE8F08770B504ACB6
:10ADB00070CC70BD2DE9FC4781468A4614461D467D
:10ADC000DDE90A780C9E4FF45073B72229462046DD
:10ADD00030F0D8FE03208DF80000C8208DF8010067
:10ADE000F0208DF8020011208DF8030000236A4640
:10ADF0002946204630F086FF03208DF80000E02031
:10AE00008DF80100F0208DF8020001208DF803007C
:10AE100000236A462946204630F074FF3346B722A5
:10AE20002946204630F0AEFEBDE8FC872DE9FC4700
:10AE300081468A4614461D46DDE90A780C9E4FF489
:10AE40005073B7222946204630F09CFE03208DF82F
:10AE50000000E0208DF80100F0202FE0037FF020BB
:10AE600004F0A50FF000000008EF0000000000074C
:10AE7000AB00000005EF0000000100000DEF000036
:10AE80000000000703000000831F000007EF000020
:10AE90000100000708EF00000000000001000000B2
:10AEA00008EF0000000000000600000008EF0000AE
:10AEB00000000000C700000003BDF0648DF8020030
:10AEC00040208DF8030000236A462946204630F0D2
:10AED00019FF03208DF80000C8208DF80100F02034
:10AEE0008DF8020000208DF8030000236A462946F1
:10AEF000204630F007FF3346B7222946204630F07F
:10AF000041FEBDE8FC872DE9FE4F06468946924684
:10AF10001F46DDE90C840E9D394840780B286AD223
:10AF2000DFE800F06906111C27323D4853695E00D6
:10AF300033488DE831003348027B3B46812130465F
:10AF4000FFF717FC58E02E488DE831002D48027BB2
:10AF50003B4681213046FFF78EFC4DE028488DE8C6
:10AF600031002848027B3B4681213046FFF787FCB1
:10AF700042E023488DE831002248027B3B46812194
:10AF80003046FFF765FD37E01D488DE831001D486C
:10AF9000027B3B4681213046FFF730FE2CE018480B
:10AFA0008DE831001748027B3B4681213046FFF790
:10AFB00007FB21E012488DE831001248027B3B4636
:10AFC00081213046FFF7F6FE16E00D488DE831008E
:10AFD0000C48027B3B4681213046FFF727FF0BE000
:10AFE00007488DE831000748027B3B468121304607
:10AFF000FFF72AFD00E000BF00BFBDE8FE8F0000A4
:10B00000790A0120203D00202DE9F04F89B08046CB
:10B010008B4615461E46DDE91379129C4FF0000A57
:10B020001822FAA102A83FF0B3F8FEA00068019030
:10B030003B46B7223146284630F0A4FD0F202EF0C3
:10B04000F2FF0020F849086021E002208DF820007E
:10B0500002A8F5490968405C8DF8210002A9F24870
:10B060000068401C085C8DF82200002308AA3146C5
:10B07000284630F047FE0F202EF0D5FFEA48006842
:10B08000401CE949086008460068401C0860E64822
:10B0900000681828D9D347F08003B72231462846E4
:10B0A00030F070FD0123BC223146284630F06AFDA5
:10B0B0000020DD49086026E00123C12231462846F0
:10B0C00030F060FD01208DF8200001A8D649096804
:10B0D000405C8DF82100002308AA3146284630F054
:10B0E00011FE06202EF09FFFFF223146284630F049
:10B0F000D1FFC1B2CC480068001D2154CA48006885
:10B10000401CC9490860C84800680328D4D30520FA
:10B110002EF089FF4B46B7223146284630F032FDEB
:10B12000A078C01CC3B222468121404631F0D7FB33
:10B1300009B0BDE8F08F2DE9F04788B007468A4690
:10B1400015461E46DDE91189109C1822B7A101A8F9
:10B150003FF01EF84346B7223146284630F012FD34
:10B160000F202EF060FF0020AF49086021E0022090
:10B170008DF81C0001A8AC490968405C8DF81D00E1
:10B1800001A9A9480068401C085C8DF81E00002336
:10B1900007AA3146284630F0B5FD0F202EF043FFB8
:10B1A000A1480068401CA049086008460068401C8F
:10B1B00008609D4800681628D9D32F2020700120F0
:10B1C00060704B46B7223146284630F0DBFCA07851
:10B1D000C01CC3B222468121384631F080FB08B042
:10B1E000BDE8F08770B504AC70CC70BD2DE9F04FB0
:10B1F00087B080468B4615461E46DDE91179109CC6
:10B200004FF0000A18228FA168463EF0C1FF3B466E
:10B21000B7223146284630F0B5FC0F202EF003FF50
:10B220002F202070032060700820207100207E49AC
:10B23000086021E002208DF818007B4909681DF89C
:10B2400001008DF8190078480068401C1DF80000C6
:10B250008DF81A00002306AA3146284630F052FD28
:10B2600064202EF0E0FE70480068401C6E490860C3
:10B2700008460068401C08606B4800681828D9D34D
:10B280004FF47A702EF0CFFE02208DF81800FE20C9
:10B290008DF81900E0208DF81A00002306AA314627
:10B2A000284630F02FFD05202EF0BDFE47F080032C
:10B2B000B7223146284630F065FC0F202EF0B3FE51
:10B2C0000223C1223146284630F05CFC00BF012039
:10B2D0008DF818006B208DF81900002306AA31465E
:10B2E000284630F00FFD14202EF09DFEFF2231463F
:10B2F000284630F0CFFE207132202EF094FE0AF165
:10B3000001008246B0F5967F02D90020207103E04B
:10B3100020790828DBD100BF4B46B72231462846AA
:10B3200030F030FCA078C01CC3B2224681214046D8
:10B3300031F0D5FA07B0BDE8F08F2DE9F04F87B0B6
:10B3400080468B4615461E46DDE91179109C4FF06C
:10B35000000A4248006800F5C01040490860182201
:10B360003FA168463EF014FF3B46B72231462846CF
:10B3700030F008FC0F202EF056FE2F2020700A20FF
:10B3800060700820207100202749086021E0022019
:10B390008DF81800244909681DF801008DF819007E
:10B3A00021480068401C1DF800008DF81A00002399
:10B3B00006AA3146284630F0A5FC64202EF033FE64
:10B3C00019480068401C1849086008460068401C7D
:10B3D0000860154800681828D9D34FF47A702EF009
:10B3E00022FE02208DF81800FE208DF81900E020C2
:10B3F0008DF81A00002306AA3146284630F082FC58
:10B4000032202EF010FE47F0800335E0FED201CF4F
:10B41000FE404D20FED20518FE20F308F300F30491
:10B42000F302FEE06D6E6F0064140020FE400E809B
:10B43000FED21855FED003094D017801FE4010825E
:10B44000FE000000FE20F204FED218551200130088
:10B450001400151716FF17FFFE20F2107C140020B1
:10B46000FE20F204FED218551218130014001526FF
:10B4700016E3170AFE20F210B7223146284630F0B4
:10B4800081FB0F202EF0CFFD0123BC223146284640
:10B4900030F078FB0223C1223146284630F072FB9F
:10B4A00000BF01208DF818006B208DF819000023D3
:10B4B00006AA3146284630F025FC14202EF0B3FDB4
:10B4C000FF223146284630F0E5FD207132202EF073
:10B4D000AAFD0AF101008246B0F5967F02D900204C
:10B4E000207103E020790828DBD100BF4B46B7224A
:10B4F0003146284630F046FBA078C01CC3B2224635
:10B500008121404631F0EBF907B0BDE8F08F2DE91D
:10B51000F04F8BB080468B4615461E46DDE9157907
:10B52000149C4FF0000AFEA0006809902022FDA1A3
:10B5300001A83EF02DFE3B46B7223146284630F0AA
:10B5400021FB0F202EF06FFD0020FE49086021E056
:10B5500002208DF8280001A8FA490968405C8DF89E
:10B56000290001A9F7480068401C085C8DF82A00F2
:10B5700000230AAA3146284630F0C4FB06202EF0EC
:10B5800052FDF0480068401CEE490860084600681B
:10B59000401C0860EB4800682028D9D31E202EF0FC
:10B5A00042FD02208DF82800FE208DF82900202081
:10B5B0008DF82A0000230AAA3146284630F0A2FB63
:10B5C00002208DF82800F2208DF8290001208DF846
:10B5D0002A0000230AAA3146284630F093FB4FF494
:10B5E00096602EF020FD02208DF82800FE208DF8B8
:10B5F0002900E0208DF82A0000230AAA31462846B7
:10B6000030F080FB0F202EF00EFD47F08003B722B4
:10B610003146284630F0B6FA0123BC22314628468E
:10B6200030F0B0FA0020C749086026E00123C122AB
:10B630003146284630F0A6FA01208DF8280009A8E6
:10B64000C0490968405C8DF8290000230AAA3146E8
:10B65000284630F057FB06202EF0E5FCFF2231464D
:10B66000284630F017FDC1B2B6480068001D2154CD
:10B67000B4480068401CB3490860B248006802281A
:10B68000D4D305202EF0CFFC2F2020700420607032
:10B690004B46B7223146284630F074FAA078C01CD9
:10B6A000C3B222468121404631F019F90BB0BDE802
:10B6B000F08F2DE9FF5F80468B4615461E46DDE97B
:10B6C0000F790E9CA0A207CA8DE807004FF06B0A05
:10B6D0003B46B7223146284630F054FA0F202EF070
:10B6E000A2FC00209749086021E002208DF80C00A0
:10B6F000944909681DF801008DF80D009148006813
:10B70000401C1DF800008DF80E00002303AA3146EE
:10B71000284630F0F7FA06202EF085FC89480068AC
:10B72000401C8849086008460068401C086085483D
:10B7300000680A28D9D341F288302EF074FC022028
:10B740008DF80C00FE208DF80D00E0208DF80E0025
:10B75000002303AA3146284630F0D4FA0F202EF0F9
:10B7600062FC47F08003B7223146284630F00AFADF
:10B770000123BC223146284630F004FA0223C122BC
:10B780003146284630F0FEF900BF01208DF80C004C
:10B790008DF80DA0002303AA3146284630F0B2FAF6
:10B7A00006202EF040FCFF223146284630F072FC85
:10B7B0002071207900F008000828E6D105202EF03D
:10B7C00032FC2F20207005206070082020714B462D
:10B7D000B7223146284630F0D5F9A078C01CC3B254
:10B7E00022468121404631F07AF8BDE8FF9F70B5CE
:10B7F00004AC70CC70BD2DE9FF4707468A4615465C
:10B800001E46DDE90D890C9C52A103C9CDE900015A
:10B810004346B7223146284630F0B4F90F202EF0C7
:10B8200002FC00204749086021E002208DF8080052
:10B83000444909681DF801008DF809004148006875
:10B84000401C1DF800008DF80A00002302AA3146B2
:10B85000284630F057FA32202EF0E5FB39480068D0
:10B86000401C3849086008460068401C086035489C
:10B8700000680828D9D305202EF0D5FB2F20207092
:10B88000072060704B46B7223146284630F07AF9DF
:10B89000A078C01CC3B222468121384631F01FF87F
:10B8A000BDE8FF872DE9FF4707468A4615461E4635
:10B8B000DDE90D890C9C29A103C9CDE900014346AE
:10B8C000B7223146284630F05DF90F202EF0ABFB51
:10B8D00000201C49086021E002208DF80800194969
:10B8E00009681DF801008DF8090016480068401C21
:10B8F0001DF800008DF80A00002302AA31462846F0
:10B9000030F000FA32202EF08EFB0E480068401C0A
:10B910000C49086008460068401C0860094821E09E
:10B92000696A0000FED20603FE20F308F300F30468
:10B93000F302FE20F204FED21200130014001526BA
:10B9400016E3170864140020FED21855FE20F204F6
:10B95000F3010000FED20EC00F7FAA01FED20EC07E
:10B960000F7FAA8100680828B6D305202EF05BFB64
:10B970002F202070082060704B46B72231462846A1
:10B9800030F000F9A078C01CC3B2224681213846AD
:10B9900030F0A5FFBDE8FF872DE9FE4F064689463A
:10B9A00092461F46DDE90C840E9D394840780B28ED
:10B9B0006AD2DFE800F06906111C27323D4853695E
:10B9C0005E0033488DE831003248027B3B468121DE
:10B9D0003046FFF7B0FB58E02D488DE831002D4888
:10B9E000027B3B4681213046FFF7FCFB4DE02848B7
:10B9F0008DE831002748027B3B4681213046FFF726
:10BA0000F5FB42E022488DE831002248027B3B46AC
:10BA100081213046FFF77BFD37E01D488DE831007E
:10BA20001C48027B3B4681213046FFF742FE2CE05A
:10BA300017488DE831001748027B3B46812130468C
:10BA4000FFF7E2FA21E012488DE831001148027B4D
:10BA50003B4681213046FFF7CEFE16E00C488DE8CC
:10BA600031000C48027B3B4681213046FFF71AFF2C
:10BA70000BE007488DE831000648027B3B468121F8
:10BA80003046FFF75AFC00E000BF00BFBDE8FE8F64
:10BA9000790A0120203D00202DE9F04792B0804630
:10BAA0008A4615461E46DDE91B971A9C2822F6A1F8
:10BAB00008A83EF06DFBFEA207CA05AB07C347F41A
:10BAC00082604FF6FD7100EA0103B7223146284635
:10BAD00030F058F80F202EF0A6FA04208DF80C0054
:10BAE0000020F649086036E008A8F4490968405C7F
:10BAF0008DF80D0008A9F1480068401C085C8DF81D
:10BB00000E00EE480068801C085C8DF80F00EB48C2
:10BB10000068C01C085C8DF81000002303AA3146A1
:10BB2000284630F0EFF89DF80F006F2807D19DF8F8
:10BB30001000182803D178202EF075FA02E00520B5
:10BB40002EF071FADD480068C01CDC490860084628
:10BB50000068401C0860D94800682828C4D3052024
:10BB60002EF061FA4FF42073B7223146284630F0A8
:10BB700009F80F202EF057FAD1480121F022EC23CA
:10BB8000CDE90021029032462946404605F0A3FC4B
:10BB9000CB480078207105202EF045FAC8480121D5
:10BBA000F122EC23CDE9002102903246294640469D
:10BBB00005F091FCC2480078607105202EF033FA40
:10BBC000BF480121F222EC23CDE900210290324648
:10BBD0002946404605F07FFCB9480078A07147F43B
:10BBE00082604FF6FD7100EA0103B7223146284614
:10BBF0002FF0C8FF0F202EF016FA0020AF49086082
:10BC00002DE004208DF80C0005A8AC490968405CC3
:10BC10008DF80D0005A9A9480068401C085C8DF846
:10BC20000E00A6480068801C085C8DF80F00A34831
:10BC30000068C01C085C8DF81000002303AA314680
:10BC4000284630F05FF805202EF0EDF99B4800689B
:10BC5000C01C9A49086008460068401C0860974864
:10BC600000680C28CDD32F202070012060703B4647
:10BC7000B722314628462FF085FFA078C01CC3B2FA
:10BC800022468121404630F02AFE12B0BDE8F087FE
:10BC90002DE9F04F85B080468B4615461E46DDE9FE
:10BCA0000FA90E9C4FF45073B722314628462FF04F
:10BCB00069FF0F202EF0B7F904208DF80C00DF206B
:10BCC0008DF80D00EC208DF80E008E208DF80F0001
:10BCD000B1208DF81000002303AA3146284630F029
:10BCE00011F805202EF09FF94FF42073B72231464A
:10BCF00028462FF047FF0F202EF095F970480121BC
:10BD00008F22EC23CDE9002102903246294640469D
:10BD100005F0E1FB6A480078070905202EF083F959
:10BD2000052F02D00320E07027712F202070022001
:10BD300060704B46B722314628462FF023FFA0788B
:10BD4000C01CC3B222468121404630F0C8FD05B078
:10BD5000BDE8F08F2DE9F04707468A4615461E4696
:10BD6000DDE90998089C0023B922314628462FF0C6
:10BD700009FFC8202EF057F94CF2FD63BA22314674
:10BD800028462FF0FFFE4FF47A702EF04CF9012375
:10BD9000B922314628462FF0F5FEC8202EF043F98F
:10BDA0002F202070082060704346B7223146284675
:10BDB0002FF0E8FE0F202EF036F9A078C01CC3B299
:10BDC00022468121384630F08AFDBDE8F0872DE912
:10BDD000F04F85B080468B4616461F46DDE90FA919
:10BDE0000E9C4FF45073B722394630462FF0CAFEEE
:10BDF0000F202EF018F902208DF80C00F1208DF89C
:10BE00000D0000208DF80E00002303AA39463046AD
:10BE10002FF078FFC8202EF006F904208DF80C00D2
:10BE2000DF208DF80D00EC208DF80E008E208DF8AF
:10BE30000F00A8208DF81000002303AA39463046D1
:10BE40002FF060FF05202EF0EEF84FF42073B7229C
:10BE5000394630462FF096FE0F202EF0E4F81848B1
:10BE600001218F22EC23CDE9002102903A46314690
:10BE7000404605F030FB1248057805202EF0D3F837
:10BE800005F00F0004281DE0DFEC5F80DFEC78F99F
:10BE9000DFECE004DFE06E72DFE06F18DFE06EBF22
:10BEA000DFE06F01DFECD09FDFECE120DFECE203AD
:10BEB000DFEC5F00DFECE008DFECE0006414002062
:10BEC0007A09012003D00120E070257115E0FE48B9
:10BED0000121ED22EC23CDE9002102903A463146C2
:10BEE000404605F0F8FAF848057805202EF09BF852
:10BEF000102D02D00220E07025712F202070042028
:10BF000060704B46B722394630462FF03BFEA07892
:10BF1000C01CC3B222468121404630F0E0FC05B08F
:10BF2000BDE8F08F2DE9F04790B007468A461546E8
:10BF30001E46DDE91998189C2C22E4A105A83EF0C4
:10BF400027F9EDA103C9CDE903014FF45073B722DE
:10BF5000314628462FF016FE0F202EF064F80420FC
:10BF60008DF804000020E64908602AE005A8E449AD
:10BF70000968405C8DF8050005A9E1480068401C8F
:10BF8000085C8DF80600DE480068801C085C8DF8AF
:10BF90000700DB480068C01C085C8DF8080000231F
:10BFA00001AA314628462FF0ADFE05202EF03BF8C1
:10BFB000D3480068C01CD249086008460068401C8D
:10BFC0000860CF4800682C28D0D34CF250302EF0B7
:10BFD0002AF80020CA4908602DE004208DF80400EA
:10BFE00003A8C7490968405C8DF8050003A9C44847
:10BFF0000068401C085C8DF80600C1480068801C81
:10C00000085C8DF80700BE480068C01C085C8DF80D
:10C010000800002301AA314628462FF073FE0520B0
:10C020002EF001F8B6480068C01CB5490860084603
:10C030000068401C0860B24800680828CDD32F2053
:10C040002070052060704346B722314628462FF005
:10C0500099FDA078C01CC3B222468121384630F039
:10C060003EFC10B0BDE8F08770B504AC70CC70BD7C
:10C0700070B504AC70CC70BD2DE9FC4780468A4693
:10C0800015461E46DDE90B970A9C47F482604FF681
:10C09000FD7100EA0103B722314628462FF072FDF8
:10C0A0000F202DF0C0FF04208DF80000FF208DF838
:10C0B000010078208DF8020035208DF8030006205D
:10C0C0008DF8040000236A46314628462FF01AFEF8
:10C0D00003202DF0A8FF49F08003B72231462846FF
:10C0E0002FF050FD0123BC22314628462FF04AFD97
:10C0F0000123C122314628462FF044FD01208DF84E
:10C100000000B7208DF8010000236A46314628461A
:10C110002FF0F8FD03202DF086FFFF223146284640
:10C120002FF0B8FF207101208DF80000B8208DF8A5
:10C13000010000236A46314628462FF0E3FD032024
:10C140002DF071FFFF22314628462FF0A3FF6071CA
:10C1500001208DF80000BB208DF8010000236A4605
:10C16000314628462FF0CEFD03202DF05CFFFF2244
:10C17000314628462FF08EFFA07101208DF8000077
:10C18000BC208DF8010000236A46314628462FF076
:10C19000B9FD03202DF047FFFF22314628462FF03E
:10C1A00079FFE0712F202070082060703B46B72295
:10C1B000314628462FF0E6FCA078C01CC3B22246C8
:10C1C0008121404630F08BFBBDE8FC872DE9FC4720
:10C1D00007468A4615461E46DDE90B980A9C4FF431
:10C1E0005073B722314628462FF0CCFC0F202DF09B
:10C1F0001AFF04208DF80000DF208DF80100EC20EC
:10C200008DF802005F208DF8030000208DF80400F7
:10C2100000236A46314628462FF074FD05202DF094
:10C2200002FF2F202070092060704346B72231465C
:10C2300028462FF0A7FCA078C01CC3B2224681215B
:10C24000384630F04CFBBDE8FC872DE9FC4707463B
:10C250008A4615461E46DDE90B980A9C4FF450733A
:10C26000B722314628462FF08DFC0F202DF0DBFE43
:10C2700004208DF80000DF208DF80100EC208DF8FF
:10C2800002005F208DF8030080208DF80400002359
:10C290006A46314628462FF035FD03202DF0C3FEB7
:10C2A0002F2020700A2060704346B722314628466E
:10C2B0002FF068FCA078C01CC3B22246812138460A
:10C2C00030F00DFBBDE8FC877A090120DFEC5F80D0
:10C2D000DFEC78F9DFECE004DFE06E72DFE06F188E
:10C2E000DFECD006DFECE100DFECE201DFECD0C7F1
:10C2F000DFECE100DFECE201DFEC5F00DFECE0000F
:10C30000641400202DE9FE4F0646894692461F46DA
:10C31000DDE90C840E9D3F4840780B2876D2DFE89B
:10C3200000F07506111C27323D48535E69003948FC
:10C330008DE831003848027B3B4681213046FFF7CB
:10C34000ABFB64E033488DE831003348027B3B4669
:10C3500081213046FFF79CFC59E02E488DE83100E2
:10C360002D48027B3B4681213046FFF7F3FC4EE02F
:10C3700028488DE831002848027B3B468121304621
:10C38000FFF725FD43E023488DE831002248027B7A
:10C390003B4681213046FFF7C5FD38E01D488DE85A
:10C3A00031001D48027B3B4681213046FFF75CFE91
:10C3B0002DE018488DE831001748027B3B4681216B
:10C3C0003046FFF755FE22E012488DE83100124852
:10C3D000027B3B4681213046FFF74EFE17E00D48B9
:10C3E0008DE831000C48027B3B4681213046FFF747
:10C3F000EDFE0CE007488DE831000748027B3B4624
:10C4000081213046FFF721FF01E0FFE700BF00BFB9
:10C41000BDE8FE8F790A0120203D00202DE9F84F6C
:10C4200081468B4615461E46DDE90B7A0A9C4FF085
:10C4300000083B46B722314628462FF0A3FB0F20C9
:10C440002DF0F1FD02208DF80000C3208DF80100D1
:10C450009F208DF802003B46B722314628462FF038
:10C4600091FB02208DF800006F208DF8010018204C
:10C470008DF802003B46B722314628462FF082FB5A
:10C4800002208DF80000C3208DF801009F208DF858
:10C4900002003B46B722314628462FF073FB0220AC
:10C4A0008DF800006F208DF8010009208DF8020042
:10C4B0003B46B722314628462FF064FB02208DF818
:10C4C0000000C3208DF8010004208DF802003B46D7
:10C4D000B722314628462FF055FB78202DF0A3FDDA
:10C4E00002208DF800006F208DF8010009208DF8E2
:10C4F00002003B46B722314628462FF043FB02207C
:10C500008DF80000C3208DF8010000208DF8020096
:10C510003B46B722314628462FF034FB02208DF8E7
:10C5200000006F208DF8010013208DF802003B46BB
:10C53000B722314628462FF025FB47F08003B7226B
:10C54000314628462FF01EFB0123BC2231462846E7
:10C550002FF018FB0223C122314628462FF012FB90
:10C5600001208DF80000C3208DF8010000236A46E9
:10C57000314628462FF0C6FB06202DF054FDFF2241
:10C58000314628462FF086FD804684F804804FEA25
:10C59000282060712F2020700620607005202DF06B
:10C5A00042FD5346B722314628462FF0EBFAA078D9
:10C5B000C01CC3B222468121484630F090F9BDE844
:10C5C000F88F2DE9F04788B007468A4615461E4683
:10C5D000DDE91189109CFEA003C8CDE90601FEA18A
:10C5E00003C9CDE90401FEA103C9CDE90201434617
:10C5F000B722314628462FF0C5FA0F202DF013FD43
:10C60000002302AA314628462FF07CFB02208DF839
:10C610000000B1208DF8010004208DF802000023F5
:10C620006A46314628462FF06DFB02208DF8000047
:10C63000C2208DF8010014208DF8020000236A4604
:10C64000314628462FF05EFB02208DF800006F2057
:10C650008DF8010004208DF8020000236A4631465F
:10C6600028462FF04FFB04208DF80000C3208DF8E2
:10C67000010000208DF802008DF803008DF8040001
:10C6800000236A46314628462FF03CFB02208DF8F5
:10C6900000006F208DF8010001208DF802000023BA
:10C6A0006A46314628462FF02DFB04208DF8000005
:10C6B000C3208DF8010009208DF80200A4208DF818
:10C6C000030040208DF8040000236A4631462846C6
:10C6D0002FF018FB02208DF80000B2208DF8010029
:10C6E00070208DF8020000236A46314628462FF05C
:10C6F00009FB002306AA314628462FF003FB05203C
:10C700002DF091FC04208DF80000C0208DF8010070
:10C7100076208DF80200F3208DF8030001208DF8BB
:10C72000040000236A46314628462FF0EBFA022027
:10C730008DF8000090208DF8010000208DF8020097
:10C7400000236A46314628462FF0DCFA02208DF895
:10C75000000066208DF8010001208DF80200002302
:10C760006A46314628462FF0CDFA002302AA314608
:10C7700028462FF0C7FA05202DF055FC02208DF831
:10C7800000006F208DF8010003208DF802000023C7
:10C790006A46314628462FF0B5FA02208DF800008F
:10C7A000C9208DF8010002208DF8020000236A469E
:10C7B000314628462FF0A6FA02208DF800006F209F
:10C7C0008DF8010004208DF8020000236A463146EE
:10C7D00028462FF097FA002304AA314628462FF066
:10C7E00091FA05202DF01FFC02208DF80000C720D3
:10C7F0008DF8010001208DF8020000236A463146C1
:10C8000028462FF07FFA2F202070032060704B46BF
:10C81000B722314628462FF0B5F9A078C01CC3B224
:10C8200022468121384630F05AF808B0BDE8F0873A
:10C830002DE9F04788B007468A4615461E46DDE9D1
:10C840001189109C62A003C8CDE9060162A103C949
:10C85000CDE9040162A103C9CDE902014346B72233
:10C86000314628462FF08EF90F202DF0DCFB0023F7
:10C8700002AA314628462FF045FA02208DF8000022
:10C88000B1208DF8010004208DF8020000236A46D3
:10C89000314628462FF036FA02208DF80000C220DB
:10C8A0008DF8010014208DF8020000236A463146FD
:10C8B00028462FF027FA02208DF800006F208DF80F
:10C8C000010004208DF8020000236A463146284604
:10C8D0002FF018FA04208DF80000C3208DF8010015
:10C8E00009208DF80200A5208DF8030000208DF8A6
:10C8F000040000236A46314628462FF003FA02203E
:10C900008DF800006F208DF8010001208DF80200E5
:10C9100000236A46314628462FF0F4F904208DF8AA
:10C920000000C3208DF8010009208DF80200A4202A
:10C930008DF8030040208DF8040000236A4631463C
:10C9400028462FF0DFF902208DF80000B2208DF884
:10C95000010070208DF8020000236A463146284607
:10C960002FF0D0F9002306AA314628462FF0CAF945
:10C9700005202DF058FB04208DF80000C0208DF814
:10C98000010076208DF80200F3208DF803000120CD
:10C990008DF8040000236A46314628462FF0B2F98C
:10C9A00002208DF8000090208DF8010000208DF805
:10C9B000020000236A46314628462FF0A3F90220E0
:10C9C0008DF8000066208DF8010001200CE00000C9
:10C9D00006F055AA5208000006F055AA52080100B8
:10C9E00006F055AA520804008DF8020000236A469A
:10C9F000314628462FF086F9002302AA3146284600
:10CA00002FF080F905202DF00EFB02208DF800009C
:10CA10006F208DF8010003208DF8020000236A4684
:10CA2000314628462FF06EF902208DF80000C9200B
:10CA30008DF8010002208DF8020000236A4631467D
:10CA400028462FF05FF902208DF800006F208DF846
:10CA5000010004208DF8020000236A463146284672
:10CA60002FF050F9002304AA314628462FF04AF946
:10CA700005202DF0D8FA02208DF80000C7208DF88F
:10CA8000010001208DF8020000236A463146284645
:10CA90002FF038F92F202070032060704B46B7220A
:10CAA000314628462FF06EF8A078C01CC3B222464B
:10CAB000812138462FF013FF08B0BDE8F08770B52C
:10CAC00004AC70CC70BD2DE9F04F89B081468B4627
:10CAD00015461E46DDE9137A129CAFF20C1003C80E
:10CAE000CDE90701AFF2101103C9CDE90501AFF29D
:10CAF000101103C9CDE903014FF000083B46B722EE
:10CB0000314628462FF03EF80F202DF08CFA0023F6
:10CB100003AA314628462FF0F5F802208DF80400CC
:10CB20006F208DF8050004208DF80600002301AA6F
:10CB3000314628462FF0E6F802208DF80400C32085
:10CB40008DF80500AB208DF80600002301AA3146C0
:10CB500028462FF0D7F802208DF804006F208DF8BA
:10CB6000050009208DF80600002301AA3146284659
:10CB70002FF0C8F804208DF80400C3208DF80500BC
:10CB800001208DF80600002301AA314628462FF027
:10CB9000B9F878202DF047FA02208DF804006F20B4
:10CBA0008DF8050009208DF80600002301AA314602
:10CBB00028462FF0A7F804208DF80400C3208DF834
:10CBC000050000208DF80600002301AA3146284602
:10CBD0002FF098F802208DF80400C3208DF805008E
:10CBE00006208DF80600002301AA314628462FF0C2
:10CBF00089F802208DF804006F208DF805000920C7
:10CC00008DF80600002301AA314628462FF07AF855
:10CC100002208DF80400C3208DF8050001208DF856
:10CC20000600002301AA314628462FF06BF8782031
:10CC30002DF0F9F902208DF804006F208DF8050021
:10CC400009208DF80600002301AA314628462FF05E
:10CC500059F802208DF80400C3208DF8050000204B
:10CC60008DF80600002301AA314628462FF04AF825
:10CC700002208DF80400C3208DF8050001208DF8F6
:10CC80000600002301AA314628462FF03BF8022077
:10CC90008DF804006F208DF8050007208DF8060040
:10CCA000002301AA314628462FF02CF802208DF8E7
:10CCB0000400C3208DF8050002208DF80600002333
:10CCC00001AA314628462FF01DF802208DF80400F5
:10CCD0006F208DF8050009208DF80600002301AAB9
:10CCE000314628462FF00EF802208DF80400C320AC
:10CCF0008DF8050002208DF80600002301AA3146B8
:10CD000028462EF0FFFF78202DF08DF902208DF8B7
:10CD100004006F208DF8050009208DF8060000231F
:10CD200001AA314628462EF0EDFF02208DF80400BE
:10CD3000C3208DF8050000208DF80600002301AA0D
:10CD4000314628462EF0DEFF02208DF80400C32075
:10CD50008DF8050005208DF80600002301AA314654
:10CD600028462EF0CFFF02208DF804006F208DF8AA
:10CD7000050009208DF80600002301AA3146284647
:10CD80002EF0C0FF02208DF80400C3208DF80500AE
:10CD900004208DF80600002301AA314628462EF013
:10CDA000B1FF02208DF804006F208DF805000920E6
:10CDB0008DF80600002301AA314628462EF0A2FF76
:10CDC00002208DF80400C3208DF8050000208DF8A6
:10CDD0000600002301AA314628462EF093FF0220C8
:10CDE0008DF80400C3208DF8050005208DF806009D
:10CDF000002301AA314628462EF084FF02208DF838
:10CE000004006F208DF8050009208DF8060000232E
:10CE100001AA314628462EF075FF02208DF8040045
:10CE2000C3208DF8050004208DF80600002301AA18
:10CE3000314628462EF066FF02208DF804006F2050
:10CE40008DF8050009208DF80600002301AA31465F
:10CE500028462EF057FF02208DF80400C3208DF8DD
:10CE6000050000208DF80600002301AA314628465F
:10CE70002EF048FF02208DF804006F208DF8050089
:10CE800012208DF80600002301AA314628462EF014
:10CE900039FF02208DF80400C3208DF8050006201C
:10CEA0008DF80600002301AA314628462EF02AFFFD
:10CEB00002208DF804006F208DF8050009208DF800
:10CEC0000600002301AA314628462EF01BFF02204F
:10CED0008DF80400C3208DF8050001208DF80600B0
:10CEE000002301AA314628462EF00CFF78202DF0B1
:10CEF0009AF802208DF804006F208DF805000920B3
:10CF00008DF80600002301AA314628462EF0FAFECD
:10CF100002208DF80400C3208DF8050000208DF854
:10CF20000600002301AA314628462EF0EBFE04201D
:10CF30008DF80400C8208DF80500A5208DF80600A6
:10CF40005A208DF807003C208DF80800002301AA24
:10CF5000314628462EF0D6FE41F288302DF063F897
:10CF600002208DF804006F208DF8050008208DF850
:10CF70000600002301AA314628462EF0C3FE0023F6
:10CF800003AA314628462EF0BDFE05202DF04BF8B1
:10CF900002208DF804006F208DF8050004208DF824
:10CFA0000600002301AA314628462EF0ABFE0420DD
:10CFB0008DF80400C3208DF8050000208DF80600D0
:10CFC0008DF807008DF80800002301AA3146284695
:10CFD0002EF098FE02208DF804006F208DF80500D9
:10CFE00001208DF80600002301AA314628462EF0C4
:10CFF00089FE04208DF80400C3208DF80500092067
:10D000008DF80600A4208DF8070040208DF8080058
:10D01000002301AA314628462EF074FE02208DF826
:10D0200004006F208DF8050003208DF80600002312
:10D0300001AA314628462EF065FE02208DF8040034
:10D04000C9208DF8050003208DF80600002301AAF1
:10D05000314628462EF056FE4FF4FA702CF0E3FFCE
:10D0600002208DF804006F208DF8050004208DF853
:10D070000600002301AA314628462EF043FE47F061
:10D080008003B722314628462EF07CFD0123BC22C6
:10D09000314628462EF076FD0223C122314628462D
:10D0A0002EF070FD01208DF80400C9208DF80500D8
:10D0B000002301AA314628462EF024FE06202CF03B
:10D0C000B2FFFF22314628462EF0E4FF804608F0EA
:10D0D000FF008DF800004FEA28208DF801002F2076
:10D0E0002070032060705346B722314628462EF048
:10D0F00049FDA078C01CC3B22246812148462FF0CA
:10D10000EEFB09B0BDE8F08F2DE9F04F89B007467E
:10D110008B4615461E46DDE91389129CAFF250710D
:10D1200003C9CDE90701AFF2507103C9CDE905018B
:10D13000AFF2547103C9CDE903014FF0000A434631
:10D14000B722314628462EF01DFD0F202CF06BFF34
:10D15000002303AA314628462EF0D4FD02208DF884
:10D1600004006F208DF8050004208DF806000023D0
:10D1700001AA314628462EF0C5FD02208DF8040094
:10D18000C3208DF80500AB208DF80600002301AA0E
:10D19000314628462EF0B6FD02208DF804006F209F
:10D1A0008DF8050009208DF80600002301AA3146FC
:10D1B00028462EF0A7FD04208DF80400C3208DF82A
:10D1C000050001208DF80600002301AA31462846FB
:10D1D0002EF098FD78202CF026FF02208DF8040018
:10D1E0006F208DF8050009208DF80600002301AAA4
:10D1F000314628462EF086FD04208DF80400C32019
:10D200008DF8050000208DF80600002301AA3146A4
:10D2100028462EF077FD02208DF80400C3208DF8FB
:10D22000050006208DF80600002301AA3146284695
:10D230002EF068FD02208DF804006F208DF80500A7
:10D2400009208DF80600002301AA314628462EF059
:10D2500059FD02208DF80400C3208DF8050001203F
:10D260008DF80600002301AA314628462EF04AFD1B
:10D2700078202CF0D8FE02208DF804006F208DF865
:10D28000050009208DF80600002301AA3146284632
:10D290002EF038FD02208DF80400C3208DF8050023
:10D2A00000208DF80600002301AA314628462EF002
:10D2B00029FD02208DF80400C3208DF8050001200F
:10D2C0008DF80600002301AA314628462EF01AFDEB
:10D2D00002208DF804006F208DF8050007208DF8DE
:10D2E0000600002301AA314628462EF00BFD02203D
:10D2F0008DF80400C3208DF8050002208DF806008B
:10D30000002301AA314628462EF0FCFC02208DF8AD
:10D3100004006F208DF8050009208DF80600002319
:10D3200001AA314628462EF0EDFC02208DF80400BB
:10D33000C3208DF8050002208DF80600002301AA05
:10D34000314628462EF0DEFC78202CF06CFE0220C0
:10D350008DF804006F208DF8050009208DF8060077
:10D36000002301AA314628462EF0CCFC02208DF87D
:10D370000400C3208DF8050000208DF8060000236E
:10D3800001AA314628462EF0BDFC02208DF804008B
:10D39000C3208DF8050005208DF80600002301AAA2
:10D3A000314628462EF0AEFC02208DF804006F2096
:10D3B0008DF8050009208DF80600002301AA3146EA
:10D3C00028462EF09FFC02208DF80400C3208DF823
:10D3D000050004208DF80600002301AA31462846E6
:10D3E0002EF090FC02208DF804006F208DF80500CF
:10D3F00009208DF80600002301AA314628462EF0A8
:10D4000081FC02208DF80400C3208DF80500002067
:10D410008DF80600002301AA314628462EF072FC42
:10D4200002208DF80400C3208DF8050035208DF80A
:10D430000600002301AA314628462EF063FC022094
:10D440008DF804006F208DF8050009208DF8060086
:10D45000002301AA314628462EF054FC02208DF804
:10D460000400C3208DF8050004208DF80600002379
:10D4700001AA314628462EF045FC02208DF8040012
:10D480006F208DF8050009208DF80600002301AA01
:10D49000314628462EF036FC02208DF80400C320C9
:10D4A0008DF8050000208DF80600002301AA314602
:10D4B00028462EF027FC02208DF804006F208DF8FE
:10D4C000050012208DF80600002301AA31462846E7
:10D4D0002EF018FC02208DF80400C3208DF8050002
:10D4E00006208DF80600002301AA314628462EF0BA
:10D4F00009FC02208DF804006F208DF8050009203A
:10D500008DF80600002301AA314628462EF0FAFBCA
:10D5100002208DF80400C3208DF8050001208DF84D
:10D520000600002301AA314628462EF0EBFB7820A6
:10D530002CF079FD02208DF804006F208DF8050095
:10D5400009208DF80600002301AA314628462EF056
:10D55000D9FB02208DF80400C3208DF805000020BF
:10D560008DF80600002301AA314628462EF0CAFB9A
:10D5700004208DF80400C8208DF80500A5208DF842
:10D5800006005A208DF807003C208DF80800002383
:10D5900001AA314628462EF0B5FB41F288302CF026
:10D5A00042FD02208DF804006F208DF80500082050
:10D5B0008DF80600002301AA314628462EF0A2FB72
:10D5C000002303AA314628462EF09CFB05202CF0B0
:10D5D0002AFD02208DF804006F208DF8050004203C
:10D5E0008DF80600002301AA314628462EF08AFB5A
:10D5F00004208DF80400C3208DF8050009208DF863
:10D600000600A5208DF8070000208DF808000023F3
:10D6100001AA314628462EF075FB02208DF8040041
:10D620006F208DF8050001208DF80600002301AA67
:10D63000314628462EF066FB04208DF80400C320F6
:10D640008DF8050009208DF80600A4208DF807004C
:10D6500040208DF80800002301AA314628462EF00C
:10D6600051FB02208DF804006F208DF80500032087
:10D670008DF80600002301AA314628462EF042FB11
:10D6800002208DF80400C9208DF8050003208DF8D4
:10D690000600002301AA314628462EF033FB4FF442
:10D6A000FA702CF0C0FC02208DF804006F208DF879
:10D6B000050004208DF80600002301AA3146284603
:10D6C0002EF020FB2F202070032060704B46B722E5
:10D6D000314628462EF056FAA078C01CC3B2224626
:10D6E000812138462FF0FBF809B0BDE8F08F2DE915
:10D6F000F04F89B081468B4615461E46DDE9137A08
:10D70000129CAFF6345103C9CDE90701AFF6385189
:10D7100003C9CDE90501AFF6385103C9CDE90301CD
:10D720003B46B722314628462EF02CFA0F202CF02B
:10D730007AFC002307AA314628462EF0E3FA04209B
:10D740008DF80400C0208DF8050076208DF80600C5
:10D75000F3208DF80700C1208DF80800002301AAEE
:10D76000314628462EF0CEFA002305AA3146284637
:10D770002EF0C8FA02208DF80400C7208DF80500AD
:10D7800001208DF80600002301AA314628462EF01C
:10D79000B9FA002303AA314628462EF0B3FA022034
:10D7A0008DF80400C2208DF8050014208DF80600C5
:10D7B000002301AA314628462EF0A4FA03208DF852
:10D7C0000400B1208DF8050001208DF80600C1206D
:10D7D0008DF80700002301AA314628462EF092FA60
:10D7E00002208DF80400B1208DF8050004208DF88A
:10D7F0000600002301AA314628462EF083FA0220B3
:10D800008DF80400B2208DF8050040208DF8060048
:10D81000002301AA314628462EF074FA02208DF822
:10D8200004006F208DF8050001208DF8060000230C
:10D8300001AA314628462EF065FA04208DF804002E
:10D84000B2208DF8050000208DF806008DF8070045
:10D850008DF80800002301AA314628462EF052FA1E
:10D8600002208DF804006F208DF8050004208DF84B
:10D870000600002301AA314628462EF043FA042070
:10D880008DF80400B2208DF8050009208DF80600FF
:10D89000A4208DF8070040208DF80800002301AA7D
:10D8A000314628462EF02EFA02208DF804006F2013
:10D8B0008DF8050007208DF80600002301AA3146E7
:10D8C00028462EF01FFA04208DF80400B2208DF8AF
:10D8D000050009208DF80600A5208DF8070000201E
:10D8E0008DF80800002301AA314628462EF00AFAD6
:10D8F00002208DF804006F208DF805000A208DF8B5
:10D900000600002301AA314628462EF0FBF9042028
:10D910008DF80400B2208DF8050009208DF806006E
:10D92000A4208DF8070040208DF80800002301AAEC
:10D93000314628462EF0E6F902208DF804009020AA
:10D940008DF8050000208DF80600002301AA31465D
:10D9500028462EF0D7F947F08003B72231462846F3
:10D960002EF010F90123BC22314628462EF00AF988
:10D970000223C122314628462EF004F901208DF8F9
:10D980000400C2208DF80500002301AA3146284674
:10D990002EF0B8F906202CF046FBFF22314628462F
:10D9A0002EF078FB804684F804804FEA28206071CE
:10D9B00005202CF038FB2F20207004206070534687
:10D9C000B722314628462EF0DDF8A078C01CC3B23D
:10D9D0002246812148462EF082FF09B0BDE8F08F33
:10D9E0002DE9F04F8BB0824616461F46DDE9155BE8
:10D9F000149CFE4903C9CDE90801FC49103103C953
:10DA0000CDE90601FAA0D0E900128068CDE9031241
:10DA10000590FAA2D2E900109268CDE901020091C6
:10DA20002B46B722394630462EF0ACF80F202CF0AA
:10DA3000FAFA002306AA394630462EF063F905208B
:10DA40002CF0F1FA02208DF82800C3208DF829006F
:10DA5000AB208DF82A0000230AAA394630462EF062
:10DA600051F902208DF828006F208DF82900092037
:10DA70008DF82A0000230AAA394630462EF042F9D2
:10DA800002208DF82800C3208DF8290001208DF890
:10DA90002A0000230AAA394630462EF033F97820AE
:10DAA0002CF0C1FA02208DF828006F208DF8290093
:10DAB00009208DF82A0000230AAA394630462EF0A4
:10DAC00021F902208DF82800C3208DF829000020BC
:10DAD0008DF82A0000230AAA394630462EF012F9A2
:10DAE00002208DF82800C3208DF8290006208DF82B
:10DAF0002A0000230AAA394630462EF003F90220F4
:10DB00008DF828006F208DF8290009208DF82A0053
:10DB100000230AAA394630462EF0F4F802208DF888
:10DB20002800C3208DF8290001208DF82A00002349
:10DB30000AAA394630462EF0E5F878202CF073FA20
:10DB400002208DF828006F208DF8290009208DF81B
:10DB50002A0000230AAA394630462EF0D3F80220C4
:10DB60008DF82800C3208DF8290000208DF82A00A8
:10DB700000230AAA394630462EF0C4F805208DF855
:10DB80002800FF208DF82900AA208DF82A005520B2
:10DB90008DF82B00A520802000230AAA39463046A4
:10DBA0002EF0B0F802208DF828006F208DF82900A3
:10DBB00009208DF82A0000230AAA394630462EF0A3
:10DBC000A1F803208DF82800FB208DF829005D20A6
:10DBD0008DF82A001F208DF82B0000230AAA394651
:10DBE00030462EF08FF84FF0000946E002208DF805
:10DBF00028006F208DF8290009208DF82A000023C5
:10DC00000AAA394630462EF07DF803208DF8280008
:10DC1000FB208DF8290055208DF82A001F208DF853
:10DC20002B0000230AAA394630462EF06BF802205A
:10DC30008DF828006F208DF8290009208DF82A0022
:10DC400000230AAA394630462EF05CF803208DF8EE
:10DC50002800FB208DF8290057208DF82A001F206E
:10DC60008DF82B0000230AAA394630462EF04AF8D8
:10DC70000A202CF0D8F909F10109B9F1060FB5DB3A
:10DC800002208DF828006F208DF8290009208DF8DA
:10DC90002A0000230AAA394630462EF033F8032022
:10DCA0008DF82800FB208DF8290075208DF82A00BA
:10DCB0001F208DF82B0000230AAA394630462EF08B
:10DCC00021F802208DF828006F208DF82900092006
:10DCD0008DF82A0000230AAA394630462EF012F8A1
:10DCE00003208DF82800FB208DF8290077208DF87F
:10DCF0002A001F208DF82B0000230AAA394630463F
:10DD00002EF000F84FF0000946E002208DF82800C0
:10DD10006F208DF8290009208DF82A0000230AAA17
:10DD2000394630462DF0EEFF03208DF82800FB2009
:10DD30008DF8290055208DF82A001F208DF82B0022
:10DD400000230AAA394630462DF0DCFF02208DF868
:10DD500028006F208DF8290009208DF82A00002363
:10DD60000AAA394630462DF0CDFF03208DF8280051
:10DD7000FB208DF8290057208DF82A001F208DF8F0
:10DD80002B0000230AAA394630462DF0BBFF0A209B
:10DD90002CF049F909F10109B9F1050FB5DB0220B1
:10DDA0008DF828006F208DF8290009208DF82A00B1
:10DDB00000230AAA394630462DF0A4FF03208DF82F
:10DDC0002800FB208DF8290075208DF82A001F20DF
:10DDD0008DF82B0000230AAA394630462DF092FF19
:10DDE00002208DF828006F200EE00000D0C9020844
:10DDF00008C3C700000000000000000008C30300C3
:10DE00000008000FFA0000008DF8290009208DF8A5
:10DE10002A0000230AAA394630462DF073FF03205A
:10DE20008DF82800FB208DF8290077208DF82A0036
:10DE30001F208DF82B0000230AAA394630462DF00A
:10DE400061FF4FF0000946E002208DF828006F20A6
:10DE50008DF8290009208DF82A0000230AAA3946E6
:10DE600030462DF04FFF03208DF82800FB208DF861
:10DE7000290055208DF82A001F208DF82B00002343
:10DE80000AAA394630462DF03DFF02208DF82800C1
:10DE90006F208DF8290009208DF82A0000230AAA96
:10DEA000394630462DF02EFF03208DF82800FB2048
:10DEB0008DF8290057208DF82A001F208DF82B009F
:10DEC00000230AAA394630462DF01CFF0A202CF008
:10DED000AAF809F10109B9F1060FB5DB02208DF8A6
:10DEE00028006F208DF8290009208DF82A000023D2
:10DEF0000AAA394630462DF005FF03208DF8280088
:10DF0000FB208DF8290075208DF82A001F208DF840
:10DF10002B0000230AAA394630462DF0F3FE0220DA
:10DF20008DF828006F208DF8290009208DF82A002F
:10DF300000230AAA394630462DF0E4FE03208DF86E
:10DF40002800FB208DF8290077208DF82A001F205B
:10DF50008DF82B0000230AAA394630462DF0D2FE58
:10DF600002208DF828006F208DF8290009208DF8F7
:10DF70002A0000230AAA394630462DF0C3FE0320AA
:10DF80008DF82800FB208DF8290055208DF82A00F7
:10DF90001F208DF82B0000230AAA394630462DF0A9
:10DFA000B1FE02208DF828006F208DF8290009208D
:10DFB0008DF82A0000230AAA394630462DF0A2FE29
:10DFC00003208DF82800FB208DF8290057208DF8BC
:10DFD0002A001F208DF82B0000230AAA394630465C
:10DFE0002DF090FE02208DF828006F208DF829007A
:10DFF00009208DF82A0000230AAA394630462DF060
:10E0000081FE03208DF82800FB208DF829005D207B
:10E010008DF82A001F208DF82B0000230AAA39460C
:10E0200030462DF06FFE02208DF828006F208DF80D
:10E03000290009208DF82A0000230AAA3946304613
:10E040002DF060FE03208DF82800FB208DF82900BC
:10E0500000208DF82A008DF82B0000230AAA3946EB
:10E0600030462DF04FFE05208DF82800FF208DF85A
:10E070002900AA208DF82A0055208DF82B00A52014
:10E08000802000230AAA394630462DF03BFE0220AC
:10E090008DF82800C3208DF8290006208DF82A006D
:10E0A00000230AAA394630462DF02CFE02208DF8B6
:10E0B00028006F208DF8290009208DF82A00002300
:10E0C0000AAA394630462DF01DFE02208DF82800A0
:10E0D000C3208DF8290001208DF82A0000230AAA08
:10E0E000394630462DF00EFE78202BF09CFF0220A2
:10E0F0008DF828006F208DF8290009208DF82A005E
:10E1000000230AAA394630462DF0FCFD02208DF886
:10E110002800C3208DF8290000208DF82A00002354
:10E120000AAA394630462DF0EDFD02208DF8280070
:10E13000C3208DF8290005208DF82A0000230AAAA3
:10E14000394630462DF0DEFD02208DF828006F2084
:10E150008DF8290009208DF82A0000230AAA3946E3
:10E1600030462DF0CFFD02208DF82800C3208DF819
:10E17000290004208DF82A0000230AAA39463046D7
:10E180002DF0C0FD02208DF828006F208DF82900A9
:10E1900009208DF82A0000230AAA394630462DF0BE
:10E1A000B1FD02208DF82800C3208DF82900002041
:10E1B0008DF82A0000230AAA394630462DF0A2FD28
:10E1C00002208DF82800C3208DF8290035208DF815
:10E1D0002A0000230AAA394630462DF093FD02207A
:10E1E0008DF828006F208DF8290009208DF82A006D
:10E1F00000230AAA394630462DF084FD02208DF80E
:10E200002800C3208DF8290004208DF82A0000235F
:10E210000AAA394630462DF075FD02208DF82800F7
:10E220006F208DF8290009208DF82A0000230AAA02
:10E23000394630462DF066FD02208DF82800C320B7
:10E240008DF8290000208DF82A0000230AAA3946FB
:10E2500030462DF057FD02208DF82800C3208DF8A0
:10E26000290035208DF82A0000230AAA39463046B5
:10E270002DF048FD02208DF828006F208DF8290030
:10E2800009208DF82A0000230AAA394630462DF0CD
:10E2900039FD02208DF82800C3208DF829000420C4
:10E2A0008DF82A0000230AAA394630462DF02AFDAF
:10E2B00002208DF828006F208DF8290009208DF8A4
:10E2C0002A0000230AAA394630462DF01BFD022001
:10E2D0008DF82800C3208DF8290000208DF82A0031
:10E2E00000230AAA394630462DF00CFD02208DF895
:10E2F00028006F208DF8290012208DF82A000023B5
:10E300000AAA394630462DF0FDFC45F08003B722BD
:10E31000394630462DF036FC0223BC2239463046C1
:10E320002DF030FC0223C122394630462DF02AFC64
:10E3300001208DF82800C3208DF8290000230AAAA7
:10E34000394630462DF0DEFC06202BF06CFEFF2215
:10E35000394630462DF09EFE804602208DF828007A
:10E36000C3208DF8290006208DF82A0000230AAA70
:10E37000394630462DF0C6FC02208DF828006F206B
:10E380008DF8290009208DF82A0000230AAA3946B1
:10E3900030462DF0B7FC02208DF82800C3208DF800
:10E3A000290001208DF82A0000230AAA39463046A8
:10E3B0002DF0A8FC78202BF036FE02208DF82800E6
:10E3C0006F208DF8290009208DF82A0000230AAA61
:10E3D000394630462DF096FC02208DF82800C320E7
:10E3E0008DF8290000208DF82A0000230AAA39465A
:10E3F00030462DF087FC002303AA394630462DF025
:10E4000081FC02208DF828006F208DF8290009205A
:10E410008DF82A0000230AAA394630462DF072FCF6
:10E4200002208DF82800C3208DF8290001208DF8E6
:10E430002A0000230AAA394630462DF063FC44F630
:10E4400020602BF0F0FD02208DF828006F208DF861
:10E45000290009208DF82A0000230AAA39463046EF
:10E460002DF050FC02208DF82800C3208DF82900E3
:10E4700000208DF82A0000230AAA394630462DF0E4
:10E4800041FC02208DF82800C2208DF829001420BC
:10E490008DF82A0000230AAA394630462DF032FCB6
:10E4A00003208DF82800B1208DF8290002208DF876
:10E4B0002A0001208DF82B0000230AAA3946304695
:10E4C0002DF020FC00236A46394630462DF01AFC18
:10E4D000C8202BF0A8FD02208DF828006F208DF8B1
:10E4E000290009208DF82A0000230AAA394630465F
:10E4F0002DF008FC02208DF82800C3208DF829009B
:10E5000008208DF82A0000230AAA394630462DF04B
:10E51000F9FB78202BF087FD02208DF828006F2072
:10E520008DF8290009208DF82A0000230AAA39460F
:10E5300030462DF0E7FB02208DF82800C3208DF82F
:10E54000290000208DF82A0000230AAA3946304607
:10E550002DF0D8FB02208DF828006F208DF82900BF
:10E560000A208DF82A0000230AAA394630462DF0E9
:10E57000C9FB45F08003B722394630462DF002FB37
:10E580000223BC22394630462DF0FCFA0223C12278
:10E59000394630462DF0F6FA01208DF82800C320C8
:10E5A0008DF8290000230AAA394630462DF0AAFB2F
:10E5B00006202BF038FDFF22394630462DF06AFD4B
:10E5C000804602208DF82800C3208DF829009F2066
:10E5D0008DF82A0000230AAA394630462DF092FB16
:10E5E00002208DF828006F208DF8290018208DF862
:10E5F0002A0000230AAA394630462DF083FB022068
:10E600008DF82800C3208DF829009F208DF82A005E
:10E6100000230AAA394630462DF074FB02208DF8FB
:10E6200028006F208DF8290009208DF82A0000238A
:10E630000AAA394630462DF065FB02208DF82800E5
:10E64000C3208DF8290004208DF82A0000230AAA8F
:10E65000394630462DF056FB78202BF0E4FC0220A2
:10E660008DF828006F208DF8290009208DF82A00E8
:10E6700000230AAA394630462DF044FB02208DF8CB
:10E680002800C3208DF8290000208DF82A000023DF
:10E690000AAA394630462DF035FB02208DF82800B5
:10E6A0006F208DF8290013208DF82A0000230AAA74
:10E6B000394630462DF026FB45F08003B722394617
:10E6C00030462DF05FFA0223BC22394630462DF049
:10E6D00059FA0223C122394630462DF053FA01205F
:10E6E0008DF82800C3208DF8290000230AAA394696
:10E6F00030462DF007FB0A202BF095FCFF2239460F
:10E7000030462DF0C7FC804684F802804FEA28206E
:10E71000E07005202BF087FC5B46B7223946304677
:10E720002DF030FA2F20207005206070002020711D
:10E730005B46B722394630462DF024FAA078C01C3B
:10E74000C3B22246812150462EF0C9F80BB0BDE875
:10E75000F08F2DE9FC4707468A4615461E46DDE93F
:10E760000B890A9C4346B722314628462DF00AFA07
:10E770000F202BF058FC06208DF80000F0208DF8BB
:10E78000010055208DF80200AA208DF803005220C8
:10E790008DF8040008208DF8050004208DF806008F
:10E7A00000236A46314628462DF0ACFA05202BF0AE
:10E7B0003AFC07208DF80000CB208DF80100A42042
:10E7C0008DF8020010208DF8030020208DF8040041
:10E7D00040208DF8050080208DF80600A0208DF8DF
:10E7E000070000236A46314628462DF08BFA0520A3
:10E7F0002BF019FC2F202070072060704B46B722A9
:10E80000314628462DF0BEF9A078C01CC3B222467E
:10E81000812138462EF063F8BDE8FC872DE9FC47DE
:10E8200007468A4615461E46DDE90B890A9C434683
:10E83000B722314628462DF0A5F90F202BF0F3FB27
:10E8400006208DF80000F0208DF8010055208DF88D
:10E850000200AA208DF8030052208DF80400082041
:10E860008DF8050004208DF8060000236A46314625
:10E8700028462DF047FA05202BF0D5FB07208DF810
:10E880000000CB208DF8010000208DF80200102040
:10E890008DF8030020208DF8040040208DF805003D
:10E8A00080208DF80600C0208DF8070000236A46FE
:10E8B000314628462DF026FA05202BF0B4FB2F20F8
:10E8C0002070082060704B46B722314628462DF054
:10E8D00059F9A078C01CC3B22246812138462DF0D8
:10E8E000FEFFBDE8FC872DE9FE4F064689469246AD
:10E8F0001F46DDE90C840E9D3F4840780C2876D2F7
:10E90000DFE800F07506111C27323D4853755E693B
:10E9100039488DE831003948027B3B468121304639
:10E92000FDF74FFE64E034488DE831003348027B48
:10E930003B4681213046FEF7C2F859E02E488DE86B
:10E9400031002E48027B3B4681213046FEF7BBF862
:10E950004EE029488DE831002848027B3B46812162
:10E960003046FEF7C4FE43E023488DE831002348DB
:10E97000027B3B4681213046FFF732F838E01E48E3
:10E980008DE831001D48027B3B4681213046FDF772
:10E9900045FD2DE018488DE831001848027B3B46C4
:10E9A00081213046FFF7D5FE22E013488DE8310083
:10E9B0001248027B3B4681213046FFF72FFF17E0CC
:10E9C0000D488DE831000D48027B3B4681213046E1
:10E9D000FEF79AFB0CE008488DE831000748027BFF
:10E9E0003B4681213046FDF723FF01E0FFE700BFF2
:10E9F00000BFBDE8FE8F0000790A0120203D002005
:10EA00002DE9F04786B080468A4615461E46DDE968
:10EA10000F790E9CFDA207CACDE903120290FEA059
:10EA2000006801903B46B722314628462DF0AAF8EF
:10EA30000F202BF0F8FA0020F849086021E00220AE
:10EA40008DF8140002A8F5490968405C8DF815009E
:10EA500002A9F2480068401C085C8DF816000023EB
:10EA600005AA314628462DF04DF905202BF0DBFA9A
:10EA7000EA480068401CE949086008460068401CF4
:10EA80000860E64800680A28D9D347F08003B72217
:10EA9000314628462DF076F80123BC22314628461F
:10EAA0002DF070F80020DD49086026E00123C12226
:10EAB000314628462DF066F801208DF8140001A893
:10EAC000D6490968405C8DF81500002305AA314637
:10EAD00028462DF017F906202BF0A5FAFF22314623
:10EAE00028462DF0D7FAC1B2CC480068001D215449
:10EAF000CA480068401CC9490860C8480068032823
:10EB0000D4D32F202070062060704B46B7223146A8
:10EB100028462DF037F8A078C01CC3B222468121C8
:10EB200040462DF0DCFE06B0BDE8F0872DE9F04749
:10EB300088B007468A4615461E46DDE91189109CB5
:10EB40001C22B7A168463BF023FB4346B72231465F
:10EB500028462DF017F80F202BF065FA0020AF495A
:10EB6000086021E002208DF81C00AC4909681DF8FE
:10EB700001008DF81D00A9480068401C1DF8000028
:10EB80008DF81E00002307AA314628462DF0BAF85A
:10EB90000F202BF048FAA1480068401C9F490860EC
:10EBA00008460068401C08609C4800681C28D9D3AF
:10EBB0002F202070012060704B46B7223146284636
:10EBC0002CF0E0FFA078C01CC3B222468121384659
:10EBD0002DF085FE08B0BDE8F08770B504AC70CCB0
:10EBE00070BD2DE9F04786B080468A4615461E4620
:10EBF000DDE90F790E9C91A30FCBCDE90323CDE97D
:10EC000001013B46B722314628462CF0BBFF0F20BE
:10EC10002BF009FA00208149086021E002208DF8DC
:10EC2000140001A87D490968405C8DF8150001A910
:10EC30007A480068401C085C8DF81600002305AA7D
:10EC4000314628462DF05EF805202BF0ECF973488C
:10EC50000068401C7149086008460068401C086054
:10EC60006E4800680E28D9D34FF4FA602BF0DBF918
:10EC700047F08003B722314628462CF083FF01235A
:10EC8000BC22314628462CF07DFF0223C1223146AA
:10EC900028462CF077FF00BF01208DF81400DB2000
:10ECA0008DF81500002305AA314628462DF02AF8D4
:10ECB00006202BF0B8F9FF22314628462DF0EAF95C
:10ECC000207164202BF0AFF9207900F080008028BB
:10ECD000E2D105202BF0A7F92F20207003206070CF
:10ECE000802020714B46B722314628462CF04AFF3F
:10ECF000A078C01CC3B22246812140462DF0EFFD12
:10ED000006B0BDE8F0872DE9F04786B080468A4618
:10ED100015461E46DDE90F790E9C4CA00068049054
:10ED20004BA207CACDE9021201903B46B7223146F9
:10ED300028462CF027FF0F202BF075F900203749CB
:10ED4000086021E002208DF8140001A83349096809
:10ED5000405C8DF8150001A930480068401C085C33
:10ED60008DF81600002305AA314628462CF0CAFF6C
:10ED700005202BF058F929480068401C27490860F5
:10ED800008460068401C0860244800680A28D9D357
:10ED90004FF4FA702BF047F947F08003B722314661
:10EDA00028462CF0EFFE0123BC22314628462CF0E9
:10EDB000E9FE00201949086026E00123C1223146FE
:10EDC00028462CF0DFFE01208DF8140004A813491A
:10EDD0000968405C8DF81500002305AA31462846D5
:10EDE0002CF090FF06202BF01EF9FF22314628461A
:10EDF0002DF050F9C1B209480068001D21540748A0
:10EE00000068401C05490860044827E0FE26F3021C
:10EE1000181C19EC1AF20000EAEBEC006414002054
:10EE2000FEA00B11FED05853078D42815558FED2DB
:10EE30006E20FE405B015E400E40FE00FE261B0081
:10EE4000F204150016001700F2100000E6E70000BB
:10EE5000FE26181C19EC1AF1F201000000680228C5
:10EE6000ABD305202BF0DFF82F202070042060703A
:10EE70004B46B722314628462CF084FEA078C01CB1
:10EE8000C3B22246812140462DF029FD06B0BDE8DF
:10EE9000F0872DE9FE4F80468B4615461E46DDE97C
:10EEA0000D790C9CF6A003C8CDE900014FF0DB0AF8
:10EEB0003B46B722314628462CF064FE0F202BF04B
:10EEC000B2F80020F049086021E002208DF8080027
:10EED000ED4909681DF801008DF80900EA4800684D
:10EEE000401C1DF800008DF80A00002302AA3146DC
:10EEF00028462CF007FF05202BF095F8E248006823
:10EF0000401CE149086008460068401C0860DE4873
:10EF100000680828D9D347F08003B7223146284635
:10EF20002CF030FE0123BC22314628462CF02AFE6C
:10EF30000223C122314628462CF024FE00BF0120C6
:10EF40008DF808008DF809A0002302AA3146284652
:10EF50002CF0D8FE06202BF066F8FF22314628461A
:10EF60002DF098F82071207900F080008028E6D1FB
:10EF700005202BF058F82F2020700520607080208D
:10EF800020714B46B722314628462CF0FBFDA07875
:10EF9000C01CC3B22246812140462DF0A0FCBDE832
:10EFA000FE8F70B504AC70CC70BD2DE9FE4F0746E6
:10EFB0008A4615461E46DDE90D890C9CB3A0006803
:10EFC00000904346B722314628462CF0DBFD0F2047
:10EFD0002BF029F80020AC49086021E002208DF8D0
:10EFE0000400A94909681DF801008DF80500A6482C
:10EFF0000068401C1DF800008DF80600002301AADF
:10F00000314628462CF07EFE05202BF00CF89E4859
:10F010000068401C9C49086008460068401C086065
:10F02000994800680428D9D305202AF0FCFF2F2036
:10F030002070072060704B46B722314628462CF0DE
:10F04000A1FDA078C01CC3B22246812138462DF014
:10F0500046FCBDE8FE8F2DE9FF4707468A46154668
:10F060001E46DDE90D890C9C89A00068019089A0ED
:10F07000006800904346B722314628462CF082FDB6
:10F080000F202AF0D0FFE078092801D1012000E00C
:10F090000020E178132901D1012100E0002108437B
:10F0A00000283FD000207849086021E002208DF838
:10F0B000080001A874490968405C8DF8090001A99D
:10F0C00071480068401C085C8DF80A00002302AA01
:10F0D000314628462CF016FE05202AF0A4FF6A4887
:10F0E0000068401C6849086008460068401C0860C9
:10F0F000654800680428D9D305202AF094FF2F2002
:10F100002070082060704B46B722314628462CF00C
:10F1100039FDA078C01CC3B22246812138462DF0AB
:10F12000DEFB3EE000205849086021E002208DF817
:10F130000800554909681DF801008DF8090052487A
:10F140000068401C1DF800008DF80A00002302AA88
:10F15000314628462CF0D6FD05202AF064FF4A48A7
:10F160000068401C4849086008460068401C086068
:10F17000454800680428D9D305202AF054FF2F20E1
:10F180002070082060704B46B722314628462CF08C
:10F19000F9FCA078C01CC3B22246812138462DF06C
:10F1A0009EFBBDE8FF872DE9FE4F06468946924645
:10F1B0001F46DDE90C840E9D3748407809286FD240
:10F1C000DFE800F06E05101B26313C475200324844
:10F1D0008DE831003148027B3B4681213046FFF704
:10F1E000A5FC5EE02C488DE831002C48027B3B46B4
:10F1F00081213046FFF7F1FC53E027488DE83100CC
:10F200002648027B3B4681213046FFF7EAFC48E076
:10F2100021488DE831002148027B3B468121304660
:10F22000FFF771FD3DE01C488DE831001B48027B73
:10F230003B4681213046FFF72CFE32E016488DE830
:10F2400031001648027B3B4681213046FFF7D8FB50
:10F2500027E011488DE831001048027B3B468121B0
:10F260003046FFF7A2FE1CE00B488DE831000B484A
:10F27000027B3B4681213046FFF7EDFE11E00FE0B7
:10F28000FE261B00F204F30164140020FE22770026
:10F29000FE227702FE227704790A0120203D002019
:10F2A00000BF00BFBDE8FE8F2DE9FE4F80468A46B5
:10F2B00015461E46DDE90D790C9C3B46B7223146CA
:10F2C00028462CF05FFC14202AF0ADFE02208DF8B9
:10F2D000080059208DF8090011208DF80A0000233C
:10F2E00002AA314628462CF00DFD02208DF80800B8
:10F2F0006F208DF8090003208DF80A00002302AA70
:10F30000314628462CF0FEFC02208DF80800BD2076
:10F310008DF8090000208DF80A00002302AA31466A
:10F3200028462CF0EFFC4FF496702AF07CFE01206A
:10F330008DF8080028208DF80900002302AA314624
:10F3400028462CF0DFFC14202AF06DFE03208DF8F7
:10F350000800F0208DF80900AA208DF80A0010207E
:10F360008DF80B00002302AA314628462CF0CAFC77
:10F3700003208DF80800EA208DF8090030208DF870
:10F380000A0000208DF80B00002302AA314628460F
:10F390002CF0B8FC02208DF80800EE208DF8090052
:10F3A000AB208DF80A00002302AA314628462CF033
:10F3B000A9FC02208DF80800ED208DF8090020201E
:10F3C0008DF80A00002302AA314628462CF09AFC48
:10F3D00064202AF028FE02208DF80800ED208DF828
:10F3E000090000208DF80A00002302AA31462846B1
:10F3F0002CF088FC02208DF80800EE208DF8090022
:10F4000006208DF80A00002302AA314628462CF077
:10F4100079FC02208DF80800ED208DF809002020ED
:10F420008DF80A00002302AA314628462CF06AFC17
:10F4300064202AF0F8FD02208DF80800ED208DF8F8
:10F44000090000208DF80A00002302AA3146284650
:10F450002CF058FC02208DF80800EE208DF80900F1
:10F460009F208DF80A00002302AA314628462CF07E
:10F4700049FC02208DF80800ED208DF80900442099
:10F480008DF80A00002302AA314628462CF03AFCE7
:10F4900064202AF0C8FD02208DF80800ED208DF8C8
:10F4A000090000208DF80A00002302AA31462846F0
:10F4B0002CF028FC47F08003B722314628462CF078
:10F4C00061FB05202AF0AFFD201D0321EC2332460D
:10F4D000CDE900102946404601F0E5FF2F202070BD
:10F4E000062060704B46B722314628462CF04AFB76
:10F4F000A078C01CC3B22246812140462DF0EFF90E
:10F50000BDE8FE8F2DE9F04786B080468A46154655
:10F510001E46DDE90F790E9C3B46B7223146284650
:10F520002CF030FB05202AF07EFD01208DF80C0028
:10F5300028208DF80D00002303AA314628462CF020
:10F54000E1FB0F202AF06FFD03208DF80C00FF2057
:10F550008DF80D005A208DF80E0080208DF80F00D8
:10F56000002303AA314628462CF0CCFB47F0800349
:10F57000B722314628462CF005FB05202AF053FD22
:10F58000201D0A21FA233246CDE9001029464046C3
:10F5900001F089FF3B46B722314628462CF0F2FAAB
:10F5A00005202AF040FD01208DF80C0029208DF85F
:10F5B0000D00002303AA314628462CF0A3FB2F2080
:10F5C0002070042060704B46B722314628462CF04C
:10F5D000D9FAA078C01CC3B22246812140462DF042
:10F5E0007EF906B0BDE8F0872DE9FC4707468A465C
:10F5F00015461E46DDE90B890A9C4346B722314673
:10F6000028462CF0BFFA14202AF00DFD03208DF8B7
:10F610000000F0208DF80100AA208DF802001020D3
:10F620008DF8030000236A46314628462CF06AFB19
:10F6300004208DF80000ED208DF8010000208DF8E9
:10F6400002008DF8030001208DF8040000236A46B3
:10F65000314628462CF056FB64202AF0E4FC0420B6
:10F660008DF80000ED208DF8010000208DF80200DB
:10F670008DF803008DF8040000236A4631462846C1
:10F680002CF040FB64202AF0CEFC02208DF8000014
:10F6900065208DF8010005208DF8020000236A46E0
:10F6A000314628462CF02EFB02208DF80000EB207E
:10F6B0008DF8010040208DF8020000236A46314693
:10F6C00028462CF01FFB02208DF8000065208DF8E5
:10F6D00001000A208DF8020000236A4631462846C0
:10F6E0002CF010FB02208DF80000EA208DF80100BC
:10F6F00010208DF8020000236A46314628462CF07F
:10F7000001FB0A202AF08FFC2F202070012060705E
:10F71000A078C01CC3B22246812138462DF0DFF804
:10F72000BDE8FC8770B504AC70CC70BD70B504AC9E
:10F7300070CC70BD2DE9F04F85B080468B461546E4
:10F740001E46DDE90F7A0E9C4FF0000941F2707001
:10F750002AF069FC3B46B722314628462CF012FAC3
:10F7600014202AF060FC03208DF80800FF208DF89B
:10F7700009005A208DF80A0080208DF80B00002324
:10F7800002AA314628462CF0BDFA05208DF8080063
:10F79000EE208DF8090032208DF80A0000208DF847
:10F7A0000B0001208DF80C0000208DF80D000023C7
:10F7B00002AA314628462CF0A5FA64202AF033FC30
:10F7C00002208DF80800ED208DF8090002208DF848
:10F7D0000A00002302AA314628462CF093FA42F68A
:10F7E000E0602AF020FC47F08003B722314628462B
:10F7F0002CF0C8F905202AF016FC00BF02A80A2147
:10F80000EB233246CDE900102946404601F04BFE7D
:10F810009DF80F90C8202AF006FCB9F1700FEDD1C9
:10F820004FF47A702AF0FFFB3B46B7223146284658
:10F830002CF0A8F906202AF0F6FB02208DF808002B
:10F84000ED208DF8090000208DF80A00002302AA9F
:10F85000314628462CF056FA2F2020700220607086
:10F8600014202AF0E0FB3B46B722314628462CF014
:10F8700089F970202071A078C01CC3B22246812172
:10F8800040462DF02CF805B0BDE8F08F2DE9F84F7B
:10F8900007468B4615461E46DDE90B890A9C4FF04C
:10F8A000EF0A4346B722314628462CF06BF9052073
:10F8B0002AF0B9FB03208DF80000F0208DF801003C
:10F8C000AA208DF8020010208DF8030000236A465C
:10F8D000314628462CF016FA03208DF80000EA2065
:10F8E0008DF8010030208DF8020001208DF8030012
:10F8F00000236A46314628462CF004FA02208DF88F
:10F90000000065208DF8010006208DF8020000231C
:10F910006A46314628462CF0F5F902208DF80000A1
:10F92000EB208DF8010000208DF8020000236A46CC
:10F93000314628462CF0E6F903208DF80000ED2032
:10F940008DF8010000208DF8020001208DF80300E1
:10F9500000236A46314628462CF0D4F903208DF85E
:10F960000000ED208DF8010000208DF802008DF8D8
:10F97000030000236A46314628462CF0C3F9642070
:10F980002AF051FB03208DF80000ED208DF80100D6
:10F9900000208DF8020010208DF8030000236A4635
:10F9A000314628462CF0AEF941F288302AF03BFB74
:10F9B00003208DF80000ED208DF8010000208DF867
:10F9C00002008DF8030000236A46314628462CF0D9
:10F9D00099F92F20207005206070002020714B467F
:10F9E000B722314628462CF0CDF8A078C01CC3B20F
:10F9F0002246812138462CF072FFBDE8F88F2DE9B0
:10FA0000FC4707468A4615461E46DDE90B890A9CD7
:10FA10004346B722314628462CF0B4F805202AF098
:10FA200002FB02208DF8000059208DF80100012012
:10FA30008DF8020000236A46314628462CF062F910
:10FA40004B46B722314628462CF09CF805202AF078
:10FA5000EAFA2F202070072060704B46B72231460B
:10FA600028462CF08FF8A078C01CC3B22246812112
:10FA700038462CF034FFBDE8FC872DE9FC470746EB
:10FA80008A4615461E46DDE90B890A9C4346B72285
:10FA9000314628462CF076F805202AF0C4FA0220D8
:10FAA0008DF8000059208DF8010000208DF802002B
:10FAB00000236A46314628462CF024F94B46B722EB
:10FAC000314628462CF05EF805202AF0ACFA2F20AB
:10FAD0002070082060704B46B722314628462CF033
:10FAE00051F8A078C01CC3B22246812138462CF0C0
:10FAF000F6FEBDE8FC872DE9FE4F06468946924694
:10FB00001F46DDE90C840E9D98F801000B286AD28F
:10FB1000DFE800F06906111C27323D4853695E009A
:10FB200033488DE831003348027B3B468121304623
:10FB3000FFF75AFD58E02E488DE831002D48027B32
:10FB40003B4681213046FFF7F5FD4DE028488DE822
:10FB500031002848027B3B4681213046FFF7E2FD19
:10FB600042E023488DE831002248027B3B46812158
:10FB70003046FFF7C7FC37E01D488DE831001D48CF
:10FB8000027B3B4681213046FFF780FE2CE018487F
:10FB90008DE831001748027B3B4681213046FFF754
:10FBA00083FB21E012488DE831001248027B3B467E
:10FBB00081213046FFF723FF16E00D488DE8310024
:10FBC0000C48027B3B4681213046FFF756FF0BE095
:10FBD00007488DE831000748027B3B4681213046CB
:10FBE000FFF7A4FD00E000BF00BFBDE8FE8F0000EE
:10FBF000790A0120203D00202DE9FE4F80468A46EB
:10FC000015461E46DDE90D790C9C3B46B722314670
:10FC100028462BF0B7FF14202AF005FA02208DF8B1
:10FC2000080059208DF8090011208DF80A000023E2
:10FC300002AA314628462CF065F802208DF808000B
:10FC40006F208DF8090003208DF80A00002302AA16
:10FC5000314628462CF056F802208DF80800BD20C9
:10FC60008DF8090000208DF80A00002302AA314611
:10FC700028462CF047F84FF496702AF0D4F901206A
:10FC80008DF8080028208DF80900002302AA3146CB
:10FC900028462CF037F814202AF0C5F903208DF8F7
:10FCA0000800F0208DF80900AA208DF80A00102025
:10FCB0008DF80B00002302AA314628462CF022F8CA
:10FCC00002208DF80800BD208DF8090000208DF875
:10FCD0000A00002302AA314628462CF013F803201C
:10FCE0008DF80800EA208DF8090030208DF80A0010
:10FCF00000208DF80B00002302AA314628462CF084
:10FD000001F802208DF80800EE208DF80900AB20E4
:10FD10008DF80A00002302AA314628462BF0F2FF94
:10FD200002208DF80800ED208DF8090020208DF8C4
:10FD30000A00002302AA314628462BF0E3FF642084
:10FD40002AF071F902208DF80800ED208DF80900E5
:10FD500000208DF80A00002302AA314628462BF025
:10FD6000D1FF02208DF80800EE208DF80900062052
:10FD70008DF80A00002302AA314628462BF0C2FF64
:10FD800002208DF80800ED208DF8090020208DF864
:10FD90000A00002302AA314628462BF0B3FF642054
:10FDA0002AF041F902208DF80800ED208DF80900B5
:10FDB00000208DF80A00002302AA314628462BF0C5
:10FDC000A1FF02208DF80800EE208DF80900052023
:10FDD0008DF80A00002302AA314628462BF092FF34
:10FDE00002208DF80800ED208DF8090008208DF81C
:10FDF0000A00002302AA314628462BF083FF642024
:10FE00002AF011F902208DF80800ED208DF8090084
:10FE100000208DF80A00002302AA314628462BF064
:10FE200071FF64202AF0FFF802208DF80800EE2010
:10FE30008DF809009F208DF80A00002302AA3146A0
:10FE400028462BF05FFF02208DF80800ED208DF88A
:10FE5000090044208DF80A00002302AA31462846F2
:10FE60002BF050FF64202AF0DEF802208DF8080005
:10FE7000ED208DF8090000208DF80A00002302AA69
:10FE8000314628462BF03EFF47F08003B72231462B
:10FE900028462BF077FE05202AF0C5F8201D032107
:10FEA000EC233246CDE900102946404601F0FBFA2A
:10FEB0002F202070062060704B46B722314628461E
:10FEC0002BF060FEA078C01CC3B2224681214046C0
:10FED0002CF005FDBDE8FE8F2DE9F04786B0804689
:10FEE0008A4615461E46DDE90F790E9C3B46B72231
:10FEF000314628462BF046FE05202AF094F80120D2
:10FF00008DF80C0028208DF80D00002303AA31463F
:10FF100028462BF0F7FE0F202AF085F803208DF8F5
:10FF20000C00FF208DF80D005A208DF80E00802067
:10FF30008DF80F00002303AA314628462BF0E2FE7D
:10FF400047F08003B722314628462BF01BFE0520E0
:10FF50002AF069F8201D0A21FA233246CDE9001063
:10FF60002946404601F09FFA3B46B72231462846D3
:10FF70002BF008FE05202AF056F801208DF80C0021
:10FF800029208DF80D00002303AA314628462BF0C6
:10FF9000B9FE2F202070042060704B46B7223146F6
:10FFA00028462BF0EFFDA078C01CC3B22246812169
:10FFB00040462CF094FC06B0BDE8F0872DE9FC47E4
:10FFC00007468A4615461E46DDE90B890A9C4346CC
:10FFD000B722314628462BF0D5FD14202AF023F80D
:10FFE00002208DF8000059208DF8010011208DF8B5
:10FFF000020000236A46314628462BF083FE022089
:020000040803EF
:100000008DF800006F208DF8010003208DF80200AC
:1000100000236A46314628462BF074FE03208DF8F3
:100020000000F0208DF80100AA208DF802001020B9
:100030008DF8030000236A46314628462BF062FE05
:1000400002208DF80000B8208DF8010004208DF802
:10005000020000236A46314628462BF053FE032057
:100060008DF80000EA208DF8010030208DF80200A4
:1000700020208DF8030000236A46314628462BF0E5
:1000800041FE01208DF8000011208DF801000023B1
:100090006A46314628462BF035FE02208DF80000D6
:1000A000EE208DF80100AB208DF8020000236A4697
:1000B000314628462BF026FE02208DF80000ED2068
:1000C0008DF8010020208DF8020000236A46314699
:1000D00028462BF017FE642029F0A5FF02208DF89A
:1000E0000000ED208DF8010000208DF802000023B3
:1000F0006A46314628462BF005FE02208DF80000A6
:10010000EE208DF8010006208DF8020000236A46DB
:10011000314628462BF0F6FD02208DF80000ED2038
:100120008DF8010020208DF8020000236A46314638
:1001300028462BF0E7FD642029F075FF02208DF89A
:100140000000ED208DF8010000208DF80200002352
:100150006A46314628462BF0D5FD02208DF8000076
:10016000EE208DF8010005208DF8020000236A467C
:10017000314628462BF0C6FD02208DF80000ED2008
:100180008DF8010008208DF8020000236A463146F0
:1001900028462BF0B7FD642029F045FF02208DF89A
:1001A0000000ED208DF8010000208DF802000023F2
:1001B0006A46314628462BF0A5FD642029F033FF1E
:1001C00002208DF80000EE208DF8010001208DF84E
:1001D000020000236A46314628462BF093FD022098
:1001E0008DF8000065208DF8010007208DF80200D1
:1001F00000236A46314628462BF084FD03208DF803
:100200000000EE208DF8010002208DF802008DF82C
:10021000030000236A46314628462BF073FD642014
:1002200029F001FF02208DF80000ED208DF801007B
:1002300010208DF8020000236A46314628462BF034
:1002400061FD642029F0EFFE02208DF80000ED2012
:100250008DF8010000208DF8020000236A46314627
:1002600028462BF04FFD642029F0DDFE02208DF89A
:100270000000EE208DF8010006208DF8020000231A
:100280006A46314628462BF03DFD02208DF80000DD
:10029000ED208DF8010020208DF8020000236A4631
:1002A000314628462BF02EFD642029F0BCFE0220AA
:1002B0008DF80000ED208DF8010000208DF802007F
:1002C00000236A46314628462BF01CFD02208DF89B
:1002D0000000EE208DF8010005208DF802000023BB
:1002E0006A46314628462BF00DFD02208DF80000AD
:1002F000ED208DF8010008208DF8020000236A46E9
:10030000314628462BF0FEFC642029F08CFE0220AA
:100310008DF80000ED208DF8010000208DF802001E
:1003200000236A46314628462BF0ECFC642029F075
:100330007AFE02208DF80000EE208DF801003520B5
:100340008DF8020000236A46314628462BF0DAFC7D
:1003500002208DF80000ED208DF8010008208DF8B6
:10036000020000236A46314628462BF0CBFC64206D
:1003700029F059FE02208DF80000ED208DF80100D3
:1003800000208DF8020000236A46314628462BF0F3
:10039000B9FC642029F047FE02208DF8000065209A
:1003A0008DF8010004208DF8020000236A463146D2
:1003B00028462BF0A7FC04208DF80000EE208DF8D5
:1003C000010000208DF802008DF803008DF8040074
:1003D00000236A46314628462BF094FC03208DF812
:1003E0000000EE208DF801000B208DF8020008209F
:1003F0008DF8030000236A46314628462BF082FC24
:1004000002208DF80000ED208DF8010004208DF809
:10041000020000236A46314628462BF073FC642014
:1004200029F001FE02208DF80000ED208DF801007A
:1004300000208DF8020000236A46314628462BF042
:1004400061FC02208DF8000065208DF80100082075
:100450008DF8020000236A46314628462BF052FCF4
:1004600004208DF80000EA208DF801001F208DF88F
:100470000200CC208DF8030020208DF8040000231A
:100480006A46314628462BF03DFC03208DF80000DB
:10049000FF208DF801005A208DF8020080208DF891
:1004A000030000236A46314628462BF02BFC02202D
:1004B0008DF80000FA208DF8010001208DF802006F
:1004C00000236A46314628462BF01CFC2F20207062
:1004D00001206070A078C01CC3B22246812138463A
:1004E0002CF0FDF9BDE8FC872DE9FE4F07468B4651
:1004F00015461E46DDE90D890C9C4FF0000A41F2BD
:10050000707029F090FD4346B722314628462BF003
:1005100039FB142029F087FD03208DF80000FF200F
:100520008DF801005A208DF8020080208DF803001C
:1005300000236A46314628462BF0E4FB05208DF85F
:100540000000EE208DF8010032208DF8020000201E
:100550008DF8030001208DF8040000208DF80500BF
:1005600000236A46314628462BF0CCFB642029F054
:100570005AFD02208DF80000ED208DF801000220C8
:100580008DF8020000236A46314628462BF0BAFB5C
:1005900041F27C5029F047FD4346B72231462846B8
:1005A0002BF0F0FA062029F03EFD02208DF8000025
:1005B000ED208DF8010000208DF8020000236A462E
:1005C000314628462BF09EFB2F20207003206070C0
:1005D00070202071142029F026FD4346B7223146B1
:1005E00028462BF0CFFA0A2029F01DFDA078C01C68
:1005F000C3B22246812138462CF071F9BDE8FE8F46
:1006000070B504AC70CC70BD70B504AC70CC70BD6E
:100610002DE9F84F07468B4615461E46DDE90B8946
:100620000A9C4FF0EF0A4346B722314628462BF08A
:10063000A9FA052029F0F7FC01208DF800002820F8
:100640008DF8010000236A46314628462BF05AFBFC
:1006500003208DF80000F0208DF80100AA208DF80D
:10066000020010208DF8030000236A463146284618
:100670002BF048FB02208DF80000BD208DF8010012
:1006800000208DF8020000236A46314628462BF0F0
:1006900039FB03208DF80000EA208DF8010030209E
:1006A0008DF8020000208DF8030000236A463146D1
:1006B00028462BF027FB02208DF80000EE208DF855
:1006C0000100AB208DF8020000236A46314628461F
:1006D0002BF018FB02208DF80000ED208DF80100B2
:1006E00020208DF8020000236A46314628462BF070
:1006F00009FB642029F097FC02208DF80000ED2012
:100700008DF8010000208DF8020000236A46314672
:1007100028462BF0F7FA02208DF80000EE208DF825
:10072000010006208DF8020000236A463146284663
:100730002BF0E8FA02208DF80000ED208DF8010082
:1007400020208DF8020000236A46314628462BF00F
:10075000D9FA642029F067FC02208DF80000ED2012
:100760008DF8010000208DF8020000236A46314612
:1007700028462BF0C7FA02208DF80000EE208DF8F5
:10078000010005208DF8020000236A463146284604
:100790002BF0B8FA02208DF80000ED208DF8010052
:1007A00008208DF8020000236A46314628462BF0C7
:1007B000A9FA642029F037FC02208DF80000ED2012
:1007C0008DF8010000208DF8020000236A463146B2
:1007D00028462BF097FA642029F025FC02208DF89A
:1007E0000000EE208DF8010060208DF8020000234B
:1007F0006A46314628462BF085FA02208DF8000023
:10080000ED208DF8010020208DF8020000236A46BB
:10081000314628462BF076FA41F2883029F003FC65
:1008200002208DF80000ED208DF8010000208DF8E9
:10083000020000236A46314628462BF063FA2F2037
:10084000207005206070002020714B46B722314691
:1008500028462BF097F9A078C01CC3B2224681210C
:1008600038462CF03CF8BDE8F88F2DE9FC470746E8
:100870008A4615461E46DDE90B890A9C4346B72287
:10088000314628462BF07EF9052029F0CCFB0220CA
:100890008DF8000059208DF8010001208DF802002C
:1008A00000236A46314628462BF02CFA4B46B722E5
:1008B000314628462BF066F9052029F0B4FB2F209D
:1008C0002070072060704B46B722314628462BF037
:1008D00059F9A078C01CC3B22246812138462BF0BA
:1008E000FEFFBDE8FC872DE9FC4707468A46154612
:1008F0001E46DDE90B890A9C4346B722314628464D
:100900002BF040F9052029F08EFB02208DF8000025
:1009100059208DF8010000208DF8020000236A465E
:10092000314628462BF0EEF94B46B7223146284691
:100930002BF028F9052029F076FB2F2020700820C5
:1009400060704B46B722314628462BF01BF9A07841
:10095000C01CC3B22246812138462BF0C0FFBDE83F
:10096000FC872DE9FE4F0646894692461F46DDE983
:100970000C840E9D98F801000B286AD2DFE800F085
:100980006906111C27323D4853695E0033488DE8E3
:1009900031003348027B3B4681213046FFF70EFB96
:1009A00058E02E488DE831002D48027B3B468121DE
:1009B0003046FFF729FE4DE028488DE831002848F1
:1009C000027B3B4681213046FFF78EFD42E0234803
:1009D0008DE831002248027B3B4681213046FFF7FB
:1009E0007BFA37E01D488DE831001D48027B3B460D
:1009F00081213046FFF70CFE2CE018488DE83100CD
:100A00001748027B3B4681213046FFF7F5F821E08D
:100A100012488DE831001248027B3B468121304666
:100A2000FFF723FF16E00D488DE831000C48027BEC
:100A30003B4681213046FFF756FF0BE007488DE823
:100A400031000748027B3B4681213046FFF7D8FD45
:100A500000E000BF00BFBDE8FE8F0000790A012062
:100A6000203D00202DE9F0478AB080468A46154691
:100A70001E46DDE91379129C1C22F9A102A839F067
:100A800087FBFEA0006801903B46B722314628460E
:100A90002BF078F80F2029F0C6FA0020F8490860FA
:100AA00021E002208DF8240002A8F5490968405C85
:100AB0008DF8250002A9F2480068401C085C8DF8FA
:100AC0002600002309AA314628462BF01BF90520F1
:100AD00029F0A9FAEA480068401CE949086008467C
:100AE0000068401C0860E64800681A28D9D347F01F
:100AF0008003B722314628462BF044F80123BC225C
:100B0000314628462BF03EF80020DD49086026E0FB
:100B10000123C122314628462BF034F801208DF8FC
:100B2000240001A8D6490968405C8DF825000023FF
:100B300009AA314628462BF0E5F8062029F073FA79
:100B4000FF22314628462BF0A5FAC1B2CC480068F6
:100B5000001D2154CA480068401CC9490860C848A3
:100B600000680328D4D32F202070062060704B46E5
:100B7000B722314628462BF005F8A078C01CC3B236
:100B80002246812140462BF0AAFE0AB0BDE8F0873C
:100B90002DE9F04788B007468A4615461E46DDE92E
:100BA0001189109C1C22B7A1684639F0F1FA43461E
:100BB000B722314628462AF0E5FF0F2029F033FA04
:100BC0000020AF49086021E002208DF81C00AC49EC
:100BD00009681DF801008DF81D00A9480068401C37
:100BE0001DF800008DF81E00002307AA3146284694
:100BF0002BF088F80F2029F016FAA1480068401C55
:100C00009F49086008460068401C08609C480068CE
:100C10001C28D9D32F202070012060704B46B722AA
:100C2000314628462AF0AEFFA078C01CC3B2224647
:100C3000812138462BF053FE08B0BDE8F08770B52F
:100C400004AC70CC70BD2DE9F04786B080468A4672
:100C500015461E46DDE90F790E9C91A30FCBCDE919
:100C60000323CDE901013B46B722314628462AF04D
:100C700089FF0F2029F0D7F900208149086021E081
:100C800002208DF8140001A87D490968405C8DF8A8
:100C9000150001A97A480068401C085C8DF8160010
:100CA000002305AA314628462BF02CF8052029F010
:100CB000BAF973480068401C71490860084600682A
:100CC000401C08606E4800680E28D9D34FF4FA60C3
:100CD00029F0A9F947F08003B722314628462AF0C7
:100CE00051FF0123BC22314628462AF04BFF022344
:100CF000C122314628462AF045FF00BF01208DF869
:100D00001400DB208DF81500002305AA3146284683
:100D10002AF0F8FF062029F086F9FF2231462846FE
:100D20002BF0B8F92071642029F07DF9207900F0CA
:100D300080008028E2D1052029F075F92F2020704D
:100D400003206070802020714B46B7223146284630
:100D50002AF018FFA078C01CC3B222468121404669
:100D60002BF0BDFD06B0BDE8F0872DE9F04786B059
:100D700080468A4615461E46DDE90F790E9C4CA03A
:100D8000006804904BA207CACDE9021201903B46CD
:100D9000B722314628462AF0F5FE0F2029F043F904
:100DA00000203749086021E002208DF8140001A8D6
:100DB00033490968405C8DF8150001A93048006886
:100DC000401C085C8DF81600002305AA3146284611
:100DD0002AF098FF052029F026F929480068401CD0
:100DE0002749086008460068401C086024480068DD
:100DF0000A28D9D34FF4FA7029F015F947F0800387
:100E0000B722314628462AF0BDFE0123BC223146D6
:100E100028462AF0B7FE00201949086057E0012350
:100E2000C122314628462AF0ADFE01208DF814007B
:100E300004A813490968405C8DF81500002305AA31
:100E4000314628462AF05EFF062029F0ECF8FF2202
:100E5000314628462BF01EF9C1B2094800682FE040
:100E6000FE2604CF104B14221E31FE205F01091311
:100E7000FE26F302180F19541A7A0000EAEBEC0070
:100E800064140020FEA00B11FED05853078D428140
:100E90005558FED26E20FE405B015E400E40FE00C3
:100EA000FE261B00F204150016001700F2100000C9
:100EB000E6E70000FE26181C19EC1AF1F20100000A
:100EC000001D2154E4480068401CE3490860E248E2
:100ED00000680228A3D3052029F0A5F82F20207050
:100EE000042060704B46B722314628462AF04AFE5D
:100EF000A078C01CC3B22246812140462BF0EFFCF3
:100F000006B0BDE8F0872DE9FE4F80468B461546BA
:100F10001E46DDE90D790C9CD0A003C8CDE9000187
:100F20004FF0DB0A3B46B722314628462AF02AFE1C
:100F30000F2029F078F80020C749086021E002203E
:100F40008DF80800C44909681DF801008DF80900F2
:100F5000C1480068401C1DF800008DF80A000023FD
:100F600002AA314628462AF0CDFE052029F05BF87A
:100F7000B9480068401CB849086008460068401C31
:100F80000860B54800680828D9D347F08003B72225
:100F9000314628462AF0F6FD0123BC223146284678
:100FA0002AF0F0FD0223C122314628462AF0EAFD4C
:100FB00000BF01208DF808008DF809A0002302AAC7
:100FC000314628462AF09EFE062029F02CF8FF2202
:100FD000314628462BF05EF82071207900F0800021
:100FE0008028E6D1052029F01EF82F20207005204A
:100FF0006070802020714B46B722314628462AF087
:10100000C1FDA078C01CC3B22246812140462BF00E
:1010100066FCBDE8FE8F70B504AC70CC70BD2DE9E8
:10102000FE4F07468A4615461E46DDE90D890C9C93
:101030008CA0006800904346B722314628462AF02B
:10104000A1FD0F2028F0EFFF00208349086021E078
:1010500002208DF80400804909681DF801008DF810
:1010600005007D480068401C1DF800008DF8060052
:10107000002301AA314628462AF044FE052028F024
:10108000D2FF75480068401C734908600846006834
:10109000401C0860704800680428D9D3052028F057
:1010A000C2FF2F202070072060704B46B7223146C8
:1010B00028462AF067FDA078C01CC3B222468121D1
:1010C00038462BF00CFCBDE8FE8F2DE9FE4F07469D
:1010D0008A4615461E46DDE90D890C9C62A0006813
:1010E00000904346B722314628462AF04BFD0F2098
:1010F00028F099FF00205849086021E002208DF86F
:101100000400554909681DF801008DF80500524892
:101110000068401C1DF800008DF80600002301AA9D
:10112000314628462AF0EEFD052028F07CFF4A488B
:101130000068401C4849086008460068401C086078
:10114000454800680428D9D3052028F06CFF2F20DB
:101150002070082060704B46B722314628462AF09E
:1011600011FDA078C01CC3B22246812138462BF065
:10117000B6FBBDE8FE8F2DE9FE4F06468946924636
:101180001F46DDE90C840E9D3848407809285ED260
:10119000DFE800F05D05101B26313C475200334864
:1011A0008DE831003248027B3B4681213046FFF713
:1011B000EFFC4DE02D488DE831002D48027B3B4689
:1011C00081213046FFF73BFD42E028488DE83100A1
:1011D0002748027B3B4681213046FFF734FD37E04C
:1011E00022488DE831002248027B3B46812130466F
:1011F000FFF7BBFD2CE01D488DE831001C48027B49
:101200003B4681213046FFF77EFE21E017488DE8FE
:1012100031001748027B3B4681213046FFF722FC14
:1012200016E012488DE831001148027B3B468121CF
:101230003046FFF7F4FE0BE00C488DE831000C4817
:10124000027B3B4681213046FFF73FFF00E000BFB5
:1012500000BFBDE8FE8F000064140020FE261B00C6
:10126000F204F301FE227700FE227702790A0120C0
:10127000203D002070B504AC70CC70BD70B504ACDE
:1012800070CC70BD70B504AC70CC70BD70B504ACE2
:1012900070CC70BD70B504AC70CC70BD70B504ACD2
:1012A00070CC70BD70B504AC70CC70BD70B504ACC2
:1012B00070CC70BD70B504AC70CC70BD70B504ACB2
:1012C00070CC70BD70B504AC70CC70BD70B504ACA2
:1012D00070CC70BD70B504AC70CC70BD70B504AC92
:1012E00070CC70BD70B504AC70CC70BD70B504AC82
:1012F00070CC70BD70B504AC70CC70BD70B504AC72
:1013000070CC70BD70B504AC70CC70BD70B504AC61
:1013100070CC70BD70B504AC70CC70BD70B504AC51
:1013200070CC70BD70B504AC70CC70BD70B504AC41
:1013300070CC70BD70B504AC70CC70BD70B504AC31
:1013400070CC70BD70B504AC70CC70BD70B504AC21
:1013500070CC70BD70B504AC70CC70BD70B504AC11
:1013600070CC70BD70B504AC70CC70BD70B504AC01
:1013700070CC70BD70B504AC70CC70BD2DE9FC476D
:1013800082460C4690469946DDE90A6500273346B9
:10139000C122414620462AF0F5FB0123C0224146E6
:1013A00020462AF0EFFB01208DF804008DF805900F
:1013B000002301AA414620462AF0A4FC052028F07B
:1013C00032FE102C30D1FA23D422414620462AF096
:1013D000D9FBFF22414620462AF0C2FB0020F949F2
:1013E00008601CE0FA22414620462AF0B9FB40463C
:1013F00029F058FF07463812F24909686854F14845
:101400000068401C2F54052028F00DFEED480068B0
:10141000401CEC49086008460068401C0860E94828
:101420000068B042DED33CE084BBFF224146204648
:101430002AF096FB0020E349086022E0E1480068BA
:1014400030B9FF22414620462AF024FE074604E038
:10145000414620462AF045FE0746DA4909686F549E
:101460003912D8480068401C29540A2028F0DBFDB6
:10147000D4480068401CD349086008460068401CF6
:101480000860D0480068B042D8D30AE0FFE7302CAB
:1014900007D12B464A4641462046009629F0F0FFE8
:1014A0000746BDE8FC872DE9FC4705460E46174672
:1014B0009846DDE90A49C44843463A463146CDE9F3
:1014C00000402846FFF75AFF2246BF49484638F0F9
:1014D0001AFEBDE8FC872DE9FC5F83460C4690466A
:1014E0009946DDE90CA60E9D00273346C1224146F0
:1014F00020462AF047FB02208DF804008DF8059065
:101500008DF806A0002301AA414620462AF0FAFBE6
:10151000052028F088FD102C30D1FA23D422414632
:1015200020462AF02FFBFF22414620462AF018FBD6
:101530000020A44908601CE0FA22414620462AF017
:101540000FFB404629F047FE07469E4800682F548F
:1015500039129C480068401C2954052028F063FD7E
:1015600098480068401C9749086008460068401C7D
:10157000086094480068B042DED33CE084BBFF22A0
:10158000414620462AF0ECFA00208E49086022E00D
:101590008C48006830B9FF22414620462AF07AFD87
:1015A000C7B204E0414620462AF09BFDC7B28548F9
:1015B00000682F54391283480068401C29540A20BF
:1015C00028F031FD7F480068401C7E4908600846CD
:1015D0000068401C08607B480068B042D8D30AE02D
:1015E000FFE7302C07D12B464A464146204600965D
:1015F00029F046FF0746BDE8FC9F2DE9F047074666
:101600008A4615461E46DDE90998089C607800F078
:101610008000802874D0607800F00F00082807D17F
:101620004FF44073B722314628462AF0ABFA59E00E
:10163000607800F00F00092807D140F21B33B72271
:10164000314628462AF09EFA4CE0607800F00F0000
:101650000A2807D14FF45073B722314628462AF0A2
:1016600091FA3FE0607800F00F000B2807D140F2BC
:101670005B33B722314628462AF084FA32E060789C
:1016800000F00F000C2807D14FF4E063B722314679
:1016900028462AF077FA25E0607800F00F000D2840
:1016A00007D140F21B73B722314628462AF06AFA66
:1016B00018E0607800F00F000E2807D14FF4E863BF
:1016C000B722314628462AF05DFA0BE0607800F038
:1016D0000F000F2806D140F25B73B722314628462F
:1016E0002AF050FA052028F09EFC022322463146BB
:1016F00028462AF007FB052028F095FC1CE0FFE7B0
:10170000607800F08000802816D199202070012098
:10171000607000202071A078C01CC3B222468121D5
:1017200038462BF0DCF8102D00D02DB94346B722F7
:10173000314628462AF026FABDE8F0872DE9FE4F0B
:10174000814615461E46DDE90DBA0C9C2779607866
:1017500000F04008607800F0800080287ED060783B
:1017600000F00F0038B94FF46073B72231462846B5
:101770002AF008FA5DE0607800F00F00012807D138
:1017800040F29B33B722314628462AF0FBF950E05D
:10179000607800F00F00022807D14FF47073B72271
:1017A000314628462AF0EEF943E0607800F00F0059
:1017B00003280BD140F2DB33B722314628462AF00A
:1017C000E1F936E0641400207A090120607800F025
:1017D0000F00042807D14FF4F063B72231462846A2
:1017E0002AF0D0F925E0607800F00F00052807D135
:1017F00040F29B73B722314628462AF0C3F918E01D
:10180000607800F00F00062807D14FF4F863B72284
:10181000314628462AF0B6F90BE0607800F00F0058
:10182000072806D140F2DB73B722314628462AF05A
:10183000A9F9052028F0F7FBB8F1000F12D13F48B5
:10184000CDE90070E378324629464846FFF796FD19
:101850003A463A49201D38F056FC00E034E00220B8
:10186000607027E0B8F1400F24D14FF40073B72225
:10187000314628462AF086F90F2028F0D4FB4FF491
:101880002073B722314628462AF07CF9032028F03D
:10189000CAFB2A4901222079CDE901210090E37891
:1018A000324629464846FFF716FE24480078607104
:1018B0000320607099202070A078C01CC3B222461B
:1018C000812148462BF00BF8052028F0ACFB102DA9
:1018D00000D02DB95346B722314628462AF052F996
:1018E000BDE8FE8F2DE9FE4F0646894692461F460B
:1018F000DDE90C840E9D98F8010000F030001028FE
:1019000002D0202816D10AE00D488DE831000D489C
:10191000027B3B4681213046FFF76FFE0BE0084813
:101920008DE831000748027B3B4681213046FFF7B6
:1019300005FF00E000BF00BFBDE8FE8F7A0901206F
:10194000790A0120203D00202DE9F04F85B00646A0
:101950008A4693461D46DDE90F890E9C0020FE490C
:101960000870FE48006800286AD1FD4800785C28AD
:1019700004D14FF44070FB49086022E0F848007839
:101980005D2804D14FF40770F649086019E0F64865
:10199000007810B101280CD106E0F448008800EB73
:1019A0004000F04908600BE04FF40770ED49086013
:1019B00006E0EE48008800EB4000EA49086000BFFE
:1019C00000BFEB4909888BB2E849087BBC22294655
:1019D0002AF0D8F8E64909680B0CE449087BBD22D7
:1019E00029462AF0CFF8E148008800EB4000B0F526
:1019F000805F0BDADD49098801EB41018BB2DB49DD
:101A0000087BBE2229462AF0BDF806E0D7490B889C
:101A1000087BBE2229462AF0B5F8D449087BBF22AC
:101A200029462AF09DF8CE4800785D2805D0CF4998
:101A3000087B2C2229462AF093F80120C749086028
:101A40000020CC4908600EE0CB48CA490968415CD7
:101A5000C8480068C94A126810442154C548006843
:101A6000401CC4490860C3480068C54909688842E9
:101A7000EAD3C2480068C24909680844BF490860FF
:101A8000C0480068BE4909680844BE490860BB48B0
:101A90000068B4490968884205D0BA480068B4496A
:101AA000096888427ED1AE4800785C2836D1AE48BD
:101AB000007830B1012814D0022803D003280FD1B8
:101AC0001DE000BFA748008880B2CDE90040A748CC
:101AD000017BAC482A460368304601F0AEFA1CE0B0
:101AE00000BFA048008880B2CDE900409F48017B3C
:101AF000A4482A460368304601F0A0F90DE0994851
:101B0000008880B2CDE900409848017B9D482A4674
:101B10000368304601F0A3FB00BF08E1904800785D
:101B20005D287DD19048007810B101285BD15BE041
:101B30009548007810BB8D49087B40F21D23BC22DC
:101B400029462AF01FF88949087B0023BD2229462F
:101B50002AF018F88549087BBF2229462AF000F8A8
:101B600021784C2303EB01218AB28049087B294666
:101B700029F0E4FF01208449087019E07B49087BC3
:101B800040F21D23BC22294629F0FCFF7749087B3F
:101B9000BF22294629F0E4FF21785C2303EB0121D1
:101BA0008AB200E0F8E07149087B294629F0C6FFB7
:101BB0000021284628F0CEFF6A4800680321B0FBC8
:101BC000F1F087B2002069490090087BD1ED040A4A
:101BD000B0EE600A01233A4621462AF065FC012155
:101BE000284628F0B7FF23E06049087B2C222946CD
:101BF00029F0B6FF0021284628F0ACFF59480068BC
