:020000040800F2
:1000000040E20020150400085D3B00086D33000845
:10001000D9370008E51800087769000800000000DB
:10002000000000000000000000000000E5020008E1
:1000300031220008000000009D03000801040008B0
:100040002F0400082F0400082F0400082F040008C4
:100050002F0400082F0400082F0400082F040008B4
:100060002F0400082F0400082F0400082F040008A4
:100070002F0400082F0400082F0400082F04000894
:100080002F0400082F0400082F0400082F04000884
:100090002F0400082F0400082F0400082F04000874
:1000A0002F0400082F0400082F0400082F04000864
:1000B0002F0400082F0400082F0400082F04000854
:1000C0002F0400082F0400082F0400082F04000844
:1000D0002F0400082F0400082F0400082F04000834
:1000E0002F0400082F0400082F0400082F04000824
:1000F0002F0400082F0400082F0400082F04000814
:100100002F040008A14500082F0400082F04000850
:100110002F0400082F0400082F0400082F040008F3
:100120002F0400082F0400082F0400082F040008E3
:100130002F0400082F0400082F0400082F040008D3
:100140002F0400082F0400082F0400082F040008C3
:100150002F0400082F0400082F0400082F040008B3
:100160002F0400082F0400082F0400082F040008A3
:100170002F0400082F0400082F0400082F04000893
:100180002F0400082F04000800F002F800F04DF8DA
:100190000AA090E8000C82448344AAF10107DA45E2
:1001A00001D100F042F8AFF2090EBAE80F0013F0E7
:1001B000010F18BFFB1A43F00103184784FE00002B
:1001C000A4FE0000103A24BF78C878C1FAD85207BC
:1001D00024BF30C830C144BF04680C6070470000C1
:1001E0000023002400250026103A28BF78C1FBD840
:1001F000520728BF30C148BF0B6070471FB50FF0D2
:100200003BF99DE8030000F0D4FD01F070F8040014
:10021000002000210FF01AF9401C606000F058FF28
:100220001FBD10B500F0CCFF10BD01F03BF811462A
:10023000FFF7E4FF0FB400F013F80FBC0CF03EFD25
:1002400000F0BAFA03B4FFF7ECFF03BC01F024F8A6
:1002500030BF72B6704762B6704780F30888704747
:1002600004B00DF03BF9044800210DF0C5F90DF084
:1002700047F900F0A1FA000064FA000880F3098849
:100280007047EFF309807047684680F30988044897
:100290000078C00714BF0220032080F31488704741
:1002A00024FA0008DFF818C0EFF305831B0618BF17
:1002B0006047EFF31483DB0708BF604700DF704738
:1002C0004BDE0008DFF818C0EFF305831B0618BFEC
:1002D0006047EFF31483DB0708BF604700DF704718
:1002E00029E00008EFF30980816911F8021CE1BBE5
:1002F00090E80F1010B5E047BDE81040EFF3098C0F
:100300008CE80700214B93E80600914208BF704734
:1003100041B91EF0100F16D11D49086820F00100E8
:10032000086010E01EF0100F06BF2CED108A0120AF
:10033000002081F825002CE9F00FC1F828C00CB48A
:100340000EF024FA0CBC1A60D2F828C0BCE8F00FFA
:1003500092F8250000280EBF6FF0020E6FF0120E0B
:10036000BCEC108A8CF30988704710B5094A1268F2
:10037000914209D8084C54F8214090E80F10A0474A
:10038000EFF3098C8CE80F0010BD000088000020FE
:1003900034EF00E0541800085418000810B50EF0AF
:1003A000B9F8BDE81040154B93E80600914208BF2C
:1003B0007047EFF3098C1EF0100F06BF2CED108A6A
:1003C0000120002081F825002CE9F00FC1F828C099
:1003D0000CB40EF0DBF90CBC1A60D2F828C0BCE8F3
:1003E000F00F92F8250000280EBF6FF0020E6FF09C
:1003F000120EBCEC108A8CF309887047880000202C
:1004000010B50EF08BFACCE710B50DF059F90EF0DF
:1004100085FAC6E70948804709480047FEE7FEE736
:10042000FEE7FEE7FEE7FEE7FEE7FEE7FEE7FEE7A4
:1004300004480549054A064B70470000BD630008A3
:100440008901000840DC002040E2002040DE00205E
:1004500040DE002000487047E0DA002053EA020C3A
:1004600000F069802DE9F04B4FF00006002B1FBF14
:10047000B3FA83F503FA05F424FA05F65E4012BFD9
:100480001643B2FA82F502FA05F4C5F120051EBF43
:1004900022FA05FC44EA0C04203556EA044C4FEAE3
:1004A000144418BF641C4FF000084FF0000990423C
:1004B00071EB030C39D3002919BFB1FA81F701FAA6
:1004C00007F6B0FA80F700FA07F6C7F120071EBF5B
:1004D00020FA07FC46EA0C062037B6FBF4FCA7EB33
:1004E0000507103F07F01F0BCBF120060CFA0BFBA2
:1004F0002CFA06F644BFB3460026202FA4BF5E4662
:100500004FF0000B5BEA060C08BF4FF0010B19EB34
:100510000B09ABFB027C48EB0608C01B06FB02CCB8
:100520000BFB03CC71EB0C01C1E70B4602464146C5
:100530004846BDE8F08B13B54FF000004FF00001C6
:10054000AFF30080BDE81C40704700000FB40449C1
:1005500010B503AA029801F0FBF810BC5DF814FB7B
:1005600094DB00202DE9F04704464FF000094FF0DE
:10057000FF37C568D4E90486A80707D0204600F0F5
:10058000AFFB304606F01CFD002802DA3846BDE815
:10059000F087280502D5404600F0DBFA4C212046C2
:1005A00000F0ECF9206D20F0010020654846EEE7F0
:1005B00070B505460A4E304606F0CEFC05F14C04F7
:1005C000204606F0C9FC2846FFF7CCFF054620462A
:1005D00006F0E8FC304606F0E5FC284670BD000059
:1005E000AC0000202DE9F041044600F14C073846EC
:1005F00006F0B2FCE068810712D0800601D5A66A39
:1006000004E0A169606808442169461A204600F0A8
:1006100067FB002205463146204600F0B1FA00E0B3
:100620000025384606F0BEFC2846BDE8F0812DE9DD
:10063000F04118B1BDE8F041FFF7D4BF0B4E0025E3
:10064000304606F089FC0A4C6F1E07E02046FFF793
:10065000C9FF00B13D46206D20F00104002CF5D10A
:10066000304606F09FFC2846DFE70000AC00002083
:1006700040DB00202DE9F04716468846814602F10E
:100680004C07384606F068FC3046FFF76BFF18F859
:10069000010B61280AD0722802D077283FD102E0EE
:1006A0000125002405E00225042402E0082448F284
:1006B000020518F8010B2B2806D0622809D018F87B
:1006C000010C74280AD00BE045F0030544F0020445
:1006D000EFE745F0040544F00104EAE744F01004B4
:1006E0004846214606F0A8FC411C18D00021316183
:1006F00071604FF40071F560F1617061200704D5FD
:1007000030460222002100F03BFA306D40F001003B
:100710003065384606F046FC3046BDE8F0870026D6
:10072000F7E72DE9F04115460E460746204C2046D6
:1007300006F012FC2A4631463846FFF79BFF054675
:10074000204606F02FFC2846BDE8F0812DE9F04157
:100750000E468046164D284606F0FEFB154C206DD1
:10076000C10704D0410804D020F00104F7E7224675
:1007700012E0542000F0B2F9070017D0206D47F0C6
:100780000101084354212065384600F0F7F807F1CD
:100790004C0006F0F1FB3A4631464046FFF76AFF4F
:1007A0000446284606F0FEFB2046CDE70024F8E785
:1007B000AC00002040DB002010B50446AFF3008001
:1007C0002046BDE81040FFF73DBD2DE9F04105464C
:1007D00090460E460020044600E0641C44450BD2BF
:1007E000285D00F0C0F90746305D00F0BCF9381A0A
:1007F00002D1295D0029F0D1BDE8F08110B5431C7C
:1008000002E010F8011B71B18107FAD14FF00132FB
:1008100002C88C1A8C4314EAC211F9D0C01A0A0615
:1008200003D0C01E10BDC01A10BD0A0401D0801E26
:1008300010BD0902FCD0401E10BD032A40F23080DA
:1008400010F0030C00F0158011F8013BBCF1020F11
:10085000624498BF11F801CB00F8013B38BF11F892
:10086000013BA2F1040298BF00F801CB38BF00F8A9
:10087000013B11F0030300F02580083AC0F0088026
:1008800051F8043B083A51F804CBA0E80810F5E70A
:10089000121D5CBF51F8043B40F8043BAFF30080ED
:1008A000D20724BF11F8013B11F801CB48BF11F862
:1008B000012B24BF00F8013B00F801CB48BF00F832
:1008C000012B704710B5203AC0F00B80B1E81850EA
:1008D000203AA0E81850B1E81850A0E81850BFF42A
:1008E000F5AF5FEA027C24BFB1E81850A0E81850C9
:1008F00044BF18C918C0BDE810405FEA827C24BF1D
:1009000051F8043B40F8043B08BF7047D20728BFAA
:1009100031F8023B48BF11F8012B28BF20F8023BF9
:1009200048BF00F8012B704702F0FF0343EA03229F
:1009300042EA024200F002B84FF000020429C0F07F
:10094000128010F0030C00F01B80CCF1040CBCF101
:10095000020F18BF00F8012BA8BF20F8022BA1EB53
:100960000C0100F00DB85FEAC17C24BF00F8012B38
:1009700000F8012B48BF00F8012B70474FF0000230
:1009800000B5134694469646203922BFA0E80C5085
:10099000A0E80C50B1F12001BFF4F7AF090728BF60
:1009A000A0E80C5048BF0CC05DF804EB890028BFDC
:1009B00040F8042B08BF704748BF20F8022B11F005
:1009C000804F18BF00F8012B704700004FF0013C2A
:1009D00050F8042B51F8043B9A4221D1A2EB0C03AE
:1009E000934313EACC1317D150F8042B51F8043B6E
:1009F0009A4215D1A2EB0C03934313EACC130BD10B
:100A000050F8042B51F8043B9A4209D1A2EB0C0395
:100A1000934313EACC13DBD04FF00000704700BFC4
:100A2000D01A01BAB1FA81F101F0180122FA01F0ED
:100A3000CB40C1F12001DBB2C0B2C01A2CFA01F3E5
:100A4000D11A914311EAC311E6D17047704770473C
:100A500070470B3020F0070070472DE9F041174632
:100A60000E460446FFF7F5FFA042054633D9002F96
:100A70001CBF06F10C0006F06FFA30467468F4B142
:100A80002168A94217D305F1080291423CBF616871
:100A9000416007D3626861194A602268521B0A608C
:100AA00041602560002F1CBF06F10C0006F07AFAA9
:100AB000201DBDE8F08120466468002CE0D1294665
:100AC000304600F062F90028D7D1002F1CBF06F194
:100AD0000C0006F067FA0020BDE8F08110B504466E
:100AE00000F04AF901682046BDE810400122B4E751
:100AF00070B516460D46041F002808BF70BD002EB5
:100B00001CBF05F10C0006F027FA2B465868002898
:100B100018BFA04238BF0346F8D31968CA18A242CA
:100B200018BF5C6003D122681C461144196021681B
:100B30000A19824218BF606004D14268626000688E
:100B400008442060002E1CBF05F10C0006F02AFAB4
:100B500070BD10B5044600F00FF901682046BDE8ED
:100B600010400122C4E710B5044600F0FDF800680B
:100B7000005DC00602D504F1200010BD204610BD66
:100B80002DE9F041044616460D464769007B800773
:100B90002ED0384606F03EFA50BB3EB3012E02D0AE
:100BA000022E25D104E0204600F071FA05441DE034
:100BB000384606F01AFAE168002841F01001E160B9
:100BC00005DA204600F058F80120BDE8F081C9039D
:100BD0000BD56268E16A914200D81146A2691144BE
:100BE0002269891A814200DD08460544002D01DA98
:100BF0000220EAE7E16A6068E268814206D2910376
:100C0000E06203D522F4003141F01002A66900270A
:100C1000AE4213DCE16A814201D90B4600E0034693
:100C200003EB060C2369ACEB030CAC4506DD8142FB
:100C300001D98C4600E084469C4505D1A760276019
:100C400042F02000A5620DE0AD1BE669AE1B8142BB
:100C5000A66000D90846C01A281A2060581960609A
:100C600022F0200003490840E060002084F848702A
:100C7000ABE70000BFCFD7FFC16821F4001141F0FE
:100C80008001C16000218160016070472DE9F0475B
:100C9000814614460E464FF0FF383248D5685769F2
:100CA000054209D03846A16906F01BFA002811DB7D
:100CB0002C48C0430540E5602B463246494638463D
:100CC00006F029FAA16920F00042B21A1144002866
:100CD000A16103D02046FFF7CFFF4046BDE8F08773
:100CE00070B504460569C06A6168884200D8084644
:100CF000E16821F42011E160C90312D5A84208D0AF
:100D00002246411B2846FFF7C1FF10B14FF0FF30CC
:100D100070BD0020E562C4E90150E06820F4803035
:100D2000E060002070BD10B50446C06820F02000CF
:100D3000E060A16AA06988420DD02046FFF7D0FF8D
:100D4000E06820F4405040F01000E060A06AA0612C
:100D50002069E062606044F24001E0688843E0603E
:100D600010BD00001000020010B500F0C0FA001D18
:100D700010BD00BFD9E6000010B5FFF76BFB0830CF
:100D800010BD704770477047704738B504460A4633
:100D900000206946AFF30080002808BF38BD024636
:100DA0000099204600F0AAFA012038BD012000F089
:100DB000C6BCF8B5AFF30080054600200C461020F5
:100DC00000BF0646A819A0420DD932466946002048
:100DD000AFF30080070008BF00F0B1FC0098A0420C
:100DE00018BF0546C419FFF7C7FF05600746F01D89
:100DF00020F007004619284600F00AF8B44208BF60
:100E0000F8BDA21B31463868BDE8F84000F076BA5C
:100E100000210160C0E901100C3006F0ADB81020CF
:100E20007047000001694A1C02610878704700B5EC
:100E30008FB0CDE901310021059105497944CDE913
:100E400003101146684600F078FA0FB000BD0000AC
:100E5000E5FFFFFF70B50D4601461446D3685069A3
:100E60002A4606F01FF9002807DA411C07D0E1687E
:100E700020F0004041F48041E160281A70BD204616
:100E8000FFF7FAFE4FF0FF3070BDC168002202602C
:100E900021F4805141F0400111F4C06FC16001D0D4
:100EA0008260704702694168891AC269891A816043
:100EB00070472DE9F0470446C06840F48000E060C8
:100EC000010312D520F40020E060810606D4E26A16
:100ED00061688A4200D80A46511A216040F4001025
:100EE000E06094F82500BDE8F08720F40010E06091
:100EF000800602D52046FFF716FFE06842F2810126
:100F00004FF0FF390140012903D02046FFF7B4FE1E
:100F1000B6E02168002600290ADAC94340F480506F
:100F20002160C4E902606068411C61600078DAE712
:100F300044F2400108420CD020F4A04040F04000B0
:100F40002660E06021696068401AE169401AA0608B
:100F500096E0216991B9C00310D4E069FFF7BEFDA6
:100F60002061B0B1E06840F4006010F4407FE060C0
:100F700002D140F48070E06020696060E068D4F8DD
:100F800014A0C1061AD5C0030ED52046FFF7A8FE4F
:100F900014E004F1240020610120E061E06820F405
:100FA000407040F48060E6E721696068401AA169FA
:100FB0000144504606F095F80028A6DBE068C0031F
:100FC0002AD56168E06A884200D808462169451A36
:100FD000E069471B1BD02046D4F81880FFF780FE3D
:100FE00008EB05015046C4F8188006F07AF800288E
:100FF0008BDBE06840F40030E060000202D5A069BD
:101000002844A061E1692069C91B45180DE020460C
:10101000FFF766FEE769F5E725696168D4E9060729
:10102000491BE56208446560A061E06820F010009B
:1010300010F4C06FE06002D0204600F04BFBE06887
:1010400040F48050C4E90260000205D52069E062E6
:1010500060606FF0010046E7224639462846FFF7F8
:10106000F9FE411C0CD02918E16258B1401E2060E5
:10107000681C6060E06840F40030E060287832E787
:10108000484630E765602046FFF7FFFEF8E710B5F9
:101090000146C268900703D0900607D5886A0AE027
:1010A00000F02AF901210160881E10BD8B69486893
:1010B00018440B69C01A91F848301BB191F84910D7
:1010C000401A10BD1103FCD50028FADD401E10BDEA
:1010D00010B565485421FFF751FC64485421FFF7CF
:1010E0004DFC63485421FFF749FC62485E49624A5F
:1010F000624B01605D4810605D4A1A60431C0B65DD
:10110000511C01650120106557484C3005F034FF33
:1011100056484C3005F030FF55484C3005F02CFF58
:10112000574805F029FF58484F4A56A17844FFF721
:10113000F8FA20B9544878440A3800F0F9FA5448CB
:101140004A4A52A17844FFF7ECFA20B95048784453
:101150000A3800F0EDFA4F48454A4CA17844FFF7B1
:10116000E0FA20B94B4878440A3800F0E1FA40230D
:101170003D48DC000021224600F0DEF920B1424863
:101180007844543800F0D4FA3848224640230021ED
:1011900000F0D2F920B13E487844543800F0C8FA43
:1011A000334822461023002100F0C6F9002806D05B
:1011B00038487844BDE81040563800F0B9BA10BD40
:1011C0002B482DE9F041006D2D4E20F001043046F2
:1011D00005F0C2FE244D4C35284605F0BDFE2248E0
:1011E000FFF7C0F9284605F0DDFE2846AFF3008082
:1011F0001E4D4C35284605F0AFFE1C48FFF7B2F9EE
:10120000284605F0CFFE2846AFF30080184D4C3538
:10121000284605F0A1FE1648FFF7A4F9284605F078
:10122000C1FE2846AFF3008014E0206D20F00105D8
:1012300004F14C00074605F08FFE2046FFF792F9B7
:10124000384605F0AFFE3846AFF300802046FFF782
:1012500080FC2C46002CE8D1304605F0A3FE08485F
:10126000AFF30080BDE8F08140DB002094DB00207C
:10127000E8DB0020B0000020B4000020B80000200F
:10128000AC00002072000000A4E90000770000001C
:1012900093E9000083E9000001491820ABBEFEE796
:1012A000260002007546FFF7D5F8AE4605006946F0
:1012B000534620F00700854618B020B5FFF7B8F870
:1012C000BDE820404FF000064FF000074FF0000847
:1012D0004FF0000B21F00701AC46ACE8C009ACE8C8
:1012E000C009ACE8C009ACE8C0098D46704710B52C
:1012F000FFF7B0F8203010BD05F0C6BD30B404468D
:101300008C464368002B18BF634538BF1846F8D396
:1013100003681844604507D0C81C20F0070000F19E
:10132000040CACEB0100121A2146CCF8002030BCB2
:1013300000220CF10400FFF7DBBB2DE9F04106466B
:101340000024D6E90170F5688046304603E0414646
:10135000B847641C3046A8470028F8D12046BDE8AD
:10136000F0812DE9F04705460C46C86820F42010AE
:1013700040F48000C860800602D50846FFF7D3FC21
:10138000E06841F282014FF0FF390140022903D0A9
:101390002046FFF771FCB5E000F42041B1F5004FA5
:1013A0000FD1C00306D56168E06A884200D80846BC
:1013B000606006E02069E0626060606905F015FE2B
:1013C000A061A0680022EEB200280DDAE1688B056A
:1013D0000AD4C043A06041F490302260E0606068AD
:1013E000411C61600670A5E0E0689046226040F410
:1013F0000050E060206968BB606905F00BFE0127C2
:1014000004F12405A0B1A08910F4407F08D0E06960
:10141000FFF764FB206118B1E06840F4006016E05B
:10142000E7612561E06820F4407040F480600EE0E0
:10143000E069FFF753FB00282061F1D0E06840F439
:10144000006010F4407FE06002D140F48070E06002
:1014500020696060E06825696FF0010AC1051FD549
:101460006168E06A884200D80846411B04D02246E1
:101470002846FFF70BFCF0BBE068010203D5E562EC
:10148000C4E9015854E0691CE1626160E16940F41B
:101490008030491EC4E9021030462E70BDE8F08746
:1014A000010202D500F480320AE06068411C6160EC
:1014B0000670E0680A2E40F48030E06006D000221A
:1014C000E16A6068814203D90B4602E00122F7E736
:1014D0000346A7895B1B7F0503D4E7699F4200DDB4
:1014E000E2B1814200D80146E5620F1AC4E9015811
:1014F000002B09DD00E005E0224619462846FFF7EB
:10150000C5FB08B14846C9E747B1A069E562656017
:10151000C01BA061E06840F01000E060E0680002DD
:1015200008D56168A069E562491B08446560A0614F
:101530005046B3E73046B1E72DE9F04704461E4672
:1015400090460D46C7684C30814605F005FDB8074A
:1015500014D0780212D44046B8F5807F09D0B0F597
:10156000007F06D0B8F5806F08D1012604F124056C
:1015700006E0701E6FF07F41884201D3012409E02C
:101580002561E6616560E06820F4706040EA08006B
:10159000E0600024484605F005FD2046BDE8F087E0
:1015A0002DE9FF4F06461C468B4681B003F14C00E7
:1015B000009005F0D1FCBBF1000F06D0039927681D
:1015C000002528460BFB01F963E000247AE0002F98
:1015D00061DCE06948453FDABAF1000F3CD0207B7E
:1015E000800601D5A06A04E0A16960680844216909
:1015F000401A2246A9EB050180463046FFF72AFC37
:10160000002812DD8044A8F101010644A16122698D
:1016100016F8011C0027054411702169491CE1627C
:101620006160E16841F40031E160411C03D010B118
:10163000207B400642D52046FFF727FCC4F81880DF
:1016400020696060E062E068276020F40030E060BC
:10165000E0694042A06018E0484503DAE06840F4E1
:101660000000E0602046FFF724FCE16821F400015F
:10167000E160411C08D0811C0AD02768002807DBE4
:101680006D1C06F8010B19E02760B5FBFBF419E0AF
:101690000120824612E0A9EB0500B846B84200DA04
:1016A0008046304642466168FFF7C7F86168A7EB9D
:1016B0000807464401EB0800454460604D4586DB61
:1016C0002760039C009805F06DFC05B02046BDE83E
:1016D000F08F00002DE9F04707461348814605F0DA
:1016E0003BFC124C40F2022817E094F85000C0076F
:1016F00010D0BC420ED004F14C05284605F02CFC5D
:10170000E668284605F04EFC38EA060002D120467D
:10171000FEF768FF206D20F00104002CE5D148465B
:1017200005F040FCBDE8F087AC00002040DB002065
:1017300010B500F033F8BDE8104000F029B810B53E
:1017400000F046F8BDE8104000F022B870470000F5
:101750002DE9F04114460D46074601F14C0630468E
:1017600005F0FAFB094B7B44224629463846FFF731
:101770005EFB0446287B000601D54FF0FF3430465F
:1017800005F010FC2046BDE8F08100003D99000006
:10179000002801D0FFF780BD7047000010B501465A
:1017A00002A000F03DF8012010BD0000534947524F
:1017B000545245443A2052656469726563743A2014
:1017C00063616E2774206F70656E3A200000000020
:1017D00010B5012805D0002103A000F021F8012058
:1017E00010BD09A1F8E7000053494752544D454D3B
:1017F0003A204F7574206F662068656170206D65B2
:101800006D6F7279000000003A2048656170206DAC
:10181000656D6F727920636F7272757074656400A4
:1018200070B505460C460A2000E06D1C05F099FCD9
:1018300035B128780028F8D102E0641C05F091FC4D
:1018400014B120780028F8D1BDE870400A2005F0D6
:1018500088BC00000000000001466FF003007047E4
:101860002DE9F84390460E46054663B105F1380769
:101870006A460121284601F0ABF804000BD00A2C7F
:1018800011D0BDE8F8830A46002101F0A1F80A282A
:10189000F7D10820F5E73846009902F023FA03282B
:1018A00001D2401CE4D1384602F0FCF90028F0D007
:1018B000032809D2284601F099F90400F3D00A2C34
:1018C00006D00E2CEFD0DCE70A2C01D00328EAD397
:1018D00042466946384601F08AFC0028D1D1009979
:1018E0003160CEE700BFFEE72DE9F05F9B460B4677
:1018F00000260546418A92463446B1464FF0040818
:1019000080690CE050F8342022F000429A4205D160
:1019100050F83400002826DA052624E0641CA14291
:10192000F0D8EC68621CEA608A4201D1C5F80C90DC
:1019300040F83430A96908EBC4072A46C95918464B
:1019400000F036FD06000AD128688068C07C0128B6
:1019500009D1A869C159284600F06BFC06460D2E36
:1019600017D00C2ED8D0A96908EBC4005A460958E4
:10197000A86C5144FEF761FF85F82B90A86950F8D8
:101980003400002802DA022085F82B003046BDE83A
:10199000F09FA86950F8341041F0004140F834102D
:1019A000BAE7000070B50E46044681690025408AFA
:1019B00005E000BF51F83520B2420BD06D1CA842A3
:1019C000F8D8E5686A1CE260824201D10020E0603C
:1019D00041F8356020688068C07C012803D120462A
:1019E000A16C00F079FD0420A16900EBC505485900
:1019F00021688968CA88A16CFEF71FFFA06922468A
:101A000041593046BDE8704000F026BD426800688C
:101A1000D388928880689A1A511A8068642240009C
:101A2000B0FBF2F0491C081A7047000070B504467C
:101A30000D4640680AF048FE104EB0421CD1606866
:101A400000F5FE700AF040FEB04215D16068001D3E
:101A50000AF03AFE2860606808300AF035FE6860D7
:101A600060680C300AF030FEA860606810300AF040
:101A70002BFEE860012070BD002070BD4A53464B2C
:101A8000F0B50446C1680320B1FBF0F789B0002629
:101A90005FE000BFA16806EB46000D18D4E9000125
:101AA00001228368681C9847002855D06946204663
:101AB000FFF7BCFFF0B3D4E9000101228368A81C42
:101AC0009847002848D020690099884202D3401CDA
:101AD00008D139B9E81CC4E90410781E864201D146
:101AE000A0686061204604A9FFF7A0FF18B104991F
:101AF000009888422CD0D4E900010122836828464E
:101B00009847002828D0226861680298D36801228B
:101B10009847002820D0039830B1D4E90021D36839
:101B200001229847002817D04FF400716068FEF733
:101B300003FF00E00CE0D4E900010122C368681C47
:101B40009847002808D0607E40F00400607602E0EC
:101B5000761CBE429ED3012009B0F0BD02466FF054
:101B60000300704770B52A2542F2107400E0641E2D
:101B700024B1802002F0E8FC0028F8D014B9032535
:101B8000284670BD40F2FF5002F09AFC2846F8E764
:101B90002DE9F04106462A274848056801E04748F4
:101BA000056805F045000028F9D005F0040030B1C3
:101BB0000327042002F084FC3846BDE8F08105F0DC
:101BC000010028B10127012002F07AFC3846F4E731
:101BD00002F0B4FCB04202D010273846EDE740F2E4
:101BE000FF5002F06DFC002002F0CEFC04463448A9
:101BF000204008B93846E0E704F0004008B11C2056
:101C0000DBE704F0804008B10920D6E704F000507B
:101C100008B10A20D1E704F0805008B10B20CCE7CE
:101C200004F0006008B10C20C7E704F0806008B140
:101C30000D20C2E704F0807008B10E20BDE704F467
:101C4000000008B10F20B8E704F4800008B11020AC
:101C5000B3E704F4001008B11120AEE704F48010DB
:101C600008B11220A9E704F4002008B11320A4E76A
:101C700004F4802008B114209FE704F4003008B178
:101C800015209AE704F4803008B1162095E704F493
:101C9000004008B1172090E704F4804008B11820F4
:101CA0008BE704F4005008B1192086E704F008001F
:101CB00008B11A2081E738467FE70000342C014044
:101CC00008E0FFFD70B52A251048046801E00F48C0
:101CD000046804F045000028F9D004F0040028B19D
:101CE0000325042002F0ECFB284670BD04F001003F
:101CF00028B10125012002F0E3FB2846F5E740F278
:101D0000FF5002F0DDFB2846EFE70000342C0140D5
:101D100070B52A250B48046801E00A48046804F0FD
:101D200045000028F9D004F0040028B10325042060
:101D300002F0C6FB284670BD40F2FF5002F0C0FB27
:101D40002846F8E7342C01402DE9F04106460F46BD
:101D50004FF02A082248056801E02148056805F08F
:101D600045000028F9D005F0040038B14FF0030811
:101D7000042002F0A5FB4046BDE8F08105F001001B
:101D800030B14FF00108012002F09AFB4046F3E722
:101D900002F0D4FBB04203D04FF010084046EBE70E
:101DA00040F2FF5002F08CFB002002F0EDFB0446F5
:101DB00004F4604018B9200C38804046DCE704F495
:101DC000005008B11320D7E704F4804008B1102078
:101DD000D2E704F4004008B10F20CDE74046CBE73E
:101DE000342C014070B52A2642F210750F48046861
:101DF00002E06D1E0D48046804F0450008B9002D8E
:101E0000F7D115B104F0040028B10326042002F034
:101E100057FB304670BD04F0400028B12A26402010
:101E200002F04EFB3046F5E73046F3E7342C014034
:101E300010B50346012904D0022910D0042938D155
:101E400025E002F0300038B902F00F0008B9002098
:101E500010BD6FF00300FBE76FF00300F8E712B16D
:101E6000012A11D107E0164800EB0310007B08B9E6
:101E70000020EDE709E0124800EB0310007B012889
:101E800001D10020E4E700E000BF00BF14E03AB158
:101E9000012098400B4C246820430A4C206006E047
:101EA00001209840074C24688443064804600020C1
:101EB000CEE76FF00300CBE700BF4FF0FF30C7E77E
:101EC0007CFA0008780000200246094B9A4201D2B1
:101ED000084801E00648103801F000531BB1064BDA
:101EE0000B40C36002E0044B0B408360704700006E
:101EF00010640240006002407D0F7D0F21B1026836
:101F000042F00102026003E0026822F00102026076
:101F100070470000016821F00101016000210160AB
:101F200041608160C1600161212141614A4988426B
:101F300004D13D21484A103A91608CE0464918315D
:101F4000884205D14FF47461434A103A916082E0AF
:101F500041493031884205D14FF474113E4A103A5C
:101F6000916078E03C494831884205D14FF0746176
:101F7000394A103A91606EE037496031884204D1A5
:101F80003649354A103AD16065E0334978318842A4
:101F900004D13349304A103AD1605CE02E49903187
:101FA000884204D12F492C4A103AD16053E02A4983
:101FB000A831884205D14FF03D51274A103AD160EF
:101FC00049E02949884204D13D21274A083A116055
:101FD00041E025491831884205D14FF47461224A05
:101FE000083A116037E020493031884205D14FF47A
:101FF00074111D4A083A11602DE01B49483188428E
:1020000005D14FF07461184A083A116023E016496F
:102010006031884204D11149134A121F11601AE03D
:1020200011497831884204D10D490F4A121F1160BD
:1020300011E00D499031884204D10A490A4A121F21
:10204000116008E00849A831884204D14FF03D51A1
:10205000054A121F11607047106002403D000020C9
:10206000400F002000003D201064024021B10268B2
:1020700042F02002026003E0026822F020020260C7
:102080007047000030B503460A46002000240B4D7F
:10209000AB4201D20A4901E00849103902F000556B
:1020A0000DB14C6800E00C68064D2C4004EA0205B6
:1020B0000DB1012000E0002030BD0000106402409E
:1020C000006002407D0F7D0F10B500220268134BA7
:1020D0001A40CC680B6823434C6923438C69234323
:1020E000CC6923430C6A23434C6A23438C6A234301
:1020F0004C6B23438C6B23431A430260426922F0EA
:102100000702D1E90B3423431A4342610B69436050
:102110004B6883608B68C36010BD00003F801CF07B
:1021200030B58FB004460D464FF0FA511D48FFF709
:10213000CBFE00211B48FFF7E1FE1A48FFF7EAFE3D
:102140004FF0006000901848019002940020039026
:10215000049005904FF48060069080000790800006
:102160000890002009904FF440300A9004200B9012
:1021700003200C904FF400000D9080100E906946E3
:102180000848FFF7A1FF69460648FFF79DFF202199
:102190000448FFF76BFF01210248FFF7AFFE0FB0C5
:1021A00030BD000058640240802C014030B58FB033
:1021B00004460D464FF0FA511B48FFF785FE0021FB
:1021C0001948FFF79BFE1848FFF7A4FE4FF0006088
:1021D0000090164801900294402003900020049043
:1021E00005904FF480600690800007908000089072
:1021F000002009904FF440300A9004200B900320F7
:102200000C904FF400000D9080100E906946064827
:10221000FFF75AFF20210448FFF728FF0121024859
:10222000FFF76CFE0FB030BD58640240802C0140B7
:1022300070472DE9F84F0746008C0D464FF0000817
:102240004619C1464FF0010B66E0F87F032184195F
:10225000E078B1EB901F05D1002020706070A07075
:10226000E07020716946304606F01FFD9DF80020A1
:102270009DF80100E1782379424059404A4000210D
:102280003F2A34D002B102218A466946284606F028
:10229000C7FB0098216820F07F4021F07F41484033
:1022A00080EA1031C1F30B020021A2F57063FF3BFD
:1022B00010D002B10221B88CBAF1010F0544788C1C
:1022C000064421D001291FD0BAF1020F1FD00229E4
:1022D0001DD01FE0000B410905EB810100F01F0339
:1022E0000A680BFA03F042400A600121E3E7584014
:1022F000410906EB810100F01F030A680BFA03F0A5
:1023000042400A600121BFE748F0010001E048F0C7
:102310000200804609F1010997F82610494594D832
:102320005FEA887002D50D20BDE8F88F5FEAC870BB
:10233000FAD00C20F8E701466FF003007047000068
:10234000F8B51A4D0C4601462A6A2068904708B134
:102350001120F8BD00208DF8000042F2107009F045
:102360002BFA074609F025FA06466A6A206869468C
:1023700090479DF80000400610D409F01AFA801B1F
:10238000B842F2D39DF80000400607D46A6A20687C
:10239000694690479DF80000400605D59DF800006D
:1023A000C007D6D00F20F8BD1020F8BD50FB0008A4
:1023B0007CB50B46014610681546104E8268D288DF
:1023C000009274690022A04730B1052811D0062878
:1023D00011D0112420467CBD286800248168C97C66
:1023E0000229F7D1726A01A990479DF804000007FD
:1023F000F0D50C24EEE70D24ECE7000050FB0008BC
:10240000F8B5144F05464FF0FF34002628682146E2
:10241000007D09F0FFF90446401C19D0D7F828C008
:10242000E1B2286804236A46E04780B92868E1B22F
:102430006A46007D09F0F0F90028E7D1D7F82CC0F2
:10244000E1B2286804236A46E0470028DED002266D
:102450003046F8BD50FB00082DE9FC410B46014613
:10246000106814461B4D8268D2880092AE69002223
:10247000B04710B11120BDE8FC8100208DF80400A8
:102480004FF47A7009F098F9074609F092F9064678
:102490006A6A206801A990479DF80400400610D49C
:1024A00009F087F9801BB842F2D39DF8040040067A
:1024B00007D46A6A206801A990479DF80400400685
:1024C00005D59DF80400C007D5D00E20D3E7102015
:1024D000D1E7000050FB00082DE9F0410446008CD4
:1024E0000D46461900270FE0E07F8119284606F0C7
:1024F00097FAE17F30440144304606F0D6FBA08CC9
:102500007F1C0544608C064494F82600B842EBD842
:10251000BDE8F0812DE9F04104460D4600200B682E
:1025200004214FF6FF76228A17E000BF676900EBAF
:10253000400C01EB8C0C37F80C709F420CD1626997
:1025400000EB400001EB8001565200210923626933
:1025500003EB8000115402E0401C8242E6D894F85C
:102560002810286888402146FFF7EAFE002807D097
:102570000F2805D100222046296801F0F7F82E60C7
:10258000BDE8F0812DE9F0414668044686B0308907
:102590000D46800405D57168A068CA69407901219B
:1025A0009047307A4FF00008400717D460682F46F4
:1025B00060214568A0686A6A467930469047A068FD
:1025C0003A463146437C284603F084FD6A6AD021AE
:1025D00030469047404606B0BDE8F0816068144937
:1025E0004DF260024668A068407C022801D911497A
:1025F00002E0012800D910490120E06004F10C003C
:10260000C31DCDF80480CDF808800095CDE90330D6
:10261000A068756B474640790023A847A0684179B8
:10262000304604F0DFF908B13846D4E70420D2E799
:102630000000120200007202000032022DE9F04197
:10264000804606AC94E8F0106FF00300BDE8F0811E
:1026500070B504460A460026082502B909E0012A99
:1026600001D1160205E0022A01D1160201E04FF461
:10267000407600F029F90546082D28D11548006854
:1026800020F4407013490860084600683043086031
:102690000846006820F0F80008600846006844F02A
:1026A000020108430B4908600846006840F4803086
:1026B000086000F009F905460648006820F00200AD
:1026C000044908600846006820F0F80008602846C1
:1026D00070BD0000103C024008201049096801F458
:1026E0008031B1F5803F01D1012015E00B49096827
:1026F00001F0100109B105200EE00849096801F058
:10270000EF0109B1062007E00449096801F0020160
:1027100009B1072000E00820704700000C3C02408F
:102720002DE9F04104460E461746002500BF6FE034
:1027300039492068884204D101211820FFF788FF19
:102740004FE036492068884204D102211820FFF763
:102750007FFF46E032492068884204D102212020D0
:10276000FFF776FF3DE02F492068884204D102211F
:102770002820FFF76DFF34E02B492068884204D100
:1027800002213020FFF764FF2BE0284920688842AF
:1027900004D102213820FFF75BFF22E024492068A2
:1027A000884204D102214020FFF752FF19E021495D
:1027B0002068884204D102214820FFF749FF10E039
:1027C0001D492068884204D102215020FFF740FFB4
:1027D00007E01A492068884203D102215820FFF7F8
:1027E00037FF56F82510206800F034F808280CD17F
:1027F0002068006856F82510884202D00220BDE803
:10280000F0812068001D206001E00120F7E76D1CC9
:10281000BD428DD30020F2E70080000800C0000810
:10282000000001080000020800000408000006087B
:102830000000080800000A0800000C0800000E084C
:102840000348006840F000400149086070470000FC
:10285000103C024030B502460C46082500F034F822
:102860000546082D19D10E48006820F440700C4927
:1028700008600846006840F4007008600846006878
:1028800040F001000860146000F01EF8054604489E
:10289000006820F0010002490860284630BD0000B1
:1028A000103C02400548006800F0004028B1044890
:1028B00002490C390860034808607047103C024028
:1028C00023016745AB89EFCD08B508200090FFF7DD
:1028D00003FF009002E0FFF7FFFE00909DF800006C
:1028E0000128F8D09DF8000008BD000099B110281B
:1028F00008D14FF02042126E42F004024FF0204304
:102900001A661BE00E4A126842F004024FF02043A0
:10291000C3F8802012E0102808D14FF02042126E38
:10292000084B1A404FF020431A6607E0044A126829
:10293000044B1A404FF02043C3F88020704700003A
:10294000800000A0FBFF0F0030B500210022002313
:10295000446844F0080485682C43C5682C43056925
:102960002C43456944EA4524856944EA4531C469F4
:102970002468C5696D6844EA0524C5692D8944EA5F
:102980000544C5692D7B44EA0562046A2468056A2A
:102990006D6844EA0524056A2D8944EA0544056A00
:1029A0002D7B44EA05630468102C05D14FF02044C8
:1029B0002166A266E36608E0044C21604FF02044E3
:1029C000C4F88820014C0C34236030BD800000A086
:1029D0002DE9F0470546406892468946012908D00E
:1029E000B0F800804788EE8D3446BC4206D144469C
:1029F00005E0B0F80480C788AE8DF5E7641C95F853
:102A000028002A8C04FA00F10A232846FEF76CFFFE
:102A100010B105280ED10AE0A87FA96C085CFF2838
:102A200005D12A7F00201144425CFF2A04D0B44221
:102A3000DBD10A20BDE8F087401C0428F4D3CAF893
:102A40000040B9F1010F02D0EC850020F2E7AC851F
:102A5000FBE700002DE9FC4107460D4600262A242D
:102A600000200090019008205C4908601020486018
:102A7000402088600020C8604FF4806008610846EC
:102A800001F0C0FD1020FFF783F804462A2C02D085
:102A90002046BDE8FC815248008800044F49086088
:102AA00037204860402088600020C8604FF4806074
:102AB0000861084601F0A6FD3720FFF769F80446D3
:102AC0002A2C01D02046E4E74FF0FF30454908604A
:102AD00008204860302088600220C860002008611B
:102AE00001204861084601F003FD00203B490860D1
:102AF00033204860402088600020C8604FF4806028
:102B00000861084601F07EFD3320FFF741F80446D6
:102B10002A2C01D02046BCE709E04FF4001001F058
:102B200013FD20B101F068FD4DF82600761C2E48FB
:102B3000006840F22A6108400028EED0082001F029
:102B400003FD28B1082001F0BBFC04242046A0E7C7
:102B5000022001F0F9FC28B1022001F0B1FC0224AE
:102B6000204696E7202001F0EFFC28B1202001F05C
:102B7000A7FC062420468CE74FF4007001F0E4FC2B
:102B800030B14FF4007001F09BFC0724204680E731
:102B900040F2FF5001F094FC00980006009901F407
:102BA0007F4140EA0120009901F47F0140EA1120B1
:102BB000009940EA1160686001980006019901F4EB
:102BC0007F4140EA0120019901F47F0140EA112090
:102BD000019940EA1160286020465AE7300C002035
:102BE00038000020440C0020342C01402DE9F04F27
:102BF00004468BB03830012202A9834600F0F7FA70
:102C00000A2806D102AA01212046FFF7E1FE00288A
:102C10007ED1656B4FF000086FF07F494FF6FF7A69
:102C200094F82710EF0927FA01F0616C51F82000A1
:102C300020F07F464E456CD046451CD020680022CF
:102C400031468068C3882046FEF74EFE90B10528C5
:102C500073D194F828000023C64001200896009004
:102C6000206808A980688289204601F02EFB002890
:102C700063D16BE0B04694F82600A18C401E38402A
:102C8000484305F07F0100EB8100A16C421C5646D1
:102C90000B5C05938A5C43EA02220592821CC01CED
:102CA000895C0691A26C105C41EA002006900598B0
:102CB000B04245D00698B04242D0206BA8423FD0E7
:102CC00002980090012305AA2946204600F0C6F884
:102CD000002832D108AB02AA29462046089603F004
:102CE000CFFC002829D105A920460296FFF712FC47
:102CF000002822D106A92046FFF70CFC00281CD191
:102D00000598B04203D00146584600F0EBFF01E0C1
:102D100013E015E00698B04203D00146584600F093
:102D2000E1FF0298B0420BD16D1C6563B4F840001E
:102D3000854201D10020606300200BB0BDE8F08F18
:102D4000B4F840006D1CA84200D10025606BA84279
:102D50007FF466AF5846029900F0C4FF0A20ECE702
:102D6000F0B50A4600210023002400BF3DE0012504
:102D700005FA01F3156805EA03049C4234D105689D
:102D80004F000326BE40B543056015794E00B5409F
:102D90000668354305601579012D02D01579022D9D
:102DA00016D185684F000326BE40B543856055792E
:102DB0004E00B540866835438560456801268E40E3
:102DC000B5434560456896798E40B6B23543456057
:102DD000C5684F000326BE40B543C560D5794E0097
:102DE000B540C6683543C560491C1029BFD3F0BD46
:102DF000F0B5002300244D07ED0E02FA05F3CE10C6
:102E000000F1200555F826504E07F70E0F26BE405C
:102E1000B543CF1000F1200646F82750CE1000F140
:102E2000200555F8265045EA0304CE1000F1200590
:102E300045F82640F0BD0246002053690B400BB117
:102E4000012000E0002070474183704701837047F4
:102E50000AB1018300E04183704700002DE9FF4F74
:102E600004464FF0FF3585B017462E460020218AD4
:102E700010E000BF636900EB400C042202EB8C02FF
:102E80009A5A3B689A4200D105467B689A4200D123
:102E90000646401C8142EDD80698691C1FFA80F84E
:102EA00004F108004FF0060A4FF0080B4FF0090933
:102EB00000901ED100F020FAB04202D1009800F03C
:102EC0001BFA0546626900EB45000423398803EBD1
:102ED0008003D15263690AEB8001012223F801804B
:102EE00063690BEB800109EB80005A546369002190
:102EF0001954701C1ED1009800F0FEF9A84202D1AE
:102F0000009800F0F9F90646626900EB46000423D8
:102F1000B98803EB8003D15263690AEB80010BEBA4
:102F2000800223F801806369002109EB8000995435
:102F30006369195406EB460A002709EB8A0635E057
:102F40006069815DB9422AD1042101EB8A01405AAE
:102F500094F82810228C8840C1190A232046FEF7D5
:102F6000C3FC08B105287BD1217FA06C084402A9CD
:102F700000F0CCF96FF0004188421CD094F8292071
:102F800001219140491E014094F827006269C14027
:102F900052F82A00C1556069815D491C815520683D
:102FA00080688089401EB84205D07F1C20688068F8
:102FB0008089B842C4D80020FCE00020411E009067
:102FC0000927626908E000BF52F82AC01CF8008097
:102FD000C84500D10146401C12F806C0B8468445D9
:102FE000F2D894F82900069F94F827C0874009FA80
:102FF0000CF007EB000B481C09D0042707EB8A00F4
:10300000105A94F82820DB889040014448E005EBF2
:103010004501042000EB810001910490105A94F8BE
:103020002810DB88884000EB090100222046FEF7CB
:103030005BFC38B1052813D194F82B00800701D52B
:1030400001200090208C217F0844A16C08440021BD
:1030500000F05CF9584531D000200746009062E04E
:1030600094E0019B606908EB83010391415CB942E4
:1030700028D950F8230094F82920C15D94F827003E
:10308000814006989040014459454BD161690498AC
:10309000085A94F828108840C11920688068C388AD
:1030A00000222046FEF720FC40B105286ED100BF6B
:1030B00094F82B00800701D5012000900027B4F878
:1030C00020804BE00499D388405A94F828100022BD
:1030D0008840C1192046FEF707FC08B1052855D1E4
:1030E000208C217F0844A16C0844002100F00EF9D7
:1030F0006FF000418842E1D094F8292001219140ED
:10310000491E94F827200140D1406369019A53F881
:103110002220D15562690399039B515C491CD1540B
:103120005845C5D07F1C206882689089B84298D8DD
:10313000C4E7207FA16C014401EB08020BEB070000
:10314000012103F087F8009828B1627FA06C00216C
:10315000024408F80210618C7F1C884494F8260011
:10316000B842E6D894F8281012988840484480461F
:1031700001462046FEF716FC07000AD00E2F04D1A8
:1031800001222046129900F0F1FA384609B0BDE854
:10319000F08F089860B994F827102BFA01F0B4F872
:1031A0004210814204D9626C48F0807142F82010CC
:1031B00009F10100814620688368988948453FF6F7
:1031C000FCAE606905EB450104234FF6FF7703EB86
:1031D0008102875200200922656902EB810168544F
:1031E000626903EB8A01575261698855CEE770B571
:1031F00015460E46044600F055FDA84201D20A20AD
:1032000070BD2088306060882080A08860800020A9
:10321000A08070BD014800687047000078FA00087F
:1032200001466FF0030070472DE9F04F46680446F1
:1032300085B03089984617460D46800405D57168DB
:10324000A068CA69407901219047307A4FF004099B
:1032500040074FF0000A34D400976068EE214768B9
:10326000A0687A6A40798346904701232A465946E6
:10327000384602F02FFF5946384603F07EFB90B1E6
:103280007A6A002158469047FD6A00234246584614
:103290000099A847404504D05946384603F0A2FBA0
:1032A00008B1554600E04D463089800405D5716867
:1032B000A068CA6940790021904705B02846BDE85A
:1032C000F08F60682B46EE2245680120E06004F133
:1032D0000C000DF1040BD44604908BE88011CDF85E
:1032E00000A0A0686F6B03494079B847A068417996
:1032F0002846D3E70000060C01684A1C02600389D7
:103300009A4201D100220260084670470278437851
:1033100042EA03228378C07842EA034242EA00602C
:1033200009B1C20F0A6020F0004070470CB5014699
:10333000002001900198009A60F300020092019829
:103340004208009862F341000090019882080098BA
:1033500062F39F00009000980CBD000008B5024881
:103360000068009008BD000074FA000800BFFEE786
:1033700010B503F009F800F0F2FB03F053F800F089
:103380003FF900F0FFFA10BD00214A1E03E0436C34
:1033900043F82120491CB0F842308B42F7D87047DF
:1033A00001460248016000207047000074000020C0
:1033B0002DE9F04104464068A168002645684F7930
:1033C000007B88BB68688047616888606068A9681E
:1033D0000068884718B929690220884708B1012682
:1033E00038E06168002089680A0700D50220CA0613
:1033F00001D540F003008A0601D540F010004906CF
:1034000001D540F0180008B1696988470022EB6BCC
:10341000012138469847A068007940B1606800896A
:10342000000402D4032615E006E0012200E0002299
:10343000EB6B0221384698470020A074E07420828C
:10344000A068C07C10B9204602F066FD6168087B68
:10345000401C08733046BDE8F08102466FF003005F
:10346000704700007CB504462A250020019000909A
:103470005F48008800045F4908600D2048604020D4
:1034800088600020C8604FF480600861084601F041
:10349000B9F859480068009002E057480068009069
:1034A000009800F045000028F7D0009800F00400D4
:1034B00028B10325042001F003F828467CBD0098BC
:1034C00000F0010028B10125012000F0F9FF284695
:1034D000F4E701F033F8009000980D2802D0102591
:1034E0002846EBE740F2FF5000F0EAFF002001F031
:1034F0004BF801900198C0F3432020703F49019898
:10350000084008B92846D9E7019800F0004008B102
:103510001C20D3E7019800F0804008B10920CDE7D6
:10352000019800F0005008B10A20C7E7019800F0A8
:10353000805008B10B20C1E7019800F0006008B18D
:103540000C20BBE7019800F0806008B10D20B5E7C2
:10355000019800F0807008B10E20AFE7019800F4E8
:10356000000008B10F20A9E7019800F4800008B11D
:103570001020A3E7019800F4001008B111209DE786
:10358000019800F4801008B1122097E7019800F428
:10359000002008B1132091E7019800F4802008B1C1
:1035A00014208BE7019800F4003008B1152085E75E
:1035B000019800F4803008B116207FE7019800F4EC
:1035C000004008B1172079E7019800F4804008B165
:1035D000182073E7019800F4005008B119206DE736
:1035E000019800F0080008B11A2067E7284665E74F
:1035F00038000020300C0020342C014008E0FFFD92
:103600001CB50121042000F089FB4FF4C04000905C
:1036100001208DF8040000208DF8070003208DF8AC
:10362000050000208DF8060069460248FFF798FB68
:103630001CBD0000000802402DE9F04186B00446A0
:10364000FFF7A2FE606807887BE0002673E000BFFA
:1036500094F82800228C07FA00F030448046014696
:103660000A232046FEF740F908B1052852D126B9B1
:10367000A17FA06C405CFF2862D1217FA06C084430
:1036800003A9FFF743FE05466FF00040854257D07F
:1036900094F82700B4F8421025FA00F081420CD9C2
:1036A000616C51F82020120EFF2A01D0039AA2BBB0
:1036B000039B48EA036241F82020039868BB206816
:1036C00080688089401EB04234D14FF6FF7001906F
:1036D00094F8290001AB25FA00F10122204602F0FE
:1036E00079FB002816D102970023012204A9204665
:1036F000FEF7B6F800280DD10498009094F8290040
:10370000002325FA00F101AA2046FFF7A7FB28B104
:103710000E28E9D006B0BDE8F0810BE001A92046F3
:10372000FEF7F8FE0028F5D102A92046FEF7F2FECA
:103730000028EFD1761C206880688089B04287D845
:103740007F1C60688088B8423FF67FAF0020E1E7C9
:10375000010008D01F20012303FA00F20A4201D120
:10376000401EF9D170474FF0FF30704770B50446E6
:1037700090F828000D4601FA00F632B12146304695
:10378000FEF7DEFD08B10F2825D12068FF228068F2
:10379000C188A06CFDF7C8F8218CA06C08441021EA
:1037A000FDF7CAF8E08F2246401CE0873046A16C46
:1037B000FEF752FE0E280ED1206894F828102246FB
:1037C00080688D406D1E8089A16C2844FEF744FE00
:1037D0000E2800D1002070BD00BFFEE72DE9FF5F7D
:1037E00000251F468B4604462B462E46DDF83890B2
:1037F00055E000BF94F828104FF000080BFA01F0D4
:103800008119206842468068C3882046FEF76CF81C
:1038100038B1052819D194F82B00800701D54FF055
:103820000108208CE27F014602440BE0A36C1B5C84
:10383000FF2B06D0B8F1000F14D094F82600002218
:103840000EE0401C8242F1D8002004B0BDE8F09F99
:1038500094F81DC0A36C401E6344CA54638C194481
:103860000028F5D156EA09000ED1208C217F0844AA
:10387000A16C08440021FFF749FD94F82910C840C5
:1038800094F8281000FA01F594F82810029888405E
:1038900081192046FEF786F80300D6D1761CBE4279
:1038A000A8D3B9F1000F2ED12068B4F84220806867
:1038B0008089824200D94219002122E094F82860D0
:1038C0000BFA06F04618284618E000BFD4F844C0AA
:1038D000E2465CF8209029F07F4CB4450DD194F875
:1038E0002880DDF808C00CFA08FC0CEB010E09F08A
:1038F0007F4848EA0E084AF82080401C9042E5D3F1
:10390000491CB942DAD318469FE700000A4600284E
:1039100003D10249104609F0DBBD7047E4180020CE
:10392000002802D1014809F0D7BD7047FC180020DB
:1039300010B50446E40160200949087009490C707B
:10394000200A0870200C0870D0200549087000F08B
:10395000E9F8402801D0012010BD0020FCE700005C
:10396000000002700000017010B5002400BF04E0E8
:103970002046FFF7DDFF601C84B2B4F5805FF7DB03
:1039800010BD000000B58FB00121782000F0C6F90D
:103990000121880300F0E2F90121084600F0CEF988
:1039A0000C2200214848FFF723FA0C220121464847
:1039B000FFF71EFA0C2204214348FFF719FA0C22E4
:1039C00005214148FFF714FA0C2207213E48FFF772
:1039D0000FFA0C220B213C48FFF70AFA0C22114681
:1039E0003948FFF705FA0C220E213748FFF700FA95
:1039F0000C220F213448FFF7FBF94DF6B3000D9070
:103A000002208DF8380003208DF8390000208DF851
:103A10003A008DF83B000DA92B48FFF7A1F9402093
:103A20000D9001208DF83B0000208DF838000DA985
:103A30002648FFF795F90C2207212548FFF7D8F90A
:103A40000C2208212248FFF7D3F90C220921204833
:103A5000FFF7CEF90C220A211D48FFF7C9F94FF4F0
:103A6000F0600D9002208DF8380003208DF83900A9
:103A700000208DF83A008DF83B000DA91448FFF79F
:103A80006FF90120099003200A9001200B900C90FF
:103A90001020009000200190029003904FF400301D
:103AA000049005200590069009A8079008906846A4
:103AB000FEF74AFF01211020FEF718FF642004F0F2
:103AC000CBFA0FB000BD0000000C0240001802400D
:103AD0000010024008B500200090702010490870C6
:103AE0009DF80000401CC0B200909DF80000401CF2
:103AF000C0B200909DF80000401CC0B200909DF83C
:103B00000000401CC0B200909DF80000401CC0B2F4
:103B100000904FF0E040007800909DF8000008BD54
:103B20000000027008B50022002000900FE0FFF7AF
:103B3000D1FF024602F0400000B109E00098401CAD
:103B4000009005490098884201D3022008BDEEE7A5
:103B500000BF4020FAE70000FFFF0100704708B5F2
:103B600031208DF8000000208DF801008DF8020052
:103B700001208DF80300684600F002F808BD00003F
:103B800070B5002100230F22C4781CB3174C2468A1
:103B900004F4E064C4F5E064C4F30721C1F1040453
:103BA000E3B20A4144789C40E1B284781440214356
:103BB0000C07210E0E4C05786155047804F01F05A2
:103BC0000124AC4005786D11AD0005F1E025C5F884
:103BD000004109E0047804F01F050124AC40054DC4
:103BE0000678761145F8264070BD00000CED00E027
:103BF00000E400E080E100E002490143024A116074
:103C0000704700000000FA050CED00E070B50546B5
:103C1000284607F05BF90446002C16D1284607F029
:103C200079F904460B2C10D109A0FCF78FFCFFF7A3
:103C30009BFE284603F04AFE04461CB90BA0FCF785
:103C400085FC02E010A0FCF781FC204670BD00005E
:103C5000204E616E64466C61736820C3BBD3D0B8DC
:103C6000F1CABDBBAF210D0A00000000204E616EFD
:103C700064466C61736820B8F1CABDBBAFB3C9B903
:103C8000A6210D0A00000000204E616E64466C61A2
:103C9000736820B8F1CABDBBAFCAA7B0DC210D0A5A
:103CA00000000000024600204FEA000132F8113007
:103CB00003B1401C491C0329F8D37047014621B1C8
:103CC000012905D0022907D105E06FF003007047F4
:103CD0006FF00300FBE702E06FF00300F7E700BFBF
:103CE0000020F4E710B5028889B212B143881BB1F5
:103CF00007E00180012010BD8A4202D041800220ED
:103D000010BD848834B98B4204D08A4202D08180AD
:103D1000032010BD4FF0FF3010BD000029B1064A4E
:103D200012680243044B1A6004E0034A126882439B
:103D3000014B1A60704700003038024029B1064A32
:103D400012680243044B1A6004E0034A126882437B
:103D5000014B1A60704700003838024029B1064A0A
:103D600012680243044B1A6004E0034A126882435B
:103D7000014B1A60704700004438024029B1064ADE
:103D800012680243044B1A6004E0034A126882433B
:103D9000014B1A607047000024380240F0B5002142
:103DA00000220024022500260223324F3F6807F03C
:103DB0000C0121B1042905D0082937D105E02E4F87
:103DC000076036E02D4F076033E02A4F3F1F3F6802
:103DD000C7F38056274F3F1F3F6807F03F036EB180
:103DE000264FB7FBF3F7DFF88CC0ACF1040CDCF81E
:103DF00000C0CCF3881C07FB0CF40CE01E4FB7FB93
:103E0000F3F7DFF870C0ACF1040CDCF800C0CCF3C1
:103E1000881C07FB0CF4174F3F1F3F68C7F301478F
:103E20007F1C7D00B4FBF5F7076002E0124F0760CE
:103E300000BF00BF0F4F3F6807F0F0010909104FA6
:103E40007A5C0768D74047600A4F3F6807F4E05143
:103E5000890A0B4F7A5C4768D7408760054F3F68F7
:103E600007F46041490B064F7A5C4768D740C7604A
:103E7000F0BD0000083802400024F40040787D01C5
:103E80000000002010B504460246816C0020FEF7B9
:103E90008FFA18B10C2801D00D2822D12068806833
:103EA000C07C012803D12046A16CFEF7C2F9A06CAA
:103EB0000C4902688A420CD1426A8A4209D1016ADD
:103EC0002046FDF7A3FD24F8400F207B40F00200C0
:103ED00005E0002024F8400F207B20F00200207332
:103EE000002010BD4C54464BF0B504460D461F460D
:103EF00014B16FF00400F0BD15B96FF00400FAE7DB
:103F00000D4800EB041003680B4800EB0410067B1F
:103F100046B1002103E0188825F81100491C9142A0
:103F2000F9D306E0002102E018786854491C914258
:103F3000FAD31046DFE700007CFA00082DE9F04FC5
:103F40004568044685B02889984691460E46800407
:103F500005D56968A068CA69407901219047287A27
:103F60004FF0040B40074FF0000A1CD4606890210A
:103F70004568A0686A6A407907469047AA6A314650
:103F800038469047EC6A0023424649463846A047E7
:103F9000404504D03946284602F024FDF8B1504689
:103FA00005B0BDE8F08F6068902204F10C05476809
:103FB0000120E060CDF80880CDE903A5CDE900A996
:103FC000A06833467D6B074956464079A847A068EC
:103FD0004179384602F006FD08B13046E0E7584620
:103FE000DEE70000000006082DE9F84344680646B5
:103FF000089D20891F4690468946800405D5616842
:10400000B068CA69407901219047B068007900B171
:104010006D08207A3B4640074246494630460095A7
:1040200003D400F005F8BDE8F88300F041F8FAE7A2
:104030002DE9F04704464068914688464568A068E7
:104040009A466A6A4679089F002130469047A068E0
:104050004A463146837C284602F03CF8A068424636
:104060003146437C284602F035F86A6A30213046F2
:1040700090473146284602F080FCB8B16A6A0021B8
:1040800030469047208AD5F82CC040F480333A4619
:1040900051463046E047B84205D0A06841792846ED
:1040A00002F0A0FC10B10020BDE8F0870420FBE77F
:1040B0002DE9F04304464068A66885B04568B77CA2
:1040C0009146DDF830C016484FF44052012F00D918
:1040D0001448777C022F02D940F4C00003E0012F7E
:1040E00001D940F400100127E7608DE80A1004F1BF
:1040F0000C0804F11307CDE90378218A4B460143EC
:1041000070796E6BB047A0684179284602F06AFC6E
:1041100018B1002005B0BDE8F0830420FAE70000E4
:104120000000160E00001E0E2DE9F047446886B010
:104130004FF00406257A4FF000075FEA457C65687A
:1041400024D4806892466A6A407998468146EC2178
:104150009047012300224946284601F0BBFF49460B
:10416000284602F00AFC60B36A6A0021484690477C
:10417000EC6A0023424651464846A047404521D0BC
:104180004946284602F02EFCD8B11BE004464FF009
:10419000010C40F80CCF04F1130C0097CDE903C0DB
:1041A000CDE90123A068DFF824904FF0EC080B461E
:1041B000D5F834C0407942464946E047A068417985
:1041C000DFE7374606B03846BDE8F0870000060C4A
:1041D0002DE9F0434568044685B028890E468004E1
:1041E00005D56968A068CA69407901219047287A95
:1041F0004FF0040840074FF0000518D460683746B8
:1042000070214668A06840790095726A814690479F
:104210000023F46A012269464846A04720B949466E
:10422000304602F0DFFB10B3009838701BE0606886
:10423000002347680120E06004F10C00C11DCDE9B6
:104240000251019504900095A068D7F834C07022FF
:1042500040790849E047A0684179384602F0C2FB3E
:1042600028B1E07C3070284605B0BDE8F0834046B8
:10427000FAE7000000000220FEB51546089A1C4629
:104280000E460746012D1CD0606801900290002068
:104290000090012301A9384600F017F800280FD13B
:1042A0000198012D0FD06060231D2246314638460B
:1042B00002F0E6F9002803D102A93846FEF72AF9F0
:1042C000FEBD2068E1E72060EEE72DE9FC471E46D1
:1042D0000A9F90460D46814600243346032201A9D9
:1042E0004846FDF7BDFA00281AD1009643462968D2
:1042F0004846019AFFF772FA40B10E2810D1012208
:1043000048460199FFF732FA60B10CE02FB1294617
:104310004846FEF7FFF8002802D1019828600020E7
:10432000BDE8FC87641E641C052CD6D3F8E7F0B505
:104330004568044685B02889800405D56968A06869
:10434000CA69407901219047287A4FF0000540075B
:10435000606806D44168A0684A6A4079FF219047A6
:1043600017E046680120E06004F10C000195029519
:10437000CDE903500095A0680023776B4079FF22B8
:104380004FF40031B847A0684179304602F02AFB6B
:1043900010B1284605B0F0BD0420FBE77CB505460A
:1043A0002A2400200090019000F0EEF800F0007048
:1043B00010B10E2420467CBD3F49098888B2694669
:1043C000FEF748FB04462A2C01D02046F3E7012DD6
:1043D00038D1019800F48020002830D03648008879
:1043E000000436490860372048604020886000207B
:1043F000C860A8020861084600F004F93720FDF7FC
:10440000C7FB04462A2C01D02046D4E702202B49C2
:10441000086006204860402088600020C8604FF493
:1044200080600861084600F0EDF80620FDF7B0FB5B
:1044300004462A2C01D02046BDE72046BBE72524B0
:104440002046B8E7019800F4803078B31A48008815
:1044500000041A4908603720486040208860002026
:10446000C8604FF480600861084600F0CBF8372040
:10447000FDF78EFB04462A2C01D020469BE7002046
:104480000E49086006204860402088600020C8600F
:104490004FF480600861084600F0B4F80620FDF78C
:1044A00077FB04462A2C02D0204684E701E0204610
:1044B00081E7252420467EE738000020300C0020CC
:1044C0000149086070470000382C0140014908602C
:1044D00070470000382C0140014908607047000017
:1044E000A080254201490860704700008C85254264
:1044F00000210B4B02681A601B1D42681A601A1DCE
:10450000116821F0F701D0E902231A4303691A4325
:1045100043691A431143024A083211607047000090
:10452000242C014010B50121C802FFF727FC00210F
:104530004FF40060FFF722FC10BD00000148006846
:10454000C0B27047102C014001460020034A126897
:104550000A400AB1012000E000207047342C0140DD
:1045600001460020034A12680A400AB1012000E017
:1045700000207047342C01400248006800F003001E
:1045800070470000002C014008B501460020009053
:104590000248084400900098006808BD142C0140AF
:1045A00010B500F0EFFB10BD29B1064A12680243B6
:1045B000044B1A6004E0034A12688243014B1A60FC
:1045C000704700003C2C014000210A4A116847F660
:1045D000FF629143027D83681A4343681A43C368AC
:1045E0001A4303681A4303691A431143014A1160CD
:1045F00070470000042C014001480068704700002B
:10460000802C01400021094B02681A601A1D1168B4
:104610006FF30A01D0E901231A43C3681A430369FF
:104620001A431143014A121D11607047082C0140C2
:104630000149086070470000002C014001490860F2
:1046400070470000802C014070B504462A2522489E
:104650000068032802D12725284670BD1E4800683F
:1046600038B11D480068012803D01B4800680228A3
:1046700030D1B4F5805F02D127252846EDE7B4F5A7
:10468000006F15D10120FFF789FE05462A2D21D1A3
:1046900001201249087500200860486088604FF4C6
:1046A0000060C860002008610846FFF78DFF11E038
:1046B0000020FFF773FE05462A2D0BD10120074984
:1046C00008750020086048608860C8600861084676
:1046D000FFF77AFF2846C0E734000020180C0020BE
:1046E0001CB501210C20FFF719FB0C2208212448DE
:1046F000FEF77EFB0C2209212148FEF779FB0C22F4
:104700000A211F48FEF774FB0C220B211C48FEF700
:104710006FFB0C2211461A48FEF76AFB0C2202219D
:104720001848FEF765FB4FF47060009001208DF88B
:10473000050002208DF8040000208DF806000120FD
:104740008DF8070069460E48FEF70AFB042000902A
:1047500069460C48FEF704FB4FF48050009000209F
:104760008DF8070069460648FEF7FAFA0121C802EB
:10477000FFF7F4FA01218805FFF7D0FA1CBD00000D
:1047800000080240000C024030B501462A200022F9
:10479000AC4B1B7881F84E30AB4B1B88A1F84C30EA
:1047A000AA4B1B681A0E93090B70C2F383034B705C
:1047B00002F003038B70A54B1B68C3F30742CA705A
:1047C000A24B1B88C3F307220A71A04B1A784A71C7
:1047D0005B681A0E1301CB809C4B5B68C3F30742E6
:1047E000CB8843EA1213CB8002F00F030B72974B76
:1047F0009B88C3F30722D3094B72C2F380138B72D9
:10480000C2F34013CB72C2F300130B7300234B733C
:104810008C4B1B681BB18B4B1B68012B3CD1930746
:104820001B0D0B61894B1A790B6943EA82030B61FB
:10483000864B9B681A0E0B6943EA92130B61C2F315
:10484000C2030B7502F007034B75804B9B68C3F3E3
:10485000074253098B75C2F38203CB7593075B0F35
:104860000B767A4B1B89C3F307220B7E43EAD213E4
:104870000B760B695B1C4B640C7E4B6CA41C0125F6
:10488000A5406B434B640C7A0123A3408B64D1E9B0
:10489000113463434B6421E06A4B1B68022B1DD12A
:1048A0006A4B1A7993069B0A0B61684B9B681A0E38
:1048B0000B6943EA02230B61644B9B68C3F3074215
:1048C0000B6913430B61614B1B89C3F307220B690F
:1048D0005B1CDB044B644FF400738B64C2F38013E6
:1048E00001F8193F93065B0E4B70584B1A7A4B78C0
:1048F00043EAD2134B7002F07F038B70534BDB689B
:104900001A0ED309CB70C2F341130B71C2F38203A9
:104910004B7193071B0F8B714C4BDB68C3F3074242
:104920008B7943EA92138B71C2F34013CB7100234E
:104930000B7202F001034B72444B9B89C3F30722B5
:10494000D3098B72C2F38013CB72C2F340130B7383
:10495000C2F300134B73C2F381038B7302F00303A2
:10496000CB733A4B1A7B53080B7401234B74384BAF
:104970001B681A0ECA741939354B1B68C3F30742FA
:104980001402CC85324B1B88C3F30722CB8D134313
:10499000CB852F4B1A7814060C635B681A0E0B6BD1
:1049A00043EA02440C632A4B5B68C3F307420B6B78
:1049B00043EA02240C63264B9B88C3F307220B6B4C
:1049C00013430B63224B1A7934235A54204B9B68B0
:1049D0001A0E35235A541E4B9B68C3F30742140624
:1049E0008C631B4B1B89C3F307228B6B43EA024486
:1049F0008C63174B1A7A8B6B43EA02248C63144B3B
:104A0000DB681A0E8B6B13438B63114BDB68C3F3AC
:104A100007423C235B5C43EA12143C235C541307BB
:104A20001C0DCC870A4B9B89C3F30722CB8F134302
:104A3000CB87074B1A7B540840235C540124412345
:104A40005C5430BD3400002038000020F80B0020FA
:104A5000080C00200448006800F4405008B1012010
:104A600070470020FCE70000342C014010B52A24D8
:104A7000FFF736FEFFF756FD00F0BCF804462A2C7F
:104A800001D0204610BD00F015F804462A2C01D0B4
:104A90002046F7E7012006490875002008604860B5
:104AA0008860C86008610846FFF78EFD2046E9E788
:104AB000180C002038B52A2401200090FFF75CFD77
:104AC00010B92524204638BD45480068042829D05F
:104AD00000204449086002204860C020886000200F
:104AE000C8604FF4806008610846FFF78BFDFDF752
:104AF000E9F804462A2C01D02046E4E70020FFF71D
:104B000043FD394908600420FFF73EFD36494860FF
:104B10000820FFF739FD344988600C20FFF734FD89
:104B20003149C8602E48006858B12D4800680128F6
:104B300007D02B480068062803D0294800680228BF
:104B400017D1002027490860032048604020886072
:104B50000020C8604FF4806008610846FFF752FDEE
:104B600069460320FDF7F0F804462A2C01D02046C0
:104B7000A9E71B48006804282FD0BDF800001B4996
:104B80000860BDF80000000416490860092048606C
:104B9000C02088600020C8604FF48060086108462B
:104BA000FFF730FDFDF78EF804462A2C01D0204691
:104BB00089E70020FFF7E8FC0D4908600420FFF7B3
:104BC000E3FC0B4948600820FFF7DEFC08498860D9
:104BD0000C20FFF7D9FC0649C8602A24204672E75A
:104BE00034000020300C0020080C00203800002089
:104BF000F80B00202DE9F0412A240026002500278B
:104C00004FF00008FF205B490875002008604860ED
:104C10008860C86008610846FFF7D6FC0320FFF7EC
:104C200007FD0120FFF758FC002053490860486049
:104C30008860C8604FF4806008610846FFF7E2FCB6
:104C4000FCF790FF04462A2C02D02046BDE8F081F4
:104C50004FF4D570484908600820486040208860BB
:104C60000020C8604FF4806008610846FFF7CAFC66
:104C7000FDF7B8F804462A2C05D101203F49086009
:104C80004FF0804812E000203B4908603720486020
:104C9000402088600020C8604FF4806008610846AA
:104CA000FFF7B0FC3720FCF773FF044600203249C1
:104CB000086037204860402088600020C8604FF4BA
:104CC000806008610846FFF79DFC3720FCF760FF15
:104CD00004462A2C4CD138E00020274908603720B0
:104CE0004860402088600020C8604FF48060086100
:104CF0000846FFF787FC3720FCF74AFF04462A2CBA
:104D000001D02046A2E71E4848EA00001A49086080
:104D100029204860402088600020C8604FF48060EF
:104D200008610846FFF76EFCFCF7F2FF04462A2CE8
:104D300001D020468AE70020FFF726FC0646012026
:104D400080EAD67080F001076D1C1FB94FF6FF7026
:104D50008542C1D34FF6FF70854202D31B24204603
:104D600074E706F08040061E02D002200349086066
:104D700020466BE7180C0020300C00203400002087
:104D80000000108070B500240025884800680128C4
:104D900067D1C003FFF7E4FBA8B100BF06E0FFF74F
:104DA0002BFC8349096841F82400641C082CF6D3C5
:104DB0007F48006820307E4908607E4800682030C7
:104DC0007C4908604DE04FF48040FFF7C9FB0028A4
:104DD00047D07948006877490968401A20282BD2C3
:104DE0007548007873490968401A00F0030030B92B
:104DF000714800686F490968401A800806E06E48EB
:104E000000686C490968401A8008401C0546002467
:104E10000FE06A4909680868FFF710FC641C6748DE
:104E20000068001D6549086062480068001D61490E
:104E30000860AC42EDD314E0002406E05F49096845
:104E400051F82400FFF7FAFB641C082CF6D35B48EA
:104E5000006820305949086056480068203055499C
:104E600008604FF48070FFF77BFBD8B34F480068B1
:104E7000D0B10EE0FFF7C0FB4D49096808604C480F
:104E80000068001D4A4908604A480068001D4949F9
:104E900008604FF40010FFF757FB28B14548006841
:104EA000454909688842E5D345480068012804D18E
:104EB00000F06AFB4349087002E02A20414908706B
:104EC0004FF48070FFF702FB00214CF23A30FFF7FD
:104ED0006BFB01203C4908600020364908603948D6
:104EE000007870BDFFE70220FFF73AFB70B10220A7
:104EF000FFF7ECFA00214CF23A30FFF755FB0020A7
:104F00002C49086002202F490870EAE70820FFF7C3
:104F100027FB70B10820FFF7D9FA00214CF23A3094
:104F2000FFF742FB00202349086004202549087050
:104F3000D7E72020FFF714FB70B12020FFF7C6FA57
:104F400000214CF23A30FFF72FFB0020194908608E
:104F500006201C490870C4E71020FFF701FB70B160
:104F60001020FFF7B3FA00214CF23A30FFF71CFB98
:104F7000002010490860052012490870B1E74FF47D
:104F80000070FFF7EDFA78B14FF40070FFF79EFA6A
:104F900000214CF23A30FFF707FB0020054908607A
:104FA0000720084908709CE72A209AE73C00002067
:104FB0004C00002058000020400000204800002045
:104FC0004400002050000020540000202DE9F0474C
:104FD00007460D4614464FF02A084FF000092E46AA
:104FE0004FF0000A25B94FF026084046BDE8F0878B
:104FF0002A20864908700020854908608549086094
:10500000401E85490860002048608860C8600861CB
:1050100048610846FFF76CFA0020FFF763FA0020AA
:10502000FFF7B2FA00F0007018B14FF00E084046DA
:10503000DCE77A480068022801D104027F0A002CCC
:1050400021DDB4F5006F1EDC601E2040D8B920467B
:1050500002F09AFC82467248046010207049486051
:10506000402088600020C8604FF4806008610846D6
:10507000FFF7C8FA1020FCF78BFD8046B8F12A0F25
:1050800005D04046B2E74FF026084046AEE74FF065
:10509000FF3061490860084644604FEA0A108860A2
:1050A0000220C86000200861012048610846FFF71F
:1050B0001FFA5848046000205A4908605A480560A1
:1050C00057480760112056494860402088600020FA
:1050D000C8604FF4806008610846FFF793FA11201A
:1050E000FCF756FD8046B8F12A0F01D040467DE717
:1050F0004E480068022857D111E04FF40040FFF7F6
:1051000023FA60B14FF0000905E0FFF775FA46F8A1
:10511000290009F10109B9F1080FF6D320364448F6
:10512000006840F22A6108400028E6D00820FFF716
:105130000BFA30B10820FFF7C3F94FF004084046DE
:1051400054E70220FFF700FA30B10220FFF7B8F968
:105150004FF00208404649E72020FFF7F5F930B14B
:105160002020FFF7ADF94FF0060840463EE74FF428
:105170000070FFF7E9F938B14FF40070FFF7A0F9BC
:105180004FF00708404631E703E0FFF735FA30609B
:10519000361D4FF40010FFF7D7F90028F5D140F283
:1051A000FF50FFF78DF92EE020480068012813D149
:1051B000012148F22A30FFF7F7F900BF14480068D0
:1051C00018B9124800782A28F8D0104800782A2800
:1051D00019D00E48007809E71448006898B90121F1
:1051E00040F22A30FFF7E0F90120FFF77BF9214672
:1051F0002846FCF795FF00BF4FF0C0510D48FCF763
:1052000041FF0028F8D04046F0E6000050000020A2
:105210005400002040000020440C002034000020F6
:10522000300C0020440000204C0000203C000020F6
:10523000342C0140586402402DE9F05F81460E464F
:1052400014461D464FF02A084FF0000A37464FF02B
:10525000000B26B94FF026084046BDE8F09F2A20F3
:10526000AA4908700020AA490860AA490860401E9F
:10527000A9490860002048608860C86008614861EA
:105280000846FFF735F90020FFF72CF90020FFF75B
:105290007BF900F0007018B14FF00E084046DCE7D3
:1052A0009E480068022802D104024FEA5929002CC6
:1052B00021DDB4F5006F1EDC601E2040D8B9204609
:1052C00002F062FB834696480460102094494860CF
:1052D000402088600020C8604FF480600861084664
:1052E000FFF790F91020FCF753FC8046B8F12A0F25
:1052F00005D04046B1E74FF026084046ADE7012D06
:1053000071D905FB04F0B0F1007F03D34FF02608FC
:105310004046A2E705FB04F07E4908600120814970
:105320000860814806604FF0FF307B49086005FB4C
:1053300004F048604FEA0B1088600220C86000202B
:105340000861012048610846FFF7D2F87448C0F8A8
:105350000090122072494860402088600020C86098
:105360004FF4806008610846FFF74CF91220FCF703
:105370000FFC8046B8F12A0F01D040466DE76B481C
:10538000006802287BD111E04FF40040FFF7DCF801
:1053900060B14FF0000A05E0FFF72EF947F82A0048
:1053A0000AF1010ABAF1080FF6D320376048006805
:1053B00040F22A3108400028E6D00820FFF7C4F860
:1053C00030B10820FFF77CF84FF00408404644E76E
:1053D0000220FFF7B9F838B10220FFF771F84FF05B
:1053E0000208404639E78FE02020FFF7ADF830B1E2
:1053F0002020FFF765F84FF0060840462DE74FF4F0
:105400000070FFF7A1F838B14FF40070FFF758F8BB
:105410004FF00708404620E703E0FFF7EDF838605B
:105420003F1D4FF40010FFF78FF80028F5D14FF41F
:105430008070FFF789F818B33848006838B13748EA
:105440000068022803D035480068012818D10020E0
:10545000334908600C204860402088600020C86004
:105460004FF4806008610846FFF7CCF80C20FCF789
:105470008FFB8046B8F12A0F02D04046EDE604E0EB
:1054800040F2FF50FFF71CF83EE028480068012872
:1054900013D1012148F22A30FFF786F800BF1C48DB
:1054A000006818B9194800782A28F8D017480078F9
:1054B0002A2829D015480078CFE61C48006818BB78
:1054C000012140F22A30FFF76FF80120FFF70AF8B8
:1054D00005FB04F13046FCF723FE00BF4FF0C0513E
:1054E0001448FCF7CFFD0028F8D000BF084800683A
:1054F00018B9064800782A28F8D0044800782A28E5
:1055000002D002480078A8E64046A6E650000020F7
:105510005400002040000020440C002034000020F3
:10552000300C0020440000204C0000203C000020F3
:10553000342C01405864024070B504462A250A48BC
:105540000460072008494860402088600020C86047
:105550004FF4806008610846FFF754F80720FCF715
:1055600017FB0546284670BD300C002001462A2056
:1055700019B1012901D0022902D1024A116000E0CB
:10558000262070473C00002010B52A2400200A493C
:1055900008600C204860402088600020C8604FF4FC
:1055A000806008610846FFF72DF80C20FCF7F0FA40
:1055B0000446204610BD0000300C00202DE9F05FAD
:1055C0000746884691464FF02A0A00240025A34644
:1055D00046462A20714908700020714908607149C7
:1055E00008607149086071480068022802D14FF4D0
:1055F00000797F0A6E48076018206D494860402096
:1056000088600020C8604FF4806008610846FEF79B
:10561000F9FF1820FCF7BCFA8246BAF12A0F02D033
:105620005046BDE8F09F4FF0FF30624908600846E1
:10563000C0F80490902088600020C86008610120B4
:1056400048610846FEF754FF5B480068022862D1B3
:105650002BE04FF48040FEF777FF30B3C4F50070C5
:10566000202817D2604200F0030018B9C4F500707A
:10567000800803E0C4F500708008401C83460025C4
:1056800005E03068FEF7DAFF6D1C361D241D5D4510
:105690000BD2F6E7002504E056F82500FEF7CEFF12
:1056A0006D1C082DF8D3203620343F4808300068A0
:1056B00040F21A6108400028CBD00820FEF744FFD2
:1056C00030B10820FEF7FCFE4FF0040A5046A8E770
:1056D0000220FEF739FF30B10220FEF7F1FE4FF055
:1056E000020A50469DE71020FEF72EFF30B1102031
:1056F000FEF7E6FE4FF0050A504692E74FF40070C1
:10570000FEF722FFF0B34FF40070FEF7D9FE4FF022
:10571000070A504685E728480068012813D101216F
:1057200044F21A30FEF740FF00BF1D48006818B968
:105730001A4800782A28F8D0184800782A282AD051
:10574000164800786DE71C480068D8B9012140F27E
:105750001A30FEF729FF0120FEF7C4FE49464046F5
:10576000FCF724FD00BF4FF0C0511448FCF78AFC41
:105770000028F8D000BF0A48006828B90748007818
:105780002A2800E007E0F6D0044800782A2802D052
:105790000248007845E7504643E7000050000020EB
:1057A00054000020440000202C2C01403400002034
:1057B000300C0020440C00203C00002058640240C3
:1057C0002DE9FE4F8346884614461E462A250020B2
:1057D00002900190002781460090C246B8F1000F68
:1057E00003D126252846BDE8FE8F2A20E849087007
:1057F0000020E8490860E8490860401EE749086061
:10580000002048608860C860086148610846FEF76B
:105810006FFE0020FEF766FE0020FEF7B5FE00F0EA
:10582000007010B10E252846DDE7DD48006802282B
:1058300002D104024FEA5B2B002C20DDB4F5006F8F
:105840001DDC601E2040D0B9204602F09DF8029079
:10585000D44804601020D34948604020886000206C
:10586000C8604FF4806008610846FEF7CBFE102048
:10587000FCF78EF905462A2D04D02846B3E72625E5
:105880002846B0E7C84800880004C64908600D20D3
:105890004860402088600020C8604FF48060086144
:1058A0000846FEF7AFFE0D20FCF772F905462A2DDB
:1058B00001D0284697E7012E7BD906FB04F0B0F112
:1058C000007F02D3262528468DE7B548006838B109
:1058D000B3480068012803D0B148006802282FD1DE
:1058E000B14800880004AF49086037204860402074
:1058F00088600020C8604FF4806008610846FEF7A9
:1059000081FE3720FCF744F905462A2D01D02846B0
:1059100069E7A44806601720A249486040208860D3
:105920000020C8604FF4806008610846FEF76AFEF8
:105930001720FCF72DF905462A2D01D0284652E7FD
:105940009848C0F800B01920964948604020886007
:105950000020C8604FF4806008610846FEF752FEE0
:105960001920FCF715F905462A2D01D028463AE7FB
:1059700006FB04F08849086001208C4908608C48C7
:10598000C0F800804FF0FF308449086006FB04F047
:1059900048600298000188600020C860086101200A
:1059A00048610846FEF7A4FD8248006802287DD1C0
:1059B0003AE0D3E04FF48040FEF7C6FDA0B376484E
:1059C0000068C01B20280FD34FF0000905E05AF8EB
:1059D0002900FEF733FE09F10109B9F1080FF6D3EA
:1059E0000AF1200A20371FE06B480078C01B00F046
:1059F000030020B968480068C01B800804E06648BE
:105A00000068C01B8008401C00904FF0000908E0AF
:105A1000DAF80000FEF712FE09F101090AF1040AA2
:105A20003F1D00988145F3D36348006840F21A3166
:105A300008400028BED00820FEF786FD28B10820C7
:105A4000FEF73EFD04252846CDE60220FEF77CFD4C
:105A500028B10220FEF734FD02252846C3E61020B7
:105A6000FEF772FD28B11020FEF72AFD0525284615
:105A7000B9E64FF40070FEF767FD30B14FF40070E7
:105A8000FEF71EFD07252846ADE64FF48070FEF7B1
:105A90005BFD002862D04248006848B14048006879
:105AA000012805D03E480068022800E017E055D1E3
:105AB00000203C4908600C2048604020886000209D
:105AC000C8604FF4806008610846FEF79BFD0C201B
:105AD000FCF75EF805462A2D40D0284683E6354877
:105AE0000068012813D1012144F21A30FEF75CFD51
:105AF00000BF2848006818B9254800782A28F8D03F
:105B0000234800782A2829D0214800786BE62948C4
:105B1000006818BB012140F21A30FEF745FD012054
:105B2000FEF7E0FC06FB04F14046FCF73FFB00BF3C
:105B30004FF0C0512148FCF7A5FA0028F8D000BF6B
:105B40001448006818B9124800782A28F8D010487C
:105B500000782A2802D00E48007844E640F2FF5030
:105B6000FEF7AEFC01A8FDF77DFC054603E001A8A9
:105B7000FDF778FC05462A2D07D19DF8040007287B
:105B8000F5D09DF804000628F1D028462BE6000049
:105B9000500000205400002040000020440C002051
:105BA00034000020300C0020380000204400002089
:105BB000480000203C000020342C01405864024082
:105BC0002DE9FF4F83B00F4606994FF0FF3804468A
:105BD000C1F800800068914680688068B84203D2AE
:105BE000092007B0BDE8F08F6FF00041894504D06F
:105BF00094F82610491E29EA01094FF0000BCDF850
:105C000004B060680425DA4640885E46B8422FD268
:105C1000208AB04219D9616906EB460205EB82027F
:105C2000895AB9420FD1616906EB4600062202EBA0
:105C300080028A5A0192082202EB80004FF0010A8A
:105C4000085C009014E0761CE3E704F10800FDF71F
:105C500053FB0646616900EB460005EB80028F525C
:105C600000230921626901EB80004FF0010B1354FE
:105C700000200546029095E0BAF1000F0CD006EB2B
:105C800046000922616902EB80028A5CAA4249D17E
:105C90004FF0000A4FF0010B94F82800228C07FA0D
:105CA00000F041190A232046FBF71EFE002898D178
:105CB000217FA06C08446946FDF728FBBBF1000F6B
:105CC0002CD06FF00041884228D094F829106369E5
:105CD00020FA01F206EB46014FF0060C0CEB810CAA
:105CE00023F80C200823D4F814C003EB8103009A96
:105CF0000CF8032094F8293001229A40521E94F89F
:105D000027300240DA40636953F821305A5509239D
:105D1000626903EB8103D15C491CD15455EA0A0145
:105D20000CD024E051F8200094F8271094F8292092
:105D3000405D8840019991400844EFE7A17FA26C43
:105D4000515CFF2901D006204BE76FF000418945E7
:105D50000DD088420BD094F8291029FA01F320FACB
:105D600001F18B4203D0617F515CFF2907D0069976
:105D700081450D600DD10098C00706D101E00720D4
:105D80002FE76FF00040814501D1002029E7A846A8
:105D900007E06FF00041884203D1B8F1FF3F0AD11C
:105DA00016E06D1C206880688089A8423FF664AFC9
:105DB000B8F1FF3F03D00698C0F80080E5E70298ED
:105DC00030B9206880688089A84201D10B2008E79B
:105DD0000A2006E72DE9FE430446406800251F46D9
:105DE0000088904689462E46019060680199408857
:105DF00088420CD394F82800228C81400A23204644
:105E0000FBF772FD050009D00126052D21D04FF6C4
:105E1000FF703860A6B32846BDE8FE83A17FA06C62
:105E20000026415CFF2928D1217F084402A9FDF703
:105E30006DFA6FF0004188421FD0029A90451CD144
:105E400094F82910C840484517D1019838600020BF
:105E5000E2E7A17FA06C405CFF280ED101200090FA
:105E60002068002301A9806882892046FEF72DFA68
:105E7000050002D16068008801900198401CB3E7DA
:105E8000FFE70A20C8E72DE9FC410446B0F84000CE
:105E9000154688423ED994F82720CB0923FA02F010
:105EA000626C52F8200020F07F466FF07F408642FF
:105EB00005D10012286068600020BDE8FC8194F8DC
:105EC0002620A08C521E1A40424301F07F0002EBB4
:105ED00080020027042331462046FBF705FD10B160
:105EE0000528EAD10127A16C002F09882960A16C3F
:105EF00049886960E1D094F828000023C640012059
:105F0000CDE90006206801A9806882892046FEF755
:105F1000DCF9D2E70920D0E72DE9FF5F04464068AD
:105F200040F2062B4FF4007A476800202082A068D8
:105F3000C088450A694200EB4128A0EB0809002609
:105F4000AEE00098C0F3C201012088400099C0B2C1
:105F5000490759D4A16800EB4010CA88B2EB001F72
:105F60003ED1009800F00300022804D00098C043FE
:105F7000800715D034E0BDF80400B0F5017F2FD3C1
:105F8000BDF80C0058452BD3B8FBF5F2BDF808302E
:105F900002F500721844824222D34FF480701DE053
:105FA000BDF8040050451BD1BDF80600042817D3E6
:105FB000BDF80C00584513D3BDF808200244BDF8C5
:105FC0000E0082420CD8B8FBF5F2BDF80A3002F59B
:105FD00000721844824203D34FF44070208201E0E3
:105FE000208AE8B30968B8FBF5F0A1F804A0A1681D
:105FF00000F500700968C880B8FBF5F0A16800F5ED
:106000000070096808813FE0012833D100982949D0
:10601000C0F3831031F81020A068C1888A4229D1CA
:10602000009A02F00302022A24D1B8FBF5F202EB37
:10603000420309EB4302BDF804309A421AD8B8FB78
:10604000F5F202EB4203BDF80C2009EB4303934247
:1060500010D8BDF808301A448A420BD8009900E0E5
:106060001DE0B5EB116F05D84FF4807121820068F7
:106070000621C180208A90B1A1680968A1F8049026
:10608000A1680968A1F808A0208AF1B2084320821B
:106090000004000C03D0012004B0BDE8F09F761C82
:1060A0007A6C69463046904700283FF44AAF00209A
:1060B000F2E7000080FB0008024612B16FF0040016
:1060C0007047034800EB0210406801700020F7E7BA
:1060D0007CFA00082DE9F0411C4615460F4606469D
:1060E00004E0B26AE9B2384690472D0A641EF8D23D
:1060F000BDE8F081024612B16FF00400704703481A
:1061000000EB0210806801700020F7E77CFA0008BD
:106110002DE9F0410F460446164640684FF40071E1
:10612000FAF70AFC154D6068294608F087FD60689B
:106130002169001D08F082FD207E022804D0042879
:1061400004D00020BDE8F0810D4900E00D496068F1
:10615000083008F073FD606839460C3008F06EFDB9
:1061600060683146103008F069FD6068294600F526
:10617000FE7008F063FD0120E4E700004A53464B3F
:10618000544F4F46444E45542DE9F04F4568044660
:1061900085B02889984616460F46800405D569685B
:1061A000A068CA69407901219047287A4FF0000B16
:1061B000400722D46068B246B9464668A0684746A0
:1061C000726A4079EF218046904701234A46414652
:1061D0003046FFF77FFFD6F830C04FF480333A46A1
:1061E00051464046E047B84205D0A0684179304664
:1061F00000F0F8FB60B35E461DE060683B46EF22AE
:1062000047680120E06004F10C000DF1040ADC464F
:1062100004908AE84011CDF800B0A0687E6B4FF082
:106220008371D9464079B047A0684179384600F07B
:10623000D9FB68B14E462889800405D56968A068F5
:10624000CA6940790021904705B03046BDE8F08F1B
:106250000426F0E7012909D020F000401070010A5F
:106260005170010C9170000ED070704740F00040EA
:10627000F4E700000CB5002001900090344800685D
:1062800040F480303249086000BF3148006800F4B3
:10629000003000900198401C0190009818B90198B6
:1062A000B0F5A06FF1D12A48006800F4003010B1B9
:1062B0000120009001E0002000900098012846D1C4
:1062C00023484030006840F0805021494031086048
:1062D0002048006840F480401E4908601C4808308F
:1062E00000681B49083108600846006840F4004017
:1062F00008600846006840F4A05008601648091F6E
:106300000860081F006840F08070091F086000BF27
:106310000F48006800F000700028F9D040F20560D6
:106320000E4908600A480830006820F00300084958
:10633000083108600846006840F00200086000BFAD
:1063400003480830006800F00C000828F8D10CBDA4
:106350000038024000700040195E4007003C0240D7
:10636000042808D14FF0E021096941F004014FF001
:10637000E022116107E04FF0E021096921F00401FA
:106380004FF0E0221161704710B56FF00400FFF785
:10639000E7FF1520074908700846007800EB400128
:1063A000C1EBC0104FF6FF7101EAC000024908803E
:1063B00010BD00005C0000205E00002010B51548F4
:1063C000006840F47000134908601348006840F00A
:1063D00001001149086000200F49083108600E488B
:1063E00000680E4908400C4908600D48091D086006
:1063F000081F006820F48020091F0860002006495B
:106400000C310860FFF736FF4FF00060014980391A
:10641000086010BD88ED00E000380240FFFFF6FE86
:106420001030002400B587B001210846FDF776FC46
:1064300001211020FDF792FC072209212848FCF7D2
:10644000D7FC07220A212648FCF7D2FC02208DF84F
:10645000040003208DF8050000208DF806000120BF
:106460008DF807004002009069461D48FCF778FC53
:106470004FF48060009069461948FCF771FC4FF4B6
:10648000E13003900020ADF81000ADF81200ADF837
:106490001400ADF818000C20ADF8160003A911483F
:1064A00000F060F84FF4A060FDF7A6FB25208DF802
:1064B000080000208DF809008DF80A0001208DF8F1
:1064C0000B0002A8FDF75CFB0121064800F00CF868
:1064D000012240F22551034800F01FF807B000BD2B
:1064E000000002400010014021B1828942F40052B4
:1064F000828104E082894DF6FF731A4082817047E1
:1065000002460020B1F5007F00D100BF13880B4088
:106510000BB1012000E000207047F0B503460024D5
:1065200000260025002040F66A17B94200D100BFBE
:106530001846C1F3421401F01F06012707FA06F5B9
:10654000012C01D10C3004E0022C01D1103000E00C
:1065500014301AB107682F43076002E00768AF43A1
:106560000760F0BD2DE9FF4705460E460024A14611
:1065700000BFA046B08900B100BF2C8A24F440546B
:10658000F08804432C82AC8941F20C608443B088CB
:1065900031890843718908430443AC81AC8A24F4EF
:1065A0004074B0890443AC826846FDF7F7FB20488D
:1065B000854202D01F48854202D1DDF80C9001E0EF
:1065C000DDF80890A88900F4004040B109EBC9004B
:1065D00000EB091031684900B0FBF1F707E009EB67
:1065E000C90000EB091031688900B0FBF1F76420A5
:1065F000B7FBF0F004012009642101FB1078A889A1
:1066000000F4004040B1322000EBC800B0FBF1F0D4
:1066100000F00700044308E0322000EB081064217A
:10662000B0FBF1F000F00F0004432C81BDE8FF87C0
:106630000010014000140140C1F30802828070473D
:106640000020704710B501464068027B4468521E26
:1066500012F0FF02027311D14968002089680A070D
:1066600000D50120890601D540F0080008B1616914
:106670008847216900208847E0688047002010BDD6
:106680002DE9FF4F89B004460A98C50994F82900FE
:1066900025FA00FB94F82600401E00EA0501854318
:1066A0000020CDE9060100BF276894F828206FF08C
:1066B0007F40BF680BFA02F1B4F84220BF8953183B
:1066C0000646BA4200D97B18B046676C19E000BF95
:1066D00057F821204FEA126C22F07F42BCF1010FE3
:1066E00003D0BCF1000F06D00AE0464501D0964227
:1066F00006D2164604E0404501D0904200D2104632
:10670000491C9942E4D394F827204FF0000A25FA57
:1067100002F957F82910090EFF290FD04FF0FF3169
:106720000391404549D10023012202A92046FBF7ED
:1067300097F800287ED1039002982EE04FF0FF31A9
:106740004FF0010A0391464515D194F8290001AB99
:1067500025FA00F101222046FFF73CFB88B10A2808
:1067600068D10023012201A92046FBF779F800280F
:1067700060D1039010E094F8280026FA00F0019010
:1067800001E0039840B103AB6FF00042204601994D
:10679000FFF716FA00284DD101980490616C51F86A
:1067A000290020F07F4720684745806810D1C188C4
:1067B000FF22A06CFAF7B8F822E094F8281020FA2B
:1067C00001F1029194F828209140401A401CB2E750
:1067D000C388002239462046FBF786F880B1052899
:1067E0006CD194F828000023C74001200497009042
:1067F000206804A9806882892046FDF766FD55E07F
:10680000A08C079948430A9901F07F0100EB8100B1
:106810000B9941B1A26C097811540B99A36C0988AA
:106820000A0A411C5A540C9959B1A36C821C09786C
:10683000995400E042E00C99A26C0988090AC01C36
:1068400011540027B4F820800BE0217FA06C014494
:1068500001EB0802E8195146FFF7FCFC618C7F1C34
:10686000884494F82600B842EFD894F82810049889
:1068700088400399471839462046FBF793F80100F2
:106880002FD00E2902D00020628A26E0012000903D
:10689000049E002304A92046039AFDF716FD002854
:1068A0000CD1002231462046FCF760FF002805D1BC
:1068B0000699491C06910529FFF4F6AE0DB0BDE816
:1068C000F08FA36953F83030BB4205D1A3694FF074
:1068D000FF3243F8302002E0401C8242F1D80846E3
:1068E000ECE7626C47EA0A61BAF1000F42F829103E
:1068F0003FD12068039980688089401E884238D142
:106900006FF07F4086420DD194F8290001AB25FA43
:1069100000F101222046FFF75DFA38B10A28CDD1F7
:106920000220CBE794F82800C640019600230122FC
:1069300005A92046FAF794FF0028BFD105980090DA
:1069400094F82900002325FA00F101AA2046FCF75B
:1069500085FA10B10E28E9D0B0E701A92046FBF76F
:10696000D9FD0028AAD102A92046FBF7D3FD0028B3
:10697000A4D10020A2E700BFFEE7F8B5044600203E
:1069800000900F4646F2A81004F016FF064604F0E9
:1069900010FF0546626A7021384690470023D4F8FC
:1069A0002CC0012269463846E0470098400614D4BE
:1069B00004F0FFFE401BB042ECD3009840060CD41C
:1069C000626A702138469047E46A002301226946D2
:1069D0003846A0470098400601D50120F8BD0020A8
:1069E000F8BD00002DE9F04104460F460D4804F0C3
:1069F000E3FE064604F0DDFE0546216C3846884776
:106A0000C00704D004F0D5FE401BB042F5D3216C82
:106A100038468847C00702D00020BDE8F081012039
:106A2000FBE7000040420F00F0B504460D461F464C
:106A300014B16FF00400F0BD15B96FF00400FAE76F
:106A40000D4800EB041003680B4800EB0410067BB4
:106A500046B1002103E035F811001880491C91422D
:106A6000F9D306E0002102E0685C1870491C9142ED
:106A7000FAD31046DFE700007CFA00082DE9F8435E
:106A800044680646089D20891F4690468946800432
:106A900005D56168B068CA69407901219047B0683E
:106AA000007900B16D08207A3B46400742464946CE
:106AB0003046009503D400F005F8BDE8F88300F0F7
:106AC00039F8FAE72DE9F0470446406891468846D0
:106AD0004568A0689A466A6A4679089F80213046D0
:106AE0009047A0684A463146837C2846FFF7F2FA71
:106AF000A06842463146437C2846FFF7EBFA208ADD
:106B0000D5F830C040F480333A4651463046E0472D
:106B1000B84205D0A06841792846FFF763FF30B13D
:106B20006A6A1021304690470020BDE8F0870420B3
:106B3000FBE700002DE9F04304464068A66885B0F5
:106B40004568B77C9146DDF830C016484FF4845252
:106B5000012F00D91448777C022F02D940F4C000DD
:106B600003E0012F01D940F400100127E7608DE810
:106B70000A1004F10C0804F11307CDE90378218A07
:106B80004B46014370796E6BB047A0684179284647
:106B9000FFF728FF18B1002005B0BDE8F0830420FE
:106BA000FAE700000000160300001E0302466FF023
:106BB000030070472DE9F041C10313D520F480355F
:106BC000164F05EBC50657F82600446814B1204659
:106BD00004F00DFE284602F0E1FC07EB86010020E0
:106BE000088210E0810316D520F400350C49C5EB6E
:106BF000C50051F82000446814B1204604F0F7FDA8
:106C0000284602F0BAF8002514B1204604F0FAFD37
:106C10002846BDE8F0810025FAE70000281800208A
:106C2000B818002070B5C1030FD520F48035144981
:106C300005EBC50051F82000446814B1204604F06B
:106C4000D6FD284602F044FE10E0810315D520F45D
:106C500000350C49C5EBC50051F82000446814B15B
:106C6000204604F0C4FD284602F08BF8054614B116
:106C7000204604F0C7FD284670BD4FF0FF35FAE707
:106C800028180020B81800202DE9F3410F46694666
:106C9000009804F043FD4FF0FF36002801DA354636
:106CA00030E01B4901EBC005E879400728684468DB
:106CB0000FD514B1204604F09AFD286803F084F83B
:106CC00005463A46009903F033FAB0B945F48035E9
:106CD00014E014B1204604F08AFD286802F056F84A
:106CE00005463A46009902F058F870B1094AC5EBDA
:106CF000C50102EB810100208881354614B1204690
:106D000004F080FD2846BDE8FC8145F40035F5E738
:106D100048FB0008B81800202DE9F04116465FEA4C
:106D200001084FF0000542F0004431D0C10311D5F5
:106D300020F48037184907EBC70051F82000456858
:106D400015B1284604F053FD32464146384603F05B
:106D5000D3FA12E0810317D520F400370F49C7EBAF
:106D6000C70051F82000456815B1284604F03FFDE2
:106D700032464146384602F012F8002801DA04464D
:106D800002E001D0A6EB000415B1284604F03AFD5C
:106D90002046BDE8F081000028180020B818002027
:106DA0002DE9F0410E46C1034FF0FF3510D520F418
:106DB0008037154907EBC70051F82000446814B12B
:106DC000204604F014FD3146384603F019FB11E06B
:106DD000810315D520F400370C49C7EBC70051F8E3
:106DE0002000446814B1204604F001FD31463846C5
:106DF00001F0D7FF00B9002514B1204604F002FDD0
:106E00002846BDE8F081000028180020B8180020AE
:106E10002DE9F04190460E004FF0FF342DD0C10314
:106E200012D520F48034164904EBC40051F8200038
:106E3000456815B1284604F0DAFC42463146204642
:106E400003F02AFC044614E0810316D520F4003731
:106E50000C49C7EBC70051F82000456815B128461A
:106E600004F0C5FC42463146384601F09CFF00B9AB
:106E7000002415B1284604F0C5FC2046BDE8F08189
:106E800028180020B8180020074810B5007848B12D
:106E900007F0C8FE30B1054900EB400001EB40109F
:106EA000603810BD024810BD810000200815002088
:106EB000E0DA002073B50E466946009804F02EFC17
:106EC000002802DA4042C4B21EE0104901EBC004BF
:106ED000E07940072068456809D515B1284604F0D7
:106EE00086FC31462268009802F000FC07E015B1EC
:106EF000284604F07CFC2168009801F040FF04461D
:106F000015B1284604F07EFC20467CBD48FB0008F5
:106F100010B5002A06DA22F00042D21D22F0070343
:106F2000102203E0D21C22F003030C2213B19C18A0
:106F30008C4201D9012010BD024401448360C0E9A4
:106F40000021C91AD018884202D810600246F9E719
:106F50000020106010BD000005490978002905D007
:106F600000684FF6FF71DFF80CC000DF70470000CB
:106F7000810000209DE40008084A10B5116903460D
:106F8000082900D3FEE7064800EB0110491C1860F1
:106F9000116107F00FFA012010BD00006000002011
:106FA000A817002004490978002903D00068DFF8F9
:106FB0000CC000DF7047000081000020C5E300081E
:106FC00010B504466FF40040204420B1012804D0DD
:106FD000022806D103E0002010BD0020FCE70020BD
:106FE000FAE72046FFF7E6FDF6E710B504466FF432
:106FF0000040204420B1012804D0022806D103E03B
:10700000002010BD0020FCE70020FAE72046FFF733
:1070100009FEF6E701466FF40040084420B101285C
:1070200004D0022806D103E0012070470120FCE7CC
:107030000120FAE70020F8E770B504460D4614B9C0
:107040004FF0FF3070BD20783A281AD10FA12046AA
:10705000F9F7BCFC10B948F20100F3E70DA1204696
:10706000F9F7B4FC10B948F20200EBE70BA1204697
:10707000F9F7ACFC10B948F20300E3E74FF0FF303A
:10708000E0E729462046FFF7FFFDDBE73A5354448B
:10709000494E00003A5354444F5554003A53544417
:1070A000455252002DE9F04104460E4615461F4652
:1070B0006FF40040204420B1012806D002280AD1F4
:1070C00006E045F00040BDE8F0814FF0FF30FAE700
:1070D0004FF0FF30F7E72A4631462046FFF71CFE07
:1070E000F1E770B504460D466FF40040204420B12E
:1070F000012805D0022809D105E04FF0FF3070BD0E
:107100004FF0FF30FBE74FF0FF30F8E7294620460D
:10711000FFF746FEF3E72DE9F04106460C4615461B
:1071200098466FF40040304420B1012806D0022870
:1071300011D10EE04FF0FF30BDE8F08105E014F80A
:10714000017B384607F014FE6D1E002DF7D100209C
:10715000F2E70020F0E72A4621463046FFF758FEC6
:10716000EAE700BE7047F8B506464FF0FF300090E2
:107170000C46CD6909E022466946284600F028F809
:10718000002809D0009840B16D1CE06C801CA8421A
:10719000F1D8009808B10020F8BD94F8360005F049
:1071A00047F901462246284600F060F80028F3D04F
:1071B000681CE06194F83600032806D1A069401EDF
:1071C000A061E06840F48070E06001203560F8BDA7
:1071D0002DE9F041884605460146144602F12C008F
:1071E00005F022FA06460146204600F0F1F9002893
:1071F00008D094F83600012806D0022824D00328AD
:1072000029D00020BDE8F08105EB4500C0F348001F
:10721000B0F5FF7F04D8616E084405F04DFA0CE02C
:10722000606E711C90F8FF71204600F0D1F90028C3
:10723000E8D0606E007847EA0020E90701D0000935
:107240000FE0C0F30B000CE0616E280601EBD0509C
:1072500005F032FA05E0616E680601EBD05005F0EA
:1072600033FAC8F800000120CCE700002DE9F04710
:107270000D4606460146144602F12C0005F0D4F9ED
:1072800081460146204600F0A3F900280BD094F86F
:10729000360029464FF00108012806D0022843D0C5
:1072A000032847D00020BDE8F08706EB4600C0F376
:1072B0004807C5F30B05B7F5FF7F12D8606E384459
:1072C00005F0FAF9F10702D065F31F1002E000F4AF
:1072D000704028430146606E00EB070007F0AAFCEF
:1072E0002EE0F007606E06D090F8FF1165F31F11D5
:1072F00080F8FF1101E080F8FF5184F8688009F1FF
:107300000101204600F064F90028CCD0F00703D03A
:10731000616E2809087013E0606E017801F0F001D9
:1073200041EA152101700BE0626E3006A9B202EB52
:10733000D050D3E7626E700602EBD05007F07EFCAF
:1073400084F868800120AEE710B50446816B06F032
:10735000CEFC002809D0606F00F5FF7005F0ACF995
:10736000A0F52A41553901D0002010BD606F417B46
:1073700084F837100B3005F09FF9A4F84A00606FCD
:107380000E3005F099F9E087606F017C84F85C109D
:10739000113005F091F9A4F84800606F133005F042
:1073A0008BF92064606F163005F086F9A087216C98
:1073B000D9B9A8B9606F283005F07EF92086606FD2
:1073C0002C3005F081F9E062606F303005F074F91F
:1073D0006086606F323005F06FF9A086206C20B9AE
:1073E000606F203005F070F92064A08F20B9606FC5
:1073F000243005F069F9A087012010BD2DE9F04186
:1074000004464FF40075DFF88881406F2946F9F78C
:1074100093FA616FE9200870616F00204870616F16
:10742000902088705BA1606F0A6840F8032F49685C
:107430004160606F29460B3007F0FCFB616F94F8E8
:1074400037004873616F94F83E008873616F0220C3
:10745000087494F83600032804D0606F2946113070
:1074600007F0E8FB216CB1F5803F05D2606F89B26F
:10747000133007F0DFFB03E0606F203007F0DEFB26
:10748000616FF8204875616F3F200876616FFF20BB
:107490008876606FA16B1C3007F0D0FB94F8360043
:1074A0008025292620270328A18F606F37D016302A
:1074B00007F0C0FB606F414680F82450606F80F891
:1074C0002660606F273007F0B9FB35A1606F0A684E
:1074D00040F82B2F4A68426009890181877294F82D
:1074E00036000128606F18D030A10A6840F8362FA6
:1074F00049684160606F4AF6552100F5FF7007F05A
:1075000099FB00222046A16B07F044FF00283CD0E5
:1075100094F8360003282FD036E027A1E5E7243081
:1075200007F08CFB606F02212C3007F087FB606F47
:107530000121303007F07EFB606F0621323007F00A
:1075400079FB606F414680F84050606F80F8426080
:10755000606F433007F072FB11A1606F0A6840F85A
:10756000472F4A68426009890181877215A1606FBF
:107570000A6840F8522FBBE7A16B00222046891D04
:1075800007F008FF002800D00120BDE8F0810000CE
:10759000785634124D5357494E342E3100000000B6
:1075A0004E4F204E414D4520202020004641543171
:1075B0003620202000000000464154313220202097
:1075C000000000004641543332202020000000001B
:1075D00070B50446006E0D46A84240D094F868107D
:1075E00001292AD1A66A86B1217B49060DD594F8D6
:1075F0005C10022906D0002201463046636E04F07A
:10760000AEF915E0A18F4218F6E7A268616ED36863
:1076100001229847002821D094F85C00022809D163
:10762000A268A18F206ED3680844616E012298473A
:10763000002813D0002084F8680085B194F8690010
:10764000A18FA268484328449368616E012298473D
:10765000012806D04FF0FF302066002070BD0120C9
:1076600070BD2566FBE72DE9F04704460D469046C0
:107670009946AD1EE06A00EB153AC5F3C80605F061
:10768000070101208840C7B200BF51460AF1010A34
:10769000204605F051FD10B10120BDE8F08700BF84
:1076A00000BF04F13400805D384008B1012000E0E3
:1076B0000020484501D10220EFE704F13400805D4D
:1076C000784004F1340188550120E070A8F10100F0
:1076D000B0F1000800D1E0E77806000E071EE0D107
:1076E0000127701C0646B0F5007FD9D3CDE70021F5
:1076F000A0F12002012A16D9D21E062A13D92D285C
:1077000023D02E2821D00D3A092A0CD940281CD08C
:10771000113A192A07D91D3A1D2A04D97D2814D0F7
:107720007E2812D000E001212B280BD02C2809D074
:107730003B2807D03D2805D05B2803D05D2801D029
:107740007F2800D90221084670470121FBE700008D
:1077500070B504460D460020E070401E20632946A7
:10776000204605F0E9FC08B1042070BD04F2322087
:1077700005F0ECF94AF65521884201D00320F4E7E0
:1077800004F16A0005F0A5F920F07F400D49884218
:1077900001D10020E9E704F1860005F09AF920F014
:1077A0007F400849884201D10020DEE7082206A177
:1077B00004F1370005F098FC08B90120D5E7022054
:1077C000D3E700004641540045584641542020204C
:1077D00000000000024600E0521C107810B1107842
:1077E0008842F9D11078704770B50D46014605F111
:1077F0002C0000F04CF806464FF40071686FF9F762
:107800009BF8002406E03119284607F06CFD00289B
:107810000BD0641C95F83700A042F4D8002128460C
:1078200007F061FD002800D0012070BD2DE9F84F60
:10783000824615461E46DAF800000090DAF8480045
:1078400000F104094FF40072002328463146F8F78E
:1078500005FE07460098B0F80AC062460023384685
:10786000F8F7FCFD834600BF59F8044B14B900201B
:10787000BDE8F88FA34500D204E0ABEB040B09F19F
:107880000409F1E700BFD9F800005844F0E7436A63
:10789000C2681A44837A41B1032B01D0838D1A4404
:1078A000C07A891E01FB00207047032BF8D01046D8
:1078B00070470246891E9069801E884201D80020C8
:1078C00070475389D06A01FB0300F9E738B50446D5
:1078D00004226946204604F0CFFD0446214668464E
:1078E00002F0E0FF08B9002038BD0120FCE70000ED
:1078F0002DE9F04780460C4604F11A0005F026F900
:1079000010B10020BDE8F087207800F03F00401E55
:1079100000EB800101EBC0054FF00109002621E0DA
:107920001849895D081905F011F90746B9F1000FEA
:1079300011D0FF2D0BD2384602F098FF824629461F
:107940006D1C38F8110002F091FF824501D0002033
:10795000D8E7B94605E04FF6FF70874201D0002016
:10796000D0E7761C0D2EDBD3207800F0400038B134
:10797000B9F1000F04D038F8150008B10020C1E7B4
:107980000120BFE702F500080146002002E049108F
:10799000421CD0B20129FAD170472DE9F0470746C1
:1079A0008A463C68BAF1000F06D1266916B1A06973
:1079B000B04217D8012615E05146384604F077FD4D
:1079C0008046B8F1020F02D20120BDE8F08708F12D
:1079D000010008B94046F8E7A069404501D9404692
:1079E000F3E75646207804282ED10122314620465E
:1079F00002F0C3FF05460DB1681C08B92846E4E74C
:107A000001231A4629462046FFF72DFE8146B9F18B
:107A1000020F01D10120D8E7B9F1010F02D14FF0D7
:107A2000FF30D2E7BAF1000F02D10220F8712CE04A
:107A3000F879022829D1701C854226D0B868301AFE
:107A4000B8610320F87120E0354600BF6D1CA069C5
:107A5000A84204D80225B54201D90020B5E729463D
:107A6000384604F024FD8046B8F1000F00D10BE049
:107A7000B8F1010F02D008F1010008B94046A4E7AF
:107A8000B542E3D10020A0E700BF2078042805D14B
:107A9000F879022802D14FF0000912E04FF0FF32CE
:107AA0002946204606F004F88146B9F1000F08D1B6
:107AB000BAF1000F05D02A465146204605F0F8FFDE
:107AC0008146B9F1000F0DD12561D4E90510801E62
:107AD000814202D26069401E6061207940F001005D
:107AE000207107E0B9F1010F02D14FF0FF3000E043
:107AF00001200546284668E72DE9F04186B00D468D
:107B000004460020CDE901501646694601A801F05F
:107B1000B3F918B1012006B0BDE8F08103A803F065
:107B200059FE03A803F0A8FA804603A803F08EFAD2
:107B300007460B2222A10098F8F7C4FE00981021F6
:107B4000C17241460E3007F075F800983946103082
:107B500007F070F800983946123007F06BF800987B
:107B60004146163007F066F800983946183007F09D
:107B700061F80099202201F12000F8F7A3FE009897
:107B8000290C143007F056F80098A9B21A3007F003
:107B900051F800982E21203000904170F16AA142E6
:107BA00000D10024210C143007F044F80098A1B251
:107BB0001A3007F03FF8314601A801F003F9AAE7AF
:107BC0002E20202020202020202020002DE9F74FEB
:107BD0000546007B0D210C30B0FBF1F0334E82B036
:107BE000C4B201274FF0000A05F1100B6946584650
:107BF000049A01F041F9A0BB00990C700FB140202C
:107C000000E000202043087003984873A1F81AA0F0
:107C10000F20C872641E81F80CA0E4B204EB84004B
:107C20002B7B00EBC40000271B1A52460D2B00D9FA
:107C30000D23D5F808C092460CEB000900204A1C21
:107C40000BE000BF16F8008019F800C001F808C06A
:107C500016F80080401C08F802A09842F2D30023D6
:107C60000AE01BE016F800C001F80C3016F800C05E
:107C70000CF80230FF23401C0D28F3D3287DC043AD
:107C8000000705D15846049901F09CF8002806D158
:107C900001215846049A01F0BFF818B1012005B03F
:107CA000BDE8F08F002CA1D10020F8E730FC0008DF
:107CB0002DE9F34F83B08146049800680190D9F80C
:107CC00040A000200546064600BF3046761C0199BC
:107CD0000C5C202C03DB2F2C01D05C2C0AD100E0A3
:107CE000761C0198805D2F28FAD00198805D5C2871
:107CF000F6D01CE0FF2D03D3062005B0BDE8F08FC1
:107D0000E4B20121204602F08BFD04460CB90620A6
:107D1000F3E7802C06DA21466AA0FFF75BFD08B185
:107D20000620EAE728466D1C2AF81040CDE700BF80
:107D30000198811904980160202C01DA042000E0E8
:107D40000020074608E0681E3AF81040202C02D0B8
:107D50002E2C00D002E06D1E002DF4D100BF0020BB
:107D60002AF815000DB90620C7E70B222021D9F803
:107D7000380005F0D8F9002600E0761C3AF8160025
:107D80002028FAD03AF816002E28F6D00EB147F087
:107D9000030700E06D1E25B1681E3AF810002E287A
:107DA000F8D14FF00008CDF808804FF0080B00BF65
:107DB0003046761C3AF8104004B954E0202C03D029
:107DC0002E2C04D1AE4202D047F00307F0E7029810
:107DD000584501D2AE4216D1BBF10B0F02D147F08C
:107DE000030740E0AE4201D047F00307AE4200D99E
:107DF00039E02E46082002904FF00B0B4FEA8860C6
:107E00004FEA1068D4E7802C0BDB0021204602F0FB
:107E100007FD04461CB1A4F180002D490C5C47F01D
:107E2000020700BF24B121462AA0FFF7D3FC18B1F6
:107E30005F2447F003070FE0412C04DB5A2C02DCDF
:107E400048F0020808E0612C06DB7A2C04DC48F0DC
:107E50000108A4F1200084B2D9F838300298411CFE
:107E600002911C54A4E700BFD9F838000078E52837
:107E700003D10520D9F838100870BBF1080F03D1E1
:107E80004FEA88604FEA106808F00C000C2803D015
:107E900008F00300032801D147F0020707F00200B1
:107EA00058B908F00300012801D147F0100708F085
:107EB0000C00042801D147F00807D9F83800C77230
:107EC00000201AE7222A3A3C3E3F7C7F0000000057
:107ED00082F400082B2C3B3D5B5D00002DE9FE4346
:107EE00088460A9E154604461F4632466946404665
:107EF00000F0C2FFA0BB00990020225C0A54401C85
:107F00000B28FAD3CF7200240C734C7301A803F032
:107F100061FC01A803F0B0F8014600980E3006F0AD
:107F200089FE01A803F092F801460098103006F08F
:107F300081FE0098018A4182C289C2820183290C94
:107F4000143006F077FE0098A9B21A3006F072FEDF
:107F500000983146C461404600F034FF002800D04C
:107F60000120BDE8FE832DE9F04704460E4640227D
:107F70000021204605F0D7F885202070C02084F825
:107F80002000304607F03BFA8246514604F12400B7
:107F900006F0E8FE402500274FF001084FF00109E8
:107FA00000BFC12228466D1C2254002228466D1CA9
:107FB000225400BFB9F1000F06D036F81700B0F117
:107FC000000901D0781CC7B26019494606F0CAFE04
:107FD000AD1C05F01F000028ECD108F1010000F0F5
:107FE000FF0836F817000028DBD184F8237084F8E6
:107FF0000180BDE8F087000008480068C0010BD58B
:1080000007480068C00707D0054880380068002886
:1080100002DA04490120087070470000FCED00E01E
:10802000800E00E0A80000204FF06042D36F002BCC
:10803000FCD0036BD367D36F002BFCD0C07840EA31
:108040000120A2F87C0070474FF06041CA6F002AFF
:10805000FCD081F87C00704770B504464FF407707F
:1080600094FBF0F0C6B24FF4077094FBF0F100FB04
:10807000114085B205E04FF4077000F009F8701E5A
:10808000C6B2002EF7D115B1284600F001F870BD38
:108090000146114A12884A434FF0E0235A610022F8
:1080A0009A611A46126942F001021A6100BF4FF04C
:1080B000E022106900F001021AB100F48032002AB7
:1080C000F5D04FF0E022126922F001024FF0E023D8
:1080D0001A6100229A6170475E0000202DE9F0418C
:1080E00004460E46D4F800800021204600F01CFB18
:1080F00005465DBB002700BF4046216B05F01CF81C
:10810000054605B121E098F80000042805D1606B10
:108110000078012121EAD01009E0606B0078E528A1
:1081200002D0606B007808B9012000E0002020B187
:10813000781C0746B04201D107E000270121204604
:1081400000F0DAF80546002DD6D000BF042D00D18E
:1081500007252846BDE8F0812DE9F04F85B004469B
:1081600026680021204600F0DFFA07461FB1384696
:1081700005B0BDE8F08F307804284CD1206C07F0B2
:108180003EF901903EE0F16801F1240004F0DEFCCC
:108190000199884200D035E0F06890F82300039000
:1081A0004FF0400A002002901FE00AF01F0008B9BB
:1081B0000AF1020AF16801EB0A0004F0C7FC009022
:1081C00002F054FB8346226C029932F8110002F04F
:1081D0004DFB834500D00BE00398401EC0B20390D6
:1081E0000AF1020A0298401C029003980028DCD190
:1081F00000BF039828B9216C029831F8100000B92B
:1082000006E000BF0021204600F006F9071EBAD0A4
:1082100000BF3846ACE74FF0FF09CDF810904FF0A3
:10822000FF30E06300BF3046216B04F085FF074656
:1082300007B15EE0606B05780DB9042759E0606B0B
:10824000C07A00F03F0884F80680E52D05D008F0DC
:10825000080040B1B8F10F0F05D04FF0FF094FF003
:10826000FF30E0633EE0B8F10F0F1FD1206C98B3F0
:1082700005F0400038B1606B407B049025F040056C
:10828000A946A06AE0634D450CD1606B417B049820
:10829000814207D1616B206CFFF72AFB10B1A9F175
:1082A000010000E0FF2000F0FF091BE0B9F1000F22
:1082B00006D1606B06F0A3FD0499884200D118E056
:1082C000A06BC07A00F0010038B90B22D4E90D018F
:1082D00004F00AFF08B90CE004E04FF0FF094FF08A
:1082E000FF30E0630021204600F006F80746002F2B
:1082F00099D000BF38463BE72DE9F0470446894650
:108300002568A06A00F12007206B40B12878042876
:1083100001D1800601E04FF40010B84202D80420D9
:10832000BDE8F087C7F3080000286CD1206B401C23
:108330002063E06A38B92889B0EB571F63D8002062
:1083400020630420ECE76889401E00EA57200028DB
:1083500059D12046E16A04F0AAF80646012E01D858
:108360000220DDE7701C08B90120D9E7A869B042F6
:1083700043D8B9F1000F03D1002020630420CFE7D8
:108380002046E16AFFF709FB06460EB90720C7E75A
:10839000012E01D10220C3E7701C08B90120BFE7FC
:1083A000E07940F00400E071284606F0EFFE08B1E5
:1083B0000120B5E74FF40072002105F1340004F00C
:1083C000B2FE4FF0000831462846FFF772FA2863E4
:1083D0000CE00120E870284606F0D8FE08B1012024
:1083E0009EE708F10108286B401C28636889404516
:1083F000EFD8286BA0EB08002863E66231462846D8
:10840000FFF757FA2063A762C7F3080105F13400AC
:1084100008446063002083E72DE9F05F04460F46BF
:108420000426D4F800804FF0FF0AD3466CE04046A3
:10843000216B04F081FE064606B168E0606B0578AA
:108440000DB9042663E098F80000042813D117B191
:10845000832D52D15BE0852D4FD1A06AE063204689
:1084600004F0AAFB06462EB9D8F80C00007900F0FB
:108470003F00A0714BE0606BC07A00F03F0984F8C8
:108480000690E52D0AD02E2D08D029F020000828CE
:1084900001D1012000E00020B84202D04FF0FF0AD5
:1084A0002BE0B9F10F0F1CD105F0400038B1606B23
:1084B00090F80DB025F04005AA46A06AE063554546
:1084C0000BD1606B407B584507D1616B206C05F088
:1084D000ABFA10B1AAF1010000E0FF2000F0FF0AA2
:1084E0000BE0BAF1000F04D1606B06F088FC584530
:1084F00002D04FF0FF30E06309E000212046FFF793
:10850000FBFE064606B102E0206B00288FD100BFBB
:108510000EB1002020633046BDE8F09F2DE9F04FFA
:1085200099B004462668D4F838A0D4F840B09AF838
:108530000B0000F0A00018B1062019B0BDE8F08FC4
:108540004FF0000901E009F101093BF8190000288A
:10855000F9D1307804285DD109F10E000F21B0FB6C
:10856000F1F0871C39462046FFF7B8FD05460DB1EE
:108570002846E2E7781E2022A16A02FB1010E06381
:10858000E07900F0040000283ED0E07900F003001C
:10859000E07171894902D4E90430591840F10000B2
:1085A000C4E90410204602F0CDF905460DB1284675
:1085B000C3E7214602A804F0E1FA05460DB12846BA
:1085C000BBE7D4E90412CDE90012F16801F13800EB
:1085D000DDE9002306F098FBD4E90412CDE900128E
:1085E000F16801F12800DDE9002306F08DFBE07958
:1085F00040F00100F16881F8210002A806F0C8FBF4
:1086000005460DB1284698E75946F068FFF7ABFCE0
:10861000002092E70C22514615A804F077FD9DF842
:108620005F0000F0010038B300208AF80B002064DE
:108630004FF001080DE043465A4615A9504603F095
:108640009DFE2046FFF788FD054605B104E008F1D0
:108650000108B8F1640FEED300BFB8F1640F01D187
:1086600007206AE7042D01D0284666E79DF85F00E1
:108670008AF80B00C4F840B09DF85F0000F00200DB
:1086800030B109F10C000D21B0FBF1F0401C00E00D
:108690000120074639462046FFF720FD054645BB29
:1086A000781E071E25D0A06AA0EB4711204600F0D7
:1086B0003BF80546EDB9A06B06F0A1FB149000BF96
:1086C0003046216B04F038FD054605B110E0FAB2E2
:1086D000616B206C149B05F08DFA0120F070002175
:1086E0002046FFF709FE054615B9781E071EE7D19B
:1086F00000BFBDB93046216B04F01EFD05468DB9A3
:1087000020220021606B04F00EFD0B22D4E90D0144
:1087100004F0FCFCA06BC07A00F01800616B0873D9
:108720000120F070284608E72DE9F04104460D4687
:1087300026683078042801D1800601E04FF400104B
:10874000A84202D905F01F0010B10220BDE8F08157
:10875000A562A7682FB93078032802DBB76A00202A
:10876000E07147B93089B0EB551F01D80220EDE721
:10877000B06A20631CE070894FEA402811E0394656
:10878000204603F094FE0746781C08B90120DDE777
:10879000022F02D3B069B84201D80220D6E7A5EB78
:1087A00008054545EBD239463046FFF782F820638D
:1087B000E762206B08B90220C8E7206B00EB552068
:1087C0002063C5F3080106F134000844606300200B
:1087D000BCE7000070B50546002D47D1FCF746F90F
:1087E00004462A2C01D0012070BD2348FBF7CCFFA2
:1087F00004462A2C01D00120F6E71F49B1F84C109D
:108800000804FCF799FE04462A2C01D00120EBE76E
:10881000012010B1012824D111E04FF40060FBF7D2
:1088200013FF04462A2C01D00320DDE70020FCF7CB
:108830009DFE04462A2C01D00320D5E713E04FF417
:108840000060FBF701FF04462A2C01D00320CBE790
:108850000120FCF78BFE04462A2C01D00320C3E73D
:1088600001E00320C0E700BF0020BDE7012D01D1DA
:108870000020B9E70120B7E71C0500202DE9F047EB
:1088800005460F4616467DBB27B1012F0ED0032F9C
:1088900024D106E0FCF7DEF808B9002400E001244A
:1088A0001EE04FF400703080002419E01248FBF7FE
:1088B0006BFF2A2810D11048006900F1010A0E4808
:1088C000007E00F102080C48007A00EB08090AFA61
:1088D00009F03060002400E0012401E0042400BF1E
:1088E00000BF2046BDE8F087FFE7012D01D12046FB
:1088F000F8E70120F6E700001C0500202DE9F04113
:108900000746884615461E4616B90420BDE8F08184
:108910007FBB012010B1012824D111E0012E06D126
:10892000680272024146FCF751FB044607E0680208
:1089300033464FF400724146FCF77EFC044613E0D8
:10894000012E06D1680272024146FCF73FFB044645
:1089500007E0680233464FF400724146FCF76CFCB6
:10896000044601E0292400BF00BF2A2C02D10020C8
:10897000CCE701E00120C9E7012F01D10020C5E7C4
:108980000120C3E7014609B900207047012901D140
:108990000020FAE70120F8E72DE9F0410746884674
:1089A00015461E4616B90420BDE8F0817FBB0120A4
:1089B00010B1012824D111E0012E06D16802720203
:1089C0004146FCF7FBFD044607E0680233464FF4DE
:1089D00000724146FCF7F4FE044613E0012E06D176
:1089E000680272024146FCF7E9FD044607E06802AE
:1089F00033464FF400724146FCF7E2FE044601E0C4
:108A0000292400BF00BF2A2C02D10020CCE701E0BE
:108A10000120C9E7012F01D10020C5E70120C3E7EC
:108A20002DE9F04F00252E462B462C462A462F4690
:108A300050F804CB07F01F0885EA0C058CEA1C4CA3
:108A40008CEA1C2C8CEA1C1C8CEA9C0C8CEA5C0CBE
:108A50000CF0010C0CFA08FC7F1C4CEA0606202FD7
:108A6000E6D316E050F804CB07F01F0885EA0C05A2
:108A70008CEA1C4C8CEA1C2C8CEA1C1C8CEA9C0C8E
:108A80008CEA5C0C0CF0010C0CFA08FC4CEA0303B9
:108A90007F1C402FE6D316E050F804CB07F01F08E8
:108AA00085EA0C058CEA1C4C8CEA1C2C8CEA1C1CFC
:108AB0008CEA9C0C8CEA5C0C0CF0010C0CFA08FCA7
:108AC0004CEA04047F1C602FE6D316E050F804CB78
:108AD00007F01F0885EA0C058CEA1C4C8CEA1C2C5C
:108AE0008CEA1C1C8CEA9C0C8CEA5C0C0CF0010CD3
:108AF0000CFA08FC4CEA02027F1C802FE6D385EAC0
:108B0000154080EA102080EA101787EA970C4FF48E
:108B1000803808EACC380CF0010C4CEA080C87EAE3
:108B200057074FF4003808EAC73848EA0C0880EACB
:108B300090004FF0020980EA50004FF4802C09EABF
:108B400047070CEA803C47EA08074FF0040E85EA25
:108B500015154CEA070C0EEA800085EA950540EAF7
:108B60000C0085EA550585EA154C4FF4002B0BEAFD
:108B7000CC2707434FF0080A0AEACC0085EA152CF7
:108B800038434FF4801505EA0C1848EA000883EAD8
:108B9000060080EA104080EA102080EA10101027BA
:108BA00080EA900007EA0C1C80EA50004CEA080CAE
:108BB00000F001004CEAC02C82EA040080EA104870
:108BC00074405A4084EA144488EA182884EA142439
:108BD00082EA124288EA181884EA141482EA1222FD
:108BE00088EA980884EA940482EA121288EA58080B
:108BF00084EA540482EA920258404CEAC86C04F0B9
:108C0000010482EA520270404CEA842402F001021C
:108C100080EA104344EA826283EA132383EA13144E
:108C200084EA94064FF4803C0CEAC63C06F0010648
:108C300046EA0C0684EA54044FF4003C0CEAC43CB7
:108C40004CEA060C83EA930383EA5303AE1009EA65
:108C5000440406EA833644EA0C0480EA10102643F2
:108C600080EA90000EEA830380EA5000334380EAF2
:108C700010440BEAC4261E430AEAC40380EA102407
:108C8000334305EA0410184307EA0413034342EA96
:108C90004310F02202EA1032087042EA10224A70B1
:108CA000000D88700320BDE8F08F70B500231A46D0
:108CB0001C4650F8045B6B4085EA154585EA15258E
:108CC00085EA151585EA950585EA550505F001053E
:108CD000A5402A43641C022CEBD383EA134080EAAC
:108CE000102080EA101585EA95044FF4803606EAD4
:108CF000C43604F00104344385EA55064FF40035C8
:108D000005EAC6352543022404EA46042C4380EADA
:108D1000900080EA50004FF4802505EA8035254315
:108D2000042404EA800083EA131383EA930383EAAA
:108D30005304284384EA14454FF4002303EAC5236F
:108D40000343082000EAC500184384EA14244FF4C2
:108D5000801303EA04130343102000EA04101843AD
:108D600040EA421303F03F03000C02F002020B70D2
:108D700040EA02104870022070BD012070470120B7
:108D800070474FF0FF307047012070474FF0FF30C1
:108D90007047012070470120704701207047002074
:108DA0007047012070474FF0FF3070470020704738
:108DB0000020704701207047012070470120704754
:108DC0000120704770B50C46D0E9001519B994F828
:108DD0003600032803D1B4F85A00401E054004F1C0
:108DE0002C00FEF754FD00EB15110122204606F081
:108DF000D1FA08B1002070BD082070BD51B10268E1
:108E00004B6A9A4206D140688A6A904202D191F830
:108E10002C00704700207047F8B516464268B6F837
:108E20005A3004465B1E02EA030045181144616093
:108E300096F83600032801D022681AB103F0F8FA38
:108E4000074613E0B1F5007F0DD213E02D1A20681C
:108E5000324669460090FEF7BBF920B10098B8424F
:108E600003D10120F8BD0220F8BD2060B6F85A00F9
:108E7000A842EBD90020F8BD70B50E46D0E9001528
:108E8000144619B994F83600032803D1B4F85A00EF
:108E9000401E054004F12C00FEF7F9FC00EB151113
:108EA000204604F024FF38B1606F05F00F0100EB9D
:108EB00041103060002070BD012070BD017861B1AB
:108EC000E5290CD0C07A00F03F010F2909D0C0F38A
:108ED000C100012807D004207047002070470120FE
:108EE0007047032070470220704738B50546284672
:108EF00000F09FFA04464CB96946284606F0D2F9BC
:108F000004460CB900202860204638BD2046FCE706
:108F1000F7B582B016460398019001A803F09FFBB5
:108F20000546002D02DA0B2005B0F0BD0E4850F8C2
:108F300025400CB100202070029810B10020029949
:108F400008700949029841F82500029808B1012EDD
:108F500001D00020E8E7002202A903A801F088FD63
:108F600007463846E0E70000100000202DE9F741F1
:108F700097B0044616461CB909201AB0BDE8F08126
:108F80000020206006F01F06324603A918A801F051
:108F90006FFD0546002D7DD103980490CDF848D093
:108FA0009848149004A8189901F0DEFF05462DB9E1
:108FB0001298C07A00F0800000B1062506F01C006F
:108FC000002868D045B1042D03D104A8FFF7A6FA04
:108FD000054646F008060AE09DF8160000F011006C
:108FE00008B1072503E006F0040000B10825002DB4
:108FF0006ED106F0080000286AD003F02EFB8046F0
:1090000003980078042864D1039820600399C96804
:1090100001F1340003F05DFDA0600399C96801F11E
:10902000380003F062FDC4E904010398C06890F8B9
:10903000210000F00200E0710399C96801F1080005
:10904000414605F055FE00200399C968087503994B
:10905000C96801F10C00414605F04AFE0020039961
:10906000C968487520200399C96808710399C968BF
:1090700001F13400002105F03BFE0399C96801F1BC
:1090800038000022134605F03FFE0399C96801F13C
:10909000280001E0AEE052E00022134605F034FE65
:1090A00001200399C96881F8210004A805F070FE29
:1090B0000546002D54D1A068002851D0002220463A
:1090C000A16804F03DFE0546A068401E03990861B2
:1090D00046E0119901F10E00414605F009FE119993
:1090E00001F11600414605F003FE20201199C872D7
:1090F0001199039803F0DAFC0746002211990398AE
:1091000005F0E4FD119901F11C00002105F0F0FDCE
:1091100001200399C8701FB30398D0F83080002253
:10912000394604A804F00CFE0546CDB94146039823
:1091300004F002F80546781E0399086110E07DB935
:109140009DF8160000F0100008B1042508E006F0B4
:10915000020028B19DF8160000F0010000B10725BB
:109160004DB906F0080008B146F020060398006BE0
:10917000206411986064EDBB03980078042821D125
:109180000399C96801F1340003F0A3FCA0600399BE
:10919000C96801F1380003F0A8FCC4E90401039890
:1091A000C06890F8210000F00200E0710698E061CC
:1091B000089820F0FF009DF81710084320621398CC
:1091C00060620CE01199039803F070FCA0601199A3
:1091D00001F11C0003F07DFC0021C4E90401002022
:1091E000A06484F82900002121636163E06384F8AE
:1091F000286000E004E0039820600398C088A08005
:109200002846BAE61C0300202DE9FF4F87B004462C
:1092100015460898039000210A98016005A9204688
:1092200006F040F80690069818B994F829000690C0
:1092300018B106980BB0BDE8F08F94F8280000F044
:10924000010008B90720F5E7D4E90430D4E90C217E
:109250009F1A60EB0108791B78F1000000D23D46AF
:10926000E2E0D4E90C014FF400720023CDE90001E3
:10927000F7F7F4F800214A404B401A437ED1D4E975
:109280000C014FF400720023CDE90001F7F7E6F876
:1092900005994989491E00EA010ABAF1000F2BD14C
:1092A0000023D4E90C1059405840014302D1A06872
:1092B000049011E0A06C50B1D4E90C0102460B46B9
:1092C000CDE900012046FEF7B1FA049004E0204603
:1092D000A16B03F0ECF804900498022803D202205A
:1092E00084F82900A6E70498401C18B9012084F8E6
:1092F00029009FE70498A063A16B0598FEF7D9FAAF
:109300008146B9F1000F03D1022084F8290091E7CA
:10931000D1444FEA552BBBF1000F30D00AEB0B00C4
:1093200005994989884203D905984089A0EB0A0B21
:109330000BF0FF03059948784A460399FFF7DEFAD8
:1093400018B1012084F8290074E794F8280000F08F
:10935000400080B1E06BA0EB090058450BD2E16BF7
:10936000A1EB0901039A02EB41204FF4007204F1D2
:109370004C0103F0CBFE4FEA4B2645E029E0E06BC1
:10938000484524D094F8280000F0400090B1E26BEA
:1093900005994878012304F14C01FFF7FDFA18B153
:1093A000012084F8290045E794F8280020F04000C7
:1093B00084F828000599487801234A4604F14C01B5
:1093C000FFF79CFA18B1012084F8290032E7C4F8AD
:1093D0003C90208EC0F30800C0F50076AE4200D964
:1093E0002E46D4E90C014FF400720023CDE90001B0
:1093F000F7F734F804F14C0010443246014602906D
:10940000039803F083FE00BF039830440390D4E92F
:109410000C20921940F10000C4E90C200A98006861
:1094200081190A980160AD1B002D7FF41AAF00204E
:1094300000E72DE9F04393B0044612A9204605F059
:1094400031FF0646002E7AD194F8280000F0200063
:10945000002874D094F8280000F0400090B1E26B2E
:1094600012994878012304F14C01FFF795FA18B1DD
:10947000012013B0BDE8F08394F8280020F04000EC
:1094800084F8280003F0E9F881461298007804284F
:1094900056D1204601F056FA0646002E7CD12146D0
:1094A000684603F06BFB0646002E48D11298C06850
:1094B000007940F020001299C9680871E07940F005
:1094C00001001299C96881F82100A168129AD26836
:1094D00002F1340005F00CFCD4E904731299C96858
:1094E00001F138003A4605F00FFCD4E904731299F3
:1094F000C96801F128003A4605F006FC1299C968CE
:1095000001F10C00494605F0F3FB00201299C968EF
:1095100048751299C96801F11000002105F0E8FBB7
:10952000684605F035FC06464EB9129805F0E6FD92
:10953000064694F8280020F0200084F828002BE04C
:10954000216C129803F0F8FD06462EBB656CE87A94
:1095500040F02000E8722946A268206805F0B6FBBA
:1095600005F11C00216905F0C3FB494605F1160011
:1095700005F0BEFB002105F1120005F0F3FB012010
:109580001299C870129805F0B9FD064694F82800A3
:1095900020F0200084F8280030466AE770B586B0D5
:1095A000002803DB43490978884202DB042006B027
:1095B00070BD414900EBC00001EB8004208AC10668
:1095C00076D4810774D010F0600F6ED01C20216813
:1095D00001F01AF820B1218A41F010012182E6E75A
:1095E00060690190608A0290694601A82268FFF7CD
:1095F00043FC00285CD103A802F0ECF803A801F0BA
:109600003BFD064603A801F021FD054600981230F7
:1096100003F052F8A84208D000982946123005F00D
:1096200009FB207C400603D422E0207C40063CD588
:10963000A069010C0098143005F0FCFA208B81B26F
:1096400000981A3005F0F6FA0098A1681C3005F071
:10965000F5FA00983146163005F0ECFA00982946E4
:10966000183005F0E7FA0098C17A41F02001C17284
:1096700001A82168FFF7A6FBC8B9207C400614D5D5
:109680002168C868C20506D520F48070C8602068CB
:1096900002F014F958B10021206805F024FE30B121
:1096A00000212068FDF794FF08B100207FE7FFE765
:1096B00001207CE7ECFA00082818002030B50346AA
:1096C000094C0CE0585CA0F16105192D01D820F07F
:1096D000200080EA126054F8200080EA0222491E2D
:1096E000F0D2104630BD000040FC00082DE9F04FDC
:1096F0008BB015460F46040006D004F071F928B16E
:1097000006200BB0BDE8F08F0420FAE729461C20A4
:1097100000F07AFF0028F4D100266CA1384601F051
:109720007EF900B101262A466946204604F0ECF88D
:109730002946684604F001F90028E2D10198C07A70
:10974000C00601D5002000E0032000242746A046E3
:1097500005287DD24FF002090DF1100A052878D2B4
:10976000DFE800F0031F426195000198143002F019
:10977000A3FF4FEA004B01981A3002F09DFF40EA28
:109780000B001FB140454AD1002748E00090CDE9C9
:1097900004096A6A02210098FFF70CFB641CE4B21A
:1097A0007CE0009804900120641E00220590E4B241
:1097B0002B461146684601F043FE0028A1D10198CE
:1097C000143002F079FF4FEA004B01981A3002F092
:1097D00073FF40EA0B000090CDE904096A6A032197
:1097E0000098FFF7E7FA59E000222B461146684639
:1097F00001F026FE0D2809D0002882D10198C07AF8
:10980000C0060ED5F0070AD00020A7E7DDF80080DB
:10981000F00745D0012C43D9012738469EE70420A4
:109820009CE703209AE704AB93E8070007AB83E8C3
:1098300007009DF824102A4607A8491EFFF7ECFAF6
:1098400038B92A46032107A801F058F820B101E0F1
:1098500026E039E0032054E70198143002F02CFF91
:109860004FEA004B01981A3002F026FF40EA0B0045
:10987000294605F0E3FC38B32946504601F0A1FC27
:109880002946504601F071FC0028E4D144B19DF80E
:1098900018102A465046FFF7BFFAA8B902205DE724
:1098A00095F83600032808D1284602F007F858B189
:1098B0000021284605F017FD30B100212846FDF7AC
:1098C00087FE08B100201CE701201AE72F53000093
:1098D000064900EBC00001EB8000017C890701D044
:1098E000806870474FF0FF30704700002818002054
:1098F0002DE9F34F0446014683B0162000F084FEA4
:10990000002862D1F64BF74A834609E000EBC0011C
:1099100003EB81010E68A64201D1A1F810B0401CF2
:1099200011788842F2D3F0A1049801F078F8010090
:1099300002D0A068426907E0EDA1049801F06FF839
:1099400030B1A068002142690220904700287BD1F5
:10995000E8A1049801F063F806004FF000084FF00A
:10996000FF3529D0B078202826D1F31C00221146DB
:10997000985C521C2F281BD0D0B10C2A14D2A0F115
:109980003007092F0BD9113F192F08D95F2807D0AD
:10999000202805D0203F192F04D820F0200008B13E
:1099A000491C03E0294603E020280DD1481CDFD1E3
:1099B0008846B1F1FF3F07D0A06801696846884733
:1099C00038B3009820B10EE0042005B0BDE8F08F58
:1099D000A0680021426902209047A8BBA0680169E5
:1099E00068468847A8B1009824287BD3BDF80400B6
:1099F000BDF80610884275D100980027C10A0820DA
:109A0000814203D340007F1C0D2FF9D30D2F02D0CC
:109A100002E00920D9E70C274FF0FF302066B6A1FD
:109A2000049800F0FCFFE0B1DDF800A084F87CB001
:109A300084F87DB0656905B901256902FF22606F70
:109A4000F6F772FF002009E018E0A068616F2A466F
:109A5000C3684846984788B109EB050081465045E0
:109A6000F3D32178A54852290AD007EB470100EB30
:109A700081014FF0010A4A89A26316E00820A4E799
:109A8000C4F838B0009941F22E024FF0000A91421A
:109A900001D801250AE042F22502914201D80225AF
:109AA00004E007EB470100EB81014D78934807EB99
:109AB000470910F8290084F836000098A16B401A75
:109AC00020640120E0874002A4F84A00022084F8C4
:109AD0005C008BA1049800F0A2FF032118B184F868
:109AE000361004E026E094F8360003280CD1082054
:109AF000E087012060860220E06206207F4AA0867F
:109B000002EB89008578ADB184F837506802606552
:109B10004009A4F85A00206C0290E28F94F8363085
:109B20009146801A2022012B06D0022B19D0032B3C
:109B30002BD152E00C2048E74FF40073A4F84830D2
:109B4000A4F85820704A203802EB402001EB452150
:109B5000B0FBF1F0E06400EB400000F2FE30800A60
:109B600012E04FF40071A4F848106FF0FE012038A5
:109B700001EBC011012000EBC510B1FBF0F0A4F81F
:109B80005820E064FF30000AA087B4F8580094F829
:109B90005C20A18F09EB000302FB0135029B02FB55
:109BA00001915B1B63642165BAF1000F0DD008447D
:109BB000A16B014421F03F01081AA06339462046F9
:109BC00003F032FA00283FF459AF4FF400773946DA
:109BD000606FF6F7B1FE012517E0012101EB851258
:109BE000810E80017F38A4F858B041F1FF31002385
:109BF000F6F734FCE0647F30C009C5E7294620460B
:109C000005F071FB0028DED06D1CA06BA842F5D8D2
:109C10002046FDF7F3FB0028D5D00220E06194F840
:109C20003600032807D1E06C401EA061204601F0F9
:109C300045FE0028C7D03946606FF6F77DFE012546
:109C4000A76B10E094F83600032805D1608EA84277
:109C500008D0A08EA84205D07919204605F043FB14
:109C60000028B0D06D1CE08FA842EBD8E18FA06B2C
:109C7000471894F83600012804D0022805D003289C
:109C800008D11DE02149606F02E06FF00701606FAD
:109C900004F0D4FF3946204605F025FB002892D079
:109CA000A08FC119204605F01EFB00288BD0616FE4
:109CB0000125C1F800B0C1F804B0C1F808B030E027
:109CC0001349606F04F0BAFF606F4FF0FF31001D61
:109CD00004F0B4FF606F6FF070410830D8E7000007
:109CE00028180020ECFA00082F4C4C4542000000D8
:109CF0002F4C4C002F4C00002F57000094FB000805
:109D00002F4641543332000002FCFFFFF8FFFF00F2
:109D1000F8FFFF0F7919204605F0E5FA002889D0F1
:109D20006D1CA08FA842F5D880B20744012506E03B
:109D30007919204605F0D7FA002892D06D1CA08F23
:109D4000A842F5D880B2074494F83600032811D011
:109D5000B4F8585066B1B8F1000009DD02463B4640
:109D6000F11C204602F06DFE002898D06D1E7F1C6D
:109D7000002609E094F83750ECE7B919204605F0C1
:109D8000B2FA00288BD0761CAE42F6D300212046D2
:109D900005F0A9FA002889D0204600F08BF888B198
:109DA000204600F05BF868B10520616AFEF7FEFF0F
:109DB000204602F079FC2062E06840F00800E06094
:109DC000002002E6012000E670B5064600240C499A
:109DD0000C4807E004EBC40201EB82052A7C9207E1
:109DE00006D0641C02789442F4D34FF0FF3070BD6B
:109DF00024212846F6F7C2FD20462E6070BD0000E3
:109E000028180020ECFA000810B50446C06820F4B9
:109E1000FF7001281CD0204601F03AFC6068C8B1F0
:109E2000A068B8B10020E0602069606600F50071AC
:109E300000F58060C4E91D10606AFEF7BDFFA068F0
:109E400001680020884738B1E06840F00100E06018
:109E5000002010BD012010BD082010BD38B50446FB
:109E6000806A08B3E06820F04000E06094F85C008D
:109E700002284FF0000018D300906946204602F0F7
:109E80005FFD002811D00099204679B102F0C1FD94
:109E900000280AD0A168A06A01F040FD002804D083
:109EA000E06840F04000E060012038BD00F002F8BA
:109EB000EEE700007CB50446806AE0B3E06801AAE2
:109EC00020F04000E0604FF0FF302066002084F872
:109ED0006800009001906946204602F096FC60B34D
:109EE000DDE90012204602F076FD002824D0DDE9ED
:109EF0000001014404F12C00491EFDF7C8FC94F850
:109F00003710401E4518104E606F314604F096FE23
:109F1000606F314600F5FE7004F090FE0022294685
:109F2000204605F037FA002806D02046009902F0B6
:109F300070FD002800D001207CBDDDE90001084350
:109F4000FAD000207CBD00004A5441462DE9F0477C
:109F50000446C068214640F03000E060012000F077
:109F600053FB002837D1A06801680120884780B3DF
:109F7000E06840F00600E0600520616AFEF716FF29
:109F8000342104F12C00F6F7F9FC4FF0FF360025E0
:109F9000266684F8685084F86950E66684F87C5038
:109FA00084F87D50022729462046E76103F09FFE92
:109FB000F0B3606F00F5FF7002F07EFBA0F52A4160
:109FC000553944D1606F0178E9291BD0EB2904D0C1
:109FD00006E0FFE70920BDE8F0878178902911D0DD
:109FE00000F5E37002F070FBC4F838004FF001098F
:109FF0002046FDF7A9F9D8B1B4F84A00B0F5007FC2
:10A0000025D101E0A563F1E7B4F83EC0BCF1000F33
:10A010001DD0A58F236C9D4219D894F85C20022A8C
:10A0200015D894F83710102913D00ADC012900E064
:10A030000DE00ED002290CD004290AD0082906D13F
:10A0400007E0202905D0402903D0802901D00B202A
:10A05000C1E7B4F8488002FB05C506EB481606F5D3
:10A06000007696FBF0F02A189A1A6264B2FBF1F2BD
:10A07000C4E91325A4F85800480260654009A4F813
:10A080005A0040F6F570824202D284F836903BE0E6
:10A090004FF6F570824202D284F8367034E0032025
:10A0A00084F83600204601F0CBFB68B30027E18F2F
:10A0B000A06B3E46022500EB0108E80908EB000111
:10A0C000B14207D90E46A18F0A1A3146204603F045
:10A0D000D1FD40B1606F05F07F0100EB810002F01F
:10A0E000F3FA10B102E0082075E77F1CE06C6D1CEC
:10A0F000801CA842E1D8A761207BC00604D5204679
:10A1000001F0DCFB0028EED0204602F0CDFA206200
:10A11000E06840F00800E060C00607D52046FFF781
:10A120009DFE18B9E06840F08000E060002052E732
:10A130002DE9F0478AB090460E4600280EDB6C49A8
:10A14000097888420ADA6B4900EBC00001EB800411
:10A1500026B1304603F044FC88BB03E004200AB07B
:10A16000BDE8F0870F20216800F04EFA0028F6D1F4
:10A1700018F00C0F03D02068007BC0063BD50020F0
:10A1800018F00C0104D0042905D008297CD101E085
:10A19000012502E0042040F00205694630462268AD
:10A1A00003F0B2FB6846216803F0C7FB06004FF0DE
:10A1B00000090DF1100A03D00D2E66D096E003E0E1
:10A1C0000198C07AC00601D50620C8E79DF818108E
:10A1D0005046491E2268FEF71FFE002864D1022166
:10A1E0005046226800F08AFB28B9022D56D101980A
:10A1F000C07AC00701D00320B1E701981A3002F0FD
:10A200005BFA07460198143002F056FA07EB00405B
:10A21000A06107A801F0DEFA07A800F02DFF0146B3
:10A2200001980E3004F006FD07A800F00FFF01466C
:10A230000198103004F0FEFC01980199008A4882D0
:10A2400001980199C089C88201980199008A088300
:10A2500001995046A1F814900199A1F81A9001991A
:10A26000C1F81C902168FEF7ADFD68B92168A069AE
:10A2700004F0E4FF40B1206890F8361003290DD1B6
:10A2800001F01CFB00B109E00EE0E8072ED100212F
:10A290006846226803F028FA060027D1504601A933
:10A2A0002268FEF7E9FD08B1012058E701981C304B
:10A2B00002F00AFA6060C4E9020904986061059836
:10A2C000608201981A3002F0F7F9074601981430BD
:10A2D00002F0F2F907EB0040A061E06184F8209001
:10A2E0005FEA887001D545F00B052582304636E7D8
:10A2F000ECFA0008281800202DE9F04716468A4697
:10A300004FF0FF38002866DB3B490978884262DA63
:10A310003A4900EBC00001EB8004BAF1000F5AD0BB
:10A32000208AC10657D4810755D000F00F000228BB
:10A3300051D02C20216800F067F920B1208A40F02C
:10A340001000208247E0D4E90201401AB04201D255
:10A35000061E41D0208A002540F020002082A089DE
:10A36000C0F3080740E000BF226894F8200092F88C
:10A370003710884208D104F11C01E069FCF728FF7E
:10A3800048B3002084F820002068E1692C30FDF7F4
:10A390007EFA94F820208118206890F837309A1AB5
:10A3A00003F068FC002817D0A6EB050909EB0700AD
:10A3B000B0F5007F01D9C7F5007920684A46406FA3
:10A3C000C1190AEB0500F6F738FA07EB0900C705D3
:10A3D000FF0D03D007E04046BDE8F08794F8200069
:10A3E000401C84F820004D44B542BDD3E0682844A9
:10A3F000E0602846F0E70000ECFA0008281800208A
:10A400002DE9FE4F0E46002803DB7D49097888427E
:10A4100002DB0420BDE8FE8F00EBC001794800EBB1
:10A420008104208AC1067DD480077BD00C2021685E
:10A4300000F0EAF820B1218A41F010012182E9E719
:10A44000E068B04201D10020E4E7A068B0426AD2DF
:10A45000A069E8B1206890F8360001F0E9FFD4F86F
:10A460000080814698F8360001F0E2FFE569074672
:10A47000424602A92846FCF7ABFEB8B10298B842A2
:10A4800016D0B9F1000F13D00546A9F10109EFE785
:10A4900004F118002168FCF766FE38B12168A06954
:10A4A000FDF7A2F910B1A069009005E00820B1E71E
:10A4B000E5610298CDE90050A0682268410AC0F326
:10A4C000080792F83720A6EB0008B1FBF2F302FB75
:10A4D000131500203DE0206800992C30FDF7D7F9D6
:10A4E00000EB050BA8EB090A0AEB0700B0F5007FAB
:10A4F00001D9C7F5007A27B15946206803F0F7FB68
:10A5000080B120685146406F3844F6F715FA594635
:10A51000206804F0E8FE28B107EB0A00C705FF0D2C
:10A5200015D101E047E01CE021686D1C91F837006F
:10A53000A8420CD101A8FCF716FEE0B3DDE900014A
:10A54000226802F019FBB0B301980025009009EBD6
:10A550000A0081464045BED3A16801EB0800A06017
:10A5600047E0208A40F080002082E068B04206D9AF
:10A57000A06900902068406DB6FBF0F513E0E36938
:10A5800000932268516D4D1EA843301AB0FBF1F5BF
:10A5900094F8200092F83710884204D16946184692
:10A5A000FCF716FE38B10098019055B10098019063
:10A5B0006946226800E012E0FCF70AFE78B16D1EE1
:10A5C000F4D1206890F8360001F032FF00998842FB
:10A5D00007D1206890F837500198009009E00120D9
:10A5E00018E72168700A91F83710B0FBF1F201FB0F
:10A5F00012050098E06184F82050E66023E700002F
:10A60000ECFA00082818002038B505460C46C007AB
:10A6100002D0207BC00712D0A80623D4207B80065E
:10A6200020D500200090A06869464269002090472C
:10A630000098010605D5E06820F0200011E0072011
:10A6400038BDC10705D08007E06808D520F01000AC
:10A6500007E0E06820F00E00E0600A2038BD40F01E
:10A660001000E060A80704D5207B800701D40920F2
:10A6700038BD680702D5207B400709D5280702D5D9
:10A68000207B000704D5E80604D5207BC00601D452
:10A69000032038BD002038BD2DE9F74F82B01646A3
:10A6A0004FF0FF3700281DDB5A490978884219DA34
:10A6B000594900EBC00001EB80040398002811D039
:10A6C000208AC1060ED481070CD000F00F000128AB
:10A6D00008D02C202168FFF797FF20B1208A40F096
:10A6E0001000208284E02068007BC00679D5208A93
:10A6F0004FF4007B40F04000208210F0880F04D01F
:10A7000020F080002082D84601E04FF00008A069C8
:10A7100058B904F118002168FCF725FD002867D01E
:10A72000A069E061002084F820004FF0000A68E092
:10A73000E068811C67D0216894F8202091F83730B8
:10A740009A4218D1A268904206D20A4604F11C012E
:10A75000E069FCF73DFD0AE004F11C00E569FCF747
:10A7600002FDE8B328462268E16902F005FAC0B3A9
:10A77000002084F820002068E1692C30FDF787F87C
:10A78000014694F82000354608440090E068C0F384
:10A79000080909EB0501594501D9C9F50075A91C3E
:10A7A0004942884201D9801C4542B9F1000F01D1CC
:10A7B000454504D22068009903F099FA88B10398BE
:10A7C0002A4600EB0A012068406F4844F6F735F846
:10A7D0002068009904F087FD18B1761BAA4401E0B7
:10A7E00011E005E0E0682844E060C00509D103E01D
:10A7F000384605B0BDE8F08F94F82000401C84F87E
:10A800002000002E94D1D4E90210884200D9A06023
:10A810003046EEE7ECFA000828180020FCF74ABBA7
:10A8200010B50246802A01DA10461BE051B1FF2A1A
:10A8300001DD002304E0A2F180030B4C34F8133057
:10A8400018460FE0002007E0074B33F81030934222
:10A8500000D103E0431C98B28028F5DB00BF00F173
:10A860008003D8B210BD00004CF50008024600215C
:10A8700000E0491C094830F8110020B1074830F8C1
:10A8800011009042F5D1054830F8110018B1044884
:10A8900030F8110070471046FCE700004CF6000845
:10A8A0002CF8000870B50E46002100F037FF002894
:10A8B00002DA4042C5B21CE00F4901EBC005E8795D
:10A8C00040072868446808D514B1204600F08FFF7F
:10A8D00031462868FFF70CF806E014B1204600F076
:10A8E00086FF2868FEF750FA054614B1204600F0AE
:10A8F00089FF284670BD000048FB0008F0B5002421
:10A900000E4B0F4E15E01D8AAF0710D01F689742FF
:10A910000DD15F69D0F800C0674508D15F8AD0F8D3
:10A9200004C0674503D10D4201D00120F0BD24339E
:10A93000641C3578AC42E6D30020F0BD2818002016
:10A94000ECFA00082DE9F0410446E079032812D121
:10A95000A568A7690BE06A1C2946206803F0A8F8DF
:10A96000064616B13046BDE8F0816D1C7F1E002FF3
:10A97000F1D10020E0710020F5E72DE9F74F054601
:10A980000E46B61EA869801EB04200D80026344686
:10A99000A2464FF0000B00BFE86A00EB14312846D6
:10A9A00002F0CAFB18B14FF0FF30BDE8FE8FC4F3D0
:10A9B000C80904F0070101208840C7B200BF00BFEA
:10A9C00005F1340010F8090000EA07087806070EC0
:10A9D000601C0446A969891E884203D3002400270D
:10A9E0004FF48059B8F1000F08D10BF101008346F4
:10A9F0000299884205D10AF10200D6E7A2464FF03B
:10AA0000000BB44201D10020CFE7002FD8D101279D
:10AA100009F101008146B0F5007FD0D3BCE730B525
:10AA20001FE00B7893421BD101231A46401C07E01C
:10AA300005786C4034F0200413D1401C521C83B1C3
:10AA40008C5C002CF4D163B10378202B06D02F2B23
:10AA500004D01BB10D2B01D00A2B02D1801A30BDBE
:10AA6000401C10B10278002ADBD1002030BD00006C
:10AA70002DE9F74F8CB000210D9801600C9801F082
:10AA8000EEFD0A900A98002803DA0B200FB0BDE80B
:10AA9000F08FFE490A9851F820400CB90C20F5E7D8
:10AAA0000D9804600E9820F001000E90207888B177
:10AAB0006078FDF767FF0990099800F0010048B938
:10AAC0000E9828B1099800F0040008B10A20DDE7CB
:10AAD0000020DBE7002020700A9860706078FDF7A6
:10AAE00079FE0990099800F0010008B10320CDE734
:10AAF0000E9828B1099800F0040008B10A20C5E7B3
:10AB0000002631462046FCF723FE8146B9F1020FAC
:10AB100003D0B9F1020F2CDA2BE0002511E004F587
:10AB2000F97000EB05100B900B98007920B10B9891
:10AB3000083001F0CEFF00E0002002A941F8250016
:10AB40006D1C042DEBD3002505B16D1E00BF02A8BE
:10AB500050F8256026B131462046FCF7F9FD00E0AB
:10AB600003208146B9F1020F03DB681C0546042867
:10AB7000EDD3B9F1040F01D1012087E7B9F1020F3C
:10AB800001DB0D2082E7B9F1010F78D10B2500E040
:10AB90006D1C402D04D204F13400405D0028F7D034
:10ABA000402D01D20D2071E704F19C0001F0CEFF91
:10ABB000B0F5807F01D00D2068E794F8A010012047
:10ABC0008840B0F5007F01D00D205FE704F17C00E4
:10ABD00001F08BFF871941F10008391E78F101005F
:10ABE00001D30D2052E704F1880001F072FFE0610B
:10ABF00094F8A200A070A078012801D00D2045E7AC
:10AC000094F8A110012088406081608908B90D2066
:10AC10003CE704F1900001F05CFF82460AF102007B
:10AC2000A061A069B0F1004F01D30D202EE726628C
:10AC300004F18C0001F04DFF3044E06204F1840027
:10AC400001F047FF304460626189E06A0AFB01005D
:10AC5000381A78F1000001D20D2017E704F19400B2
:10AC600001F037FFA0622046A16AFCF722FE0146F0
:10AC70000090204602F060FA10B1012006E723E0C0
:10AC800000250FE004F13400405D812809D104F172
:10AC90003401294401F1140001F01BFF022800D106
:10ACA00003E02035B5F5007FECD300BFB5F5007F9C
:10ACB00001D10D20EAE64FF0FF3060612061744859
:10ACC000E0604FF00409F4E004F13F0001F03EFFC2
:10ACD000B0F5007F01D00D20D8E604F14A0001F064
:10ACE00035FF8346BBF1000F04D104F1580001F099
:10ACF000F0FE8346C4F81CB04420005DA070A0782C
:10AD0000012804D0A078022801D00D20BEE6A0784A
:10AD10000BFB00FB4120005D6081608918B16089F8
:10AD2000411E084008B10D20B0E604F1450001F0D5
:10AD30000DFF2081207A00F00F0008B10D20A5E65C
:10AD400004F1470001F002FF0890089820B904F1CF
:10AD5000540001F0BEFE089004F1420001F0F6FE3E
:10AD60000190019808B90D2090E601985844218976
:10AD700000EB11100790DDE90701814201D20D209F
:10AD800084E6DDE90710401A6189B0FBF1FABAF1F7
:10AD9000000F01D10D2079E64FF0010940F6F67061
:10ADA000824501D34FF002094FF6F670824501D378
:10ADB0004FF003090AF10200A061266201983044B5
:10ADC000606207983044E062B9F1030F13D104F1D7
:10ADD0005E0001F0BBFE08B10D2057E6208908B1E6
:10ADE0000D2053E604F1600001F073FEA062A0693B
:10ADF0008000069015E0208908B90D2046E6606ABB
:10AE00005844A062B9F1020F02D1A069400007E0E6
:10AE1000207E00F00100A16901EB410100EB51002F
:10AE20000690E169069800F2FF10B1EB502F01D2B5
:10AE30000D202BE64FF0FF306061206180202071F3
:10AE4000B9F1030F35D104F1640001F07FFE012850
:10AE50002FD1711C204602F06FF950BB00202071E9
:10AE600004F2322001F072FE4AF65521884220D1C8
:10AE700004F1340001F02DFE0649884219D104F591
:10AE8000067001F026FE0449884207E01000002009
:10AE9000BC000020525261417272416109D104F537
:10AEA000077001F016FE606104F5087001F011FEF4
:10AEB000206184F8009004480088401C80B2024958
:10AEC0000880E0800020E1E51800002010B504466D
:10AED00000F08CFB0021204600F020FC002802DA64
:10AEE0004042C0B210BD0A4901EBC004201D01F070
:10AEF000EBFB0146E079400720680160206803D53C
:10AF0000BDE81040FEF780BFBDE81040FDF741BF2F
:10AF100048FB000870B5002100F000FC002802DAB0
:10AF20004042C5B21BE00F4901EBC005E87940077C
:10AF30002868446807D514B1204600F058FC2868FA
:10AF4000FFF704F806E014B1204600F050FC286832
:10AF5000FDF721FF054614B1204600F053FC2846BA
:10AF600070BD000048FB00082DE9F34105462C4662
:10AF7000266802E00198401C0190019800782F2873
:10AF8000F8D0019800785C28F4D00020A0600198E7
:10AF90000078202808D28020A96BC872002128469A
:10AFA000FDF7C2FB07464EE000BF01A92846FCF7AB
:10AFB0007FFE074607B145E02846FDF7CDF8074676
:10AFC000A86B90F80B803FB1042F04D100BF08F0AC
:10AFD000040000B9052735E008F0040000B131E0B5
:10AFE000A07900F0100008B905272BE0307804287C
:10AFF0001DD1A068E061206920F0FF00E1790843DD
:10B000002062E86B6062F16801F1340001F061FDDB
:10B01000A060F06890F8210000F00200E071F16893
:10B0200001F1380001F061FDC4E9040109E0288D57
:10B03000C0F3080206F134001118304601F036FD65
:10B04000A060B2E700BF3846BDE8FC81C17811F0CE
:10B050001F0100D10121027902F00F020C2A00D851
:10B0600002B90122807941EA4211A0F2BC7000F0DD
:10B070007F0041EA402070478178C1F344011D29D7
:10B0800000D90021427802F03F023B2A00D9002279
:10B09000007841EA421100F01F00172800D917205C
:10B0A00041EAC02070478A68002A01DCF6F759B9E6
:10B0B000521E8A604A68C0B2531C4B6010707047C1
:10B0C0002DE9FE43884604461D4617460020596A6E
:10B0D000FDF76CFE0020CDE9004004460220696ABD
:10B0E000FDF764FE01466846FDF788FE06000DD0B8
:10B0F0000120696AFDF75AFE2A4631466846FDF787
:10B100008BFE0028EAD001281BD02CE001262A461D
:10B1100002A96846FDF7B0FE28BB0298FDF7CEFEF7
:10B12000012802D008B10024E6E71CB90098386075
:10B1300001987860641CE4B24445DDD10020BDE88C
:10B14000FE8329466846009EFCF70DF858B12A4652
:10B150003046009901F010FD28B129460098FCF70F
:10B1600043FB0028BAD10120E9E7F0B50F46D0E94A
:10B17000001285B00025CDE90012047AE5263A4692
:10B1800002A96846FDF778FEA0B90298641E067011
:10B1900004D00198C043000701D005E001253946DD
:10B1A0006846FDF70FFE28B93A4601216846FDF7CB
:10B1B00033FE10B1012005B0F0BD002DDFD000201E
:10B1C000F9E770B50D460646496A0220FDF7EEFD27
:10B1D000040008D001463046FDF710FE18B12046A5
:10B1E000696AFDF7E5FD002070BD00002DE9F04F14
:10B1F0008BB004460068019000200E460290039038
:10B2000006900590814683468246496AFDF7CEFD49
:10B210000090002701A80099FDF7F0FD050061D11D
:10B22000324604A901A8FDF727FE00287ED1049824
:10B23000FDF744FE00287AD0032802D00428EED17E
:10B2400054E0DDF810E09EF8000041060ED520F035
:10B2500040099EF80DB04FF0FF300390002006909B
:10B26000DDE901014FF0010AC4E904019EF80D1067
:10B27000594538D19EF8000000F01F00401E00EB39
:10B28000800101EBC000217BC0B2091AC9B20D29AF
:10B2900000D90D21A3687246034400200DE0DFF8B9
:10B2A00040C113F800801CF800C012F80CC08CEAF2
:10B2B000080C3CF0200C0DD1401C8842EFD30D2926
:10B2C00004D24749085C1EF8000018B90598401CD4
:10B2D000C0B20590706A00286AD01046039901F048
:10B2E000D9FC039064E00020059061E0BAF1000F02
:10B2F0000BD005994FF0000A894506D1049803F058
:10B30000D6FC584501D1012006900020059009F196
:10B310000100C0B22076012806D1DDE90101C4E9AF
:10B32000040100200690039007A801E054E055E0D6
:10B33000049903F08BFC227B904206D107A8A168F8
:10B34000F5F743FA08B9012006900320716AFDF76A
:10B350002DFD009010B30099039888610098C16991
:10B36000049803F097FC0099C86100982168016275
:10B370000098217EC162207E012804D900982169AD
:10B380004162616903E0DDE90001416202990098D0
:10B390008162716A0098FDF711FD0127069828B1B6
:10B3A0000498606000200BB0BDE8F08F4FF00009FA
:10B3B00055EA070004D00120716AFDF7F7FC009000
:10B3C00005B901253246294601A8FDF725FD0028CB
:10B3D0003FF41FAF012801D00120E4E70D20E2E790
:10B3E00030FC00083EB50446486A0D4640B1217B5A
:10B3F000A06801F06DFF02A96A6AFDF7E1FC08B1DF
:10B400000D203EBD029890F82C102176416A2161F2
:10B41000816A6161416A0091806A0190217E0129FF
:10B4200004D92A466846491EFDF7F6FC2A46211D26
:10B430006846FDF721FD0028E3D001203EBD000055
:10B440002DE9FF4F4FF0000993B004461030CB4672
:10B450004D464E46C846CA460C90211D169A0C9879
:10B46000FDF70AFD00287DD16068FDF727FD20B1BA
:10B47000032806D004285AD15CE00D2017B0BDE89F
:10B48000F08F606804900078410620D520F04005D8
:10B4900004984FF0FF394FF0010A90F80D80D4E97D
:10B4A0000401CDE90501149888B1049801F054FB1A
:10B4B0000146681E00EB800202EBC0000844C0B2E7
:10B4C0001599421C8A425BD8149900220A540498A8
:10B4D000417B41452CD1761C1498F6B2F8B1049802
:10B4E000007800F01F00401E00EB800101EBC0005F
:10B4F0001499C0B20F1804990191084601F02CFB71
:10B5000002460020384B019907E000BF13F800C045
:10B5100011F80CC007F800C0401C9042F6D31698F2
:10B52000406A20B14946049801F0B4FB814651E0DD
:10B5300000264FE0BAF1000F10D04FF0000AB542DC
:10B540000CD1606803F0B3FB404507D1DDE905018C
:10B55000C4E90401681C4FF0010B20766D1CEDB2AC
:10B56000012D00E03EE015D11498AB4670B10DA856
:10B57000616803F06BFBC0B21599401C884201D38F
:10B5800004207BE76168149803F060FB01202076BB
:10B590004FF000091698416A0320FDF707FC0700E9
:10B5A00013D0C7F81890F969606803F073FBF8616D
:10B5B00020683862207EF862206978626069B8622B
:10B5C0001698416A3846FDF7F9FBBBF1000F01D030
:10B5D000002053E70121169A0C98FDF71DFC002866
:10B5E0003FF43BAF012049E730FC00082DE9F04172
:10B5F0001F4D2878002838D100F0D8F84FF47A7120
:10B60000B0FBF1F11B480126016001B90660002082
:10B610000146194B194A05E000EBC00403EB840412
:10B62000401C21821478A042F6D30020144B154A06
:10B6300006E000BFC0EBC00403EB8404401CA18102
:10B640001478A042F6D3104F0024DFF8408007E0C2
:10B65000F879C00702D0204600F0E2F8641C0837F1
:10B6600098F800008442F3D32E70BDE8F08100000A
:10B67000900000207C00002028180020ECFA000830
:10B68000B8180020EDFA000848FB0008EEFA0008A0
:10B6900001784E2902D1407800F002B870470000CE
:10B6A00010B530282CD1174800F0AAF8164900220E
:10B6B000144C4860134818344030886013480861BF
:10B6C00010204A6248611148783800F11803C3E934
:10B6D000000450330E4C1C600E4C5C601A730E4C10
:10B6E000C0E90043074B1B1D8360C274027501F162
:10B6F0008400A1F56072426088624020A1F8800059
:10B7000010BD0000F0FA0008DCD900205C19002010
:10B710000D3900088CFA000821390008F0B578B11D
:10B7200003780124D3B123F0200363F307024378A5
:10B7300063F30F223A2B06D085783A2D09D00DE01D
:10B740006FF00300F0BD302363F30F2229B1831C97
:10B7500002E01BB109B1C31C0B6000240023104F91
:10B76000D5B2C2F30726DFF83CC011E007EBC302F5
:10B7700024B101B108600C480078F0BD92F804E0F3
:10B78000AE4504D15279B24201D11846F0BD5B1CDE
:10B790009CF800209342E9DB6FF00400F0BD00004C
:10B7A00048FB0008EEFA0008A90000204FF47A7068
:10B7B000704701F0DBBE00000449054A0988128881
:10B7C0004143504301EB1040704700001CFA000851
:10B7D0001EFA00080C2101700021417081700121C6
:10B7E000C17001714FF4FC61C1800020704710B539
:10B7F0000024611E01F0F4FE00B10124204610BDBA
:10B8000001F0CCBE10B5002401F0DEFE00B1012431
:10B81000204610BD084670474FF0FF307047704714
:10B82000002807DB04490978884203DA03490870D5
:10B830000020704701207047EEFA0008A9000020A0
:10B8400010B50446806B618E0144204602F04FFA29
:10B8500040B3606F00F5FE7000F036FF1449884277
:10B8600020D1606F00F030FF124988421AD1606F1A
:10B8700000F5F27000F028FF0F49884212D1606F86
:10B8800000F5F47000F020FFE16C81420AD3A06162
:10B89000606F00F5F67000F017FF022802D3E16C2C
:10B8A000814201D2012010BDE061002010BD0000E6
:10B8B000000055AA525261417272416110B50446AE
:10B8C000406F4FF40071F5F737F81249606F03F0DD
:10B8D000B5F9606F104900F5F27003F0AFF9606FD1
:10B8E000A16900F5F47003F0A9F9606FE16900F552
:10B8F000F67003F0A3F9606F4AF6552100F5FF706A
:10B9000003F098F9618EA06B01442046BDE8104019
:10B9100003F0E9BC525261417272416110B501609D
:10B92000417ECA070DD0002202618368436102761E
:10B9300041F002014176F6F7A3F8002800D001207B
:10B9400010BD002010BD032A01D200207047C0E9BD
:10B950000212417E41F001014176012070472DE93C
:10B96000F05F0446407E994692468B4680071ED57E
:10B9700065690127207E05280CD2DFE800F0090365
:10B9800005070900022006E0032004E0042002E08D
:10B99000277601E000202076207E2E46C84601282A
:10B9A00014D002282FD0032804D004282BD0002044
:10B9B000BDE8F09F5E46BAF1000F07D02068012273
:10B9C0004946C368504698470028F1D020680122B4
:10B9D0004146C368304698470028E9D0207E0328B6
:10B9E000C8D06D1C0428C5D16069C01C6061D4E951
:10B9F00002120A44101A032800D261612069401C17
:10BA000020610120D4E7524659462046D4F80480EC
:10BA1000FAF77EFBD8E710B5012420B1012806D043
:10BA2000022807D10FE099B1802008600FE079B1BA
:10BA3000086808B102240BE01146012000F0E6F886
:10BA4000012804D004E0104600F004F8F8E70024D0
:10BA5000204610BD2DE9F05F044690F84C004FF0F1
:10BA6000000820F0060084F84C0081B108782F28E7
:10BA70000DD148784C280AD188784C2807D1C8784D
:10BA8000452804D10879422801D14FF0010894F8E3
:10BA90002600F7F75DFE4FF40077874094F8260004
:10BAA000012800D17F1D2046F8F7ECF900287DD150
:10BAB00094F84C00800702D5218CA07F0F184FF01E
:10BAC000000BDA46A4F840B05D4658E04FF000099C
:10BAD0004FEA090694F82810224605FA01F030448E
:10BAE000A16CF6F765FC18B10C2801D00D287AD1AD
:10BAF000A06CC05DFF2802D04FF0010907E0012EC5
:10BB000024D0761C206880688089B042E2D194F805
:10BB1000280005FA00F639EA08001CD0B9F1000F38
:10BB20002CD020688068C188A06CF4F705FF2246FD
:10BB30003046A16CF6F790FC60680188A94215D8E0
:10BB40004188A94212D30BF1010B17E020688068ED
:10BB50008689761ED6E721463046F6F7F1FB68B1B6
:10BB60000F283FD1E08F401CE087DAE78188A942A7
:10BB700004D8C088A84201D30AF1010A6D1C2068CC
:10BB800080688068A842A1D82068FF228068C188A8
:10BB9000A06CF4F7C9FEA06C1B49016062681288B2
:10BBA0004260626852888260626800E01AE09288AF
:10BBB000C2606268D2880261A27F4261227FC0E9CE
:10BBC00008A1C0E9062B20688068C07C012803D149
:10BBD0002046A16CF6F780FC22460020A16CF6F707
:10BBE0003BFC10B10020BDE8F09F2046F7F7CCFBEE
:10BBF00051462046F5F70AFF24F8400F207B40F01D
:10BC0000060020730120EEE74C54464B18B1012882
:10BC100004D000207047084600F028BB084600F01A
:10BC2000D9BA61B158B1B1F8402091F829108A40D1
:10BC30004FF4007102608180C180012070470020B4
:10BC4000704700002DE9FF4F054693F84C008BB07C
:10BC50001C461746400703D404200FB0BDE8F08F00
:10BC600001208246069094F829004FF00009C8464A
:10BC700025FA00F0E0E000BF4FF00008BAF1000F35
:10BC80000AD094F82900C24625FA00F101AA2046FC
:10BC9000FAF7F9F80028E0D10198834601464FF6FB
:10BCA000FF70814202D14FF0010915E002998142F3
:10BCB00012D0002006908B4603AB2A462046F9F7A7
:10BCC0007FFF48B105280FD00A2801D00B28C4D126
:10BCD00001200690DDF804B094F82660761E2E4010
:10BCE000B9F1000F08D066E0206801AB002280683F
:10BCF00080890090216B59E0019959453FD101207D
:10BD0000069094F829100A238840401E94F82710C2
:10BD10002840C840039094F828200BFA02F101440F
:10BD2000208C628C02FB06022046F5F7DDFD48B14F
:10BD3000052892D1206801AB01228068808900909B
:10BD4000216B33E0217FA06C08440021F7F7DEFA75
:10BD5000A84207D1617FA06C405CFF280FD04FF054
:10BD600001080CE003AB2A4620460199F9F728FFA9
:10BD700028B10528DED00A288DD14FF0010994F8AA
:10BD8000281000220BFA01F0039901442068806812
:10BD9000C3882046F5F7A8FD68B1052897D120682B
:10BDA000069A01AB806880890090216B2046F8F7E5
:10BDB00063FAE8B351E7A18C208C01FB06FB618C90
:10BDC00006FB0100009026E0B9F1000F06D0FF222B
:10BDD0004FF400710C98F4F7A7FD0FE0A16C4FF43D
:10BDE000007259440C98F4F728FD617FA06C01445F
:10BDF0000098405CFF2801D04FF001080C986D1CA2
:10BE000000F500700C90A18C00988B44618C761C1E
:10BE100008447F1E00901FB194F82600B042D3D88A
:10BE200094F82900691EC14025FA00F0814200E023
:10BE300003E002D24FF0010A2063002F7FF41CAF11
:10BE4000B8F1000F01D0012007E7002005E700004E
:10BE500010B5012420B1012800D00024204610BDD7
:10BE600008680349496888470028F6D1F6E70000CA
:10BE700050FB00082DE9FF4F054693F84C0093B0A6
:10BE80001C46400703D4042017B0BDE8F08F94F897
:10BE9000290025FA00F02063159810B986E00F9864
:10BEA00058B100200F9094F8290001AA25FA00F15A
:10BEB0002046F9F7E8FF0028E6D14FF000094FF0DF
:10BEC000FF364FF6FF700696CDE91090CDF824901E
:10BED0000E9694F82610CB46491E25EA010801214A
:10BEE000039101998A4681420ED10123032201A9BF
:10BEF0002046F5F7B5FC0028C6D10120109000209F
:10BF0000DDF804A00E909FE002984FF6FF77B8424C
:10BF10004ED08246014609AB2A462046F9F750FE2C
:10BF200020B1052825D00A280FD111E00298099EDA
:10BF30001190701C0ED009AB6FF0004220460299A0
:10BF4000F9F73EFEE8B1052813D00B289CD1F0E0AC
:10BF500009980E9009AB2A4620460199F9F730FE60
:10BF6000A0B1052868D00A288ED1DDF804A0099870
:10BF700041E0206801AB0022806880890090216B3D
:10BF80000CE00020039009980E9037E00198119082
:10BF90000020DDF808A0099E03902DE02046F8F768
:10BFA0006BF9002888D11598002886D100206BE70E
:10BFB00009AB2A462046F9F703FE30B105283BD0ED
:10BFC0000A28F4D109980E9006E0019811900020FB
:10BFD000DDF808A0099E0390BA450DD10123022285
:10BFE00002A92046F5F73CFC0028E0D10120DDF84D
:10BFF00008A0109000200E90701C25D0454504D15B
:10C0000094F826101598814225D9206894F82810B4
:10C0100000228068C3881198884081192046F5F76E
:10C0200063FCC0B10528C2D1206801AB069A8068C4
:10C0300080890090216BB1E7206801AB0122806804
:10C0400080890090216BA9E72068FF228068C18861
:10C05000A06CF4F769FC94F82600DDF850B0401E9F
:10C060002840002606901296278C2AE006988642E1
:10C0700016D1A16C12984FF4007208445946F4F797
:10C08000DCFB627FA16CFF20114409F101097854A7
:10C0900015990BF5007B494502D00698401C069087
:10C0A000217FA06C0844C21940460399FAF7D2F8E0
:10C0B000A18C129808F1010808441290608C761C3B
:10C0C000074494F82600B042D0D894F828100AFA11
:10C0D00001F00E9901442046F5F764FC98B10E2852
:10C0E000A1D10E98009001AB216B2046039AF8F77E
:10C0F000C3F8002897D1002251462046F7F736FBB7
:10C10000002890D160E0109850B194F8290002AB5B
:10C1100025FA00F101AA2046FAF7B2FA0028DFD189
:10C120000398E8BB20680E9980688089401E884289
:10C1300038D101231A4608A92046F5F791FB0028BB
:10C14000CED10898009094F82900012325FA00F137
:10C1500001AA2046F6F782FE10B10E28E9D093E638
:10C16000DDE90101CDE90A01089801904FF6FF7061
:10C17000029094F8290002AB25FA00F101AA2046AA
:10C18000FAF77EFA0028EAD10AA92046F6F7C2F9A2
:10C190000028E4D10BA92046F6F7BCF9002800E0FE
:10C1A00000E0DCD1B9F1000F05D015984D44A0EBAB
:10C1B0000900CDE914B094F82900691EC14025FAA0
:10C1C00000F08142FFF463AE159800287FF467AE5B
:10C1D000ECE600002DE9F843044690F84C000125F8
:10C1E00020F0060084F84C00C00729D01E4E2068BD
:10C1F000B168884720BB46F2A810FFF7DDFA8046F9
:10C20000FFF7D7FA0746726A2068694690479DF89B
:10C210000000400604D4FFF7CCFAC11B4145F2D31D
:10C22000726A2068694690479DF80000400607D56D
:10C230002046F6F7E5F818B92046F7F723FE08B1CF
:10C2400000250DE094F84C00800704D52046F7F750
:10C25000F3F900B1002514F84C0F40F004002070F1
:10C260002846BDE8F883000050FB00082DE9F041A6
:10C270004568044600262869A06468696061E86929
:10C28000A061686A60642889208268896082A889C0
:10C29000A4F842000427267767770520A0770620B8
:10C2A000E0774FF40470A084F90121846084206851
:10C2B00004F11C01007DFFF7B2FA20688168097C57
:10C2C00084F826108068007CF7F742FA84F827008B
:10C2D000206880688089F7F73BFA84F82800206896
:10C2E0008068C089F7F734FA84F829006888E08507
:10C2F000E888A0856663E687A4F8406084F84C600F
:10C3000026876687A68700204FF6FF73A9690EE08F
:10C31000666900EB400207EB820C26F80C30666978
:10C32000401C46F8221022689268928911442A899A
:10C330008242EDD80020421E296A0BE0A36907EB78
:10C34000C00643F83020A369401C995123689B68BC
:10C35000DB8819446B898342F0D82046F7F714F83C
:10C36000054920680968884710B10020BDE8F081C0
:10C37000012084F84C00F9E750FB00082DE9FF4F3D
:10C3800083B0814690461D460B224846049900F032
:10C39000BDFE052D18D92F4611E038F802BB002448
:10C3A0000BE0584667F35F0007464FEA6B0B07F454
:10C3B000803008B11D484740641C102CF1D3B8F8F8
:10C3C00000000028E9D13D46072400BF05F00F001A
:10C3D00000F1300ABAF1390F03DD0AF1070000F06D
:10C3E000FF0A2046641E01A901F800A02D09002DB6
:10C3F000ECD17E200855002600E0761CA64203D230
:10C4000019F806002028F8D100BF082C04D22046D5
:10C41000641C01A9085C00E020203146761C09F864
:10C420000100082EF1D307B0BDE8F08F2110010004
:10C43000012805D0022806D0032807D00020704725
:10C4400040F6FF7070474FF6FF7070476FF0704016
:10C4500070470000012805D0022806D0032807D025
:10C46000002070474FF47F6070474FF6F0707047C0
:10C4700000487047F0FFFF0F30B503460C461546E5
:10C480000021002206E0585C6054605C3A2800D12C
:10C490004A1C491C22B91BB1585C08B1A942F2D30D
:10C4A000AA4200D100220020A054981830BD2DE9E6
:10C4B000FC5F06460C463568022C02D3A869A042F0
:10C4C00002D84FF00109ACE04FF0FF39287801287D
:10C4D00006D0022830D0032841D0042877D152E07A
:10C4E000274607EB5707686A00EB5721284600F0FC
:10C4F00023FE00B194E038467F1CC0F3080105F12B
:10C50000340010F80180686A00EB5721284600F0DB
:10C5100013FE00B184E0C7F3080105F13400405C6C
:10C5200048EA002804F0010010B14FEA181001E0B9
:10C53000C8F30B00814673E0686A00EB14212846BB
:10C5400000F0FAFD00B16BE040F2FF1101EA440295
:10C5500005F13401501800F0F9FA814660E0686A8C
:10C5600000EBD411284600F0E7FD00B158E040F29E
:10C57000FF1101EA840205F13401501800F0A9FA14
:10C5800020F070494CE00023D6E90410594058408F
:10C59000014341D0B068A4EB000AD6E90420521E42
:10C5A00060F10000CDE900204FF40072DDE90001E8
:10C5B000F3F754FF6989B0FBF1FBF07902280AD147
:10C5C000DA4508D8DA4503D16FF0004001E024E0F5
:10C5D000601C814624E0F079032805D1B0695045FC
:10C5E00002D904F101091BE0F079022813D0686A2E
:10C5F00000EBD411284600F09FFD00B110E040F29E
:10C60000FF1101EA840205F13401501800F061FACB
:10C6100020F0004904E000BF00BF4FF0010900BF57
:10C6200000BF4846BDE8FC9F827A012A04D0022A56
:10C6300006D0032A0AD105E001EB4101890A02E094
:10C64000090A00E0C909028A8A4201D8002070471D
:10C65000C268408A1044084470470020704770B593
:10C6600002464FF0FF301568E5B1116800E0491C43
:10C670000D78202D02D30D783A2DF8D10D783A2D72
:10C680000FD1146814F8015BA5F130030A2B07D20F
:10C690008C4205D1022B03D218464D1C2946156049
:10C6A00070BD002000BFFBE790F83610032901D0D1
:10C6B00000207047C06A704741784FF6FF720078DB
:10C6C00002EA012108437047C1788278090641EAED
:10C6D00002414278007841EA022108437047000095
:10C6E00010B50446206807490840B0F1005F08D142
:10C6F0006068054908602068F3F7AFFD02480068EC
:10C70000804710BD0000FE2F300000200EB58022B3
:10C7100000B109B110460AE001780129FAD101A956
:10C7200000F020F8042801D0002000E01020DDE90E
:10C73000011203B000BD70B50D46040003D012B95C
:10C740002078012801D0802070BD204601F02CFD0A
:10C7500028B12946204600F030F8002070BD812025
:10C7600070BD000010B504468089002824D060897F
:10C7700004EB800000690860606840B160780228BE
:10C7800005D10021204601F013FF01F001FF04F163
:10C790000C0000BFD0E85F1F491E8AB2C0E8512FCD
:10C7A0000029F7D16089401C80B26081E18988420C
:10C7B00001D100206081042010BD10B501F0F8FE09
:10C7C000BDE8104001F0E4BEF8B5064617460C4639
:10C7D00090F83600FFF73EFE054627440CE032464F
:10C7E00069462046FAF7F4FC002803D00098A842D6
:10C7F00001D00020F8BD641CBC42F0D30120F8BD7C
:10C800000844401EB0FBF1F070472DE9F84F0026B8
:10C81000904689468346354600F0D5F8DBF84C4013
:10C820000746B246641C2AE05A4669462046FAF793
:10C83000CFFC00281CD00099C1F30B0001281BD0AD
:10C84000B0F57F6F18D0A0F57062F73A14D001B13F
:10C8500001269BF83710BBF880006D1CFFF7D0FF56
:10C86000A8420BD1C9F80040C8F8005016B9012001
:10C87000BDE8F88F0020FBE700252E46641EBC4271
:10C88000D2D8C9F800A0C8F800A0F3E72DE9F84312
:10C890000446002008600F46204600F094F8E56C3E
:10C8A0000646DFF898906D1C3FE022466946284610
:10C8B000FAF78EFC00283BD094F83600FFF7CAFD4B
:10C8C0000099884230D1294604F12C00FAF7DFFFA5
:10C8D00094F83710401E0144204601F008FA18B3BE
:10C8E000606FFFF7F1FE8046606F00F5FE70FFF7A6
:10C8F000EBFE0146C84517D1494515D194F83710CC
:10C90000B4F88000FFF77CFF281A00F1010894F8C2
:10C910003710B4F88000FFF773FF02464146204607
:10C92000FFF752FF012805D06D1EB542BDD800208B
:10C93000BDE8F8830120C7F80080F9E74A54414672
:10C94000F8B50C460546002102F0BAFB002839D0A4
:10C950000026694628462660FFF798FF01284FF019
:10C9600001010AD0284602F0ABFB00282AD0694614
:10C970002846FFF78BFF98B10021284602F0A0FB64
:10C9800000281FD095F83710B5F88000FFF738FF62
:10C990000646024628460099FFF716FF10B108E048
:10C9A000266008E032462846009900F014F8002876
:10C9B00008D0009820600021284602F081FB002862
:10C9C00000D00120F8BDC06C6422811CB1FBF2F1E3
:10C9D000401A801C70472DE9F04106460C468F181E
:10C9E00090F83600FFF736FD054607E03246294647
:10C9F0002046FAF73BFC002809D0641CBC42F5D362
:10CA000000213046FAF7E4FD002800D00120BDE8FF
:10CA1000F08170B504462C30FAF739FF054694F8DA
:10CA20003710B4F880002834FFF7EAFEE17B484372
:10CA3000421E29462068FEF786FF002800D001200C
:10CA400070BD7CB51E4605460B2A2DD800206C6FA4
:10CA500002E00B5C2354401C9042FAD320210B28A7
:10CA600002D22154401CFAE70820E0726846FEF723
:10CA7000B1FE6846FEF700FB014604F1160002F025
:10CA8000D9F86846FEF7E2FA014604F1180002F010
:10CA9000D1F83146284602F026FC28B12021686FE3
:10CAA000F3F74AFF01207CBD00207CBD70B5054630
:10CAB0000C4604F11A0000F049F8064628780328CD
:10CAC00005D104F1140000F041F846EA0046304672
:10CAD00070BD0146C8788A7842EA00204A7842EA66
:10CAE00000200A7842EA0020704770B50246D379E8
:10CAF0000024250245EA1364907940EA03232502C5
:10CB000045EA1364507940EA0323250245EA136499
:10CB1000107940EA0323250245EA1364D07840EAFD
:10CB20000323200240EA1364917841EA032321029F
:10CB300041EA1364507840EA0323250245EA13646E
:10CB4000117841EA03231846214670BD0146487812
:10CB50000A7842EA002070470246064B0020195C22
:10CB6000515C002904D0FF2902D0401C0D28F6D3C7
:10CB70007047000030FC0008FAF778BB70B5044637
:10CB80000D4628682060E869A06095F82000E071F3
:10CB9000286A20F0FF000021C4E90401686AE0630C
:10CBA0002046E16BFBF7C0FD06461EB9204600F0AB
:10CBB00003F80646304670BD2DE9F047044620686C
:10CBC000C768216B206800F0B7FA054615B1284602
:10CBD000BDE8F087606B0078852801D00220F7E778
:10CBE00020223846616B00F091FA7878461C0021CB
:10CBF0002046FBF781FB05460DB12846E8E7216B8F
:10CC0000206800F099FA05460DB12846E0E7606B10
:10CC10000078C02801D00220DAE7202207F12000A6
:10CC2000616B00F073FA032E01D3132E01D9042097
:10CC3000CEE74FF04008760100BF00212046FBF709
:10CC40005BFB05460DB12846C2E7216B206800F06A
:10CC500073FA05460DB12846BAE7606B0078C12823
:10CC600001D00220B4E707EB08002022616B00F03E
:10CC70004DFA08F12008B045DFD3384602F0A2FB98
:10CC80008146B81CFFF762FF814501D002209FE773
:10CC900000209DE77FB50A46074C00216D46635C86
:10CCA000C35C1BB16B54491C0D29F8D32846FCF713
:10CCB00005FD04B070BD000030FC0008ADF5007D3E
:10CCC0000024F6F755FBB9A0F6F7A0FF00287DD1A8
:10CCD000B7A1B8A0F3F73AFDBA4908600846006862
:10CCE000002861D0F5F7DEFD02212820F5F7B0FC21
:10CCF00008284ED100BFB3484FF4007201210368E9
:10CD0000B148F4F74DFCB14908600846006800B925
:10CD10003EE0002419E0032000EB8400AA49085CEF
:10CD20000006022101EB8401A74A515C00EB01409F
:10CD3000012101EB8401515C00EB0120114611F847
:10CD4000241008444DF82400641CA0480068B4EB8B
:10CD5000900FE0D39D480068C0F38F0269469C485D
:10CD6000F5F7DEFC10B101209A4908704FF400512C
:10CD70009948F6F760F8C0F10100C5B22A464FF4B1
:10CD800000519548F6F764F81420FBF765F9B2E70F
:10CD900000BF8C480068F3F70BFC90A185A0FDF75D
:10CDA0003DFDF5F74DFD7AE00020FBF713FD00286F
:10CDB00075D101228AA18B48FCF7AAF88A4908702C
:10CDC0000846007800286AD1012200E0D4E087A15B
:10CDD0008E48FCF7CBF88449087008460078002894
:10CDE0005AD1F5F75FFD02212820F5F731FC08281C
:10CDF00050D100BF754B4FF4007273498348FCF764
:10CE000003FA794908700846007810B96F4800683D
:10CE100000B93EE0002419E0032000EB84006A49D9
:10CE2000085C0006022101EB8401674A515C00EBBB
:10CE30000140012101EB8401515C00EB012011460E
:10CE400011F8241008444DF82400641C5F48006861
:10CE5000B4EB900FE0D35D480068C0F38F026946E1
:10CE60005B48F5F75DFC10B101205A4908704FF49A
:10CE700000515948F5F7DFFFC0F10100C5B22A465D
:10CE80004FF400515448F5F7E3FF1420FBF7E4F8A2
:10CE9000B0E700BFF5F7D4FC5C48FCF726F84D4836
:10CEA000007810B95A48FFF71BFC41A159A0F3F7CD
:10CEB0004DFC444908600846006800285CD0F5F73E
:10CEC000F1FC02212820F5F7C3FB08284ED100BF52
:10CED0003C484FF40072012103683B48F4F760FBC3
:10CEE0003A4908600846006800B93EE0002419E0AD
:10CEF000032000EB84003449085C0006022101EBAA
:10CF00008401314A515C00EB0140012101EB8401B5
:10CF1000515C00EB0120114611F8241008444DF833
:10CF20002400641C29480068B4EB900FE0D3274824
:10CF30000068C0F38F0269462548F5F7F1FB10B190
:10CF40000120244908704FF400512348F5F773FF7E
:10CF5000C0F10100C5B22A464FF400511E48F5F752
:10CF600077FF1420FBF778F8B2E700BF1548006898
:10CF7000F3F71EFBF5F764FC1648007810B9244857
:10CF8000FFF7AEFB11E04FF480411348F5F75EFF69
:10CF90004FF4FA70FBF760F84FF480410E48F5F754
:10CFA00053FF4FF4FA70FBF757F8ECE74E303A00B6
:10CFB000720000004E303A46345570646174612E40
:10CFC00062696E001C000020F80900202400002087
:10CFD000280000202C000020000802403100000042
:10CFE000303A00007005002020000020303A2F6306
:10CFF0006F64652F53544D3332463458585F557023
:10D00000646174612E62696E00000000A807002050
:10D01000000002084E303A46345570646174615F16
:10D0200042616B2E62696E0070B50D460446406F1A
:10D030004FF40071F3F780FC616F0020012681F846
:10D04000BE01606F314680F8BF61606F00F5E0702F
:10D0500001F0F0FD94F83600012804D0022806D033
:10D0600003280CD13CE0606F80F8C26107E0032D1B
:10D0700001D2042000E00620616F81F8C201194846
:10D0800005EB450100EB8101626F0879401E82F8D3
:10D09000C301887909896FF03F0202EB81110843CF
:10D0A00081B2606F00F5E27001F0C4FD606FA16BAA
:10D0B00000F5E37001F0C2FD606F216C00F5E570D2
:10D0C00001F0BCFD606F4AF6552100F5FF7001F0DC
:10D0D000B1FD2046BDE870400022114602F05AB969
:10D0E0000B20C9E794FB0008F0B503461D460C462B
:10D0F000002000BF15F8017B14F801CBA7EB0C0052
:10D10000561E321E01D00028F4D0F0BD30B50346C3
:10D110000C463AB100BF14F8015B03F8015B551EE1
:10D120002A1EF8D130BD10B5034600BF03F8011B1D
:10D13000541E221EFAD110BD70B504460D460026BD
:10D14000206BA84210D0204602F020F806465EB9B7
:10D15000607801232A4604F13401FBF7CFFB10B1BC
:10D160004FF0FF3501262563304670BD2DE9F05F95
:10D170000026032488468346B146B246012748E08C
:10D180000BEB070010F8015C2A2D01D03F2D01D1D7
:10D1900044F004042846FAF7AAFA022801D124F040
:10D1A000010436B109F10109B9F1030F01D924F0E5
:10D1B00001042E2D14D0A5F16100192802D92030C8
:10D1C000192809D8BAF1000F05D08AEA05008006AF
:10D1D00001D524F00104AA46082F19D9B6B117E0E9
:10D1E000761CF6B2B8F1010F03D0B8F1020F03D0EC
:10D1F00004E044F02004EFE7022E04D0012EEBD926
:10D2000024F00104E8E744F04004E5E724F00104D9
:10D210007F1C4745B4D92046BDE8F09F2DE9F05F5B
:10D22000074690460E460024084604E0395C2E2945
:10D2300001D1041E01D1401EF8D2002500E06D1C72
:10D24000785D202803D1B542F9D305E06D1C785DE7
:10D250002E2801D1B542F9D34FF00009CB461FE08B
:10D2600017F805A0BAF12E0F10D0BAF1200F16D082
:10D27000B9F1080F13D25046FAF739FA012808D04D
:10D280005F2088F800004FF0010B04E0A5420CD0AD
:10D2900005E088F800A008F1010809F101096D1CFA
:10D2A000B54202D2B9F1080FDAD35CB1002003E035
:10D2B0003A5D08F8012B641CB44203D20146401CBD
:10D2C0000429F5D3002188F800105846BDE8F09FE6
:10D2D0004FF0FF32FCF7F2B9F8B5474A4FF47A76CF
:10D2E000914201D9062412E042F20F72914201D913
:10D2F00005240CE0B14201D3042408E0632901D9DC
:10D30000032404E0092901D9022400E001240023B8
:10D310001A466D4602E02E2F04D0521C875C002F67
:10D32000F9D10FE013460027521C03E005F807C0AF
:10D33000521C7F1C10F802C0BCF1000FF6D11A4637
:10D3400000E0521E1719082FFBD27E278754521C6B
:10D35000072C42D2DFE804F0413E33281E120400BD
:10D36000254C264F641CB1FBF4F4674301EB4711D5
:10D37000092C00D9092430348454521C42F2107410
:10D38000B1FBF4F46FF41C7767433034845401EB41
:10D390000711521CB1FBF6F46FF07C066643303483
:10D3A000845401EBC601521C6424B1FBF4F46FF009
:10D3B000180666433034845401EB8601521C0A245B
:10D3C000B1FBF4F46642303406EB8606845401EB7C
:10D3D0004601521C30318154521C4BB12E218154D4
:10D3E0000021521C6B5C8354491C521C0329F9D345
:10D3F000002181540120F8BD9F860100CBF3FFFF7F
:10D4000030B50023137003785C2B01D02F2B00D193
:10D41000401C0023044601E0401C5B1C05781DB144
:10D420005C2D01D02F2DF7D1E0180B7001785C290D
:10D4300001D02F2903D1117841F008011170017832
:10D4400009B1407818B9107840F0100010702046EB
:10D4500030BD70B5064600200D46044605E0305D3F
:10D46000FAF745F9002802D0641CAC42F7D370BD2E
:10D47000014AFEF7D0BA0000FC1800200149FEF76F
:10D48000C5BB0000FC1800200149FEF7CABB000024
:10D49000FC18002010B5044BFEF7D4FB022801D283
:10D4A000012010BD002010BDFC1800200149FEF72E
:10D4B000CFBC0000FC18002010B5044BFEF7DAFCCE
:10D4C000022801D2012010BD002010BDFC18002050
:10D4D0008A7C02438A74704770470000EFF305802E
:10D4E00008B182207047EFF31480C00703D0DFF843
:10D4F0000CC000DF704701F093BC000021EE000873
:10D5000088B0EFF3058010B1822008B07047EFF3C8
:10D51000148010F00301134806D001291BD0022902
:10D5200011D0032919D113E008A981F309880078E3
:10D53000C0070BD05FF0020080F31488BFF34F8F59
:10D54000BFF36F8F09E00078C00706D10320F3E72F
:10D550000078C00701D0FF20D7E7DFF80CC000DF5C
:10D56000D3E7000024FA000891EE0008EFF30580ED
:10D5700008B100207047DFF808C000DF70470000E6
:10D58000D9EE0008EFF305820AB1FFF7BFB8DFF864
:10D5900008C000DF7047000035EF0008EFF3058199
:10D5A00009B100207047EFF31481C90702D1044983
:10D5B000497819B1DFF80CC000DF704701F0D7BC23
:10D5C000800000206FEF0008EFF3058109B1822091
:10D5D0007047DFF808C000DF704700008BEF0008DD
:10D5E000EFF305820AB182207047DFF808C000DF40
:10D5F00070470000ADEF0008EFF305820AB100208C
:10D600007047EFF31482D20702D1044A52781AB15C
:10D61000DFF80CC000DF704701F0E6BC800000209E
:10D62000E9EF0008DFF80CC000DFDFF80CC000DF16
:10D63000FEE7000055F0000871F00008DFF804C0B4
:10D6400000DF7047A9F00008094C4FF0FF3529466C
:10D650002068FFF797FF02460846102AF7D1FFF728
:10D66000EDFF0028F3D0024608469047EFE70000A0
:10D6700064000020012806D0022805D0032804D029
:10D68000042804D102E002E001E000E000BF00BF96
:10D6900000BFFEE700BFFEE7074801684FF0E0204B
:10D6A000416100218161072101610448016841F065
:10D6B0007F4101604017704720FA000820ED00E02C
:10D6C0007047000002480068C0F3806070470000A7
:10D6D00004ED00E04FF0E020806902490968081A73
:10D6E0007047000020FA00082DE9F74F98B0002598
:10D6F0000446057300F10D0900F10C080DF1280A2C
:10D700000DF1500B00F11006217BA0684A46084439
:10D71000A06065734146FFF773FEA060217BA1B155
:10D72000FFF724FD617B0843607310F0600F0CD19C
:10D7300081070AD0199911B140F0080060730120E7
:10D740002076607BC00704D031E006201BB0BDE826
:10D75000F08F217B0D2201F10C00B0FBF2F0401C98
:10D7600020760AAAA068FFF759FD1C22214603A8CB
:10D77000F3F7A8F80127CDF814A039467F1C0AA8B2
:10D78000FFF7AAFD002873D00AA8F3F737F88DF841
:10D79000180003A81A99FDF725FE0D2803D103A848
:10D7A0001A99FDF723FD0028E7D00D28CED1217E60
:10D7B000206832461A9BFDF783FC002876D11A9820
:10D7C000416A0320FBF7F2FA0290607B000717D54D
:10D7D00001A81A99F9F7C7FC002867D01A9901988F
:10D7E000FAF702F8002861D020681A9A0199FAF72E
:10D7F00083F9E8BB10201090207E012803D00AE0B6
:10D8000020200195F7E7227B0AA8A168F3F715F815
:10D81000217B0AF801500AAA0021104620275B4606
:10D820005F54491C0B29FBD3002702E0D955401C4B
:10D830007F1C017851B12E29F8D10821401C02E04B
:10D840005F54401C491C0778002FF9D10020195C57
:10D85000A1F16107192F01D821F020011154401CBA
:10D860000B28F4D3207E012817D9029868B100E074
:10D870001CE0217BA068FFF72BFD029988610298CC
:10D88000216941620298616981620AA801F00FFA78
:10D89000014620461A9AFAF799F91A9800903146EB
:10D8A0000AA8109B019AFAF719FB08B101204DE76D
:10D8B0000298C8B1C1690AA801F0ECF90299C861DF
:10D8C0000298216801620298217EC162207E0128AF
:10D8D00005D10298216941620298616981621A98B2
:10D8E000416A0298FBF76AFA1098102806D101984D
:10D8F00020601A994A6A0221FBF75CFA607BC00635
:10D900007FF502AF002021E770B5064600780D468E
:10D9100014465C280AD02F2808D0206A2860526A52
:10D920005FF00101FBF746FAAE6070BD1046FEF7EE
:10D93000BBFE28600021626AF4E72DE9F041002770
:10D9400000F10D06884604460773751E207BA1680A
:10D9500032460844A06067732946FFF751FDA06076
:10D96000217BF9B1FFF702FC617B0843607341073B
:10D9700034D4810716D080062DD441462046FDF7C9
:10D9800031FD0D2803D141462046FDF72FFC00282C
:10D9900009D1607BC0F3C10001281CD16068C17A45
:10D9A000C90602D40620BDE8F0811430FEF784FEDB
:10D9B0000004206060681A30FEF77EFE216808438C
:10D9C0002060617BD8F82420490601D5032100E0BE
:10D9D0000221FBF7EFF9607BC006B7D50020E2E734
:10D9E0002DE9F04107460078A8B1002040F2011867
:10D9F000044605463E5D5C2E02D02F2E00D03EB977
:10DA0000211A04D03844FFF724FD00B90125601C19
:10DA1000641C444501D9012502E00DB9002EE9D16D
:10DA20002846BDE8F08100002DE9F04780460C460D
:10DA300004F11A00FFF78AF810B10020BDE8F08762
:10DA4000207800F03F00401E00EB800101EBC00594
:10DA50004FF00109002619E01449895D0819FFF704
:10DA600075F80746B9F1000F09D0FF2D01D300204A
:10DA7000E4E7B94628466D1C28F8107005E04FF61B
:10DA8000FF70874201D00020D8E7761C0D2EE3D32B
:10DA9000207800F0400030B1FF2D01D30020CDE709
:10DAA000002028F815000120C8E7000002F5000852
:10DAB0002DE9F04704460D4616464FF00209022DA7
:10DAC00077D3A069A84274D92078012806D002280B
:10DAD0004BD0032861D004280DD15FE02F4607EB1F
:10DAE0005707606A00EB57212046FFF725FB814668
:10DAF000B9F1000F00D079E038467F1CC0F308016F
:10DB000004F1340001EB000805F0010028B1F1B286
:10DB100098F8000061F31F1000E0304688F800001C
:10DB20000120E070606A00EB57212046FFF704FBFC
:10DB30008146B9F1000F00D058E0C7F3080104F1A5
:10DB4000340001EB000805F0010010B1C6F3071026
:10DB500006E098F8000000F0F000C6F30321084347
:10DB600088F800000120E07040E0606A00EB1521B9
:10DB70002046FFF7E1FA8146B9F1000F00D035E009
:10DB8000B1B240F2FF1202EA450304F134029818E0
:10DB900001F0E8F80120E07028E000BF606A00EBC7
:10DBA000D5112046FFF7C8FA8146B9F1000F01D020
:10DBB0001CE01CE0207804280BD040F2FF1101EAA1
:10DBC000850204F134015018FEF783FF66F31B0051
:10DBD000064640F2FF1101EA850204F134015018B3
:10DBE000314601F085F80120E07000BF00BF4846D3
:10DBF000BDE8F0872DE9F04707460C4615469846E4
:10DC000084F80D800F20E07200202073002104F1C1
:10DC10001A0001F0A7F8681E00EB800101EBC009B3
:10DC200000200646824600BF4FF6FF70864204D0B1
:10DC3000484609F1010937F810600D4911F80A103A
:10DC40000819314601F08EF80EB94FF6FF760AF149
:10DC5000010082460D28E7D34FF6FF70864202D0BE
:10DC600037F8190008B945F040052570BDE8F08780
:10DC700002F5000870B50446406916460D4610B11D
:10DC800094F87C1029B129462046BDE8704000F088
:10DC90002EB894F87D2082B1216FA9420DD80A4494
:10DCA000AA420AD9A06F691A00EB41214FF4007211
:10DCB000606FF2F7C2FDE56617E0B04200D206469B
:10DCC000A068616F3246836828469847012806D0CD
:10DCD0004FF0FF30E066002084F87D0070BDE566FF
:10DCE0006D1C761E256784F87D60012070BD70B5BF
:10DCF0000446C06E0D46A84201D1012070BD206FC0
:10DD0000A8420ED894F87C100144A94209D9A16F09
:10DD1000281A01EB40214FF40072606FF2F78DFD7D
:10DD20000CE0A068616F01228368284698470128AB
:10DD300004D04FF0FF30E066002070BDE566DCE700
:10DD40002DE9F05F06460F4690464FF00009346813
:10DD5000BA46BB46022F02D3A069B84202D80220BD
:10DD6000BDE8F09FB8F1000F11D02078042802D14F
:10DD7000F07902280BD04FF0FF3241462046FFF7E2
:10DD800097FE8146B9F1000F01D04846E8E700BF91
:10DD900039463046FEF78BFB054605B93CE0012DC0
:10DDA00001D10220DCE7681C08B90120D8E72078FF
:10DDB00004280AD0002239462046FFF779FE814622
:10DDC000B9F1000F01D04846CAE76069401C30B184
:10DDD0006069401C6061207940F0010020710BF106
:10DDE0000100A84201D1AB4612E0207804280DD1F1
:10DDF000ABEB0A00421C002351462046F9F733FCE6
:10DE00008146B9F1000F01D04846A9E7AB46AA46C2
:10DE10002F46A069B842BBD800BF2078042812D191
:10DE2000B8F1000F02D10020F0710CE0F079032866
:10DE300009D1B068404506D8B169B068084440458A
:10DE400001D30220F07100208AE750E8001F31B1B1
:10DE50000B6840E80032002AF7D108467047BFF34C
:10DE60002F8FFAE710B568B161B10B3121F00302D1
:10DE7000016844680B1A1B1B934205D208460968C7
:10DE80000029F5D1002010BD210007D0211803681A
:10DE9000C1E90032016001F1080010BD42600830A4
:10DEA00010BD000070B50D46002812D04FF6FF716E
:10DEB000084C884204D222680146104600F0A6FBB6
:10DEC00020684570044800F0D9F8BDE8704000F0C3
:10DED0006FBC70BD88000020B0DA00200F4810B57C
:10DEE0000D4942680E480B680068934204D00A60EE
:10DEF000CB88421E1A448A808A8880B282420AD124
:10DF000000200860054800F0B9F80146BDE810405F
:10DF1000024800F09FBB10BDA0000020B0DA002036
:10DF20009C00002070B5194DE86800282CD0A88A04
:10DF3000401EA882002621E0A06838B161684160D7
:10DF4000606810B1A16881606660A6600F482146D4
:10DF5000183800F07FFBA08AA8826078042804D1DA
:10DF60000B49E08A09880844A08201206070E068BB
:10DF7000E860E06808B10561E6602661A88A0028CB
:10DF800002D1EC68002CD7D170BD0000C8DA0020A7
:10DF90009C00002070B504000FD00D4DA178012623
:10DFA0002868827891420CD900F070FB286846708E
:10DFB0002046BDE8704000F0FBBB064800F05EF86C
:10DFC000F7E766702146BDE87040024800F042BBAA
:10DFD00088000020B0DA002010B50446008B08430A
:10DFE00020836278618B062A18D0052A19D108424D
:10DFF00017D001EA0002628388432083204600F0A4
:10E000007FFB01206070628B0821204600F070FBCE
:10E010002146BDE81040034800F01CBB31EA000275
:10E02000EAD010BDB0DA0020814202D342688A42B1
:10E0300001D80120704702680A60BFF35F8F50E883
:10E04000003F0A689A42F6D140E80012002AF2D155
:10E050000020704768B161B10022083902E0024631
:10E06000006830B18842FAD12AB1006810600020FF
:10E0700070470120704700214160F8E70146406881
:10E0800042684A600B780022022B05D0012B03D096
:10E09000032B01D04260704743680BB19960426026
:10E0A00082607047810700D00020704770B5044639
:10E0B00000201546207001226270A17084F824109F
:10E0C0006060A060E06020612062A082E082208326
:10E0D000608384F82500E08C18B90548FFF7B5FE89
:10E0E000E06229462046BDE8704000F01DB80000FF
:10E0F000D80D002008B1082901D201207047014441
:10E10000091F002201600A6042601046704700004B
:10E1100003480021016003490988C180704700005D
:10E12000A000002014FA000870B5C28C1C4D9308A2
:10E1300002D12A88C2F38D03C26A02EB830254071C
:10E1400000D5121F4FF0807442E9021400242646C5
:10E15000B2F1400242F82460641C0E2CFAD3C46968
:10E160001462826201632968C90014D5112B12D987
:10E170004FF0FF31103B11EB53014FF0CC3305D082
:10E1800042F8043C42F8083D491EF9D1C16A121F09
:10E190008A4200D91360C06A0249016070BD000064
:10E1A00010FA0008A52E5AE2C1898089081A704722
:10E1B000012202700022427082704260028142811C
:10E1C000103982818908C181704700002DE9F04132
:10E1D000044640680E464FF0000804F10C05E8B311
:10E1E0006078012701283ED0022813D003285CD193
:10E1F0000846FFF72AFE050057D02046FFF73EFFEE
:10E200000446294600F06EFA6770204600F078FA5E
:10E21000214621E02046FFF731FF0646002100F0AD
:10E2200061FA2189F06904EB81010861D5E85F0F8B
:10E23000401C81B2C5E8501F0028F7D12089401C3E
:10E2400080B22081E189884201D1A4F808807770EA
:10E25000304600F055FA3146174800E00CE0BDE8C2
:10E26000F04100F0F7B92046FFF708FF04463246B8
:10E27000102100F03DFAC7E7A089E189884216D253
:10E28000208904EB80000661D5E85F0F401C81B255
:10E29000C5E8501F0028F7D12089401C80B220819A
:10E2A000E189884201D1A4F80880BDE8F081BDE889
:10E2B000F0410320FFF7DEB9B0DA002070B5044664
:10E2C000808915460026C0B3608904EB8000006990
:10E2D00008606089401C80B26081E189884200D179
:10E2E0006681606810B1607802280BD014F10C04CC
:10E2F000D4E85F0F401E81B2C4E8501F0028F7D158
:10E30000002070BD2046FFF7B9FE0546002100F051
:10E31000E9F92189E86904EB810108612089401C41
:10E3200080B22081E189884200D12681284600F010
:10E33000E7F92846FFF72EFEE2E7FFE73DB10B487D
:10E34000626801682AB1204600F084F908E00120E3
:10E3500070BD616001684E6000688460012060707B
:10E3600008212846FFF79EFDF1E700008800002005
:10E37000002814D0411C13D00C4A4FF6FE71904275
:10E380000CD800EB4002C2EBC0120948036803EB53
:10E39000C202521EB2FBF3F0884204D9084670470D
:10E3A0004FF6FF70704780B27047000000093D00D3
:10E3B00030FA000803210170002141804160816032
:10E3C000C16070472DE9F0410446408820B1314DCD
:10E3D000A1682A68914202D0FF20BDE8F081401E6A
:10E3E0000004000C608053D12968086AA04209D15A
:10E3F000E068086208E0C268A24202D1E268C26036
:10E4000002E010460028F6D191F824000A6A06E0DE
:10E4100053681BB19B78834200D91846D268002A02
:10E42000F6D18870DFF870806168012611B320464C
:10E43000FFF724FE0746002100F054F9384600F0AB
:10E440005FF96680A760386AE0603C622968D8F8A6
:10E4500004008A788078824201D3384616E00E485C
:10E4600000F0F8F839460C4800F0F4F828684670D7
:10E470007E700AE0D8F804108A782968824207D9A9
:10E48000054800F0E7F8286846700020FFF782FD95
:10E490000020A2E788000020B0DA002070B51C4DF3
:10E4A0000E4604464188286861B1A268824210D1B4
:10E4B000A1F57F40FF3803D0491C6180002070BD6A
:10E4C000FF2070BDA060016AE160046201206080ED
:10E4D000F4E776B191788078814203D29070A06899
:10E4E00000F0DEF8606830B12046296800F0B2F82C
:10E4F00008E0012070BD286860602968002048603D
:10E500002868846009213046FFF7CCFCF1E7000061
:10E510008800002070B51B48012102685170006816
:10E5200000F0B4F8184D6C7818E000BF05EBC4019A
:10E5300048680278EAB1012A20D000F00DF9E878A5
:10E54000641C844200D100240F48801CD0E84F1F77
:10E55000491EC9B2C0E8421F002AF7D1A878002896
:10E56000E4D16C700948FFF789FDBDE8704000F008
:10E570001FB9098989B2FFF72FFDE0E78968FFF726
:10E5800025FEDCE78800002048140020B0DA0020D7
:10E590000548017811B101214170704703494FF0DE
:10E5A00080500860704700009400002004ED00E0F7
:10E5B000F0B4154DAB1CEE784FEA0507D3E84F2FAA
:10E5C000B24202D1BFF32F8F11E0521CD4B2C3E884
:10E5D000424F002AF2D100BFD7E84F2F541CB4425B
:10E5E00000D10024E4B2C7E8434F002BF4D1EB780C
:10E5F000934205D905EBC202C2E90101F0BC7047A4
:10E60000F0BC0220FFF736B848140020104A10B5BD
:10E61000D368ABB113469B8A03E08CB12246A48A2F
:10E620002344D4688B42F8D3C460D0600261C468CC
:10E6300004B12061591A8182908A401A908210BDDB
:10E640000024C460D060C91A02619182848210BD26
:10E65000C8DA002030B502780023022A03D0012A4C
:10E6600001D0032A00D101238C7800E010464268D3
:10E6700012B19578A542F9D24A6041601BB102B14E
:10E680009160886030BD0020FBE7000003494A68C4
:10E69000426000228260486070470000B0DA0020CB
:10E6A00010B5836804462BB9607801280ED1084B59
:10E6B00003E09B6818780028FBD0204600F034F86F
:10E6C0002146BDE810401846FFF7C4BF10BD00004A
:10E6D000B0DA002090F82510806A09B160307047E8
:10E6E0002030704710B50C46FFF7F4FF046010BDF2
:10E6F00070B515460C46FFF7EDFFC0E9004570BD4B
:10E7000010B5016900290ED0C268CA60C368002232
:10E710003BB18B8A848A23448B82C3681961C260AF
:10E7200000E08A82026110BD816839B142684A60A6
:10E730004168002901D0806888607047054906E07B
:10E740004A68824202D140684860704711460029F9
:10E75000F6D17047B0DA002010B5416881B1FFF7FB
:10E760008DFC0446FFF7CCFF012060700146204677
:10E77000FFF7B8FF2146BDE810400348FFF76ABF26
:10E780004188491C418010BDB0DA0020064800686D
:10E79000D0E90A10814203D300680449884202D0BC
:10E7A0000120FEF767BF704788000020A52E5AE2BF
:10E7B0000749022248604270064A1278002A05D0B2
:10E7C00006C98A4202D0C078F9F73EBC7047000003
:10E7D00088000020A800002070B5F9F70DFC00208B
:10E7E0000446204A204902E042F82040401C0B88A1
:10E7F0009842F9D31D48342201881D48F8F788FB58
:10E800001C48008880B240F000421B4801681B4849
:10E81000F8F77EFB1A48082201881A480068F8F7C2
:10E8200077FB194DFF20194AE870EC840021284637
:10E83000FFF73CFC16480421017044601548017044
:10E84000C460046184821448154905600220687020
:10E850001248047044700978C170BDE87040FFF739
:10E8600057BC0000CC1400200CFA000838FA00084D
:10E87000600C002010FA00083CFA0008D80D0020B7
:10E8800060FA00086C0000207CDA002095D60008B1
:10E89000B0DA0020C8DA00208800002048140020E8
:10E8A00044FA00081B4810B5016841F47F0101607B
:10E8B00000684FF07F4101EA00201649C043143937
:10E8C000B0FA80F00968C0F10800C1F3022181426A
:10E8D00000D3481C0F49091F0B686FF080728240FB
:10E8E00063F317020A60FEF7D7FE0B4900280860A1
:10E8F0000EDB00F1E021FF2281F8002400F01F026E
:10E90000012191404009800000F1E020C0F8001191
:10E9100010BD000020ED00E0980000200C4810B56C
:10E920000268012151700068FFF7B0FEFFF7D6FAC8
:10E9300008480168491C0160FFF7F4FA00F050FC38
:10E940000548FFF79BFBBDE81040FFF731BF000013
:10E95000880000209C000020B0DA0020002805D0AC
:10E96000810702D10178002900D000207047000003
:10E9700030B50B4C0023626805E095688D4204D8E1
:10E9800013461268491B002AF7D10260816012B158
:10E990009568691A91600BB1186030BD606030BD38
:10E9A000800000202DE9F0411E46174680460D46A6
:10E9B00011F0FF0F00D14D1C1848FFF746FA041E56
:10E9C00016D0280AE762E084E9B242462046E661B2
:10E9D000FFF76CFB01251248124905E000EB8502A8
:10E9E00052F8042C32B16D1C0A889542F6D90020E9
:10E9F000BDE8F081002DFAD000EB850040F8044C12
:10EA00000948E570007818B101212046F9F70CFBA0
:10EA10002046FFF7BFFA2846EAE70000600C002016
:10EA2000CC1400200CFA0008A80000202DE9F05FAB
:10EA3000584DDFF85891DFF8588129684FF0010AE6
:10EA4000002618B1CA78AB46824243D14E70F1F726
:10EA500018FC29688862FFF799FE2868046A1FE09D
:10EA60006068C0B12046FFF709FB07460021FFF7A9
:10EA700039FE3846FFF744FE87F801A0394646487C
:10EA8000FFF7E8FDE168A4F802A0A760386AE0603B
:10EA90003C620C4604E0E0686680A660E6600446DE
:10EAA000002CDDD12868C27808EB820141F8046CA3
:10EAB000C16A3A48FFF7B8FA2868C66299F80010A8
:10EAC00011B10021F9F7B0FA35482968FFF7ACFA1F
:10EAD0002E6056E03349098888420CD808EB80083C
:10EAE00058F8045C3DB12846FFF71EFE2846FFF7A4
:10EAF00007FE2C6A22E0FF20BDE8F09F6068C0B1ED
:10EB00002046FFF7BBFA07460021FFF7EBFD38462A
:10EB1000FFF7F6FD87F801A039461F48FFF79AFD79
:10EB2000E168A4F802A0A760386AE0603C620C4685
:10EB300004E0E0686680A660E6600446002CDDD153
:10EB400048F8046C1548E96AFFF76EFAEE6299F826
:10EB5000000018B100212846F9F766FA2946104846
:10EB6000FFF762FA0C48DBF8001040688B78827877
:10EB70009A4209D981F801A00748DBF80010FFF795
:10EB800069FD0020FFF706FA0020B5E7A800002085
:10EB9000CC14002088000020B0DA0020D80D00201E
:10EBA000600C00200CFA000870B51A4D80B11A4AAA
:10EBB000128890421FD8194A02EB800050F8044C8A
:10EBC000CCB1A17084F824102868A04205D014E0CC
:10EBD00028688170286880F824101148406880787F
:10EBE000884215D90E482968FFF734FD29680120AD
:10EBF000487000200AE0FF2070BD2046FFF750FD5E
:10EC00006078012804D10648FFF738FAFFF7C2F907
:10EC1000002070BD880000200CFA0008CC140020F1
:10EC2000B0DA002002480068002800D0C0787047A1
:10EC3000880000200A0A4270017070470A0EC270F4
:10EC40000A0C82700A0A42700170704710B50346C0
:10EC500008200A1812F8012C202A01D0002205E011
:10EC6000401EF6D104E08C5C9C54521C8242FAD3C4
:10EC70000A7A202A0BD02E221A540822401C8C5CBF
:10EC8000202C04D01C54401C521C0B2AF7D300210A
:10EC9000195410BD1FB501466846FFF7D7FF01465E
:10ECA0004FF0FF326846FAF709FD04B010BD024686
:10ECB00000200146C30700D0802303EB5000535CC3
:10ECC000491C1844C0B20B29F4D3704770B50646EE
:10ECD0000C461546A9B204F11A0000F043F830784A
:10ECE000032804D1290C04F1140000F03BF870BD96
:10ECF00000F8011B090A00F8011B090A00F8011BB2
:10ED0000090A00F8011B704730B500F8012B110A01
:10ED100041EA03621B0A00F8012B110A41EA03626F
:10ED20001B0A00F8012B110A41EA03621B0A00F8D2
:10ED3000012B110A41EA03621B0A00F8012B110A98
:10ED400041EA03621B0A00F8012B110A41EA03623F
:10ED50001B0A00F8012B110A41EA03621B0A00F8A2
:10ED6000012B30BD00F8011B091200F8011B704790
:10ED700010B5044621460548F7F75EFC00BF802128
:10ED80000248F7F7BDFB0028F9D010BD0010014084
:10ED90002DE9F04104462068C568284600F012FBC2
:10EDA00080464146A81CFFF7DDFF6878471C2046D7
:10EDB000E16BF9F7B9FC064611E020222946606BA9
:10EDC000FEF7A4F901202168C870781E071E00D143
:10EDD0000CE0203500212046F9F78EFA06462EB9C0
:10EDE000216B2068FEF7A8F9061EE6D000BF0EB121
:10EDF000012E02D13046BDE8F0810220FBE730B59C
:10EE0000014600200B2200BF431003EBC01411F891
:10EE1000015B6319D8B2531E1A1EF5D130BD000034
:10EE200010B5134C207860B91248400705D112483C
:10EE300001681048FFF75EF908B1852010BDFFF7A3
:10EE4000CBFC0E49FF2009688870207858B9002152
:10EE50000B4800F05DF80B49086000210A4800F0FB
:10EE6000C3F80A490860012020700020607010BDBE
:10EE7000800000209812002040FA0008880000203E
:10EE800058FA00086400002048FA000860000020DA
:10EE900070B50F4D687808B1002070BD0D4C20682A
:10EEA00090F824100020FFF77FFE2068C178FF292A
:10EEB00003D1816A203181F30988616811B96060EA
:10EEC00000202060FFF7EEFC01206870E4E70000FE
:10EED000800000208800002070B5FEF7FBFB044690
:10EEE000FEF7F0FB0849094E0D686D1C48B1FEF7AE
:10EEF000F1FBA04200D204463068401C05FB0040F4
:10EF000070BD3068FAE7000020FA00089C0000207D
:10EF100010B5040005D0216819B1606808B1027805
:10EF20000AB1002010BD8900103189B2FFF740F905
:10EF3000606810BD3EB504000D464FF0800012D051
:10EF4000217801290FD12846FFF712FA0246204600
:10EF500001A9FFF7B3F9012801D0102003E00DB19A
:10EF6000402000E00020DDE9011203B030BD10B503
:10EF7000002804D004680CB1207808B1002010BD2E
:10EF80002046FFF717FA204610BD10B5FFF78AF8A4
:10EF900010B10178032901D0802010BDFFF712FACB
:10EFA000FF2801D0002010BD812010BD70B50D4696
:10EFB000FFF778F8040002D02078032801D08020E1
:10EFC00070BD2846FFF7D4F901462046FFF766FAE0
:10EFD000012803D0FF2804D0002070BD0DB1C1204E
:10EFE00070BD812070BD000070B50E46040029D0B0
:10EFF000206838B3606810F1030F23DB032821DC9D
:10F00000E16829B11048FEF72DFF05001AD000E095
:10F0100000256068E168001D40EA012133462A4668
:10F020002068FFF7BFFC40B1084901EB80000849A8
:10F0300050F8040C826A516370BD1DB12946024824
:10F04000FFF708F8002070BD98120020CC140020B3
:10F0500025D6000810B5FFF7E5FD002804D00349C8
:10F0600001EB800050F8040C10BD0000CC1400200F
:10F0700010B5FFF773FC18B1C18C19B1C46A02E076
:10F08000802010BD0024C078FFF7D0FCFF2806D0F8
:10F090001CB121460348FEF7DDFF002010BD812092
:10F0A00010BD00009812002010B5FEF7FBFF20B144
:10F0B00041690A680169104610BD0020014610BD73
:10F0C00070B50D00044607D0012D03D194F85C0003
:10F0D000022801D2002070BD94F86800012805D1F3
:10F0E00000212046F8F774FA0028F4D04FF0FF30E2
:10F0F000206684F86950012070BD000070B5044698
:10F10000204600F043F80546002D38D1207803282A
:10F110002ED1207901282BD14202002104F13400A4
:10F12000FEF701F84AF6552104F23220FFF71AFEE5
:10F13000144904F13400FFF7DBFD134904F50670B0
:10F14000FFF7D6FD04F507706169FFF7D1FD04F5FF
:10F1500008702169FFF7CCFD206A401C20636078AD
:10F16000012304F13401226BF9F716FC0020207111
:10F17000607800221146F9F781FB00B1012528468D
:10F1800070BD000052526141727241612DE9F0413F
:10F1900004460027E078F8B1256B607801232A4601
:10F1A00004F13401F9F7F8FB08B1012714E000205D
:10F1B000E070606A281AE16988420DD2A67809E0F9
:10F1C000E0690544607801232A4604F13401F9F727
:10F1D000E3FB761E022EF3D23846BDE8F081000034
:10F1E0002DE9F041134E7468002C1CD0A068124F1A
:10F1F000401E4FF00108A06012E0254624687460AC
:10F20000002229463868FDF796FA10B10420FEF76F
:10F2100031FA6879012808D085F80480002C02D0E2
:10F22000A0680028E9D0BDE8F0812846E968FFF72A
:10F230009FFBF3E78000002064000020F8B50C4637
:10F240000646022801D20120F8BD94F83600FDF7E9
:10F25000EFF8074635461FE0224669462846F7F78D
:10F26000B7FF0028F0D0224600212846F7F7FEFF1E
:10F270000028E9D094F83600032806D1A069401C84
:10F28000A061E06840F48070E060009DBD4207D05E
:10F29000022D01D20020F8BDE06C801CA842DBD812
:10F2A000E661D0E72DE9F04105460F462C4685B1D1
:10F2B000206870B12068007858B12068C088A188A3
:10F2C000884206D121684878F9F75CFB00F001001C
:10F2D00018B100203860092602E020683860002656
:10F2E0003046BDE8F0812DE9F04143690D46044602
:10F2F000CBB10026F5B1E56694F87C204FF4007799
:10F30000A2B3206F8118A94221D19A421FD2A06FC7
:10F3100054F8741F00EB42203A46F1F78EFA207A37
:10F32000401C20721FE0F5B1002200F033F80028E5
:10F330001AD018E094F87C20AAB1A368A16F206FBE
:10F34000DB68984700280FD084F87C600BE0A84267
:10F350000DD8A9420BD9A16F281A01EB40203A46DB
:10F36000616FF1F76AFA0120BDE8F08107E0A36858
:10F37000A16FDB6898470028F6D084F87C60D4E958
:10F380001D103A467034F1F758FA012025602073B9
:10F390006673E8E770B504460D46806A616F08B190
:10F3A000012A09D0A0680122C3682846984700288E
:10F3B00001D00120E56670BD0B4600222946FCF70E
:10F3C000CEFAF4E730B502465478641C6301002499
:10F3D0002046214610E0022901D1491C0BE000F033
:10F3E000010414B14FF4004400E0002404EB600475
:10F3F000555C2C44A0B2491C9942ECD330BD70B589
:10F40000064600241BE02846FBF730FA054604F0C8
:10F41000010010B14FF4004000E0002000EB640058
:10F42000E9B2084484B204F0010010B14FF4004086
:10F4300000E0002000EB640000EB252084B236F8E9
:10F44000021B0D1EDFD1204670BD000010B5002943
:10F450000AD00878002807D005487844F1F7B6FAB2
:10F46000002801D0002010BD0248784410BD0000E3
:10F47000060C0000FE0B00004FF04070E1EE100A99
:10F480007047809A45418E418F804545454949499D
:10F490008E8F9092924F994F555559999A9B9C9D5A
:10F4A0009E9F41494F55A5A5A6A7A8A9AAABACAD5B
:10F4B000AEAFB0B1B2B3B4B5B6B7B8B9BABBBCBDF4
:10F4C000BEBFC0C1C2C3C4C5C6C7C8C9CACBCCCDE4
:10F4D000CECFD0D1D2D3D4D5D6D7D8D9DADBDCDDD4
:10F4E000DEDFE0E1E2E3E4E5E6E7E8E9EAEBECEDC4
:10F4F000EEEFF0F1F2F3F4F5F6F7F8F9FAFBFCFDB4
:10F50000FEFF01030507090E10121416181C1E2217
:10F510002A2B2C2E3A3B3C3D3E3F5B5D7C7F00001E
:10F5200000040002000180004000200010000800DC
:10F5300004000200000000800040002000100008CD
:10F54000004000200010000800040002C700FC007A
:10F55000E900E200E400E000E500E700EA00EB007B
:10F56000E800EF00EE00EC00C400C500C900E600B2
:10F57000C600F400F600F200FB00F900FF00D60020
:10F58000DC00A200A300A500A7209201E100ED008D
:10F59000F300FA00F100D100AA00BA00BF00102366
:10F5A000AC00BD00BC00A100AB00BB0091259225C2
:10F5B0009325022524256125622556255525632599
:10F5C000512557255D255C255B25102514253425FF
:10F5D0002C251C2500253C255E255F255A25542514
:10F5E00069256625602550256C25672568256425D5
:10F5F000652559255825522553256B256A2518253B
:10F600000C25882584258C2590258025B103DF00D5
:10F610009303C003A303C303B500C403A603980365
:10F62000A903B4031E22C603B50329226122B10037
:10F630006522642220232123F7004822B0001922EA
:10F64000B7001A227F20B200A025A000610062004E
:10F6500063006400650066006700680069006A0076
:10F660006B006C006D006E006F0070007100720026
:10F6700073007400750076007700780079007A00D6
:10F68000A100A200A300A500AC00AF00E000E100D3
:10F69000E200E300E400E500E600E700E800E9003E
:10F6A000EA00EB00EC00ED00EE00EF00F000F100EE
:10F6B000F200F300F400F500F600F800F900FA009B
:10F6C000FB00FC00FD00FE00FF000101030105013D
:10F6D000070109010B010D010F01110113011501B2
:10F6E000170119011B011D011F0121012301250122
:10F6F000270129012B012D012F0131013301350192
:10F7000037013A013C013E014001420144014601FA
:10F7100048014B014D014F01510153015501570162
:10F7200059015B015D015F016101630165016701D1
:10F7300069016B016D016F01710173017501770141
:10F740007A017C017E019201B103B203B303B403D9
:10F75000B503B603B703B803B903BA03BB03BC03CD
:10F76000BD03BE03BF03C003C103C303C403C5037A
:10F77000C603C703C803C903CA03300431043204F3
:10F7800033043404350436043704380439043A04A5
:10F790003B043C043D043E043F0440044104420455
:10F7A00043044404450446044704480449044A0405
:10F7B0004B044C044D044E044F04510452045304B2
:10F7C0005404550456045704580459045A045B045D
:10F7D0005C045E045F047021712172217321742125
:10F7E000752176217721782179217A217B217C214D
:10F7F0007D217E217F2141FF42FF43FF44FF45FFE2
:10F8000046FF47FF48FF49FF4AFF4BFF4CFF4DFFB4
:10F810004EFF4FFF50FF51FF52FF53FF54FF55FF64
:10F8200056FF57FF58FF59FF5AFF000041004200A2
:10F8300043004400450046004700480049004A0094
:10F840004B004C004D004E004F0050005100520044
:10F8500053005400550056005700580059005A00F4
:10F860002100E0FFE1FFE5FFE2FFE3FFC000C10090
:10F87000C200C300C400C500C600C700C800C9005C
:10F88000CA00CB00CC00CD00CE00CF00D000D1000C
:10F89000D200D300D400D500D600D800D900DA00B9
:10F8A000DB00DC00DD00DE00780100010201040164
:10F8B000060108010A010C010E01100112011401D8
:10F8C000160118011A011C011E0120012201240148
:10F8D000260128012A012C012E01300132013401B8
:10F8E000360139013B013D013F0141014301450121
:10F8F00047014A014C014E01500152015401560189
:10F9000058015A015C015E016001620164016601F7
:10F9100068016A016C016E01700172017401760167
:10F9200079017B017D01910191039203930394037B
:10F93000950396039703980399039A039B039C03EB
:10F940009D039E039F03A003A103A303A403A50398
:10F95000A603A703A803A903AA0310041104120411
:10F9600013041404150416041704180419041A04C3
:10F970001B041C041D041E041F0420042104220473
:10F9800023042404250426042704280429042A0423
:10F990002B042C042D042E042F0401040204030460
:10F9A0000404050406040704080409040A040B04FB
:10F9B0000C040E040F046021612162216321642183
:10F9C000652166216721682169216A216B216C21EB
:10F9D0006D216E216F2121FF22FF23FF24FF25FFD0
:10F9E00026FF27FF28FF29FF2AFF2BFF2CFF2DFFD3
:10F9F0002EFF2FFF30FF31FF32FF33FF34FF35FF83
:10FA000036FF37FF38FF39FF3AFF000007000000DC
:10FA1000C800020105000100001BB7000C00000037
:10FA2000DF2E00000100000002000100520004006F
:10FA3000E80300000000000078010000C00400009E
:10FA4000B00100001000000049D6000802000000CC
:10FA500001000000C800000004000000E8140020BD
:10FA600000000000BDCC0008000000000100000004
:10FA7000C8000000020200010380000000000070C6
:10FA80000000017000000270000000005D330008FB
:10FA900015320008A133000841660008BD3C00088B
:10FAA00037230008AD6B00085D1B000821320008F9
:10FAB000F5600008B9600008E93E0008296A0008FE
:10FAC0003D26000859180008311E00082D33000893
:10FAD0005B3400083A535444494E003A5354444F5F
:10FAE0005554003A5354444552520000040001005A
:10FAF000D418002018190020000040080010000051
:10FB0000400000010403020101007A007B00FF0FA6
:10FB100012001100080000005C3D0020E4D8002025
:10FB2000DCD100205CD800209C450020BCD90020FE
:10FB30007DD40008ADD4000895D40008B9D40008DD
:10FB400089D4000871D40008DCD900204E30000DA3
:10FB5000B1330008456600082F4300083D3F000808
:10FB600029410008E93F00087D6A00080000000004
:10FB700085250008D1410008293200088961000864
:10FB8000100220044008801000211C023804700874
:10FB9000E010C0210110000002001000000241002E
:10FBA00001100000020010000004410001200000CC
:10FBB0000200200000044100012000000400200099
:10FBC0000004410002100000080020000004410071
:10FBD0000210040010002000000481000220080030
:10FBE00020002000000481000220100040002000BE
:10FBF0000004010102402000000120000002010178
:10FC000003404000000120000004010103404000C7
:10FC100000013F000004010103404000FF003F00DD
:10FC20000004010103404000FF003F000004010107
:10FC300001030507090E10121416181C1E000000FF
:10FC400000000000B71DC1046E3B8209D926430D98
:10FC5000DC7604136B6BC517B24D861A0550471E30
:10FC6000B8ED08260FF0C922D6D68A2F61CB4B2BD0
:10FC7000649B0C35D386CD310AA08E3CBDBD4F3878
:10FC800070DB114CC7C6D0481EE09345A9FD524118
:10FC9000ACAD155F1BB0D45BC2969756758B5652B0
:10FCA000C836196A7F2BD86EA60D9B6311105A6750
:10FCB00014401D79A35DDC7D7A7B9F70CD665E74F8
:10FCC000E0B6239857ABE29C8E8DA1913990609558
:10FCD0003CC0278B8BDDE68F52FBA582E5E6648670
:10FCE000585B2BBEEF46EABA3660A9B7817D68B390
:10FCF000842D2FAD3330EEA9EA16ADA45D0B6CA0B8
:10FD0000906D32D42770F3D0FE56B0DD494B71D9D7
:10FD10004C1B36C7FB06F7C32220B4CE953D75CAEF
:10FD200028803AF29F9DFBF646BBB8FBF1A679FF0F
:10FD3000F4F63EE143EBFFE59ACDBCE82DD07DEC37
:10FD400077708634C06D4730194B043DAE56C539C7
:10FD5000AB0682271C1B4323C53D002E7220C12AFF
:10FD6000CF9D8E1278804F16A1A60C1B16BBCD1FFF
:10FD700013EB8A01A4F64B057DD00808CACDC90C47
:10FD800007AB9778B0B6567C69901571DE8DD47547
:10FD9000DBDD936B6CC0526FB5E6116202FBD0667F
:10FDA000BF469F5E085B5E5AD17D1D576660DC537F
:10FDB00063309B4DD42D5A490D0B1944BA16D840C7
:10FDC00097C6A5AC20DB64A8F9FD27A54EE0E6A107
:10FDD0004BB0A1BFFCAD60BB258B23B69296E2B2BF
:10FDE0002F2BAD8A98366C8E41102F83F60DEE873F
:10FDF000F35DA9994440689D9D662B902A7BEA9407
:10FE0000E71DB4E0500075E4892636E93E3BF7ED86
:10FE10003B6BB0F38C7671F7555032FAE24DF3FE3E
:10FE20005FF0BCC6E8ED7DC231CB3ECF86D6FFCBBE
:10FE30008386B8D5349B79D1EDBD3ADC5AA0FBD886
:10FE4000EEE00C6959FDCD6D80DB8E6037C64F64E6
:10FE50003296087A858BC97E5CAD8A73EBB04B779E
:10FE6000560D044FE110C54B383686468F2B47425E
:10FE70008A7B005C3D66C158E4408255535D435126
:10FE80009E3B1D252926DC21F0009F2C471D5E2866
:10FE9000424D1936F550D8322C769B3F9B6B5A3B1E
:10FEA00026D6150391CBD40748ED970AFFF0560EDE
:10FEB000FAA011104DBDD014949B93192386521DA6
:10FEC0000E562FF1B94BEEF5606DADF8D7706CFCA6
:10FED000D2202BE2653DEAE6BC1BA9EB0B0668EFDE
:10FEE000B6BB27D701A6E6D3D880A5DE6F9D64DA1E
:10FEF0006ACD23C4DDD0E2C004F6A1CDB3EB60C966
:10FF00007E8D3EBDC990FFB910B6BCB4A7AB7DB025
:10FF1000A2FB3AAE15E6FBAACCC0B8A77BDD79A35D
:10FF2000C660369B717DF79FA85BB4921F4675969D
:10FF30001A163288AD0BF38C742DB081C3307185E5
:10FF400099908A5D2E8D4B59F7AB085440B6C95035
:10FF500045E68E4EF2FB4F4A2BDD0C479CC0CD434D
:10FF6000217D827B9660437F4F460072F85BC176AD
:10FF7000FD0B86684A16476C93300461242DC565D5
:10FF8000E94B9B115E565A1587701918306DD81CB5
:10FF9000353D9F0282205E065B061D0BEC1BDC0FCD
:10FFA00051A69337E6BB52333F9D113E8880D03A2D
:10FFB0008DD097243ACD5620E3EB152D54F6D42955
:10FFC0007926A9C5CE3B68C1171D2BCCA000EAC875
:10FFD000A550ADD6124D6CD2CB6B2FDF7C76EEDB0D
:10FFE000C1CBA1E376D660E7AFF023EA18EDE2EEED
:10FFF0001DBDA5F0AAA064F4738627F9C49BE6FD95
:020000040801F1
:1000000009FDB889BEE0798D67C63A80D0DBFB84F4
:10001000D58BBC9A62967D9EBBB03E930CADFF978C
:10002000B110B0AF060D71ABDF2B32A66836F3A26C
:100030006D66B4BCDA7B75B8035D36B5B440F7B114
:100040007001010800000020BC000000C40100088D
:100050002C020108BC00002084E10000E00100083F
:100060001001000043000000F8FFFFFF0040404087
:10007000404040404040414141414140404040407B
:100080004040404040404040404040404005020227
:1000900002020202020202020202020202202020E6
:1000A0002020202020202002020202020202909042
:1000B0009090909010101010101010101010101040
:1000C0001010101010101010020202020202888894
:1000D00088888888080808080808080808080808A0
:1000E0000808080808080808020202024000000088
:1000F0000000000000000000000000000000000000
:1001000000000000000000000000000000000000EF
:1001100000000000000000000000000000000000DF
:1001200000000000000000000000000000000000CF
:1001300000000000000000000000000000000000BF
:1001400000000000000000000000000000000000AF
:10015000000000000000000000000000000000009F
:10016000000000000000000000000000000000008F
:10017000000000000102030401020304060708094D
:10018000000000000000000000000000000000006F
:100190000300000000000000000002080000000052
:1001A000000000000000000000000000020000004D
:1001B000000000000000000000000000000000003F
:1001C0002A00000000000000000000000000000005
:1001D000000000000000000000000000000000001F
:1001E000000000000000000000000000000000000F
:1001F00000000000000000000000000000000000FF
:1002000000000000000000000000000000000000EE
:1002100000000000000000000000000000000000DE
:0C022000000000000000000000000000D2
:040000050800018965
:00000001FF
